{
  "contracts/XSynProtocol.sol": {
    "XSynProtocol": {
      "abi": [
        {
          "inputs": [
            {
              "internalType": "uint256",
              "name": "cratio",
              "type": "uint256"
            }
          ],
          "stateMutability": "nonpayable",
          "type": "constructor"
        },
        {
          "anonymous": false,
          "inputs": [
            {
              "indexed": false,
              "internalType": "string",
              "name": "name",
              "type": "string"
            },
            {
              "indexed": false,
              "internalType": "address",
              "name": "destination",
              "type": "address"
            }
          ],
          "name": "CacheUpdated",
          "type": "event"
        },
        {
          "anonymous": false,
          "inputs": [
            {
              "indexed": false,
              "internalType": "uint256",
              "name": "amount",
              "type": "uint256"
            }
          ],
          "name": "MinimumDepositAmountUpdated",
          "type": "event"
        },
        {
          "inputs": [],
          "name": "CONTRACTNAME",
          "outputs": [
            {
              "internalType": "string",
              "name": "",
              "type": "string"
            }
          ],
          "stateMutability": "view",
          "type": "function"
        },
        {
          "inputs": [],
          "name": "CONTRACT_NAME",
          "outputs": [
            {
              "internalType": "string",
              "name": "",
              "type": "string"
            }
          ],
          "stateMutability": "view",
          "type": "function"
        },
        {
          "inputs": [],
          "name": "_owner",
          "outputs": [
            {
              "internalType": "address",
              "name": "",
              "type": "address"
            }
          ],
          "stateMutability": "view",
          "type": "function"
        },
        {
          "inputs": [
            {
              "internalType": "string",
              "name": "",
              "type": "string"
            }
          ],
          "name": "addressCache",
          "outputs": [
            {
              "internalType": "address",
              "name": "",
              "type": "address"
            }
          ],
          "stateMutability": "view",
          "type": "function"
        },
        {
          "inputs": [],
          "name": "contractOwner",
          "outputs": [
            {
              "internalType": "address",
              "name": "",
              "type": "address"
            }
          ],
          "stateMutability": "view",
          "type": "function"
        },
        {
          "inputs": [
            {
              "internalType": "address",
              "name": "",
              "type": "address"
            },
            {
              "internalType": "string",
              "name": "",
              "type": "string"
            }
          ],
          "name": "debtTotalPool",
          "outputs": [
            {
              "internalType": "address payable",
              "name": "user",
              "type": "address"
            },
            {
              "internalType": "string",
              "name": "xSynSymbol",
              "type": "string"
            },
            {
              "internalType": "uint256",
              "name": "synthValue",
              "type": "uint256"
            },
            {
              "internalType": "uint256",
              "name": "totXDSwapped",
              "type": "uint256"
            },
            {
              "internalType": "bool",
              "name": "isXDUSD",
              "type": "bool"
            },
            {
              "internalType": "bool",
              "name": "isMinted",
              "type": "bool"
            },
            {
              "internalType": "bool",
              "name": "isSwapped",
              "type": "bool"
            }
          ],
          "stateMutability": "view",
          "type": "function"
        },
        {
          "inputs": [
            {
              "internalType": "address",
              "name": "",
              "type": "address"
            }
          ],
          "name": "deposits",
          "outputs": [
            {
              "internalType": "address payable",
              "name": "user",
              "type": "address"
            },
            {
              "internalType": "uint256",
              "name": "xdcDeposit",
              "type": "uint256"
            },
            {
              "internalType": "uint256",
              "name": "pliDeposit",
              "type": "uint256"
            },
            {
              "internalType": "uint256",
              "name": "xdUsdminted",
              "type": "uint256"
            },
            {
              "internalType": "enum Constants.TokenType",
              "name": "tok",
              "type": "uint8"
            }
          ],
          "stateMutability": "view",
          "type": "function"
        },
        {
          "inputs": [
            {
              "internalType": "address",
              "name": "_user",
              "type": "address"
            }
          ],
          "name": "getMyCollateralRatio",
          "outputs": [
            {
              "internalType": "uint256",
              "name": "_cratio",
              "type": "uint256"
            }
          ],
          "stateMutability": "view",
          "type": "function"
        },
        {
          "inputs": [],
          "name": "minCRatio",
          "outputs": [
            {
              "internalType": "uint256",
              "name": "",
              "type": "uint256"
            }
          ],
          "stateMutability": "view",
          "type": "function"
        },
        {
          "inputs": [],
          "name": "minimumPLIDepositAmount",
          "outputs": [
            {
              "internalType": "uint256",
              "name": "",
              "type": "uint256"
            }
          ],
          "stateMutability": "view",
          "type": "function"
        },
        {
          "inputs": [],
          "name": "minimumXDCDepositAmount",
          "outputs": [
            {
              "internalType": "uint256",
              "name": "",
              "type": "uint256"
            }
          ],
          "stateMutability": "view",
          "type": "function"
        },
        {
          "inputs": [
            {
              "internalType": "uint256",
              "name": "_pliVal",
              "type": "uint256"
            },
            {
              "internalType": "address",
              "name": "_tokenAddress",
              "type": "address"
            }
          ],
          "name": "mintxdUSDForPLI",
          "outputs": [
            {
              "internalType": "uint256",
              "name": "",
              "type": "uint256"
            }
          ],
          "stateMutability": "nonpayable",
          "type": "function"
        },
        {
          "inputs": [],
          "name": "mintxdUSDForXDC",
          "outputs": [
            {
              "internalType": "uint256",
              "name": "",
              "type": "uint256"
            }
          ],
          "stateMutability": "payable",
          "type": "function"
        },
        {
          "inputs": [
            {
              "internalType": "uint256",
              "name": "_minDeposit",
              "type": "uint256"
            }
          ],
          "name": "setMinDepositForPLI",
          "outputs": [],
          "stateMutability": "nonpayable",
          "type": "function"
        },
        {
          "inputs": [
            {
              "internalType": "uint256",
              "name": "_minDeposit",
              "type": "uint256"
            }
          ],
          "name": "setMinDepositForXDC",
          "outputs": [],
          "stateMutability": "nonpayable",
          "type": "function"
        },
        {
          "inputs": [
            {
              "internalType": "address",
              "name": "",
              "type": "address"
            }
          ],
          "name": "totalXDUSDMinted",
          "outputs": [
            {
              "internalType": "uint256",
              "name": "",
              "type": "uint256"
            }
          ],
          "stateMutability": "view",
          "type": "function"
        },
        {
          "inputs": [
            {
              "internalType": "address",
              "name": "",
              "type": "address"
            }
          ],
          "name": "totalXDUSDSwapped",
          "outputs": [
            {
              "internalType": "uint256",
              "name": "",
              "type": "uint256"
            }
          ],
          "stateMutability": "view",
          "type": "function"
        },
        {
          "inputs": [
            {
              "internalType": "address",
              "name": "",
              "type": "address"
            },
            {
              "internalType": "uint256",
              "name": "",
              "type": "uint256"
            }
          ],
          "name": "tradingPool",
          "outputs": [
            {
              "internalType": "address payable",
              "name": "user",
              "type": "address"
            },
            {
              "internalType": "string",
              "name": "xSynSymbol",
              "type": "string"
            },
            {
              "internalType": "uint256",
              "name": "synthValue",
              "type": "uint256"
            },
            {
              "internalType": "uint256",
              "name": "totXDSwapped",
              "type": "uint256"
            },
            {
              "internalType": "bool",
              "name": "isXDUSD",
              "type": "bool"
            },
            {
              "internalType": "bool",
              "name": "isMinted",
              "type": "bool"
            },
            {
              "internalType": "bool",
              "name": "isSwapped",
              "type": "bool"
            }
          ],
          "stateMutability": "view",
          "type": "function"
        },
        {
          "inputs": [
            {
              "internalType": "string",
              "name": "_name",
              "type": "string"
            },
            {
              "internalType": "address",
              "name": "_destination",
              "type": "address"
            }
          ],
          "name": "updateCache",
          "outputs": [],
          "stateMutability": "nonpayable",
          "type": "function"
        },
        {
          "inputs": [
            {
              "internalType": "address",
              "name": "_user",
              "type": "address"
            },
            {
              "internalType": "uint256",
              "name": "_totUsdSwapped",
              "type": "uint256"
            },
            {
              "internalType": "uint256",
              "name": "_totSynthsPurchased",
              "type": "uint256"
            },
            {
              "internalType": "string",
              "name": "_symbolPurchased",
              "type": "string"
            }
          ],
          "name": "updateDebtPool",
          "outputs": [],
          "stateMutability": "nonpayable",
          "type": "function"
        },
        {
          "stateMutability": "payable",
          "type": "receive"
        }
      ],
      "evm": {
        "bytecode": {
          "linkReferences": {
            "contracts/utils/SafeDecimalMath.sol": {
              "SafeDecimalMath": [
                {
                  "length": 20,
                  "start": 18
                },
                {
                  "length": 20,
                  "start": 147
                }
              ]
            }
          },
          "object": "60806040819052630241ebdb60e61b815273__$62ad3b859263eea2f18e8dce157c4af92c$__9063907af6c09060849060209060048186803b1580156200004557600080fd5b505af41580156200005a573d6000803e3d6000fd5b505050506040513d601f19601f820116820180604052508101906200008091906200017d565b6200008e9061271062000196565b60045573__$62ad3b859263eea2f18e8dce157c4af92c$__63907af6c06040518163ffffffff1660e01b815260040160206040518083038186803b158015620000d657600080fd5b505af4158015620000eb573d6000803e3d6000fd5b505050506040513d601f19601f820116820180604052508101906200011191906200017d565b6200011f90614e2062000196565b6005553480156200012f57600080fd5b50604051620030a3380380620030a383398101604081905262000152916200017d565b60018054336001600160a01b03199182168117909255600380549091169091179055600255620001c2565b6000602082840312156200018f578081fd5b5051919050565b6000816000190483118215151615620001bd57634e487b7160e01b81526011600452602481fd5b500290565b612ed180620001d26000396000f3fe6080604052600436106101235760003560e01c8063b1211f29116100a0578063e52346d011610064578063e52346d01461037c578063ea983a6d1461039c578063f1875744146103bc578063fc6f4c1b146103f4578063fc7e286d1461041457600080fd5b8063b1211f29146102c2578063b2bdfa7b146102ef578063b91a1ca61461030f578063c982e66f1461033c578063ce606ee01461035c57600080fd5b8063614d08f8116100e7578063614d08f8146101d9578063722a6b241461022157806383e1078714610241578063a4b19d0114610249578063ae1844d6146102a257600080fd5b8063056c5aa91461012f578063184212a2146101585780633b6fba1a1461018b5780635f230a61146101a1578063607573d3146101c357600080fd5b3661012a57005b600080fd5b34801561013b57600080fd5b5061014560045481565b6040519081526020015b60405180910390f35b34801561016457600080fd5b5061017861017336600461287b565b61047c565b60405161014f9796959493929190612a8e565b34801561019757600080fd5b5061014560055481565b3480156101ad57600080fd5b506101c16101bc3660046129c2565b610575565b005b3480156101cf57600080fd5b5061014560025481565b3480156101e557600080fd5b506102146040518060400160405280600f81526020016e20b2323932b9b9a932b9b7b63b32b960891b81525081565b60405161014f9190612b33565b34801561022d57600080fd5b5061014561023c366004612815565b6105b9565b610145610958565b34801561025557600080fd5b5061028a61026436600461293b565b80516020818301810180516000825292820191909301209152546001600160a01b031681565b6040516001600160a01b03909116815260200161014f565b3480156102ae57600080fd5b506101456102bd3660046129da565b610af4565b3480156102ce57600080fd5b506101456102dd366004612815565b60076020526000908152604090205481565b3480156102fb57600080fd5b5060015461028a906001600160a01b031681565b34801561031b57600080fd5b5061014561032a366004612815565b60066020526000908152604090205481565b34801561034857600080fd5b506101c16103573660046128a4565b610caf565b34801561036857600080fd5b5060035461028a906001600160a01b031681565b34801561038857600080fd5b506101c16103973660046129c2565b611384565b3480156103a857600080fd5b506101786103b736600461282f565b6113c1565b3480156103c857600080fd5b506102146040518060400160405280600c81526020016b1614de5b941c9bdd1bd8dbdb60a21b81525081565b34801561040057600080fd5b506101c161040f366004612976565b611409565b34801561042057600080fd5b5061046b61042f366004612815565b600860205260009081526040902080546001820154600283015460038401546004909401546001600160a01b0390931693919290919060ff1685565b60405161014f959493929190612ae0565b600a602052816000526040600020818154811061049857600080fd5b6000918252602090912060059091020180546001820180546001600160a01b0390921694509192506104c990612e19565b80601f01602080910402602001604051908101604052809291908181526020018280546104f590612e19565b80156105425780601f1061051757610100808354040283529160200191610542565b820191906000526020600020905b81548152906001019060200180831161052557829003601f168201915b505050600284015460038501546004909501549394909390925060ff808216925061010082048116916201000090041687565b61057d6114d7565b60058190556040518181527fa39eacd162ee82c70b2b030a1bc8fe89adcccc61122fad4821a8772dbcc54267906020015b60405180910390a150565b6001600160a01b0381166000908152600a6020908152604080832080548251818502810185019093528083528493849084015b8282101561070e5760008481526020908190206040805160e081019091526005850290910180546001600160a01b03168252600181018054929391929184019161063590612e19565b80601f016020809104026020016040519081016040528092919081815260200182805461066190612e19565b80156106ae5780601f10610683576101008083540402835291602001916106ae565b820191906000526020600020905b81548152906001019060200180831161069157829003601f168201915b505050918352505060028201546020808301919091526003830154604083015260049092015460ff8082161515606084015261010082048116151560808401526201000090910416151560a09091015290825260019290920191016105ec565b50505050905060008060008060005b855181101561091c5785818151811061074657634e487b7160e01b600052603260045260246000fd5b602002602001015160800151156108125785818151811061077757634e487b7160e01b600052603260045260246000fd5b602002602001015160a00151156107cd576107c68682815181106107ab57634e487b7160e01b600052603260045260246000fd5b6020026020010151604001518661154890919063ffffffff16565b945061090a565b61080b8682815181106107f057634e487b7160e01b600052603260045260246000fd5b6020026020010151604001518561154890919063ffffffff16565b935061090a565b6109076109006108206115ae565b6001600160a01b031663a40b18c289858151811061084e57634e487b7160e01b600052603260045260246000fd5b6020026020010151602001516040518263ffffffff1660e01b81526004016108769190612b33565b60206040518083038186803b15801561088e57600080fd5b505afa1580156108a2573d6000803e3d6000fd5b505050506040513d601f19601f820116820180604052508101906108c69190612923565b8884815181106108e657634e487b7160e01b600052603260045260246000fd5b6020026020010151604001516115e290919063ffffffff16565b8390611548565b91505b8061091481612e54565b91505061071d565b50828411156109365761092f8484611661565b9150610943565b6109408385611661565b91505b61094d8183611548565b979650505050505050565b60006004543410156109855760405162461bcd60e51b815260040161097c90612c3e565b60405180910390fd5b600061098f6115ae565b6001600160a01b031663d7a356be6040518163ffffffff1660e01b81526004016109b890612bc2565b602060405180830381600087803b1580156109d257600080fd5b505af11580156109e6573d6000803e3d6000fd5b505050506040513d601f19601f82011682018060405250810190610a0a9190612923565b90506000610a9d610a196115ae565b6001600160a01b031663dd953fb0846040518263ffffffff1660e01b8152600401610a4691815260200190565b60206040518083038186803b158015610a5e57600080fd5b505afa158015610a72573d6000803e3d6000fd5b505050506040513d601f19601f82011682018060405250810190610a969190612923565b34906116a3565b90506000610ab6600254836116c590919063ffffffff16565b33600090815260066020526040902054909150610ad39082611548565b33600090815260066020526040902055610aec81611707565b935050505090565b6000600554831015610b185760405162461bcd60e51b815260040161097c90612b70565b6000610b226115ae565b6001600160a01b031663d7a356be6040518163ffffffff1660e01b8152600401610b4b90612c00565b602060405180830381600087803b158015610b6557600080fd5b505af1158015610b79573d6000803e3d6000fd5b505050506040513d601f19601f82011682018060405250810190610b9d9190612923565b90506000610c30610bac6115ae565b6001600160a01b031663dd953fb0846040518263ffffffff1660e01b8152600401610bd991815260200190565b60206040518083038186803b158015610bf157600080fd5b505afa158015610c05573d6000803e3d6000fd5b505050506040513d601f19601f82011682018060405250810190610c299190612923565b86906116a3565b90506000610c49600254836116c590919063ffffffff16565b33600090815260066020526040902054909150610c669082611548565b33600081815260066020526040902091909155610c84908688611ce2565b610c8f338688611dc5565b610c998686611ea3565b610ca38187611f29565b93505050505b92915050565b610cb76124af565b6001600160a01b0384166000908152600960205260408082209051610cdd908490612a28565b90815260408051918290036020908101832060e0840190925281546001600160a01b0316835260018201805491840191610d1690612e19565b80601f0160208091040260200160405190810160405280929190818152602001828054610d4290612e19565b8015610d8f5780601f10610d6457610100808354040283529160200191610d8f565b820191906000526020600020905b815481529060010190602001808311610d7257829003601f168201915b505050918352505060028201546020820152600382015460408083019190915260049092015460ff8082161515606084015261010082048116151560808401526201000090910416151560a090910152810151909150600090610df29085611548565b6040805160e0810182526001600160a01b0389168082526020808301889052828401859052606083018a905260006080840181905260a08401819052600160c085015291825260099052829020915192935091610e50908690612a28565b90815260405160209181900382019020825181546001600160a01b0319166001600160a01b039091161781558282015180519192610e969260018501929091019061265e565b5060408281015160028301556060830151600383015560808301516004909201805460a085015160c0909501511515620100000262ff0000199515156101000261ff00199515159590951661ffff1990921691909117939093179390931691909117909155336000908152600a60209081528282206009909152908290209151909190610f24908690612a28565b908152604051908190036020908101909120825460018181018555600094855292909320815460059094020180546001600160a01b0319166001600160a01b039094169390931783558181018054919392830191610f8190612e19565b610f8c9291906126e2565b5060028281015490820155600380830154908201556004918201805492909101805460ff938416151560ff19821681178355835461010090819004861615150261ff001990911661ffff19909216919091171780825591546201000090819004909316151590920262ff0000199091161790556001600160a01b038616600090815260096020526040808220905161102390612a44565b90815260408051918290036020908101832060e0840190925281546001600160a01b031683526001820180549184019161105c90612e19565b80601f016020809104026020016040519081016040528092919081815260200182805461108890612e19565b80156110d55780601f106110aa576101008083540402835291602001916110d5565b820191906000526020600020905b8154815290600101906020018083116110b857829003601f168201915b505050918352505060028201546020820152600382015460408083019190915260049092015460ff8082161515606084015261010082048116151560808401526201000090910416151560a0909101528101519091506000906111389088611661565b90506040518060e00160405280896001600160a01b031681526020016040518060400160405280600581526020016416111554d160da1b815250815260200182815260200188815260200160011515815260200160001515815260200160011515815250600960008a6001600160a01b03166001600160a01b031681526020019081526020016000206040516111cd90612a44565b90815260405160209181900382019020825181546001600160a01b0319166001600160a01b0390911617815582820151805191926112139260018501929091019061265e565b5060408281015160028301556060830151600383015560808301516004909201805460a085015160c0909501511515620100000262ff0000199515156101000261ff00199515159590951661ffff1990921691909117939093179390931691909117909155336000908152600a6020908152828220600990915290829020915190919061129f90612a44565b908152604051908190036020908101909120825460018181018555600094855292909320815460059094020180546001600160a01b0319166001600160a01b0390941693909317835581810180549193928301916112fc90612e19565b6113079291906126e2565b5060028281015490820155600380830154908201556004918201805492909101805460ff938416151560ff19821681178355835461010090819004861615150261ff001990911661ffff19909216919091171780825591546201000090819004909316151590920262ff0000199091161790555050505050505050565b61138c6114d7565b60048190556040518181527fa39eacd162ee82c70b2b030a1bc8fe89adcccc61122fad4821a8772dbcc54267906020016105ae565b60096020908152600092835260409092208151808301840180519281529084019290930191909120915280546001820180546001600160a01b0390921692916104c990612e19565b6001546001600160a01b0316331461145b5760405162461bcd60e51b81526020600482015260156024820152746f6e6c79206f776e65722063616e2075706461746560581b604482015260640161097c565b8060008360405161146c9190612a28565b90815260405190819003602001812080546001600160a01b03939093166001600160a01b0319909316929092179091557f0f721ab865154f222f0053098fb6752276624e5310bcb2bb9269d205ece331d5906114cb9084908490612b46565b60405180910390a15050565b6003546001600160a01b031633146115465760405162461bcd60e51b815260206004820152602c60248201527f4f6e6c79205853796e50726f746f636f6c2063616e20706572666f726d20746860448201526b34b99037b832b930ba34b7b760a11b606482015260840161097c565b565b6000806115558385612c90565b9050838110156115a75760405162461bcd60e51b815260206004820152601b60248201527f536166654d6174683a206164646974696f6e206f766572666c6f770000000000604482015260640161097c565b9392505050565b60006115dd6040518060400160405280600c81526020016b45584348414e47455241544560a01b81525061252c565b905090565b6000826115f157506000610ca9565b60006115fd8385612db3565b90508261160a8583612ca8565b146115a75760405162461bcd60e51b815260206004820152602160248201527f536166654d6174683a206d756c7469706c69636174696f6e206f766572666c6f6044820152607760f81b606482015260840161097c565b60006115a783836040518060400160405280601e81526020017f536166654d6174683a207375627472616374696f6e206f766572666c6f77000081525061259f565b60006116b16012600a612d0b565b6116bb84846115e2565b6115a79190612ca8565b60006115a783836040518060400160405280601a81526020017f536166654d6174683a206469766973696f6e206279207a65726f0000000000008152506125d9565b600060045434101561172b5760405162461bcd60e51b815260040161097c90612c3e565b336000908152600860209081526040808320815160a08101835281546001600160a01b031681526001808301549482019490945260028201549281019290925260038101546060830152600481015491929091608084019160ff909116908111156117a657634e487b7160e01b600052602160045260246000fd5b60018111156117c557634e487b7160e01b600052602160045260246000fd5b90525060208101519091506000906117dd9034611548565b905060006117f885846060015161154890919063ffffffff16565b90506040518060a0016040528084600001516001600160a01b03168152602001838152602001846040015181526020018281526020016000600181111561184f57634e487b7160e01b600052602160045260246000fd5b600181111561186e57634e487b7160e01b600052602160045260246000fd5b905233600090815260086020908152604091829020835181546001600160a01b0319166001600160a01b039091161781559083015160018083019190915591830151600282015560608301516003820155608083015160048201805492939192909160ff199091169083818111156118f657634e487b7160e01b600052602160045260246000fd5b0217905550503360009081526009602052604080822090519192509061191b90612a44565b90815260408051918290036020908101832060e0840190925281546001600160a01b031683526001820180549184019161195490612e19565b80601f016020809104026020016040519081016040528092919081815260200182805461198090612e19565b80156119cd5780601f106119a2576101008083540402835291602001916119cd565b820191906000526020600020905b8154815290600101906020018083116119b057829003601f168201915b505050918352505060028201546020820152600382015460408083019190915260049092015460ff8082161515606084015261010082048116151560808401526201000090910416151560a090910152810151909150600090611a309084611548565b6040805160e0810182523380825282518084018452600581526416111554d160da1b6020828101919091528084019190915282840185905260006060840181905260016080850181905260a085015260c0840181905291825260099052829020915192935091611a9f90612a44565b90815260405160209181900382019020825181546001600160a01b0319166001600160a01b039091161781558282015180519192611ae59260018501929091019061265e565b5060408281015160028301556060830151600383015560808301516004909201805460a085015160c0909501511515620100000262ff0000199515156101000261ff00199515159590951661ffff1990921691909117939093179390931691909117909155336000908152600a60209081528282206009909152908290209151909190611b7190612a44565b908152604051908190036020908101909120825460018181018555600094855292909320815460059094020180546001600160a01b0319166001600160a01b039094169390931783558181018054919392830191611bce90612e19565b611bd99291906126e2565b5060028281015490820155600380830154908201556004918201805492909101805460ff938416151560ff19821681178355835461010090819004861615150261ff001990911661ffff19909216919091171780825591546201000090819004909316151590920262ff000019909116179055611c54612607565b6040516340c10f1960e01b8152336004820152602481018990526001600160a01b0391909116906340c10f1990604401602060405180830381600087803b158015611c9e57600080fd5b505af1158015611cb2573d6000803e3d6000fd5b505050506040513d601f19601f82011682018060405250810190611cd69190612903565b50959695505050505050565b6040516370a0823160e01b81526001600160a01b0384811660048301528291908416906370a082319060240160206040518083038186803b158015611d2657600080fd5b505afa158015611d3a573d6000803e3d6000fd5b505050506040513d601f19601f82011682018060405250810190611d5e9190612923565b1015611dc05760405162461bcd60e51b815260206004820152602b60248201527f5852433230476174657761793a20696e73756666696369656e7420637572726560448201526a6e63792062616c616e636560a81b606482015260840161097c565b505050565b604051636eb1769f60e11b81526001600160a01b03848116600483015230602483015282919084169063dd62ed3e9060440160206040518083038186803b158015611e0f57600080fd5b505afa158015611e23573d6000803e3d6000fd5b505050506040513d601f19601f82011682018060405250810190611e479190612923565b1015611dc05760405162461bcd60e51b815260206004820152602560248201527f5852433230476174657761793a20696e73756666696369656e7420616c6c6f7760448201526430b731b29760d91b606482015260840161097c565b6040516323b872dd60e01b8152336004820152306024820152604481018390526001600160a01b038216906323b872dd90606401602060405180830381600087803b158015611ef157600080fd5b505af1158015611f05573d6000803e3d6000fd5b505050506040513d601f19601f82011682018060405250810190611dc09190612903565b6000600554821015611f4d5760405162461bcd60e51b815260040161097c90612b70565b336000908152600860209081526040808320815160a08101835281546001600160a01b031681526001808301549482019490945260028201549281019290925260038101546060830152600481015491929091608084019160ff90911690811115611fc857634e487b7160e01b600052602160045260246000fd5b6001811115611fe757634e487b7160e01b600052602160045260246000fd5b9052506040810151909150600090611fff9085611548565b9050600061201a86846060015161154890919063ffffffff16565b6040805160a08101825285516001600160a01b03908116825260208088015181840190815283850188815260608501878152600160808701818152336000908152600890965297909420865181546001600160a01b031916961695909517855591518484015551600284015551600383015592516004820180549596509294919390929160ff19169083818111156120c257634e487b7160e01b600052602160045260246000fd5b021790555050336000908152600960205260408082209051919250906120e790612a44565b90815260408051918290036020908101832060e0840190925281546001600160a01b031683526001820180549184019161212090612e19565b80601f016020809104026020016040519081016040528092919081815260200182805461214c90612e19565b80156121995780601f1061216e57610100808354040283529160200191612199565b820191906000526020600020905b81548152906001019060200180831161217c57829003601f168201915b505050918352505060028201546020820152600382015460408083019190915260049092015460ff8082161515606084015261010082048116151560808401526201000090910416151560a0909101528101519091506000906121fc9084611548565b6040805160e0810182523380825282518084018452600581526416111554d160da1b6020828101919091528084019190915282840185905260006060840181905260016080850181905260a085015260c084018190529182526009905282902091519293509161226b90612a44565b90815260405160209181900382019020825181546001600160a01b0319166001600160a01b0390911617815582820151805191926122b19260018501929091019061265e565b5060408281015160028301556060830151600383015560808301516004909201805460a085015160c0909501511515620100000262ff0000199515156101000261ff00199515159590951661ffff1990921691909117939093179390931691909117909155336000908152600a6020908152828220600990915290829020915190919061233d90612a44565b908152604051908190036020908101909120825460018181018555600094855292909320815460059094020180546001600160a01b0319166001600160a01b03909416939093178355818101805491939283019161239a90612e19565b6123a59291906126e2565b5060028281015490820155600380830154908201556004918201805492909101805460ff938416151560ff19821681178355835461010090819004861615150261ff001990911661ffff19909216919091171780825591546201000090819004909316151590920262ff000019909116179055612420612607565b6040516340c10f1960e01b8152336004820152602481018a90526001600160a01b0391909116906340c10f1990604401602060405180830381600087803b15801561246a57600080fd5b505af115801561247e573d6000803e3d6000fd5b505050506040513d601f19601f820116820180604052508101906124a29190612903565b5096979650505050505050565b6124b761262f565b6001600160a01b0316336001600160a01b0316146115465760405162461bcd60e51b815260206004820152602c60248201527f4f6e6c79205873796e45786368616e67652063616e20706572666f726d20746860448201526b34b99037b832b930ba34b7b760a11b606482015260840161097c565b60008060008360405161253f9190612a28565b90815260405160209181900382018120546001600160a01b031692508215159161256b91869101612a55565b604051602081830303815290604052906125985760405162461bcd60e51b815260040161097c9190612b33565b5092915050565b600081848411156125c35760405162461bcd60e51b815260040161097c9190612b33565b5060006125d08486612dd2565b95945050505050565b600081836125fa5760405162461bcd60e51b815260040161097c9190612b33565b5060006125d08486612ca8565b60006115dd6040518060400160405280600581526020016416111554d160da1b81525061252c565b60006115dd6040518060400160405280600c81526020016b5853796e45786368616e676560a01b81525061252c565b82805461266a90612e19565b90600052602060002090601f01602090048101928261268c57600085556126d2565b82601f106126a557805160ff19168380011785556126d2565b828001600101855582156126d2579182015b828111156126d25782518255916020019190600101906126b7565b506126de92915061275d565b5090565b8280546126ee90612e19565b90600052602060002090601f01602090048101928261271057600085556126d2565b82601f1061272157805485556126d2565b828001600101855582156126d257600052602060002091601f016020900482015b828111156126d2578254825591600101919060010190612742565b5b808211156126de576000815560010161275e565b80356001600160a01b038116811461278957600080fd5b919050565b600082601f83011261279e578081fd5b813567ffffffffffffffff808211156127b9576127b9612e85565b604051601f8301601f19908116603f011681019082821181831017156127e1576127e1612e85565b816040528381528660208588010111156127f9578485fd5b8360208701602083013792830160200193909352509392505050565b600060208284031215612826578081fd5b6115a782612772565b60008060408385031215612841578081fd5b61284a83612772565b9150602083013567ffffffffffffffff811115612865578182fd5b6128718582860161278e565b9150509250929050565b6000806040838503121561288d578182fd5b61289683612772565b946020939093013593505050565b600080600080608085870312156128b9578182fd5b6128c285612772565b93506020850135925060408501359150606085013567ffffffffffffffff8111156128eb578182fd5b6128f78782880161278e565b91505092959194509250565b600060208284031215612914578081fd5b815180151581146115a7578182fd5b600060208284031215612934578081fd5b5051919050565b60006020828403121561294c578081fd5b813567ffffffffffffffff811115612962578182fd5b61296e8482850161278e565b949350505050565b60008060408385031215612988578182fd5b823567ffffffffffffffff81111561299e578283fd5b6129aa8582860161278e565b9250506129b960208401612772565b90509250929050565b6000602082840312156129d3578081fd5b5035919050565b600080604083850312156129ec578182fd5b823591506129b960208401612772565b60008151808452612a14816020860160208601612de9565b601f01601f19169290920160200192915050565b60008251612a3a818460208701612de9565b9190910192915050565b6416111554d160da1b815260050190565b70026b4b9b9b4b7339030b2323932b9b99d1607d1b815260008251612a81816011850160208701612de9565b9190910160110192915050565b6001600160a01b038816815260e060208201819052600090612ab2908301896129fc565b60408301979097525060608101949094529115156080840152151560a0830152151560c09091015292915050565b6001600160a01b038616815260208101859052604081018490526060810183905260a0810160028310612b2357634e487b7160e01b600052602160045260246000fd5b8260808301529695505050505050565b6020815260006115a760208301846129fc565b604081526000612b5960408301856129fc565b905060018060a01b03831660208301529392505050565b60208082526032908201527f504c4920616d6f756e742053686f756c64206265206d696e696d756d504c4944604082015271195c1bdcda5d105b5bdd5b9d081b1a5b5a5d60721b606082015260800190565b60408152600360408201526258444360e81b6060820152608060208201526000610ca96080830160048152631554d11560e21b602082015260400190565b604081526003604082015262504c4960e81b6060820152608060208201526000610ca96080830160048152631554d11560e21b602082015260400190565b60208082526032908201527f58444320616d6f756e742053686f756c64206265206d696e696d756d58444344604082015271195c1bdcda5d105b5bdd5b9d081b1a5b5a5d60721b606082015260800190565b60008219821115612ca357612ca3612e6f565b500190565b600082612cc357634e487b7160e01b81526012600452602481fd5b500490565b600181815b80851115612d03578160001904821115612ce957612ce9612e6f565b80851615612cf657918102915b93841c9390800290612ccd565b509250929050565b60006115a78383600082612d2157506001610ca9565b81612d2e57506000610ca9565b8160018114612d445760028114612d4e57612d6a565b6001915050610ca9565b60ff841115612d5f57612d5f612e6f565b50506001821b610ca9565b5060208310610133831016604e8410600b8410161715612d8d575081810a610ca9565b612d978383612cc8565b8060001904821115612dab57612dab612e6f565b029392505050565b6000816000190483118215151615612dcd57612dcd612e6f565b500290565b600082821015612de457612de4612e6f565b500390565b60005b83811015612e04578181015183820152602001612dec565b83811115612e13576000848401525b50505050565b600181811c90821680612e2d57607f821691505b60208210811415612e4e57634e487b7160e01b600052602260045260246000fd5b50919050565b6000600019821415612e6857612e68612e6f565b5060010190565b634e487b7160e01b600052601160045260246000fd5b634e487b7160e01b600052604160045260246000fdfea2646970667358221220acc2fd32c462f67eafb79f79b12eba8edb6e75a2e6515bc05b4f2e40c1a9667764736f6c63430008040033",
          "opcodes": "PUSH1 0x80 PUSH1 0x40 DUP2 SWAP1 MSTORE PUSH4 0x241EBDB PUSH1 0xE6 SHL DUP2 MSTORE PUSH20 0x0 SWAP1 PUSH4 0x907AF6C0 SWAP1 PUSH1 0x84 SWAP1 PUSH1 0x20 SWAP1 PUSH1 0x4 DUP2 DUP7 DUP1 EXTCODESIZE ISZERO DUP1 ISZERO PUSH3 0x45 JUMPI PUSH1 0x0 DUP1 REVERT JUMPDEST POP GAS DELEGATECALL ISZERO DUP1 ISZERO PUSH3 0x5A JUMPI RETURNDATASIZE PUSH1 0x0 DUP1 RETURNDATACOPY RETURNDATASIZE PUSH1 0x0 REVERT JUMPDEST POP POP POP POP PUSH1 0x40 MLOAD RETURNDATASIZE PUSH1 0x1F NOT PUSH1 0x1F DUP3 ADD AND DUP3 ADD DUP1 PUSH1 0x40 MSTORE POP DUP2 ADD SWAP1 PUSH3 0x80 SWAP2 SWAP1 PUSH3 0x17D JUMP JUMPDEST PUSH3 0x8E SWAP1 PUSH2 0x2710 PUSH3 0x196 JUMP JUMPDEST PUSH1 0x4 SSTORE PUSH20 0x0 PUSH4 0x907AF6C0 PUSH1 0x40 MLOAD DUP2 PUSH4 0xFFFFFFFF AND PUSH1 0xE0 SHL DUP2 MSTORE PUSH1 0x4 ADD PUSH1 0x20 PUSH1 0x40 MLOAD DUP1 DUP4 SUB DUP2 DUP7 DUP1 EXTCODESIZE ISZERO DUP1 ISZERO PUSH3 0xD6 JUMPI PUSH1 0x0 DUP1 REVERT JUMPDEST POP GAS DELEGATECALL ISZERO DUP1 ISZERO PUSH3 0xEB JUMPI RETURNDATASIZE PUSH1 0x0 DUP1 RETURNDATACOPY RETURNDATASIZE PUSH1 0x0 REVERT JUMPDEST POP POP POP POP PUSH1 0x40 MLOAD RETURNDATASIZE PUSH1 0x1F NOT PUSH1 0x1F DUP3 ADD AND DUP3 ADD DUP1 PUSH1 0x40 MSTORE POP DUP2 ADD SWAP1 PUSH3 0x111 SWAP2 SWAP1 PUSH3 0x17D JUMP JUMPDEST PUSH3 0x11F SWAP1 PUSH2 0x4E20 PUSH3 0x196 JUMP JUMPDEST PUSH1 0x5 SSTORE CALLVALUE DUP1 ISZERO PUSH3 0x12F JUMPI PUSH1 0x0 DUP1 REVERT JUMPDEST POP PUSH1 0x40 MLOAD PUSH3 0x30A3 CODESIZE SUB DUP1 PUSH3 0x30A3 DUP4 CODECOPY DUP2 ADD PUSH1 0x40 DUP2 SWAP1 MSTORE PUSH3 0x152 SWAP2 PUSH3 0x17D JUMP JUMPDEST PUSH1 0x1 DUP1 SLOAD CALLER PUSH1 0x1 PUSH1 0x1 PUSH1 0xA0 SHL SUB NOT SWAP2 DUP3 AND DUP2 OR SWAP1 SWAP3 SSTORE PUSH1 0x3 DUP1 SLOAD SWAP1 SWAP2 AND SWAP1 SWAP2 OR SWAP1 SSTORE PUSH1 0x2 SSTORE PUSH3 0x1C2 JUMP JUMPDEST PUSH1 0x0 PUSH1 0x20 DUP3 DUP5 SUB SLT ISZERO PUSH3 0x18F JUMPI DUP1 DUP2 REVERT JUMPDEST POP MLOAD SWAP2 SWAP1 POP JUMP JUMPDEST PUSH1 0x0 DUP2 PUSH1 0x0 NOT DIV DUP4 GT DUP3 ISZERO ISZERO AND ISZERO PUSH3 0x1BD JUMPI PUSH4 0x4E487B71 PUSH1 0xE0 SHL DUP2 MSTORE PUSH1 0x11 PUSH1 0x4 MSTORE PUSH1 0x24 DUP2 REVERT JUMPDEST POP MUL SWAP1 JUMP JUMPDEST PUSH2 0x2ED1 DUP1 PUSH3 0x1D2 PUSH1 0x0 CODECOPY PUSH1 0x0 RETURN INVALID PUSH1 0x80 PUSH1 0x40 MSTORE PUSH1 0x4 CALLDATASIZE LT PUSH2 0x123 JUMPI PUSH1 0x0 CALLDATALOAD PUSH1 0xE0 SHR DUP1 PUSH4 0xB1211F29 GT PUSH2 0xA0 JUMPI DUP1 PUSH4 0xE52346D0 GT PUSH2 0x64 JUMPI DUP1 PUSH4 0xE52346D0 EQ PUSH2 0x37C JUMPI DUP1 PUSH4 0xEA983A6D EQ PUSH2 0x39C JUMPI DUP1 PUSH4 0xF1875744 EQ PUSH2 0x3BC JUMPI DUP1 PUSH4 0xFC6F4C1B EQ PUSH2 0x3F4 JUMPI DUP1 PUSH4 0xFC7E286D EQ PUSH2 0x414 JUMPI PUSH1 0x0 DUP1 REVERT JUMPDEST DUP1 PUSH4 0xB1211F29 EQ PUSH2 0x2C2 JUMPI DUP1 PUSH4 0xB2BDFA7B EQ PUSH2 0x2EF JUMPI DUP1 PUSH4 0xB91A1CA6 EQ PUSH2 0x30F JUMPI DUP1 PUSH4 0xC982E66F EQ PUSH2 0x33C JUMPI DUP1 PUSH4 0xCE606EE0 EQ PUSH2 0x35C JUMPI PUSH1 0x0 DUP1 REVERT JUMPDEST DUP1 PUSH4 0x614D08F8 GT PUSH2 0xE7 JUMPI DUP1 PUSH4 0x614D08F8 EQ PUSH2 0x1D9 JUMPI DUP1 PUSH4 0x722A6B24 EQ PUSH2 0x221 JUMPI DUP1 PUSH4 0x83E10787 EQ PUSH2 0x241 JUMPI DUP1 PUSH4 0xA4B19D01 EQ PUSH2 0x249 JUMPI DUP1 PUSH4 0xAE1844D6 EQ PUSH2 0x2A2 JUMPI PUSH1 0x0 DUP1 REVERT JUMPDEST DUP1 PUSH4 0x56C5AA9 EQ PUSH2 0x12F JUMPI DUP1 PUSH4 0x184212A2 EQ PUSH2 0x158 JUMPI DUP1 PUSH4 0x3B6FBA1A EQ PUSH2 0x18B JUMPI DUP1 PUSH4 0x5F230A61 EQ PUSH2 0x1A1 JUMPI DUP1 PUSH4 0x607573D3 EQ PUSH2 0x1C3 JUMPI PUSH1 0x0 DUP1 REVERT JUMPDEST CALLDATASIZE PUSH2 0x12A JUMPI STOP JUMPDEST PUSH1 0x0 DUP1 REVERT JUMPDEST CALLVALUE DUP1 ISZERO PUSH2 0x13B JUMPI PUSH1 0x0 DUP1 REVERT JUMPDEST POP PUSH2 0x145 PUSH1 0x4 SLOAD DUP2 JUMP JUMPDEST PUSH1 0x40 MLOAD SWAP1 DUP2 MSTORE PUSH1 0x20 ADD JUMPDEST PUSH1 0x40 MLOAD DUP1 SWAP2 SUB SWAP1 RETURN JUMPDEST CALLVALUE DUP1 ISZERO PUSH2 0x164 JUMPI PUSH1 0x0 DUP1 REVERT JUMPDEST POP PUSH2 0x178 PUSH2 0x173 CALLDATASIZE PUSH1 0x4 PUSH2 0x287B JUMP JUMPDEST PUSH2 0x47C JUMP JUMPDEST PUSH1 0x40 MLOAD PUSH2 0x14F SWAP8 SWAP7 SWAP6 SWAP5 SWAP4 SWAP3 SWAP2 SWAP1 PUSH2 0x2A8E JUMP JUMPDEST CALLVALUE DUP1 ISZERO PUSH2 0x197 JUMPI PUSH1 0x0 DUP1 REVERT JUMPDEST POP PUSH2 0x145 PUSH1 0x5 SLOAD DUP2 JUMP JUMPDEST CALLVALUE DUP1 ISZERO PUSH2 0x1AD JUMPI PUSH1 0x0 DUP1 REVERT JUMPDEST POP PUSH2 0x1C1 PUSH2 0x1BC CALLDATASIZE PUSH1 0x4 PUSH2 0x29C2 JUMP JUMPDEST PUSH2 0x575 JUMP JUMPDEST STOP JUMPDEST CALLVALUE DUP1 ISZERO PUSH2 0x1CF JUMPI PUSH1 0x0 DUP1 REVERT JUMPDEST POP PUSH2 0x145 PUSH1 0x2 SLOAD DUP2 JUMP JUMPDEST CALLVALUE DUP1 ISZERO PUSH2 0x1E5 JUMPI PUSH1 0x0 DUP1 REVERT JUMPDEST POP PUSH2 0x214 PUSH1 0x40 MLOAD DUP1 PUSH1 0x40 ADD PUSH1 0x40 MSTORE DUP1 PUSH1 0xF DUP2 MSTORE PUSH1 0x20 ADD PUSH15 0x20B2323932B9B9A932B9B7B63B32B9 PUSH1 0x89 SHL DUP2 MSTORE POP DUP2 JUMP JUMPDEST PUSH1 0x40 MLOAD PUSH2 0x14F SWAP2 SWAP1 PUSH2 0x2B33 JUMP JUMPDEST CALLVALUE DUP1 ISZERO PUSH2 0x22D JUMPI PUSH1 0x0 DUP1 REVERT JUMPDEST POP PUSH2 0x145 PUSH2 0x23C CALLDATASIZE PUSH1 0x4 PUSH2 0x2815 JUMP JUMPDEST PUSH2 0x5B9 JUMP JUMPDEST PUSH2 0x145 PUSH2 0x958 JUMP JUMPDEST CALLVALUE DUP1 ISZERO PUSH2 0x255 JUMPI PUSH1 0x0 DUP1 REVERT JUMPDEST POP PUSH2 0x28A PUSH2 0x264 CALLDATASIZE PUSH1 0x4 PUSH2 0x293B JUMP JUMPDEST DUP1 MLOAD PUSH1 0x20 DUP2 DUP4 ADD DUP2 ADD DUP1 MLOAD PUSH1 0x0 DUP3 MSTORE SWAP3 DUP3 ADD SWAP2 SWAP1 SWAP4 ADD KECCAK256 SWAP2 MSTORE SLOAD PUSH1 0x1 PUSH1 0x1 PUSH1 0xA0 SHL SUB AND DUP2 JUMP JUMPDEST PUSH1 0x40 MLOAD PUSH1 0x1 PUSH1 0x1 PUSH1 0xA0 SHL SUB SWAP1 SWAP2 AND DUP2 MSTORE PUSH1 0x20 ADD PUSH2 0x14F JUMP JUMPDEST CALLVALUE DUP1 ISZERO PUSH2 0x2AE JUMPI PUSH1 0x0 DUP1 REVERT JUMPDEST POP PUSH2 0x145 PUSH2 0x2BD CALLDATASIZE PUSH1 0x4 PUSH2 0x29DA JUMP JUMPDEST PUSH2 0xAF4 JUMP JUMPDEST CALLVALUE DUP1 ISZERO PUSH2 0x2CE JUMPI PUSH1 0x0 DUP1 REVERT JUMPDEST POP PUSH2 0x145 PUSH2 0x2DD CALLDATASIZE PUSH1 0x4 PUSH2 0x2815 JUMP JUMPDEST PUSH1 0x7 PUSH1 0x20 MSTORE PUSH1 0x0 SWAP1 DUP2 MSTORE PUSH1 0x40 SWAP1 KECCAK256 SLOAD DUP2 JUMP JUMPDEST CALLVALUE DUP1 ISZERO PUSH2 0x2FB JUMPI PUSH1 0x0 DUP1 REVERT JUMPDEST POP PUSH1 0x1 SLOAD PUSH2 0x28A SWAP1 PUSH1 0x1 PUSH1 0x1 PUSH1 0xA0 SHL SUB AND DUP2 JUMP JUMPDEST CALLVALUE DUP1 ISZERO PUSH2 0x31B JUMPI PUSH1 0x0 DUP1 REVERT JUMPDEST POP PUSH2 0x145 PUSH2 0x32A CALLDATASIZE PUSH1 0x4 PUSH2 0x2815 JUMP JUMPDEST PUSH1 0x6 PUSH1 0x20 MSTORE PUSH1 0x0 SWAP1 DUP2 MSTORE PUSH1 0x40 SWAP1 KECCAK256 SLOAD DUP2 JUMP JUMPDEST CALLVALUE DUP1 ISZERO PUSH2 0x348 JUMPI PUSH1 0x0 DUP1 REVERT JUMPDEST POP PUSH2 0x1C1 PUSH2 0x357 CALLDATASIZE PUSH1 0x4 PUSH2 0x28A4 JUMP JUMPDEST PUSH2 0xCAF JUMP JUMPDEST CALLVALUE DUP1 ISZERO PUSH2 0x368 JUMPI PUSH1 0x0 DUP1 REVERT JUMPDEST POP PUSH1 0x3 SLOAD PUSH2 0x28A SWAP1 PUSH1 0x1 PUSH1 0x1 PUSH1 0xA0 SHL SUB AND DUP2 JUMP JUMPDEST CALLVALUE DUP1 ISZERO PUSH2 0x388 JUMPI PUSH1 0x0 DUP1 REVERT JUMPDEST POP PUSH2 0x1C1 PUSH2 0x397 CALLDATASIZE PUSH1 0x4 PUSH2 0x29C2 JUMP JUMPDEST PUSH2 0x1384 JUMP JUMPDEST CALLVALUE DUP1 ISZERO PUSH2 0x3A8 JUMPI PUSH1 0x0 DUP1 REVERT JUMPDEST POP PUSH2 0x178 PUSH2 0x3B7 CALLDATASIZE PUSH1 0x4 PUSH2 0x282F JUMP JUMPDEST PUSH2 0x13C1 JUMP JUMPDEST CALLVALUE DUP1 ISZERO PUSH2 0x3C8 JUMPI PUSH1 0x0 DUP1 REVERT JUMPDEST POP PUSH2 0x214 PUSH1 0x40 MLOAD DUP1 PUSH1 0x40 ADD PUSH1 0x40 MSTORE DUP1 PUSH1 0xC DUP2 MSTORE PUSH1 0x20 ADD PUSH12 0x1614DE5B941C9BDD1BD8DBDB PUSH1 0xA2 SHL DUP2 MSTORE POP DUP2 JUMP JUMPDEST CALLVALUE DUP1 ISZERO PUSH2 0x400 JUMPI PUSH1 0x0 DUP1 REVERT JUMPDEST POP PUSH2 0x1C1 PUSH2 0x40F CALLDATASIZE PUSH1 0x4 PUSH2 0x2976 JUMP JUMPDEST PUSH2 0x1409 JUMP JUMPDEST CALLVALUE DUP1 ISZERO PUSH2 0x420 JUMPI PUSH1 0x0 DUP1 REVERT JUMPDEST POP PUSH2 0x46B PUSH2 0x42F CALLDATASIZE PUSH1 0x4 PUSH2 0x2815 JUMP JUMPDEST PUSH1 0x8 PUSH1 0x20 MSTORE PUSH1 0x0 SWAP1 DUP2 MSTORE PUSH1 0x40 SWAP1 KECCAK256 DUP1 SLOAD PUSH1 0x1 DUP3 ADD SLOAD PUSH1 0x2 DUP4 ADD SLOAD PUSH1 0x3 DUP5 ADD SLOAD PUSH1 0x4 SWAP1 SWAP5 ADD SLOAD PUSH1 0x1 PUSH1 0x1 PUSH1 0xA0 SHL SUB SWAP1 SWAP4 AND SWAP4 SWAP2 SWAP3 SWAP1 SWAP2 SWAP1 PUSH1 0xFF AND DUP6 JUMP JUMPDEST PUSH1 0x40 MLOAD PUSH2 0x14F SWAP6 SWAP5 SWAP4 SWAP3 SWAP2 SWAP1 PUSH2 0x2AE0 JUMP JUMPDEST PUSH1 0xA PUSH1 0x20 MSTORE DUP2 PUSH1 0x0 MSTORE PUSH1 0x40 PUSH1 0x0 KECCAK256 DUP2 DUP2 SLOAD DUP2 LT PUSH2 0x498 JUMPI PUSH1 0x0 DUP1 REVERT JUMPDEST PUSH1 0x0 SWAP2 DUP3 MSTORE PUSH1 0x20 SWAP1 SWAP2 KECCAK256 PUSH1 0x5 SWAP1 SWAP2 MUL ADD DUP1 SLOAD PUSH1 0x1 DUP3 ADD DUP1 SLOAD PUSH1 0x1 PUSH1 0x1 PUSH1 0xA0 SHL SUB SWAP1 SWAP3 AND SWAP5 POP SWAP2 SWAP3 POP PUSH2 0x4C9 SWAP1 PUSH2 0x2E19 JUMP JUMPDEST DUP1 PUSH1 0x1F ADD PUSH1 0x20 DUP1 SWAP2 DIV MUL PUSH1 0x20 ADD PUSH1 0x40 MLOAD SWAP1 DUP2 ADD PUSH1 0x40 MSTORE DUP1 SWAP3 SWAP2 SWAP1 DUP2 DUP2 MSTORE PUSH1 0x20 ADD DUP3 DUP1 SLOAD PUSH2 0x4F5 SWAP1 PUSH2 0x2E19 JUMP JUMPDEST DUP1 ISZERO PUSH2 0x542 JUMPI DUP1 PUSH1 0x1F LT PUSH2 0x517 JUMPI PUSH2 0x100 DUP1 DUP4 SLOAD DIV MUL DUP4 MSTORE SWAP2 PUSH1 0x20 ADD SWAP2 PUSH2 0x542 JUMP JUMPDEST DUP3 ADD SWAP2 SWAP1 PUSH1 0x0 MSTORE PUSH1 0x20 PUSH1 0x0 KECCAK256 SWAP1 JUMPDEST DUP2 SLOAD DUP2 MSTORE SWAP1 PUSH1 0x1 ADD SWAP1 PUSH1 0x20 ADD DUP1 DUP4 GT PUSH2 0x525 JUMPI DUP3 SWAP1 SUB PUSH1 0x1F AND DUP3 ADD SWAP2 JUMPDEST POP POP POP PUSH1 0x2 DUP5 ADD SLOAD PUSH1 0x3 DUP6 ADD SLOAD PUSH1 0x4 SWAP1 SWAP6 ADD SLOAD SWAP4 SWAP5 SWAP1 SWAP4 SWAP1 SWAP3 POP PUSH1 0xFF DUP1 DUP3 AND SWAP3 POP PUSH2 0x100 DUP3 DIV DUP2 AND SWAP2 PUSH3 0x10000 SWAP1 DIV AND DUP8 JUMP JUMPDEST PUSH2 0x57D PUSH2 0x14D7 JUMP JUMPDEST PUSH1 0x5 DUP2 SWAP1 SSTORE PUSH1 0x40 MLOAD DUP2 DUP2 MSTORE PUSH32 0xA39EACD162EE82C70B2B030A1BC8FE89ADCCCC61122FAD4821A8772DBCC54267 SWAP1 PUSH1 0x20 ADD JUMPDEST PUSH1 0x40 MLOAD DUP1 SWAP2 SUB SWAP1 LOG1 POP JUMP JUMPDEST PUSH1 0x1 PUSH1 0x1 PUSH1 0xA0 SHL SUB DUP2 AND PUSH1 0x0 SWAP1 DUP2 MSTORE PUSH1 0xA PUSH1 0x20 SWAP1 DUP2 MSTORE PUSH1 0x40 DUP1 DUP4 KECCAK256 DUP1 SLOAD DUP3 MLOAD DUP2 DUP6 MUL DUP2 ADD DUP6 ADD SWAP1 SWAP4 MSTORE DUP1 DUP4 MSTORE DUP5 SWAP4 DUP5 SWAP1 DUP5 ADD JUMPDEST DUP3 DUP3 LT ISZERO PUSH2 0x70E JUMPI PUSH1 0x0 DUP5 DUP2 MSTORE PUSH1 0x20 SWAP1 DUP2 SWAP1 KECCAK256 PUSH1 0x40 DUP1 MLOAD PUSH1 0xE0 DUP2 ADD SWAP1 SWAP2 MSTORE PUSH1 0x5 DUP6 MUL SWAP1 SWAP2 ADD DUP1 SLOAD PUSH1 0x1 PUSH1 0x1 PUSH1 0xA0 SHL SUB AND DUP3 MSTORE PUSH1 0x1 DUP2 ADD DUP1 SLOAD SWAP3 SWAP4 SWAP2 SWAP3 SWAP2 DUP5 ADD SWAP2 PUSH2 0x635 SWAP1 PUSH2 0x2E19 JUMP JUMPDEST DUP1 PUSH1 0x1F ADD PUSH1 0x20 DUP1 SWAP2 DIV MUL PUSH1 0x20 ADD PUSH1 0x40 MLOAD SWAP1 DUP2 ADD PUSH1 0x40 MSTORE DUP1 SWAP3 SWAP2 SWAP1 DUP2 DUP2 MSTORE PUSH1 0x20 ADD DUP3 DUP1 SLOAD PUSH2 0x661 SWAP1 PUSH2 0x2E19 JUMP JUMPDEST DUP1 ISZERO PUSH2 0x6AE JUMPI DUP1 PUSH1 0x1F LT PUSH2 0x683 JUMPI PUSH2 0x100 DUP1 DUP4 SLOAD DIV MUL DUP4 MSTORE SWAP2 PUSH1 0x20 ADD SWAP2 PUSH2 0x6AE JUMP JUMPDEST DUP3 ADD SWAP2 SWAP1 PUSH1 0x0 MSTORE PUSH1 0x20 PUSH1 0x0 KECCAK256 SWAP1 JUMPDEST DUP2 SLOAD DUP2 MSTORE SWAP1 PUSH1 0x1 ADD SWAP1 PUSH1 0x20 ADD DUP1 DUP4 GT PUSH2 0x691 JUMPI DUP3 SWAP1 SUB PUSH1 0x1F AND DUP3 ADD SWAP2 JUMPDEST POP POP POP SWAP2 DUP4 MSTORE POP POP PUSH1 0x2 DUP3 ADD SLOAD PUSH1 0x20 DUP1 DUP4 ADD SWAP2 SWAP1 SWAP2 MSTORE PUSH1 0x3 DUP4 ADD SLOAD PUSH1 0x40 DUP4 ADD MSTORE PUSH1 0x4 SWAP1 SWAP3 ADD SLOAD PUSH1 0xFF DUP1 DUP3 AND ISZERO ISZERO PUSH1 0x60 DUP5 ADD MSTORE PUSH2 0x100 DUP3 DIV DUP2 AND ISZERO ISZERO PUSH1 0x80 DUP5 ADD MSTORE PUSH3 0x10000 SWAP1 SWAP2 DIV AND ISZERO ISZERO PUSH1 0xA0 SWAP1 SWAP2 ADD MSTORE SWAP1 DUP3 MSTORE PUSH1 0x1 SWAP3 SWAP1 SWAP3 ADD SWAP2 ADD PUSH2 0x5EC JUMP JUMPDEST POP POP POP POP SWAP1 POP PUSH1 0x0 DUP1 PUSH1 0x0 DUP1 PUSH1 0x0 JUMPDEST DUP6 MLOAD DUP2 LT ISZERO PUSH2 0x91C JUMPI DUP6 DUP2 DUP2 MLOAD DUP2 LT PUSH2 0x746 JUMPI PUSH4 0x4E487B71 PUSH1 0xE0 SHL PUSH1 0x0 MSTORE PUSH1 0x32 PUSH1 0x4 MSTORE PUSH1 0x24 PUSH1 0x0 REVERT JUMPDEST PUSH1 0x20 MUL PUSH1 0x20 ADD ADD MLOAD PUSH1 0x80 ADD MLOAD ISZERO PUSH2 0x812 JUMPI DUP6 DUP2 DUP2 MLOAD DUP2 LT PUSH2 0x777 JUMPI PUSH4 0x4E487B71 PUSH1 0xE0 SHL PUSH1 0x0 MSTORE PUSH1 0x32 PUSH1 0x4 MSTORE PUSH1 0x24 PUSH1 0x0 REVERT JUMPDEST PUSH1 0x20 MUL PUSH1 0x20 ADD ADD MLOAD PUSH1 0xA0 ADD MLOAD ISZERO PUSH2 0x7CD JUMPI PUSH2 0x7C6 DUP7 DUP3 DUP2 MLOAD DUP2 LT PUSH2 0x7AB JUMPI PUSH4 0x4E487B71 PUSH1 0xE0 SHL PUSH1 0x0 MSTORE PUSH1 0x32 PUSH1 0x4 MSTORE PUSH1 0x24 PUSH1 0x0 REVERT JUMPDEST PUSH1 0x20 MUL PUSH1 0x20 ADD ADD MLOAD PUSH1 0x40 ADD MLOAD DUP7 PUSH2 0x1548 SWAP1 SWAP2 SWAP1 PUSH4 0xFFFFFFFF AND JUMP JUMPDEST SWAP5 POP PUSH2 0x90A JUMP JUMPDEST PUSH2 0x80B DUP7 DUP3 DUP2 MLOAD DUP2 LT PUSH2 0x7F0 JUMPI PUSH4 0x4E487B71 PUSH1 0xE0 SHL PUSH1 0x0 MSTORE PUSH1 0x32 PUSH1 0x4 MSTORE PUSH1 0x24 PUSH1 0x0 REVERT JUMPDEST PUSH1 0x20 MUL PUSH1 0x20 ADD ADD MLOAD PUSH1 0x40 ADD MLOAD DUP6 PUSH2 0x1548 SWAP1 SWAP2 SWAP1 PUSH4 0xFFFFFFFF AND JUMP JUMPDEST SWAP4 POP PUSH2 0x90A JUMP JUMPDEST PUSH2 0x907 PUSH2 0x900 PUSH2 0x820 PUSH2 0x15AE JUMP JUMPDEST PUSH1 0x1 PUSH1 0x1 PUSH1 0xA0 SHL SUB AND PUSH4 0xA40B18C2 DUP10 DUP6 DUP2 MLOAD DUP2 LT PUSH2 0x84E JUMPI PUSH4 0x4E487B71 PUSH1 0xE0 SHL PUSH1 0x0 MSTORE PUSH1 0x32 PUSH1 0x4 MSTORE PUSH1 0x24 PUSH1 0x0 REVERT JUMPDEST PUSH1 0x20 MUL PUSH1 0x20 ADD ADD MLOAD PUSH1 0x20 ADD MLOAD PUSH1 0x40 MLOAD DUP3 PUSH4 0xFFFFFFFF AND PUSH1 0xE0 SHL DUP2 MSTORE PUSH1 0x4 ADD PUSH2 0x876 SWAP2 SWAP1 PUSH2 0x2B33 JUMP JUMPDEST PUSH1 0x20 PUSH1 0x40 MLOAD DUP1 DUP4 SUB DUP2 DUP7 DUP1 EXTCODESIZE ISZERO DUP1 ISZERO PUSH2 0x88E JUMPI PUSH1 0x0 DUP1 REVERT JUMPDEST POP GAS STATICCALL ISZERO DUP1 ISZERO PUSH2 0x8A2 JUMPI RETURNDATASIZE PUSH1 0x0 DUP1 RETURNDATACOPY RETURNDATASIZE PUSH1 0x0 REVERT JUMPDEST POP POP POP POP PUSH1 0x40 MLOAD RETURNDATASIZE PUSH1 0x1F NOT PUSH1 0x1F DUP3 ADD AND DUP3 ADD DUP1 PUSH1 0x40 MSTORE POP DUP2 ADD SWAP1 PUSH2 0x8C6 SWAP2 SWAP1 PUSH2 0x2923 JUMP JUMPDEST DUP9 DUP5 DUP2 MLOAD DUP2 LT PUSH2 0x8E6 JUMPI PUSH4 0x4E487B71 PUSH1 0xE0 SHL PUSH1 0x0 MSTORE PUSH1 0x32 PUSH1 0x4 MSTORE PUSH1 0x24 PUSH1 0x0 REVERT JUMPDEST PUSH1 0x20 MUL PUSH1 0x20 ADD ADD MLOAD PUSH1 0x40 ADD MLOAD PUSH2 0x15E2 SWAP1 SWAP2 SWAP1 PUSH4 0xFFFFFFFF AND JUMP JUMPDEST DUP4 SWAP1 PUSH2 0x1548 JUMP JUMPDEST SWAP2 POP JUMPDEST DUP1 PUSH2 0x914 DUP2 PUSH2 0x2E54 JUMP JUMPDEST SWAP2 POP POP PUSH2 0x71D JUMP JUMPDEST POP DUP3 DUP5 GT ISZERO PUSH2 0x936 JUMPI PUSH2 0x92F DUP5 DUP5 PUSH2 0x1661 JUMP JUMPDEST SWAP2 POP PUSH2 0x943 JUMP JUMPDEST PUSH2 0x940 DUP4 DUP6 PUSH2 0x1661 JUMP JUMPDEST SWAP2 POP JUMPDEST PUSH2 0x94D DUP2 DUP4 PUSH2 0x1548 JUMP JUMPDEST SWAP8 SWAP7 POP POP POP POP POP POP POP JUMP JUMPDEST PUSH1 0x0 PUSH1 0x4 SLOAD CALLVALUE LT ISZERO PUSH2 0x985 JUMPI PUSH1 0x40 MLOAD PUSH3 0x461BCD PUSH1 0xE5 SHL DUP2 MSTORE PUSH1 0x4 ADD PUSH2 0x97C SWAP1 PUSH2 0x2C3E JUMP JUMPDEST PUSH1 0x40 MLOAD DUP1 SWAP2 SUB SWAP1 REVERT JUMPDEST PUSH1 0x0 PUSH2 0x98F PUSH2 0x15AE JUMP JUMPDEST PUSH1 0x1 PUSH1 0x1 PUSH1 0xA0 SHL SUB AND PUSH4 0xD7A356BE PUSH1 0x40 MLOAD DUP2 PUSH4 0xFFFFFFFF AND PUSH1 0xE0 SHL DUP2 MSTORE PUSH1 0x4 ADD PUSH2 0x9B8 SWAP1 PUSH2 0x2BC2 JUMP JUMPDEST PUSH1 0x20 PUSH1 0x40 MLOAD DUP1 DUP4 SUB DUP2 PUSH1 0x0 DUP8 DUP1 EXTCODESIZE ISZERO DUP1 ISZERO PUSH2 0x9D2 JUMPI PUSH1 0x0 DUP1 REVERT JUMPDEST POP GAS CALL ISZERO DUP1 ISZERO PUSH2 0x9E6 JUMPI RETURNDATASIZE PUSH1 0x0 DUP1 RETURNDATACOPY RETURNDATASIZE PUSH1 0x0 REVERT JUMPDEST POP POP POP POP PUSH1 0x40 MLOAD RETURNDATASIZE PUSH1 0x1F NOT PUSH1 0x1F DUP3 ADD AND DUP3 ADD DUP1 PUSH1 0x40 MSTORE POP DUP2 ADD SWAP1 PUSH2 0xA0A SWAP2 SWAP1 PUSH2 0x2923 JUMP JUMPDEST SWAP1 POP PUSH1 0x0 PUSH2 0xA9D PUSH2 0xA19 PUSH2 0x15AE JUMP JUMPDEST PUSH1 0x1 PUSH1 0x1 PUSH1 0xA0 SHL SUB AND PUSH4 0xDD953FB0 DUP5 PUSH1 0x40 MLOAD DUP3 PUSH4 0xFFFFFFFF AND PUSH1 0xE0 SHL DUP2 MSTORE PUSH1 0x4 ADD PUSH2 0xA46 SWAP2 DUP2 MSTORE PUSH1 0x20 ADD SWAP1 JUMP JUMPDEST PUSH1 0x20 PUSH1 0x40 MLOAD DUP1 DUP4 SUB DUP2 DUP7 DUP1 EXTCODESIZE ISZERO DUP1 ISZERO PUSH2 0xA5E JUMPI PUSH1 0x0 DUP1 REVERT JUMPDEST POP GAS STATICCALL ISZERO DUP1 ISZERO PUSH2 0xA72 JUMPI RETURNDATASIZE PUSH1 0x0 DUP1 RETURNDATACOPY RETURNDATASIZE PUSH1 0x0 REVERT JUMPDEST POP POP POP POP PUSH1 0x40 MLOAD RETURNDATASIZE PUSH1 0x1F NOT PUSH1 0x1F DUP3 ADD AND DUP3 ADD DUP1 PUSH1 0x40 MSTORE POP DUP2 ADD SWAP1 PUSH2 0xA96 SWAP2 SWAP1 PUSH2 0x2923 JUMP JUMPDEST CALLVALUE SWAP1 PUSH2 0x16A3 JUMP JUMPDEST SWAP1 POP PUSH1 0x0 PUSH2 0xAB6 PUSH1 0x2 SLOAD DUP4 PUSH2 0x16C5 SWAP1 SWAP2 SWAP1 PUSH4 0xFFFFFFFF AND JUMP JUMPDEST CALLER PUSH1 0x0 SWAP1 DUP2 MSTORE PUSH1 0x6 PUSH1 0x20 MSTORE PUSH1 0x40 SWAP1 KECCAK256 SLOAD SWAP1 SWAP2 POP PUSH2 0xAD3 SWAP1 DUP3 PUSH2 0x1548 JUMP JUMPDEST CALLER PUSH1 0x0 SWAP1 DUP2 MSTORE PUSH1 0x6 PUSH1 0x20 MSTORE PUSH1 0x40 SWAP1 KECCAK256 SSTORE PUSH2 0xAEC DUP2 PUSH2 0x1707 JUMP JUMPDEST SWAP4 POP POP POP POP SWAP1 JUMP JUMPDEST PUSH1 0x0 PUSH1 0x5 SLOAD DUP4 LT ISZERO PUSH2 0xB18 JUMPI PUSH1 0x40 MLOAD PUSH3 0x461BCD PUSH1 0xE5 SHL DUP2 MSTORE PUSH1 0x4 ADD PUSH2 0x97C SWAP1 PUSH2 0x2B70 JUMP JUMPDEST PUSH1 0x0 PUSH2 0xB22 PUSH2 0x15AE JUMP JUMPDEST PUSH1 0x1 PUSH1 0x1 PUSH1 0xA0 SHL SUB AND PUSH4 0xD7A356BE PUSH1 0x40 MLOAD DUP2 PUSH4 0xFFFFFFFF AND PUSH1 0xE0 SHL DUP2 MSTORE PUSH1 0x4 ADD PUSH2 0xB4B SWAP1 PUSH2 0x2C00 JUMP JUMPDEST PUSH1 0x20 PUSH1 0x40 MLOAD DUP1 DUP4 SUB DUP2 PUSH1 0x0 DUP8 DUP1 EXTCODESIZE ISZERO DUP1 ISZERO PUSH2 0xB65 JUMPI PUSH1 0x0 DUP1 REVERT JUMPDEST POP GAS CALL ISZERO DUP1 ISZERO PUSH2 0xB79 JUMPI RETURNDATASIZE PUSH1 0x0 DUP1 RETURNDATACOPY RETURNDATASIZE PUSH1 0x0 REVERT JUMPDEST POP POP POP POP PUSH1 0x40 MLOAD RETURNDATASIZE PUSH1 0x1F NOT PUSH1 0x1F DUP3 ADD AND DUP3 ADD DUP1 PUSH1 0x40 MSTORE POP DUP2 ADD SWAP1 PUSH2 0xB9D SWAP2 SWAP1 PUSH2 0x2923 JUMP JUMPDEST SWAP1 POP PUSH1 0x0 PUSH2 0xC30 PUSH2 0xBAC PUSH2 0x15AE JUMP JUMPDEST PUSH1 0x1 PUSH1 0x1 PUSH1 0xA0 SHL SUB AND PUSH4 0xDD953FB0 DUP5 PUSH1 0x40 MLOAD DUP3 PUSH4 0xFFFFFFFF AND PUSH1 0xE0 SHL DUP2 MSTORE PUSH1 0x4 ADD PUSH2 0xBD9 SWAP2 DUP2 MSTORE PUSH1 0x20 ADD SWAP1 JUMP JUMPDEST PUSH1 0x20 PUSH1 0x40 MLOAD DUP1 DUP4 SUB DUP2 DUP7 DUP1 EXTCODESIZE ISZERO DUP1 ISZERO PUSH2 0xBF1 JUMPI PUSH1 0x0 DUP1 REVERT JUMPDEST POP GAS STATICCALL ISZERO DUP1 ISZERO PUSH2 0xC05 JUMPI RETURNDATASIZE PUSH1 0x0 DUP1 RETURNDATACOPY RETURNDATASIZE PUSH1 0x0 REVERT JUMPDEST POP POP POP POP PUSH1 0x40 MLOAD RETURNDATASIZE PUSH1 0x1F NOT PUSH1 0x1F DUP3 ADD AND DUP3 ADD DUP1 PUSH1 0x40 MSTORE POP DUP2 ADD SWAP1 PUSH2 0xC29 SWAP2 SWAP1 PUSH2 0x2923 JUMP JUMPDEST DUP7 SWAP1 PUSH2 0x16A3 JUMP JUMPDEST SWAP1 POP PUSH1 0x0 PUSH2 0xC49 PUSH1 0x2 SLOAD DUP4 PUSH2 0x16C5 SWAP1 SWAP2 SWAP1 PUSH4 0xFFFFFFFF AND JUMP JUMPDEST CALLER PUSH1 0x0 SWAP1 DUP2 MSTORE PUSH1 0x6 PUSH1 0x20 MSTORE PUSH1 0x40 SWAP1 KECCAK256 SLOAD SWAP1 SWAP2 POP PUSH2 0xC66 SWAP1 DUP3 PUSH2 0x1548 JUMP JUMPDEST CALLER PUSH1 0x0 DUP2 DUP2 MSTORE PUSH1 0x6 PUSH1 0x20 MSTORE PUSH1 0x40 SWAP1 KECCAK256 SWAP2 SWAP1 SWAP2 SSTORE PUSH2 0xC84 SWAP1 DUP7 DUP9 PUSH2 0x1CE2 JUMP JUMPDEST PUSH2 0xC8F CALLER DUP7 DUP9 PUSH2 0x1DC5 JUMP JUMPDEST PUSH2 0xC99 DUP7 DUP7 PUSH2 0x1EA3 JUMP JUMPDEST PUSH2 0xCA3 DUP2 DUP8 PUSH2 0x1F29 JUMP JUMPDEST SWAP4 POP POP POP POP JUMPDEST SWAP3 SWAP2 POP POP JUMP JUMPDEST PUSH2 0xCB7 PUSH2 0x24AF JUMP JUMPDEST PUSH1 0x1 PUSH1 0x1 PUSH1 0xA0 SHL SUB DUP5 AND PUSH1 0x0 SWAP1 DUP2 MSTORE PUSH1 0x9 PUSH1 0x20 MSTORE PUSH1 0x40 DUP1 DUP3 KECCAK256 SWAP1 MLOAD PUSH2 0xCDD SWAP1 DUP5 SWAP1 PUSH2 0x2A28 JUMP JUMPDEST SWAP1 DUP2 MSTORE PUSH1 0x40 DUP1 MLOAD SWAP2 DUP3 SWAP1 SUB PUSH1 0x20 SWAP1 DUP2 ADD DUP4 KECCAK256 PUSH1 0xE0 DUP5 ADD SWAP1 SWAP3 MSTORE DUP2 SLOAD PUSH1 0x1 PUSH1 0x1 PUSH1 0xA0 SHL SUB AND DUP4 MSTORE PUSH1 0x1 DUP3 ADD DUP1 SLOAD SWAP2 DUP5 ADD SWAP2 PUSH2 0xD16 SWAP1 PUSH2 0x2E19 JUMP JUMPDEST DUP1 PUSH1 0x1F ADD PUSH1 0x20 DUP1 SWAP2 DIV MUL PUSH1 0x20 ADD PUSH1 0x40 MLOAD SWAP1 DUP2 ADD PUSH1 0x40 MSTORE DUP1 SWAP3 SWAP2 SWAP1 DUP2 DUP2 MSTORE PUSH1 0x20 ADD DUP3 DUP1 SLOAD PUSH2 0xD42 SWAP1 PUSH2 0x2E19 JUMP JUMPDEST DUP1 ISZERO PUSH2 0xD8F JUMPI DUP1 PUSH1 0x1F LT PUSH2 0xD64 JUMPI PUSH2 0x100 DUP1 DUP4 SLOAD DIV MUL DUP4 MSTORE SWAP2 PUSH1 0x20 ADD SWAP2 PUSH2 0xD8F JUMP JUMPDEST DUP3 ADD SWAP2 SWAP1 PUSH1 0x0 MSTORE PUSH1 0x20 PUSH1 0x0 KECCAK256 SWAP1 JUMPDEST DUP2 SLOAD DUP2 MSTORE SWAP1 PUSH1 0x1 ADD SWAP1 PUSH1 0x20 ADD DUP1 DUP4 GT PUSH2 0xD72 JUMPI DUP3 SWAP1 SUB PUSH1 0x1F AND DUP3 ADD SWAP2 JUMPDEST POP POP POP SWAP2 DUP4 MSTORE POP POP PUSH1 0x2 DUP3 ADD SLOAD PUSH1 0x20 DUP3 ADD MSTORE PUSH1 0x3 DUP3 ADD SLOAD PUSH1 0x40 DUP1 DUP4 ADD SWAP2 SWAP1 SWAP2 MSTORE PUSH1 0x4 SWAP1 SWAP3 ADD SLOAD PUSH1 0xFF DUP1 DUP3 AND ISZERO ISZERO PUSH1 0x60 DUP5 ADD MSTORE PUSH2 0x100 DUP3 DIV DUP2 AND ISZERO ISZERO PUSH1 0x80 DUP5 ADD MSTORE PUSH3 0x10000 SWAP1 SWAP2 DIV AND ISZERO ISZERO PUSH1 0xA0 SWAP1 SWAP2 ADD MSTORE DUP2 ADD MLOAD SWAP1 SWAP2 POP PUSH1 0x0 SWAP1 PUSH2 0xDF2 SWAP1 DUP6 PUSH2 0x1548 JUMP JUMPDEST PUSH1 0x40 DUP1 MLOAD PUSH1 0xE0 DUP2 ADD DUP3 MSTORE PUSH1 0x1 PUSH1 0x1 PUSH1 0xA0 SHL SUB DUP10 AND DUP1 DUP3 MSTORE PUSH1 0x20 DUP1 DUP4 ADD DUP9 SWAP1 MSTORE DUP3 DUP5 ADD DUP6 SWAP1 MSTORE PUSH1 0x60 DUP4 ADD DUP11 SWAP1 MSTORE PUSH1 0x0 PUSH1 0x80 DUP5 ADD DUP2 SWAP1 MSTORE PUSH1 0xA0 DUP5 ADD DUP2 SWAP1 MSTORE PUSH1 0x1 PUSH1 0xC0 DUP6 ADD MSTORE SWAP2 DUP3 MSTORE PUSH1 0x9 SWAP1 MSTORE DUP3 SWAP1 KECCAK256 SWAP2 MLOAD SWAP3 SWAP4 POP SWAP2 PUSH2 0xE50 SWAP1 DUP7 SWAP1 PUSH2 0x2A28 JUMP JUMPDEST SWAP1 DUP2 MSTORE PUSH1 0x40 MLOAD PUSH1 0x20 SWAP2 DUP2 SWAP1 SUB DUP3 ADD SWAP1 KECCAK256 DUP3 MLOAD DUP2 SLOAD PUSH1 0x1 PUSH1 0x1 PUSH1 0xA0 SHL SUB NOT AND PUSH1 0x1 PUSH1 0x1 PUSH1 0xA0 SHL SUB SWAP1 SWAP2 AND OR DUP2 SSTORE DUP3 DUP3 ADD MLOAD DUP1 MLOAD SWAP2 SWAP3 PUSH2 0xE96 SWAP3 PUSH1 0x1 DUP6 ADD SWAP3 SWAP1 SWAP2 ADD SWAP1 PUSH2 0x265E JUMP JUMPDEST POP PUSH1 0x40 DUP3 DUP2 ADD MLOAD PUSH1 0x2 DUP4 ADD SSTORE PUSH1 0x60 DUP4 ADD MLOAD PUSH1 0x3 DUP4 ADD SSTORE PUSH1 0x80 DUP4 ADD MLOAD PUSH1 0x4 SWAP1 SWAP3 ADD DUP1 SLOAD PUSH1 0xA0 DUP6 ADD MLOAD PUSH1 0xC0 SWAP1 SWAP6 ADD MLOAD ISZERO ISZERO PUSH3 0x10000 MUL PUSH3 0xFF0000 NOT SWAP6 ISZERO ISZERO PUSH2 0x100 MUL PUSH2 0xFF00 NOT SWAP6 ISZERO ISZERO SWAP6 SWAP1 SWAP6 AND PUSH2 0xFFFF NOT SWAP1 SWAP3 AND SWAP2 SWAP1 SWAP2 OR SWAP4 SWAP1 SWAP4 OR SWAP4 SWAP1 SWAP4 AND SWAP2 SWAP1 SWAP2 OR SWAP1 SWAP2 SSTORE CALLER PUSH1 0x0 SWAP1 DUP2 MSTORE PUSH1 0xA PUSH1 0x20 SWAP1 DUP2 MSTORE DUP3 DUP3 KECCAK256 PUSH1 0x9 SWAP1 SWAP2 MSTORE SWAP1 DUP3 SWAP1 KECCAK256 SWAP2 MLOAD SWAP1 SWAP2 SWAP1 PUSH2 0xF24 SWAP1 DUP7 SWAP1 PUSH2 0x2A28 JUMP JUMPDEST SWAP1 DUP2 MSTORE PUSH1 0x40 MLOAD SWAP1 DUP2 SWAP1 SUB PUSH1 0x20 SWAP1 DUP2 ADD SWAP1 SWAP2 KECCAK256 DUP3 SLOAD PUSH1 0x1 DUP2 DUP2 ADD DUP6 SSTORE PUSH1 0x0 SWAP5 DUP6 MSTORE SWAP3 SWAP1 SWAP4 KECCAK256 DUP2 SLOAD PUSH1 0x5 SWAP1 SWAP5 MUL ADD DUP1 SLOAD PUSH1 0x1 PUSH1 0x1 PUSH1 0xA0 SHL SUB NOT AND PUSH1 0x1 PUSH1 0x1 PUSH1 0xA0 SHL SUB SWAP1 SWAP5 AND SWAP4 SWAP1 SWAP4 OR DUP4 SSTORE DUP2 DUP2 ADD DUP1 SLOAD SWAP2 SWAP4 SWAP3 DUP4 ADD SWAP2 PUSH2 0xF81 SWAP1 PUSH2 0x2E19 JUMP JUMPDEST PUSH2 0xF8C SWAP3 SWAP2 SWAP1 PUSH2 0x26E2 JUMP JUMPDEST POP PUSH1 0x2 DUP3 DUP2 ADD SLOAD SWAP1 DUP3 ADD SSTORE PUSH1 0x3 DUP1 DUP4 ADD SLOAD SWAP1 DUP3 ADD SSTORE PUSH1 0x4 SWAP2 DUP3 ADD DUP1 SLOAD SWAP3 SWAP1 SWAP2 ADD DUP1 SLOAD PUSH1 0xFF SWAP4 DUP5 AND ISZERO ISZERO PUSH1 0xFF NOT DUP3 AND DUP2 OR DUP4 SSTORE DUP4 SLOAD PUSH2 0x100 SWAP1 DUP2 SWAP1 DIV DUP7 AND ISZERO ISZERO MUL PUSH2 0xFF00 NOT SWAP1 SWAP2 AND PUSH2 0xFFFF NOT SWAP1 SWAP3 AND SWAP2 SWAP1 SWAP2 OR OR DUP1 DUP3 SSTORE SWAP2 SLOAD PUSH3 0x10000 SWAP1 DUP2 SWAP1 DIV SWAP1 SWAP4 AND ISZERO ISZERO SWAP1 SWAP3 MUL PUSH3 0xFF0000 NOT SWAP1 SWAP2 AND OR SWAP1 SSTORE PUSH1 0x1 PUSH1 0x1 PUSH1 0xA0 SHL SUB DUP7 AND PUSH1 0x0 SWAP1 DUP2 MSTORE PUSH1 0x9 PUSH1 0x20 MSTORE PUSH1 0x40 DUP1 DUP3 KECCAK256 SWAP1 MLOAD PUSH2 0x1023 SWAP1 PUSH2 0x2A44 JUMP JUMPDEST SWAP1 DUP2 MSTORE PUSH1 0x40 DUP1 MLOAD SWAP2 DUP3 SWAP1 SUB PUSH1 0x20 SWAP1 DUP2 ADD DUP4 KECCAK256 PUSH1 0xE0 DUP5 ADD SWAP1 SWAP3 MSTORE DUP2 SLOAD PUSH1 0x1 PUSH1 0x1 PUSH1 0xA0 SHL SUB AND DUP4 MSTORE PUSH1 0x1 DUP3 ADD DUP1 SLOAD SWAP2 DUP5 ADD SWAP2 PUSH2 0x105C SWAP1 PUSH2 0x2E19 JUMP JUMPDEST DUP1 PUSH1 0x1F ADD PUSH1 0x20 DUP1 SWAP2 DIV MUL PUSH1 0x20 ADD PUSH1 0x40 MLOAD SWAP1 DUP2 ADD PUSH1 0x40 MSTORE DUP1 SWAP3 SWAP2 SWAP1 DUP2 DUP2 MSTORE PUSH1 0x20 ADD DUP3 DUP1 SLOAD PUSH2 0x1088 SWAP1 PUSH2 0x2E19 JUMP JUMPDEST DUP1 ISZERO PUSH2 0x10D5 JUMPI DUP1 PUSH1 0x1F LT PUSH2 0x10AA JUMPI PUSH2 0x100 DUP1 DUP4 SLOAD DIV MUL DUP4 MSTORE SWAP2 PUSH1 0x20 ADD SWAP2 PUSH2 0x10D5 JUMP JUMPDEST DUP3 ADD SWAP2 SWAP1 PUSH1 0x0 MSTORE PUSH1 0x20 PUSH1 0x0 KECCAK256 SWAP1 JUMPDEST DUP2 SLOAD DUP2 MSTORE SWAP1 PUSH1 0x1 ADD SWAP1 PUSH1 0x20 ADD DUP1 DUP4 GT PUSH2 0x10B8 JUMPI DUP3 SWAP1 SUB PUSH1 0x1F AND DUP3 ADD SWAP2 JUMPDEST POP POP POP SWAP2 DUP4 MSTORE POP POP PUSH1 0x2 DUP3 ADD SLOAD PUSH1 0x20 DUP3 ADD MSTORE PUSH1 0x3 DUP3 ADD SLOAD PUSH1 0x40 DUP1 DUP4 ADD SWAP2 SWAP1 SWAP2 MSTORE PUSH1 0x4 SWAP1 SWAP3 ADD SLOAD PUSH1 0xFF DUP1 DUP3 AND ISZERO ISZERO PUSH1 0x60 DUP5 ADD MSTORE PUSH2 0x100 DUP3 DIV DUP2 AND ISZERO ISZERO PUSH1 0x80 DUP5 ADD MSTORE PUSH3 0x10000 SWAP1 SWAP2 DIV AND ISZERO ISZERO PUSH1 0xA0 SWAP1 SWAP2 ADD MSTORE DUP2 ADD MLOAD SWAP1 SWAP2 POP PUSH1 0x0 SWAP1 PUSH2 0x1138 SWAP1 DUP9 PUSH2 0x1661 JUMP JUMPDEST SWAP1 POP PUSH1 0x40 MLOAD DUP1 PUSH1 0xE0 ADD PUSH1 0x40 MSTORE DUP1 DUP10 PUSH1 0x1 PUSH1 0x1 PUSH1 0xA0 SHL SUB AND DUP2 MSTORE PUSH1 0x20 ADD PUSH1 0x40 MLOAD DUP1 PUSH1 0x40 ADD PUSH1 0x40 MSTORE DUP1 PUSH1 0x5 DUP2 MSTORE PUSH1 0x20 ADD PUSH5 0x16111554D1 PUSH1 0xDA SHL DUP2 MSTORE POP DUP2 MSTORE PUSH1 0x20 ADD DUP3 DUP2 MSTORE PUSH1 0x20 ADD DUP9 DUP2 MSTORE PUSH1 0x20 ADD PUSH1 0x1 ISZERO ISZERO DUP2 MSTORE PUSH1 0x20 ADD PUSH1 0x0 ISZERO ISZERO DUP2 MSTORE PUSH1 0x20 ADD PUSH1 0x1 ISZERO ISZERO DUP2 MSTORE POP PUSH1 0x9 PUSH1 0x0 DUP11 PUSH1 0x1 PUSH1 0x1 PUSH1 0xA0 SHL SUB AND PUSH1 0x1 PUSH1 0x1 PUSH1 0xA0 SHL SUB AND DUP2 MSTORE PUSH1 0x20 ADD SWAP1 DUP2 MSTORE PUSH1 0x20 ADD PUSH1 0x0 KECCAK256 PUSH1 0x40 MLOAD PUSH2 0x11CD SWAP1 PUSH2 0x2A44 JUMP JUMPDEST SWAP1 DUP2 MSTORE PUSH1 0x40 MLOAD PUSH1 0x20 SWAP2 DUP2 SWAP1 SUB DUP3 ADD SWAP1 KECCAK256 DUP3 MLOAD DUP2 SLOAD PUSH1 0x1 PUSH1 0x1 PUSH1 0xA0 SHL SUB NOT AND PUSH1 0x1 PUSH1 0x1 PUSH1 0xA0 SHL SUB SWAP1 SWAP2 AND OR DUP2 SSTORE DUP3 DUP3 ADD MLOAD DUP1 MLOAD SWAP2 SWAP3 PUSH2 0x1213 SWAP3 PUSH1 0x1 DUP6 ADD SWAP3 SWAP1 SWAP2 ADD SWAP1 PUSH2 0x265E JUMP JUMPDEST POP PUSH1 0x40 DUP3 DUP2 ADD MLOAD PUSH1 0x2 DUP4 ADD SSTORE PUSH1 0x60 DUP4 ADD MLOAD PUSH1 0x3 DUP4 ADD SSTORE PUSH1 0x80 DUP4 ADD MLOAD PUSH1 0x4 SWAP1 SWAP3 ADD DUP1 SLOAD PUSH1 0xA0 DUP6 ADD MLOAD PUSH1 0xC0 SWAP1 SWAP6 ADD MLOAD ISZERO ISZERO PUSH3 0x10000 MUL PUSH3 0xFF0000 NOT SWAP6 ISZERO ISZERO PUSH2 0x100 MUL PUSH2 0xFF00 NOT SWAP6 ISZERO ISZERO SWAP6 SWAP1 SWAP6 AND PUSH2 0xFFFF NOT SWAP1 SWAP3 AND SWAP2 SWAP1 SWAP2 OR SWAP4 SWAP1 SWAP4 OR SWAP4 SWAP1 SWAP4 AND SWAP2 SWAP1 SWAP2 OR SWAP1 SWAP2 SSTORE CALLER PUSH1 0x0 SWAP1 DUP2 MSTORE PUSH1 0xA PUSH1 0x20 SWAP1 DUP2 MSTORE DUP3 DUP3 KECCAK256 PUSH1 0x9 SWAP1 SWAP2 MSTORE SWAP1 DUP3 SWAP1 KECCAK256 SWAP2 MLOAD SWAP1 SWAP2 SWAP1 PUSH2 0x129F SWAP1 PUSH2 0x2A44 JUMP JUMPDEST SWAP1 DUP2 MSTORE PUSH1 0x40 MLOAD SWAP1 DUP2 SWAP1 SUB PUSH1 0x20 SWAP1 DUP2 ADD SWAP1 SWAP2 KECCAK256 DUP3 SLOAD PUSH1 0x1 DUP2 DUP2 ADD DUP6 SSTORE PUSH1 0x0 SWAP5 DUP6 MSTORE SWAP3 SWAP1 SWAP4 KECCAK256 DUP2 SLOAD PUSH1 0x5 SWAP1 SWAP5 MUL ADD DUP1 SLOAD PUSH1 0x1 PUSH1 0x1 PUSH1 0xA0 SHL SUB NOT AND PUSH1 0x1 PUSH1 0x1 PUSH1 0xA0 SHL SUB SWAP1 SWAP5 AND SWAP4 SWAP1 SWAP4 OR DUP4 SSTORE DUP2 DUP2 ADD DUP1 SLOAD SWAP2 SWAP4 SWAP3 DUP4 ADD SWAP2 PUSH2 0x12FC SWAP1 PUSH2 0x2E19 JUMP JUMPDEST PUSH2 0x1307 SWAP3 SWAP2 SWAP1 PUSH2 0x26E2 JUMP JUMPDEST POP PUSH1 0x2 DUP3 DUP2 ADD SLOAD SWAP1 DUP3 ADD SSTORE PUSH1 0x3 DUP1 DUP4 ADD SLOAD SWAP1 DUP3 ADD SSTORE PUSH1 0x4 SWAP2 DUP3 ADD DUP1 SLOAD SWAP3 SWAP1 SWAP2 ADD DUP1 SLOAD PUSH1 0xFF SWAP4 DUP5 AND ISZERO ISZERO PUSH1 0xFF NOT DUP3 AND DUP2 OR DUP4 SSTORE DUP4 SLOAD PUSH2 0x100 SWAP1 DUP2 SWAP1 DIV DUP7 AND ISZERO ISZERO MUL PUSH2 0xFF00 NOT SWAP1 SWAP2 AND PUSH2 0xFFFF NOT SWAP1 SWAP3 AND SWAP2 SWAP1 SWAP2 OR OR DUP1 DUP3 SSTORE SWAP2 SLOAD PUSH3 0x10000 SWAP1 DUP2 SWAP1 DIV SWAP1 SWAP4 AND ISZERO ISZERO SWAP1 SWAP3 MUL PUSH3 0xFF0000 NOT SWAP1 SWAP2 AND OR SWAP1 SSTORE POP POP POP POP POP POP POP POP JUMP JUMPDEST PUSH2 0x138C PUSH2 0x14D7 JUMP JUMPDEST PUSH1 0x4 DUP2 SWAP1 SSTORE PUSH1 0x40 MLOAD DUP2 DUP2 MSTORE PUSH32 0xA39EACD162EE82C70B2B030A1BC8FE89ADCCCC61122FAD4821A8772DBCC54267 SWAP1 PUSH1 0x20 ADD PUSH2 0x5AE JUMP JUMPDEST PUSH1 0x9 PUSH1 0x20 SWAP1 DUP2 MSTORE PUSH1 0x0 SWAP3 DUP4 MSTORE PUSH1 0x40 SWAP1 SWAP3 KECCAK256 DUP2 MLOAD DUP1 DUP4 ADD DUP5 ADD DUP1 MLOAD SWAP3 DUP2 MSTORE SWAP1 DUP5 ADD SWAP3 SWAP1 SWAP4 ADD SWAP2 SWAP1 SWAP2 KECCAK256 SWAP2 MSTORE DUP1 SLOAD PUSH1 0x1 DUP3 ADD DUP1 SLOAD PUSH1 0x1 PUSH1 0x1 PUSH1 0xA0 SHL SUB SWAP1 SWAP3 AND SWAP3 SWAP2 PUSH2 0x4C9 SWAP1 PUSH2 0x2E19 JUMP JUMPDEST PUSH1 0x1 SLOAD PUSH1 0x1 PUSH1 0x1 PUSH1 0xA0 SHL SUB AND CALLER EQ PUSH2 0x145B JUMPI PUSH1 0x40 MLOAD PUSH3 0x461BCD PUSH1 0xE5 SHL DUP2 MSTORE PUSH1 0x20 PUSH1 0x4 DUP3 ADD MSTORE PUSH1 0x15 PUSH1 0x24 DUP3 ADD MSTORE PUSH21 0x6F6E6C79206F776E65722063616E20757064617465 PUSH1 0x58 SHL PUSH1 0x44 DUP3 ADD MSTORE PUSH1 0x64 ADD PUSH2 0x97C JUMP JUMPDEST DUP1 PUSH1 0x0 DUP4 PUSH1 0x40 MLOAD PUSH2 0x146C SWAP2 SWAP1 PUSH2 0x2A28 JUMP JUMPDEST SWAP1 DUP2 MSTORE PUSH1 0x40 MLOAD SWAP1 DUP2 SWAP1 SUB PUSH1 0x20 ADD DUP2 KECCAK256 DUP1 SLOAD PUSH1 0x1 PUSH1 0x1 PUSH1 0xA0 SHL SUB SWAP4 SWAP1 SWAP4 AND PUSH1 0x1 PUSH1 0x1 PUSH1 0xA0 SHL SUB NOT SWAP1 SWAP4 AND SWAP3 SWAP1 SWAP3 OR SWAP1 SWAP2 SSTORE PUSH32 0xF721AB865154F222F0053098FB6752276624E5310BCB2BB9269D205ECE331D5 SWAP1 PUSH2 0x14CB SWAP1 DUP5 SWAP1 DUP5 SWAP1 PUSH2 0x2B46 JUMP JUMPDEST PUSH1 0x40 MLOAD DUP1 SWAP2 SUB SWAP1 LOG1 POP POP JUMP JUMPDEST PUSH1 0x3 SLOAD PUSH1 0x1 PUSH1 0x1 PUSH1 0xA0 SHL SUB AND CALLER EQ PUSH2 0x1546 JUMPI PUSH1 0x40 MLOAD PUSH3 0x461BCD PUSH1 0xE5 SHL DUP2 MSTORE PUSH1 0x20 PUSH1 0x4 DUP3 ADD MSTORE PUSH1 0x2C PUSH1 0x24 DUP3 ADD MSTORE PUSH32 0x4F6E6C79205853796E50726F746F636F6C2063616E20706572666F726D207468 PUSH1 0x44 DUP3 ADD MSTORE PUSH12 0x34B99037B832B930BA34B7B7 PUSH1 0xA1 SHL PUSH1 0x64 DUP3 ADD MSTORE PUSH1 0x84 ADD PUSH2 0x97C JUMP JUMPDEST JUMP JUMPDEST PUSH1 0x0 DUP1 PUSH2 0x1555 DUP4 DUP6 PUSH2 0x2C90 JUMP JUMPDEST SWAP1 POP DUP4 DUP2 LT ISZERO PUSH2 0x15A7 JUMPI PUSH1 0x40 MLOAD PUSH3 0x461BCD PUSH1 0xE5 SHL DUP2 MSTORE PUSH1 0x20 PUSH1 0x4 DUP3 ADD MSTORE PUSH1 0x1B PUSH1 0x24 DUP3 ADD MSTORE PUSH32 0x536166654D6174683A206164646974696F6E206F766572666C6F770000000000 PUSH1 0x44 DUP3 ADD MSTORE PUSH1 0x64 ADD PUSH2 0x97C JUMP JUMPDEST SWAP4 SWAP3 POP POP POP JUMP JUMPDEST PUSH1 0x0 PUSH2 0x15DD PUSH1 0x40 MLOAD DUP1 PUSH1 0x40 ADD PUSH1 0x40 MSTORE DUP1 PUSH1 0xC DUP2 MSTORE PUSH1 0x20 ADD PUSH12 0x45584348414E474552415445 PUSH1 0xA0 SHL DUP2 MSTORE POP PUSH2 0x252C JUMP JUMPDEST SWAP1 POP SWAP1 JUMP JUMPDEST PUSH1 0x0 DUP3 PUSH2 0x15F1 JUMPI POP PUSH1 0x0 PUSH2 0xCA9 JUMP JUMPDEST PUSH1 0x0 PUSH2 0x15FD DUP4 DUP6 PUSH2 0x2DB3 JUMP JUMPDEST SWAP1 POP DUP3 PUSH2 0x160A DUP6 DUP4 PUSH2 0x2CA8 JUMP JUMPDEST EQ PUSH2 0x15A7 JUMPI PUSH1 0x40 MLOAD PUSH3 0x461BCD PUSH1 0xE5 SHL DUP2 MSTORE PUSH1 0x20 PUSH1 0x4 DUP3 ADD MSTORE PUSH1 0x21 PUSH1 0x24 DUP3 ADD MSTORE PUSH32 0x536166654D6174683A206D756C7469706C69636174696F6E206F766572666C6F PUSH1 0x44 DUP3 ADD MSTORE PUSH1 0x77 PUSH1 0xF8 SHL PUSH1 0x64 DUP3 ADD MSTORE PUSH1 0x84 ADD PUSH2 0x97C JUMP JUMPDEST PUSH1 0x0 PUSH2 0x15A7 DUP4 DUP4 PUSH1 0x40 MLOAD DUP1 PUSH1 0x40 ADD PUSH1 0x40 MSTORE DUP1 PUSH1 0x1E DUP2 MSTORE PUSH1 0x20 ADD PUSH32 0x536166654D6174683A207375627472616374696F6E206F766572666C6F770000 DUP2 MSTORE POP PUSH2 0x259F JUMP JUMPDEST PUSH1 0x0 PUSH2 0x16B1 PUSH1 0x12 PUSH1 0xA PUSH2 0x2D0B JUMP JUMPDEST PUSH2 0x16BB DUP5 DUP5 PUSH2 0x15E2 JUMP JUMPDEST PUSH2 0x15A7 SWAP2 SWAP1 PUSH2 0x2CA8 JUMP JUMPDEST PUSH1 0x0 PUSH2 0x15A7 DUP4 DUP4 PUSH1 0x40 MLOAD DUP1 PUSH1 0x40 ADD PUSH1 0x40 MSTORE DUP1 PUSH1 0x1A DUP2 MSTORE PUSH1 0x20 ADD PUSH32 0x536166654D6174683A206469766973696F6E206279207A65726F000000000000 DUP2 MSTORE POP PUSH2 0x25D9 JUMP JUMPDEST PUSH1 0x0 PUSH1 0x4 SLOAD CALLVALUE LT ISZERO PUSH2 0x172B JUMPI PUSH1 0x40 MLOAD PUSH3 0x461BCD PUSH1 0xE5 SHL DUP2 MSTORE PUSH1 0x4 ADD PUSH2 0x97C SWAP1 PUSH2 0x2C3E JUMP JUMPDEST CALLER PUSH1 0x0 SWAP1 DUP2 MSTORE PUSH1 0x8 PUSH1 0x20 SWAP1 DUP2 MSTORE PUSH1 0x40 DUP1 DUP4 KECCAK256 DUP2 MLOAD PUSH1 0xA0 DUP2 ADD DUP4 MSTORE DUP2 SLOAD PUSH1 0x1 PUSH1 0x1 PUSH1 0xA0 SHL SUB AND DUP2 MSTORE PUSH1 0x1 DUP1 DUP4 ADD SLOAD SWAP5 DUP3 ADD SWAP5 SWAP1 SWAP5 MSTORE PUSH1 0x2 DUP3 ADD SLOAD SWAP3 DUP2 ADD SWAP3 SWAP1 SWAP3 MSTORE PUSH1 0x3 DUP2 ADD SLOAD PUSH1 0x60 DUP4 ADD MSTORE PUSH1 0x4 DUP2 ADD SLOAD SWAP2 SWAP3 SWAP1 SWAP2 PUSH1 0x80 DUP5 ADD SWAP2 PUSH1 0xFF SWAP1 SWAP2 AND SWAP1 DUP2 GT ISZERO PUSH2 0x17A6 JUMPI PUSH4 0x4E487B71 PUSH1 0xE0 SHL PUSH1 0x0 MSTORE PUSH1 0x21 PUSH1 0x4 MSTORE PUSH1 0x24 PUSH1 0x0 REVERT JUMPDEST PUSH1 0x1 DUP2 GT ISZERO PUSH2 0x17C5 JUMPI PUSH4 0x4E487B71 PUSH1 0xE0 SHL PUSH1 0x0 MSTORE PUSH1 0x21 PUSH1 0x4 MSTORE PUSH1 0x24 PUSH1 0x0 REVERT JUMPDEST SWAP1 MSTORE POP PUSH1 0x20 DUP2 ADD MLOAD SWAP1 SWAP2 POP PUSH1 0x0 SWAP1 PUSH2 0x17DD SWAP1 CALLVALUE PUSH2 0x1548 JUMP JUMPDEST SWAP1 POP PUSH1 0x0 PUSH2 0x17F8 DUP6 DUP5 PUSH1 0x60 ADD MLOAD PUSH2 0x1548 SWAP1 SWAP2 SWAP1 PUSH4 0xFFFFFFFF AND JUMP JUMPDEST SWAP1 POP PUSH1 0x40 MLOAD DUP1 PUSH1 0xA0 ADD PUSH1 0x40 MSTORE DUP1 DUP5 PUSH1 0x0 ADD MLOAD PUSH1 0x1 PUSH1 0x1 PUSH1 0xA0 SHL SUB AND DUP2 MSTORE PUSH1 0x20 ADD DUP4 DUP2 MSTORE PUSH1 0x20 ADD DUP5 PUSH1 0x40 ADD MLOAD DUP2 MSTORE PUSH1 0x20 ADD DUP3 DUP2 MSTORE PUSH1 0x20 ADD PUSH1 0x0 PUSH1 0x1 DUP2 GT ISZERO PUSH2 0x184F JUMPI PUSH4 0x4E487B71 PUSH1 0xE0 SHL PUSH1 0x0 MSTORE PUSH1 0x21 PUSH1 0x4 MSTORE PUSH1 0x24 PUSH1 0x0 REVERT JUMPDEST PUSH1 0x1 DUP2 GT ISZERO PUSH2 0x186E JUMPI PUSH4 0x4E487B71 PUSH1 0xE0 SHL PUSH1 0x0 MSTORE PUSH1 0x21 PUSH1 0x4 MSTORE PUSH1 0x24 PUSH1 0x0 REVERT JUMPDEST SWAP1 MSTORE CALLER PUSH1 0x0 SWAP1 DUP2 MSTORE PUSH1 0x8 PUSH1 0x20 SWAP1 DUP2 MSTORE PUSH1 0x40 SWAP2 DUP3 SWAP1 KECCAK256 DUP4 MLOAD DUP2 SLOAD PUSH1 0x1 PUSH1 0x1 PUSH1 0xA0 SHL SUB NOT AND PUSH1 0x1 PUSH1 0x1 PUSH1 0xA0 SHL SUB SWAP1 SWAP2 AND OR DUP2 SSTORE SWAP1 DUP4 ADD MLOAD PUSH1 0x1 DUP1 DUP4 ADD SWAP2 SWAP1 SWAP2 SSTORE SWAP2 DUP4 ADD MLOAD PUSH1 0x2 DUP3 ADD SSTORE PUSH1 0x60 DUP4 ADD MLOAD PUSH1 0x3 DUP3 ADD SSTORE PUSH1 0x80 DUP4 ADD MLOAD PUSH1 0x4 DUP3 ADD DUP1 SLOAD SWAP3 SWAP4 SWAP2 SWAP3 SWAP1 SWAP2 PUSH1 0xFF NOT SWAP1 SWAP2 AND SWAP1 DUP4 DUP2 DUP2 GT ISZERO PUSH2 0x18F6 JUMPI PUSH4 0x4E487B71 PUSH1 0xE0 SHL PUSH1 0x0 MSTORE PUSH1 0x21 PUSH1 0x4 MSTORE PUSH1 0x24 PUSH1 0x0 REVERT JUMPDEST MUL OR SWAP1 SSTORE POP POP CALLER PUSH1 0x0 SWAP1 DUP2 MSTORE PUSH1 0x9 PUSH1 0x20 MSTORE PUSH1 0x40 DUP1 DUP3 KECCAK256 SWAP1 MLOAD SWAP2 SWAP3 POP SWAP1 PUSH2 0x191B SWAP1 PUSH2 0x2A44 JUMP JUMPDEST SWAP1 DUP2 MSTORE PUSH1 0x40 DUP1 MLOAD SWAP2 DUP3 SWAP1 SUB PUSH1 0x20 SWAP1 DUP2 ADD DUP4 KECCAK256 PUSH1 0xE0 DUP5 ADD SWAP1 SWAP3 MSTORE DUP2 SLOAD PUSH1 0x1 PUSH1 0x1 PUSH1 0xA0 SHL SUB AND DUP4 MSTORE PUSH1 0x1 DUP3 ADD DUP1 SLOAD SWAP2 DUP5 ADD SWAP2 PUSH2 0x1954 SWAP1 PUSH2 0x2E19 JUMP JUMPDEST DUP1 PUSH1 0x1F ADD PUSH1 0x20 DUP1 SWAP2 DIV MUL PUSH1 0x20 ADD PUSH1 0x40 MLOAD SWAP1 DUP2 ADD PUSH1 0x40 MSTORE DUP1 SWAP3 SWAP2 SWAP1 DUP2 DUP2 MSTORE PUSH1 0x20 ADD DUP3 DUP1 SLOAD PUSH2 0x1980 SWAP1 PUSH2 0x2E19 JUMP JUMPDEST DUP1 ISZERO PUSH2 0x19CD JUMPI DUP1 PUSH1 0x1F LT PUSH2 0x19A2 JUMPI PUSH2 0x100 DUP1 DUP4 SLOAD DIV MUL DUP4 MSTORE SWAP2 PUSH1 0x20 ADD SWAP2 PUSH2 0x19CD JUMP JUMPDEST DUP3 ADD SWAP2 SWAP1 PUSH1 0x0 MSTORE PUSH1 0x20 PUSH1 0x0 KECCAK256 SWAP1 JUMPDEST DUP2 SLOAD DUP2 MSTORE SWAP1 PUSH1 0x1 ADD SWAP1 PUSH1 0x20 ADD DUP1 DUP4 GT PUSH2 0x19B0 JUMPI DUP3 SWAP1 SUB PUSH1 0x1F AND DUP3 ADD SWAP2 JUMPDEST POP POP POP SWAP2 DUP4 MSTORE POP POP PUSH1 0x2 DUP3 ADD SLOAD PUSH1 0x20 DUP3 ADD MSTORE PUSH1 0x3 DUP3 ADD SLOAD PUSH1 0x40 DUP1 DUP4 ADD SWAP2 SWAP1 SWAP2 MSTORE PUSH1 0x4 SWAP1 SWAP3 ADD SLOAD PUSH1 0xFF DUP1 DUP3 AND ISZERO ISZERO PUSH1 0x60 DUP5 ADD MSTORE PUSH2 0x100 DUP3 DIV DUP2 AND ISZERO ISZERO PUSH1 0x80 DUP5 ADD MSTORE PUSH3 0x10000 SWAP1 SWAP2 DIV AND ISZERO ISZERO PUSH1 0xA0 SWAP1 SWAP2 ADD MSTORE DUP2 ADD MLOAD SWAP1 SWAP2 POP PUSH1 0x0 SWAP1 PUSH2 0x1A30 SWAP1 DUP5 PUSH2 0x1548 JUMP JUMPDEST PUSH1 0x40 DUP1 MLOAD PUSH1 0xE0 DUP2 ADD DUP3 MSTORE CALLER DUP1 DUP3 MSTORE DUP3 MLOAD DUP1 DUP5 ADD DUP5 MSTORE PUSH1 0x5 DUP2 MSTORE PUSH5 0x16111554D1 PUSH1 0xDA SHL PUSH1 0x20 DUP3 DUP2 ADD SWAP2 SWAP1 SWAP2 MSTORE DUP1 DUP5 ADD SWAP2 SWAP1 SWAP2 MSTORE DUP3 DUP5 ADD DUP6 SWAP1 MSTORE PUSH1 0x0 PUSH1 0x60 DUP5 ADD DUP2 SWAP1 MSTORE PUSH1 0x1 PUSH1 0x80 DUP6 ADD DUP2 SWAP1 MSTORE PUSH1 0xA0 DUP6 ADD MSTORE PUSH1 0xC0 DUP5 ADD DUP2 SWAP1 MSTORE SWAP2 DUP3 MSTORE PUSH1 0x9 SWAP1 MSTORE DUP3 SWAP1 KECCAK256 SWAP2 MLOAD SWAP3 SWAP4 POP SWAP2 PUSH2 0x1A9F SWAP1 PUSH2 0x2A44 JUMP JUMPDEST SWAP1 DUP2 MSTORE PUSH1 0x40 MLOAD PUSH1 0x20 SWAP2 DUP2 SWAP1 SUB DUP3 ADD SWAP1 KECCAK256 DUP3 MLOAD DUP2 SLOAD PUSH1 0x1 PUSH1 0x1 PUSH1 0xA0 SHL SUB NOT AND PUSH1 0x1 PUSH1 0x1 PUSH1 0xA0 SHL SUB SWAP1 SWAP2 AND OR DUP2 SSTORE DUP3 DUP3 ADD MLOAD DUP1 MLOAD SWAP2 SWAP3 PUSH2 0x1AE5 SWAP3 PUSH1 0x1 DUP6 ADD SWAP3 SWAP1 SWAP2 ADD SWAP1 PUSH2 0x265E JUMP JUMPDEST POP PUSH1 0x40 DUP3 DUP2 ADD MLOAD PUSH1 0x2 DUP4 ADD SSTORE PUSH1 0x60 DUP4 ADD MLOAD PUSH1 0x3 DUP4 ADD SSTORE PUSH1 0x80 DUP4 ADD MLOAD PUSH1 0x4 SWAP1 SWAP3 ADD DUP1 SLOAD PUSH1 0xA0 DUP6 ADD MLOAD PUSH1 0xC0 SWAP1 SWAP6 ADD MLOAD ISZERO ISZERO PUSH3 0x10000 MUL PUSH3 0xFF0000 NOT SWAP6 ISZERO ISZERO PUSH2 0x100 MUL PUSH2 0xFF00 NOT SWAP6 ISZERO ISZERO SWAP6 SWAP1 SWAP6 AND PUSH2 0xFFFF NOT SWAP1 SWAP3 AND SWAP2 SWAP1 SWAP2 OR SWAP4 SWAP1 SWAP4 OR SWAP4 SWAP1 SWAP4 AND SWAP2 SWAP1 SWAP2 OR SWAP1 SWAP2 SSTORE CALLER PUSH1 0x0 SWAP1 DUP2 MSTORE PUSH1 0xA PUSH1 0x20 SWAP1 DUP2 MSTORE DUP3 DUP3 KECCAK256 PUSH1 0x9 SWAP1 SWAP2 MSTORE SWAP1 DUP3 SWAP1 KECCAK256 SWAP2 MLOAD SWAP1 SWAP2 SWAP1 PUSH2 0x1B71 SWAP1 PUSH2 0x2A44 JUMP JUMPDEST SWAP1 DUP2 MSTORE PUSH1 0x40 MLOAD SWAP1 DUP2 SWAP1 SUB PUSH1 0x20 SWAP1 DUP2 ADD SWAP1 SWAP2 KECCAK256 DUP3 SLOAD PUSH1 0x1 DUP2 DUP2 ADD DUP6 SSTORE PUSH1 0x0 SWAP5 DUP6 MSTORE SWAP3 SWAP1 SWAP4 KECCAK256 DUP2 SLOAD PUSH1 0x5 SWAP1 SWAP5 MUL ADD DUP1 SLOAD PUSH1 0x1 PUSH1 0x1 PUSH1 0xA0 SHL SUB NOT AND PUSH1 0x1 PUSH1 0x1 PUSH1 0xA0 SHL SUB SWAP1 SWAP5 AND SWAP4 SWAP1 SWAP4 OR DUP4 SSTORE DUP2 DUP2 ADD DUP1 SLOAD SWAP2 SWAP4 SWAP3 DUP4 ADD SWAP2 PUSH2 0x1BCE SWAP1 PUSH2 0x2E19 JUMP JUMPDEST PUSH2 0x1BD9 SWAP3 SWAP2 SWAP1 PUSH2 0x26E2 JUMP JUMPDEST POP PUSH1 0x2 DUP3 DUP2 ADD SLOAD SWAP1 DUP3 ADD SSTORE PUSH1 0x3 DUP1 DUP4 ADD SLOAD SWAP1 DUP3 ADD SSTORE PUSH1 0x4 SWAP2 DUP3 ADD DUP1 SLOAD SWAP3 SWAP1 SWAP2 ADD DUP1 SLOAD PUSH1 0xFF SWAP4 DUP5 AND ISZERO ISZERO PUSH1 0xFF NOT DUP3 AND DUP2 OR DUP4 SSTORE DUP4 SLOAD PUSH2 0x100 SWAP1 DUP2 SWAP1 DIV DUP7 AND ISZERO ISZERO MUL PUSH2 0xFF00 NOT SWAP1 SWAP2 AND PUSH2 0xFFFF NOT SWAP1 SWAP3 AND SWAP2 SWAP1 SWAP2 OR OR DUP1 DUP3 SSTORE SWAP2 SLOAD PUSH3 0x10000 SWAP1 DUP2 SWAP1 DIV SWAP1 SWAP4 AND ISZERO ISZERO SWAP1 SWAP3 MUL PUSH3 0xFF0000 NOT SWAP1 SWAP2 AND OR SWAP1 SSTORE PUSH2 0x1C54 PUSH2 0x2607 JUMP JUMPDEST PUSH1 0x40 MLOAD PUSH4 0x40C10F19 PUSH1 0xE0 SHL DUP2 MSTORE CALLER PUSH1 0x4 DUP3 ADD MSTORE PUSH1 0x24 DUP2 ADD DUP10 SWAP1 MSTORE PUSH1 0x1 PUSH1 0x1 PUSH1 0xA0 SHL SUB SWAP2 SWAP1 SWAP2 AND SWAP1 PUSH4 0x40C10F19 SWAP1 PUSH1 0x44 ADD PUSH1 0x20 PUSH1 0x40 MLOAD DUP1 DUP4 SUB DUP2 PUSH1 0x0 DUP8 DUP1 EXTCODESIZE ISZERO DUP1 ISZERO PUSH2 0x1C9E JUMPI PUSH1 0x0 DUP1 REVERT JUMPDEST POP GAS CALL ISZERO DUP1 ISZERO PUSH2 0x1CB2 JUMPI RETURNDATASIZE PUSH1 0x0 DUP1 RETURNDATACOPY RETURNDATASIZE PUSH1 0x0 REVERT JUMPDEST POP POP POP POP PUSH1 0x40 MLOAD RETURNDATASIZE PUSH1 0x1F NOT PUSH1 0x1F DUP3 ADD AND DUP3 ADD DUP1 PUSH1 0x40 MSTORE POP DUP2 ADD SWAP1 PUSH2 0x1CD6 SWAP2 SWAP1 PUSH2 0x2903 JUMP JUMPDEST POP SWAP6 SWAP7 SWAP6 POP POP POP POP POP POP JUMP JUMPDEST PUSH1 0x40 MLOAD PUSH4 0x70A08231 PUSH1 0xE0 SHL DUP2 MSTORE PUSH1 0x1 PUSH1 0x1 PUSH1 0xA0 SHL SUB DUP5 DUP2 AND PUSH1 0x4 DUP4 ADD MSTORE DUP3 SWAP2 SWAP1 DUP5 AND SWAP1 PUSH4 0x70A08231 SWAP1 PUSH1 0x24 ADD PUSH1 0x20 PUSH1 0x40 MLOAD DUP1 DUP4 SUB DUP2 DUP7 DUP1 EXTCODESIZE ISZERO DUP1 ISZERO PUSH2 0x1D26 JUMPI PUSH1 0x0 DUP1 REVERT JUMPDEST POP GAS STATICCALL ISZERO DUP1 ISZERO PUSH2 0x1D3A JUMPI RETURNDATASIZE PUSH1 0x0 DUP1 RETURNDATACOPY RETURNDATASIZE PUSH1 0x0 REVERT JUMPDEST POP POP POP POP PUSH1 0x40 MLOAD RETURNDATASIZE PUSH1 0x1F NOT PUSH1 0x1F DUP3 ADD AND DUP3 ADD DUP1 PUSH1 0x40 MSTORE POP DUP2 ADD SWAP1 PUSH2 0x1D5E SWAP2 SWAP1 PUSH2 0x2923 JUMP JUMPDEST LT ISZERO PUSH2 0x1DC0 JUMPI PUSH1 0x40 MLOAD PUSH3 0x461BCD PUSH1 0xE5 SHL DUP2 MSTORE PUSH1 0x20 PUSH1 0x4 DUP3 ADD MSTORE PUSH1 0x2B PUSH1 0x24 DUP3 ADD MSTORE PUSH32 0x5852433230476174657761793A20696E73756666696369656E74206375727265 PUSH1 0x44 DUP3 ADD MSTORE PUSH11 0x6E63792062616C616E6365 PUSH1 0xA8 SHL PUSH1 0x64 DUP3 ADD MSTORE PUSH1 0x84 ADD PUSH2 0x97C JUMP JUMPDEST POP POP POP JUMP JUMPDEST PUSH1 0x40 MLOAD PUSH4 0x6EB1769F PUSH1 0xE1 SHL DUP2 MSTORE PUSH1 0x1 PUSH1 0x1 PUSH1 0xA0 SHL SUB DUP5 DUP2 AND PUSH1 0x4 DUP4 ADD MSTORE ADDRESS PUSH1 0x24 DUP4 ADD MSTORE DUP3 SWAP2 SWAP1 DUP5 AND SWAP1 PUSH4 0xDD62ED3E SWAP1 PUSH1 0x44 ADD PUSH1 0x20 PUSH1 0x40 MLOAD DUP1 DUP4 SUB DUP2 DUP7 DUP1 EXTCODESIZE ISZERO DUP1 ISZERO PUSH2 0x1E0F JUMPI PUSH1 0x0 DUP1 REVERT JUMPDEST POP GAS STATICCALL ISZERO DUP1 ISZERO PUSH2 0x1E23 JUMPI RETURNDATASIZE PUSH1 0x0 DUP1 RETURNDATACOPY RETURNDATASIZE PUSH1 0x0 REVERT JUMPDEST POP POP POP POP PUSH1 0x40 MLOAD RETURNDATASIZE PUSH1 0x1F NOT PUSH1 0x1F DUP3 ADD AND DUP3 ADD DUP1 PUSH1 0x40 MSTORE POP DUP2 ADD SWAP1 PUSH2 0x1E47 SWAP2 SWAP1 PUSH2 0x2923 JUMP JUMPDEST LT ISZERO PUSH2 0x1DC0 JUMPI PUSH1 0x40 MLOAD PUSH3 0x461BCD PUSH1 0xE5 SHL DUP2 MSTORE PUSH1 0x20 PUSH1 0x4 DUP3 ADD MSTORE PUSH1 0x25 PUSH1 0x24 DUP3 ADD MSTORE PUSH32 0x5852433230476174657761793A20696E73756666696369656E7420616C6C6F77 PUSH1 0x44 DUP3 ADD MSTORE PUSH5 0x30B731B297 PUSH1 0xD9 SHL PUSH1 0x64 DUP3 ADD MSTORE PUSH1 0x84 ADD PUSH2 0x97C JUMP JUMPDEST PUSH1 0x40 MLOAD PUSH4 0x23B872DD PUSH1 0xE0 SHL DUP2 MSTORE CALLER PUSH1 0x4 DUP3 ADD MSTORE ADDRESS PUSH1 0x24 DUP3 ADD MSTORE PUSH1 0x44 DUP2 ADD DUP4 SWAP1 MSTORE PUSH1 0x1 PUSH1 0x1 PUSH1 0xA0 SHL SUB DUP3 AND SWAP1 PUSH4 0x23B872DD SWAP1 PUSH1 0x64 ADD PUSH1 0x20 PUSH1 0x40 MLOAD DUP1 DUP4 SUB DUP2 PUSH1 0x0 DUP8 DUP1 EXTCODESIZE ISZERO DUP1 ISZERO PUSH2 0x1EF1 JUMPI PUSH1 0x0 DUP1 REVERT JUMPDEST POP GAS CALL ISZERO DUP1 ISZERO PUSH2 0x1F05 JUMPI RETURNDATASIZE PUSH1 0x0 DUP1 RETURNDATACOPY RETURNDATASIZE PUSH1 0x0 REVERT JUMPDEST POP POP POP POP PUSH1 0x40 MLOAD RETURNDATASIZE PUSH1 0x1F NOT PUSH1 0x1F DUP3 ADD AND DUP3 ADD DUP1 PUSH1 0x40 MSTORE POP DUP2 ADD SWAP1 PUSH2 0x1DC0 SWAP2 SWAP1 PUSH2 0x2903 JUMP JUMPDEST PUSH1 0x0 PUSH1 0x5 SLOAD DUP3 LT ISZERO PUSH2 0x1F4D JUMPI PUSH1 0x40 MLOAD PUSH3 0x461BCD PUSH1 0xE5 SHL DUP2 MSTORE PUSH1 0x4 ADD PUSH2 0x97C SWAP1 PUSH2 0x2B70 JUMP JUMPDEST CALLER PUSH1 0x0 SWAP1 DUP2 MSTORE PUSH1 0x8 PUSH1 0x20 SWAP1 DUP2 MSTORE PUSH1 0x40 DUP1 DUP4 KECCAK256 DUP2 MLOAD PUSH1 0xA0 DUP2 ADD DUP4 MSTORE DUP2 SLOAD PUSH1 0x1 PUSH1 0x1 PUSH1 0xA0 SHL SUB AND DUP2 MSTORE PUSH1 0x1 DUP1 DUP4 ADD SLOAD SWAP5 DUP3 ADD SWAP5 SWAP1 SWAP5 MSTORE PUSH1 0x2 DUP3 ADD SLOAD SWAP3 DUP2 ADD SWAP3 SWAP1 SWAP3 MSTORE PUSH1 0x3 DUP2 ADD SLOAD PUSH1 0x60 DUP4 ADD MSTORE PUSH1 0x4 DUP2 ADD SLOAD SWAP2 SWAP3 SWAP1 SWAP2 PUSH1 0x80 DUP5 ADD SWAP2 PUSH1 0xFF SWAP1 SWAP2 AND SWAP1 DUP2 GT ISZERO PUSH2 0x1FC8 JUMPI PUSH4 0x4E487B71 PUSH1 0xE0 SHL PUSH1 0x0 MSTORE PUSH1 0x21 PUSH1 0x4 MSTORE PUSH1 0x24 PUSH1 0x0 REVERT JUMPDEST PUSH1 0x1 DUP2 GT ISZERO PUSH2 0x1FE7 JUMPI PUSH4 0x4E487B71 PUSH1 0xE0 SHL PUSH1 0x0 MSTORE PUSH1 0x21 PUSH1 0x4 MSTORE PUSH1 0x24 PUSH1 0x0 REVERT JUMPDEST SWAP1 MSTORE POP PUSH1 0x40 DUP2 ADD MLOAD SWAP1 SWAP2 POP PUSH1 0x0 SWAP1 PUSH2 0x1FFF SWAP1 DUP6 PUSH2 0x1548 JUMP JUMPDEST SWAP1 POP PUSH1 0x0 PUSH2 0x201A DUP7 DUP5 PUSH1 0x60 ADD MLOAD PUSH2 0x1548 SWAP1 SWAP2 SWAP1 PUSH4 0xFFFFFFFF AND JUMP JUMPDEST PUSH1 0x40 DUP1 MLOAD PUSH1 0xA0 DUP2 ADD DUP3 MSTORE DUP6 MLOAD PUSH1 0x1 PUSH1 0x1 PUSH1 0xA0 SHL SUB SWAP1 DUP2 AND DUP3 MSTORE PUSH1 0x20 DUP1 DUP9 ADD MLOAD DUP2 DUP5 ADD SWAP1 DUP2 MSTORE DUP4 DUP6 ADD DUP9 DUP2 MSTORE PUSH1 0x60 DUP6 ADD DUP8 DUP2 MSTORE PUSH1 0x1 PUSH1 0x80 DUP8 ADD DUP2 DUP2 MSTORE CALLER PUSH1 0x0 SWAP1 DUP2 MSTORE PUSH1 0x8 SWAP1 SWAP7 MSTORE SWAP8 SWAP1 SWAP5 KECCAK256 DUP7 MLOAD DUP2 SLOAD PUSH1 0x1 PUSH1 0x1 PUSH1 0xA0 SHL SUB NOT AND SWAP7 AND SWAP6 SWAP1 SWAP6 OR DUP6 SSTORE SWAP2 MLOAD DUP5 DUP5 ADD SSTORE MLOAD PUSH1 0x2 DUP5 ADD SSTORE MLOAD PUSH1 0x3 DUP4 ADD SSTORE SWAP3 MLOAD PUSH1 0x4 DUP3 ADD DUP1 SLOAD SWAP6 SWAP7 POP SWAP3 SWAP5 SWAP2 SWAP4 SWAP1 SWAP3 SWAP2 PUSH1 0xFF NOT AND SWAP1 DUP4 DUP2 DUP2 GT ISZERO PUSH2 0x20C2 JUMPI PUSH4 0x4E487B71 PUSH1 0xE0 SHL PUSH1 0x0 MSTORE PUSH1 0x21 PUSH1 0x4 MSTORE PUSH1 0x24 PUSH1 0x0 REVERT JUMPDEST MUL OR SWAP1 SSTORE POP POP CALLER PUSH1 0x0 SWAP1 DUP2 MSTORE PUSH1 0x9 PUSH1 0x20 MSTORE PUSH1 0x40 DUP1 DUP3 KECCAK256 SWAP1 MLOAD SWAP2 SWAP3 POP SWAP1 PUSH2 0x20E7 SWAP1 PUSH2 0x2A44 JUMP JUMPDEST SWAP1 DUP2 MSTORE PUSH1 0x40 DUP1 MLOAD SWAP2 DUP3 SWAP1 SUB PUSH1 0x20 SWAP1 DUP2 ADD DUP4 KECCAK256 PUSH1 0xE0 DUP5 ADD SWAP1 SWAP3 MSTORE DUP2 SLOAD PUSH1 0x1 PUSH1 0x1 PUSH1 0xA0 SHL SUB AND DUP4 MSTORE PUSH1 0x1 DUP3 ADD DUP1 SLOAD SWAP2 DUP5 ADD SWAP2 PUSH2 0x2120 SWAP1 PUSH2 0x2E19 JUMP JUMPDEST DUP1 PUSH1 0x1F ADD PUSH1 0x20 DUP1 SWAP2 DIV MUL PUSH1 0x20 ADD PUSH1 0x40 MLOAD SWAP1 DUP2 ADD PUSH1 0x40 MSTORE DUP1 SWAP3 SWAP2 SWAP1 DUP2 DUP2 MSTORE PUSH1 0x20 ADD DUP3 DUP1 SLOAD PUSH2 0x214C SWAP1 PUSH2 0x2E19 JUMP JUMPDEST DUP1 ISZERO PUSH2 0x2199 JUMPI DUP1 PUSH1 0x1F LT PUSH2 0x216E JUMPI PUSH2 0x100 DUP1 DUP4 SLOAD DIV MUL DUP4 MSTORE SWAP2 PUSH1 0x20 ADD SWAP2 PUSH2 0x2199 JUMP JUMPDEST DUP3 ADD SWAP2 SWAP1 PUSH1 0x0 MSTORE PUSH1 0x20 PUSH1 0x0 KECCAK256 SWAP1 JUMPDEST DUP2 SLOAD DUP2 MSTORE SWAP1 PUSH1 0x1 ADD SWAP1 PUSH1 0x20 ADD DUP1 DUP4 GT PUSH2 0x217C JUMPI DUP3 SWAP1 SUB PUSH1 0x1F AND DUP3 ADD SWAP2 JUMPDEST POP POP POP SWAP2 DUP4 MSTORE POP POP PUSH1 0x2 DUP3 ADD SLOAD PUSH1 0x20 DUP3 ADD MSTORE PUSH1 0x3 DUP3 ADD SLOAD PUSH1 0x40 DUP1 DUP4 ADD SWAP2 SWAP1 SWAP2 MSTORE PUSH1 0x4 SWAP1 SWAP3 ADD SLOAD PUSH1 0xFF DUP1 DUP3 AND ISZERO ISZERO PUSH1 0x60 DUP5 ADD MSTORE PUSH2 0x100 DUP3 DIV DUP2 AND ISZERO ISZERO PUSH1 0x80 DUP5 ADD MSTORE PUSH3 0x10000 SWAP1 SWAP2 DIV AND ISZERO ISZERO PUSH1 0xA0 SWAP1 SWAP2 ADD MSTORE DUP2 ADD MLOAD SWAP1 SWAP2 POP PUSH1 0x0 SWAP1 PUSH2 0x21FC SWAP1 DUP5 PUSH2 0x1548 JUMP JUMPDEST PUSH1 0x40 DUP1 MLOAD PUSH1 0xE0 DUP2 ADD DUP3 MSTORE CALLER DUP1 DUP3 MSTORE DUP3 MLOAD DUP1 DUP5 ADD DUP5 MSTORE PUSH1 0x5 DUP2 MSTORE PUSH5 0x16111554D1 PUSH1 0xDA SHL PUSH1 0x20 DUP3 DUP2 ADD SWAP2 SWAP1 SWAP2 MSTORE DUP1 DUP5 ADD SWAP2 SWAP1 SWAP2 MSTORE DUP3 DUP5 ADD DUP6 SWAP1 MSTORE PUSH1 0x0 PUSH1 0x60 DUP5 ADD DUP2 SWAP1 MSTORE PUSH1 0x1 PUSH1 0x80 DUP6 ADD DUP2 SWAP1 MSTORE PUSH1 0xA0 DUP6 ADD MSTORE PUSH1 0xC0 DUP5 ADD DUP2 SWAP1 MSTORE SWAP2 DUP3 MSTORE PUSH1 0x9 SWAP1 MSTORE DUP3 SWAP1 KECCAK256 SWAP2 MLOAD SWAP3 SWAP4 POP SWAP2 PUSH2 0x226B SWAP1 PUSH2 0x2A44 JUMP JUMPDEST SWAP1 DUP2 MSTORE PUSH1 0x40 MLOAD PUSH1 0x20 SWAP2 DUP2 SWAP1 SUB DUP3 ADD SWAP1 KECCAK256 DUP3 MLOAD DUP2 SLOAD PUSH1 0x1 PUSH1 0x1 PUSH1 0xA0 SHL SUB NOT AND PUSH1 0x1 PUSH1 0x1 PUSH1 0xA0 SHL SUB SWAP1 SWAP2 AND OR DUP2 SSTORE DUP3 DUP3 ADD MLOAD DUP1 MLOAD SWAP2 SWAP3 PUSH2 0x22B1 SWAP3 PUSH1 0x1 DUP6 ADD SWAP3 SWAP1 SWAP2 ADD SWAP1 PUSH2 0x265E JUMP JUMPDEST POP PUSH1 0x40 DUP3 DUP2 ADD MLOAD PUSH1 0x2 DUP4 ADD SSTORE PUSH1 0x60 DUP4 ADD MLOAD PUSH1 0x3 DUP4 ADD SSTORE PUSH1 0x80 DUP4 ADD MLOAD PUSH1 0x4 SWAP1 SWAP3 ADD DUP1 SLOAD PUSH1 0xA0 DUP6 ADD MLOAD PUSH1 0xC0 SWAP1 SWAP6 ADD MLOAD ISZERO ISZERO PUSH3 0x10000 MUL PUSH3 0xFF0000 NOT SWAP6 ISZERO ISZERO PUSH2 0x100 MUL PUSH2 0xFF00 NOT SWAP6 ISZERO ISZERO SWAP6 SWAP1 SWAP6 AND PUSH2 0xFFFF NOT SWAP1 SWAP3 AND SWAP2 SWAP1 SWAP2 OR SWAP4 SWAP1 SWAP4 OR SWAP4 SWAP1 SWAP4 AND SWAP2 SWAP1 SWAP2 OR SWAP1 SWAP2 SSTORE CALLER PUSH1 0x0 SWAP1 DUP2 MSTORE PUSH1 0xA PUSH1 0x20 SWAP1 DUP2 MSTORE DUP3 DUP3 KECCAK256 PUSH1 0x9 SWAP1 SWAP2 MSTORE SWAP1 DUP3 SWAP1 KECCAK256 SWAP2 MLOAD SWAP1 SWAP2 SWAP1 PUSH2 0x233D SWAP1 PUSH2 0x2A44 JUMP JUMPDEST SWAP1 DUP2 MSTORE PUSH1 0x40 MLOAD SWAP1 DUP2 SWAP1 SUB PUSH1 0x20 SWAP1 DUP2 ADD SWAP1 SWAP2 KECCAK256 DUP3 SLOAD PUSH1 0x1 DUP2 DUP2 ADD DUP6 SSTORE PUSH1 0x0 SWAP5 DUP6 MSTORE SWAP3 SWAP1 SWAP4 KECCAK256 DUP2 SLOAD PUSH1 0x5 SWAP1 SWAP5 MUL ADD DUP1 SLOAD PUSH1 0x1 PUSH1 0x1 PUSH1 0xA0 SHL SUB NOT AND PUSH1 0x1 PUSH1 0x1 PUSH1 0xA0 SHL SUB SWAP1 SWAP5 AND SWAP4 SWAP1 SWAP4 OR DUP4 SSTORE DUP2 DUP2 ADD DUP1 SLOAD SWAP2 SWAP4 SWAP3 DUP4 ADD SWAP2 PUSH2 0x239A SWAP1 PUSH2 0x2E19 JUMP JUMPDEST PUSH2 0x23A5 SWAP3 SWAP2 SWAP1 PUSH2 0x26E2 JUMP JUMPDEST POP PUSH1 0x2 DUP3 DUP2 ADD SLOAD SWAP1 DUP3 ADD SSTORE PUSH1 0x3 DUP1 DUP4 ADD SLOAD SWAP1 DUP3 ADD SSTORE PUSH1 0x4 SWAP2 DUP3 ADD DUP1 SLOAD SWAP3 SWAP1 SWAP2 ADD DUP1 SLOAD PUSH1 0xFF SWAP4 DUP5 AND ISZERO ISZERO PUSH1 0xFF NOT DUP3 AND DUP2 OR DUP4 SSTORE DUP4 SLOAD PUSH2 0x100 SWAP1 DUP2 SWAP1 DIV DUP7 AND ISZERO ISZERO MUL PUSH2 0xFF00 NOT SWAP1 SWAP2 AND PUSH2 0xFFFF NOT SWAP1 SWAP3 AND SWAP2 SWAP1 SWAP2 OR OR DUP1 DUP3 SSTORE SWAP2 SLOAD PUSH3 0x10000 SWAP1 DUP2 SWAP1 DIV SWAP1 SWAP4 AND ISZERO ISZERO SWAP1 SWAP3 MUL PUSH3 0xFF0000 NOT SWAP1 SWAP2 AND OR SWAP1 SSTORE PUSH2 0x2420 PUSH2 0x2607 JUMP JUMPDEST PUSH1 0x40 MLOAD PUSH4 0x40C10F19 PUSH1 0xE0 SHL DUP2 MSTORE CALLER PUSH1 0x4 DUP3 ADD MSTORE PUSH1 0x24 DUP2 ADD DUP11 SWAP1 MSTORE PUSH1 0x1 PUSH1 0x1 PUSH1 0xA0 SHL SUB SWAP2 SWAP1 SWAP2 AND SWAP1 PUSH4 0x40C10F19 SWAP1 PUSH1 0x44 ADD PUSH1 0x20 PUSH1 0x40 MLOAD DUP1 DUP4 SUB DUP2 PUSH1 0x0 DUP8 DUP1 EXTCODESIZE ISZERO DUP1 ISZERO PUSH2 0x246A JUMPI PUSH1 0x0 DUP1 REVERT JUMPDEST POP GAS CALL ISZERO DUP1 ISZERO PUSH2 0x247E JUMPI RETURNDATASIZE PUSH1 0x0 DUP1 RETURNDATACOPY RETURNDATASIZE PUSH1 0x0 REVERT JUMPDEST POP POP POP POP PUSH1 0x40 MLOAD RETURNDATASIZE PUSH1 0x1F NOT PUSH1 0x1F DUP3 ADD AND DUP3 ADD DUP1 PUSH1 0x40 MSTORE POP DUP2 ADD SWAP1 PUSH2 0x24A2 SWAP2 SWAP1 PUSH2 0x2903 JUMP JUMPDEST POP SWAP7 SWAP8 SWAP7 POP POP POP POP POP POP POP JUMP JUMPDEST PUSH2 0x24B7 PUSH2 0x262F JUMP JUMPDEST PUSH1 0x1 PUSH1 0x1 PUSH1 0xA0 SHL SUB AND CALLER PUSH1 0x1 PUSH1 0x1 PUSH1 0xA0 SHL SUB AND EQ PUSH2 0x1546 JUMPI PUSH1 0x40 MLOAD PUSH3 0x461BCD PUSH1 0xE5 SHL DUP2 MSTORE PUSH1 0x20 PUSH1 0x4 DUP3 ADD MSTORE PUSH1 0x2C PUSH1 0x24 DUP3 ADD MSTORE PUSH32 0x4F6E6C79205873796E45786368616E67652063616E20706572666F726D207468 PUSH1 0x44 DUP3 ADD MSTORE PUSH12 0x34B99037B832B930BA34B7B7 PUSH1 0xA1 SHL PUSH1 0x64 DUP3 ADD MSTORE PUSH1 0x84 ADD PUSH2 0x97C JUMP JUMPDEST PUSH1 0x0 DUP1 PUSH1 0x0 DUP4 PUSH1 0x40 MLOAD PUSH2 0x253F SWAP2 SWAP1 PUSH2 0x2A28 JUMP JUMPDEST SWAP1 DUP2 MSTORE PUSH1 0x40 MLOAD PUSH1 0x20 SWAP2 DUP2 SWAP1 SUB DUP3 ADD DUP2 KECCAK256 SLOAD PUSH1 0x1 PUSH1 0x1 PUSH1 0xA0 SHL SUB AND SWAP3 POP DUP3 ISZERO ISZERO SWAP2 PUSH2 0x256B SWAP2 DUP7 SWAP2 ADD PUSH2 0x2A55 JUMP JUMPDEST PUSH1 0x40 MLOAD PUSH1 0x20 DUP2 DUP4 SUB SUB DUP2 MSTORE SWAP1 PUSH1 0x40 MSTORE SWAP1 PUSH2 0x2598 JUMPI PUSH1 0x40 MLOAD PUSH3 0x461BCD PUSH1 0xE5 SHL DUP2 MSTORE PUSH1 0x4 ADD PUSH2 0x97C SWAP2 SWAP1 PUSH2 0x2B33 JUMP JUMPDEST POP SWAP3 SWAP2 POP POP JUMP JUMPDEST PUSH1 0x0 DUP2 DUP5 DUP5 GT ISZERO PUSH2 0x25C3 JUMPI PUSH1 0x40 MLOAD PUSH3 0x461BCD PUSH1 0xE5 SHL DUP2 MSTORE PUSH1 0x4 ADD PUSH2 0x97C SWAP2 SWAP1 PUSH2 0x2B33 JUMP JUMPDEST POP PUSH1 0x0 PUSH2 0x25D0 DUP5 DUP7 PUSH2 0x2DD2 JUMP JUMPDEST SWAP6 SWAP5 POP POP POP POP POP JUMP JUMPDEST PUSH1 0x0 DUP2 DUP4 PUSH2 0x25FA JUMPI PUSH1 0x40 MLOAD PUSH3 0x461BCD PUSH1 0xE5 SHL DUP2 MSTORE PUSH1 0x4 ADD PUSH2 0x97C SWAP2 SWAP1 PUSH2 0x2B33 JUMP JUMPDEST POP PUSH1 0x0 PUSH2 0x25D0 DUP5 DUP7 PUSH2 0x2CA8 JUMP JUMPDEST PUSH1 0x0 PUSH2 0x15DD PUSH1 0x40 MLOAD DUP1 PUSH1 0x40 ADD PUSH1 0x40 MSTORE DUP1 PUSH1 0x5 DUP2 MSTORE PUSH1 0x20 ADD PUSH5 0x16111554D1 PUSH1 0xDA SHL DUP2 MSTORE POP PUSH2 0x252C JUMP JUMPDEST PUSH1 0x0 PUSH2 0x15DD PUSH1 0x40 MLOAD DUP1 PUSH1 0x40 ADD PUSH1 0x40 MSTORE DUP1 PUSH1 0xC DUP2 MSTORE PUSH1 0x20 ADD PUSH12 0x5853796E45786368616E6765 PUSH1 0xA0 SHL DUP2 MSTORE POP PUSH2 0x252C JUMP JUMPDEST DUP3 DUP1 SLOAD PUSH2 0x266A SWAP1 PUSH2 0x2E19 JUMP JUMPDEST SWAP1 PUSH1 0x0 MSTORE PUSH1 0x20 PUSH1 0x0 KECCAK256 SWAP1 PUSH1 0x1F ADD PUSH1 0x20 SWAP1 DIV DUP2 ADD SWAP3 DUP3 PUSH2 0x268C JUMPI PUSH1 0x0 DUP6 SSTORE PUSH2 0x26D2 JUMP JUMPDEST DUP3 PUSH1 0x1F LT PUSH2 0x26A5 JUMPI DUP1 MLOAD PUSH1 0xFF NOT AND DUP4 DUP1 ADD OR DUP6 SSTORE PUSH2 0x26D2 JUMP JUMPDEST DUP3 DUP1 ADD PUSH1 0x1 ADD DUP6 SSTORE DUP3 ISZERO PUSH2 0x26D2 JUMPI SWAP2 DUP3 ADD JUMPDEST DUP3 DUP2 GT ISZERO PUSH2 0x26D2 JUMPI DUP3 MLOAD DUP3 SSTORE SWAP2 PUSH1 0x20 ADD SWAP2 SWAP1 PUSH1 0x1 ADD SWAP1 PUSH2 0x26B7 JUMP JUMPDEST POP PUSH2 0x26DE SWAP3 SWAP2 POP PUSH2 0x275D JUMP JUMPDEST POP SWAP1 JUMP JUMPDEST DUP3 DUP1 SLOAD PUSH2 0x26EE SWAP1 PUSH2 0x2E19 JUMP JUMPDEST SWAP1 PUSH1 0x0 MSTORE PUSH1 0x20 PUSH1 0x0 KECCAK256 SWAP1 PUSH1 0x1F ADD PUSH1 0x20 SWAP1 DIV DUP2 ADD SWAP3 DUP3 PUSH2 0x2710 JUMPI PUSH1 0x0 DUP6 SSTORE PUSH2 0x26D2 JUMP JUMPDEST DUP3 PUSH1 0x1F LT PUSH2 0x2721 JUMPI DUP1 SLOAD DUP6 SSTORE PUSH2 0x26D2 JUMP JUMPDEST DUP3 DUP1 ADD PUSH1 0x1 ADD DUP6 SSTORE DUP3 ISZERO PUSH2 0x26D2 JUMPI PUSH1 0x0 MSTORE PUSH1 0x20 PUSH1 0x0 KECCAK256 SWAP2 PUSH1 0x1F ADD PUSH1 0x20 SWAP1 DIV DUP3 ADD JUMPDEST DUP3 DUP2 GT ISZERO PUSH2 0x26D2 JUMPI DUP3 SLOAD DUP3 SSTORE SWAP2 PUSH1 0x1 ADD SWAP2 SWAP1 PUSH1 0x1 ADD SWAP1 PUSH2 0x2742 JUMP JUMPDEST JUMPDEST DUP1 DUP3 GT ISZERO PUSH2 0x26DE JUMPI PUSH1 0x0 DUP2 SSTORE PUSH1 0x1 ADD PUSH2 0x275E JUMP JUMPDEST DUP1 CALLDATALOAD PUSH1 0x1 PUSH1 0x1 PUSH1 0xA0 SHL SUB DUP2 AND DUP2 EQ PUSH2 0x2789 JUMPI PUSH1 0x0 DUP1 REVERT JUMPDEST SWAP2 SWAP1 POP JUMP JUMPDEST PUSH1 0x0 DUP3 PUSH1 0x1F DUP4 ADD SLT PUSH2 0x279E JUMPI DUP1 DUP2 REVERT JUMPDEST DUP2 CALLDATALOAD PUSH8 0xFFFFFFFFFFFFFFFF DUP1 DUP3 GT ISZERO PUSH2 0x27B9 JUMPI PUSH2 0x27B9 PUSH2 0x2E85 JUMP JUMPDEST PUSH1 0x40 MLOAD PUSH1 0x1F DUP4 ADD PUSH1 0x1F NOT SWAP1 DUP2 AND PUSH1 0x3F ADD AND DUP2 ADD SWAP1 DUP3 DUP3 GT DUP2 DUP4 LT OR ISZERO PUSH2 0x27E1 JUMPI PUSH2 0x27E1 PUSH2 0x2E85 JUMP JUMPDEST DUP2 PUSH1 0x40 MSTORE DUP4 DUP2 MSTORE DUP7 PUSH1 0x20 DUP6 DUP9 ADD ADD GT ISZERO PUSH2 0x27F9 JUMPI DUP5 DUP6 REVERT JUMPDEST DUP4 PUSH1 0x20 DUP8 ADD PUSH1 0x20 DUP4 ADD CALLDATACOPY SWAP3 DUP4 ADD PUSH1 0x20 ADD SWAP4 SWAP1 SWAP4 MSTORE POP SWAP4 SWAP3 POP POP POP JUMP JUMPDEST PUSH1 0x0 PUSH1 0x20 DUP3 DUP5 SUB SLT ISZERO PUSH2 0x2826 JUMPI DUP1 DUP2 REVERT JUMPDEST PUSH2 0x15A7 DUP3 PUSH2 0x2772 JUMP JUMPDEST PUSH1 0x0 DUP1 PUSH1 0x40 DUP4 DUP6 SUB SLT ISZERO PUSH2 0x2841 JUMPI DUP1 DUP2 REVERT JUMPDEST PUSH2 0x284A DUP4 PUSH2 0x2772 JUMP JUMPDEST SWAP2 POP PUSH1 0x20 DUP4 ADD CALLDATALOAD PUSH8 0xFFFFFFFFFFFFFFFF DUP2 GT ISZERO PUSH2 0x2865 JUMPI DUP2 DUP3 REVERT JUMPDEST PUSH2 0x2871 DUP6 DUP3 DUP7 ADD PUSH2 0x278E JUMP JUMPDEST SWAP2 POP POP SWAP3 POP SWAP3 SWAP1 POP JUMP JUMPDEST PUSH1 0x0 DUP1 PUSH1 0x40 DUP4 DUP6 SUB SLT ISZERO PUSH2 0x288D JUMPI DUP2 DUP3 REVERT JUMPDEST PUSH2 0x2896 DUP4 PUSH2 0x2772 JUMP JUMPDEST SWAP5 PUSH1 0x20 SWAP4 SWAP1 SWAP4 ADD CALLDATALOAD SWAP4 POP POP POP JUMP JUMPDEST PUSH1 0x0 DUP1 PUSH1 0x0 DUP1 PUSH1 0x80 DUP6 DUP8 SUB SLT ISZERO PUSH2 0x28B9 JUMPI DUP2 DUP3 REVERT JUMPDEST PUSH2 0x28C2 DUP6 PUSH2 0x2772 JUMP JUMPDEST SWAP4 POP PUSH1 0x20 DUP6 ADD CALLDATALOAD SWAP3 POP PUSH1 0x40 DUP6 ADD CALLDATALOAD SWAP2 POP PUSH1 0x60 DUP6 ADD CALLDATALOAD PUSH8 0xFFFFFFFFFFFFFFFF DUP2 GT ISZERO PUSH2 0x28EB JUMPI DUP2 DUP3 REVERT JUMPDEST PUSH2 0x28F7 DUP8 DUP3 DUP9 ADD PUSH2 0x278E JUMP JUMPDEST SWAP2 POP POP SWAP3 SWAP6 SWAP2 SWAP5 POP SWAP3 POP JUMP JUMPDEST PUSH1 0x0 PUSH1 0x20 DUP3 DUP5 SUB SLT ISZERO PUSH2 0x2914 JUMPI DUP1 DUP2 REVERT JUMPDEST DUP2 MLOAD DUP1 ISZERO ISZERO DUP2 EQ PUSH2 0x15A7 JUMPI DUP2 DUP3 REVERT JUMPDEST PUSH1 0x0 PUSH1 0x20 DUP3 DUP5 SUB SLT ISZERO PUSH2 0x2934 JUMPI DUP1 DUP2 REVERT JUMPDEST POP MLOAD SWAP2 SWAP1 POP JUMP JUMPDEST PUSH1 0x0 PUSH1 0x20 DUP3 DUP5 SUB SLT ISZERO PUSH2 0x294C JUMPI DUP1 DUP2 REVERT JUMPDEST DUP2 CALLDATALOAD PUSH8 0xFFFFFFFFFFFFFFFF DUP2 GT ISZERO PUSH2 0x2962 JUMPI DUP2 DUP3 REVERT JUMPDEST PUSH2 0x296E DUP5 DUP3 DUP6 ADD PUSH2 0x278E JUMP JUMPDEST SWAP5 SWAP4 POP POP POP POP JUMP JUMPDEST PUSH1 0x0 DUP1 PUSH1 0x40 DUP4 DUP6 SUB SLT ISZERO PUSH2 0x2988 JUMPI DUP2 DUP3 REVERT JUMPDEST DUP3 CALLDATALOAD PUSH8 0xFFFFFFFFFFFFFFFF DUP2 GT ISZERO PUSH2 0x299E JUMPI DUP3 DUP4 REVERT JUMPDEST PUSH2 0x29AA DUP6 DUP3 DUP7 ADD PUSH2 0x278E JUMP JUMPDEST SWAP3 POP POP PUSH2 0x29B9 PUSH1 0x20 DUP5 ADD PUSH2 0x2772 JUMP JUMPDEST SWAP1 POP SWAP3 POP SWAP3 SWAP1 POP JUMP JUMPDEST PUSH1 0x0 PUSH1 0x20 DUP3 DUP5 SUB SLT ISZERO PUSH2 0x29D3 JUMPI DUP1 DUP2 REVERT JUMPDEST POP CALLDATALOAD SWAP2 SWAP1 POP JUMP JUMPDEST PUSH1 0x0 DUP1 PUSH1 0x40 DUP4 DUP6 SUB SLT ISZERO PUSH2 0x29EC JUMPI DUP2 DUP3 REVERT JUMPDEST DUP3 CALLDATALOAD SWAP2 POP PUSH2 0x29B9 PUSH1 0x20 DUP5 ADD PUSH2 0x2772 JUMP JUMPDEST PUSH1 0x0 DUP2 MLOAD DUP1 DUP5 MSTORE PUSH2 0x2A14 DUP2 PUSH1 0x20 DUP7 ADD PUSH1 0x20 DUP7 ADD PUSH2 0x2DE9 JUMP JUMPDEST PUSH1 0x1F ADD PUSH1 0x1F NOT AND SWAP3 SWAP1 SWAP3 ADD PUSH1 0x20 ADD SWAP3 SWAP2 POP POP JUMP JUMPDEST PUSH1 0x0 DUP3 MLOAD PUSH2 0x2A3A DUP2 DUP5 PUSH1 0x20 DUP8 ADD PUSH2 0x2DE9 JUMP JUMPDEST SWAP2 SWAP1 SWAP2 ADD SWAP3 SWAP2 POP POP JUMP JUMPDEST PUSH5 0x16111554D1 PUSH1 0xDA SHL DUP2 MSTORE PUSH1 0x5 ADD SWAP1 JUMP JUMPDEST PUSH17 0x26B4B9B9B4B7339030B2323932B9B99D1 PUSH1 0x7D SHL DUP2 MSTORE PUSH1 0x0 DUP3 MLOAD PUSH2 0x2A81 DUP2 PUSH1 0x11 DUP6 ADD PUSH1 0x20 DUP8 ADD PUSH2 0x2DE9 JUMP JUMPDEST SWAP2 SWAP1 SWAP2 ADD PUSH1 0x11 ADD SWAP3 SWAP2 POP POP JUMP JUMPDEST PUSH1 0x1 PUSH1 0x1 PUSH1 0xA0 SHL SUB DUP9 AND DUP2 MSTORE PUSH1 0xE0 PUSH1 0x20 DUP3 ADD DUP2 SWAP1 MSTORE PUSH1 0x0 SWAP1 PUSH2 0x2AB2 SWAP1 DUP4 ADD DUP10 PUSH2 0x29FC JUMP JUMPDEST PUSH1 0x40 DUP4 ADD SWAP8 SWAP1 SWAP8 MSTORE POP PUSH1 0x60 DUP2 ADD SWAP5 SWAP1 SWAP5 MSTORE SWAP2 ISZERO ISZERO PUSH1 0x80 DUP5 ADD MSTORE ISZERO ISZERO PUSH1 0xA0 DUP4 ADD MSTORE ISZERO ISZERO PUSH1 0xC0 SWAP1 SWAP2 ADD MSTORE SWAP3 SWAP2 POP POP JUMP JUMPDEST PUSH1 0x1 PUSH1 0x1 PUSH1 0xA0 SHL SUB DUP7 AND DUP2 MSTORE PUSH1 0x20 DUP2 ADD DUP6 SWAP1 MSTORE PUSH1 0x40 DUP2 ADD DUP5 SWAP1 MSTORE PUSH1 0x60 DUP2 ADD DUP4 SWAP1 MSTORE PUSH1 0xA0 DUP2 ADD PUSH1 0x2 DUP4 LT PUSH2 0x2B23 JUMPI PUSH4 0x4E487B71 PUSH1 0xE0 SHL PUSH1 0x0 MSTORE PUSH1 0x21 PUSH1 0x4 MSTORE PUSH1 0x24 PUSH1 0x0 REVERT JUMPDEST DUP3 PUSH1 0x80 DUP4 ADD MSTORE SWAP7 SWAP6 POP POP POP POP POP POP JUMP JUMPDEST PUSH1 0x20 DUP2 MSTORE PUSH1 0x0 PUSH2 0x15A7 PUSH1 0x20 DUP4 ADD DUP5 PUSH2 0x29FC JUMP JUMPDEST PUSH1 0x40 DUP2 MSTORE PUSH1 0x0 PUSH2 0x2B59 PUSH1 0x40 DUP4 ADD DUP6 PUSH2 0x29FC JUMP JUMPDEST SWAP1 POP PUSH1 0x1 DUP1 PUSH1 0xA0 SHL SUB DUP4 AND PUSH1 0x20 DUP4 ADD MSTORE SWAP4 SWAP3 POP POP POP JUMP JUMPDEST PUSH1 0x20 DUP1 DUP3 MSTORE PUSH1 0x32 SWAP1 DUP3 ADD MSTORE PUSH32 0x504C4920616D6F756E742053686F756C64206265206D696E696D756D504C4944 PUSH1 0x40 DUP3 ADD MSTORE PUSH18 0x195C1BDCDA5D105B5BDD5B9D081B1A5B5A5D PUSH1 0x72 SHL PUSH1 0x60 DUP3 ADD MSTORE PUSH1 0x80 ADD SWAP1 JUMP JUMPDEST PUSH1 0x40 DUP2 MSTORE PUSH1 0x3 PUSH1 0x40 DUP3 ADD MSTORE PUSH3 0x584443 PUSH1 0xE8 SHL PUSH1 0x60 DUP3 ADD MSTORE PUSH1 0x80 PUSH1 0x20 DUP3 ADD MSTORE PUSH1 0x0 PUSH2 0xCA9 PUSH1 0x80 DUP4 ADD PUSH1 0x4 DUP2 MSTORE PUSH4 0x1554D115 PUSH1 0xE2 SHL PUSH1 0x20 DUP3 ADD MSTORE PUSH1 0x40 ADD SWAP1 JUMP JUMPDEST PUSH1 0x40 DUP2 MSTORE PUSH1 0x3 PUSH1 0x40 DUP3 ADD MSTORE PUSH3 0x504C49 PUSH1 0xE8 SHL PUSH1 0x60 DUP3 ADD MSTORE PUSH1 0x80 PUSH1 0x20 DUP3 ADD MSTORE PUSH1 0x0 PUSH2 0xCA9 PUSH1 0x80 DUP4 ADD PUSH1 0x4 DUP2 MSTORE PUSH4 0x1554D115 PUSH1 0xE2 SHL PUSH1 0x20 DUP3 ADD MSTORE PUSH1 0x40 ADD SWAP1 JUMP JUMPDEST PUSH1 0x20 DUP1 DUP3 MSTORE PUSH1 0x32 SWAP1 DUP3 ADD MSTORE PUSH32 0x58444320616D6F756E742053686F756C64206265206D696E696D756D58444344 PUSH1 0x40 DUP3 ADD MSTORE PUSH18 0x195C1BDCDA5D105B5BDD5B9D081B1A5B5A5D PUSH1 0x72 SHL PUSH1 0x60 DUP3 ADD MSTORE PUSH1 0x80 ADD SWAP1 JUMP JUMPDEST PUSH1 0x0 DUP3 NOT DUP3 GT ISZERO PUSH2 0x2CA3 JUMPI PUSH2 0x2CA3 PUSH2 0x2E6F JUMP JUMPDEST POP ADD SWAP1 JUMP JUMPDEST PUSH1 0x0 DUP3 PUSH2 0x2CC3 JUMPI PUSH4 0x4E487B71 PUSH1 0xE0 SHL DUP2 MSTORE PUSH1 0x12 PUSH1 0x4 MSTORE PUSH1 0x24 DUP2 REVERT JUMPDEST POP DIV SWAP1 JUMP JUMPDEST PUSH1 0x1 DUP2 DUP2 JUMPDEST DUP1 DUP6 GT ISZERO PUSH2 0x2D03 JUMPI DUP2 PUSH1 0x0 NOT DIV DUP3 GT ISZERO PUSH2 0x2CE9 JUMPI PUSH2 0x2CE9 PUSH2 0x2E6F JUMP JUMPDEST DUP1 DUP6 AND ISZERO PUSH2 0x2CF6 JUMPI SWAP2 DUP2 MUL SWAP2 JUMPDEST SWAP4 DUP5 SHR SWAP4 SWAP1 DUP1 MUL SWAP1 PUSH2 0x2CCD JUMP JUMPDEST POP SWAP3 POP SWAP3 SWAP1 POP JUMP JUMPDEST PUSH1 0x0 PUSH2 0x15A7 DUP4 DUP4 PUSH1 0x0 DUP3 PUSH2 0x2D21 JUMPI POP PUSH1 0x1 PUSH2 0xCA9 JUMP JUMPDEST DUP2 PUSH2 0x2D2E JUMPI POP PUSH1 0x0 PUSH2 0xCA9 JUMP JUMPDEST DUP2 PUSH1 0x1 DUP2 EQ PUSH2 0x2D44 JUMPI PUSH1 0x2 DUP2 EQ PUSH2 0x2D4E JUMPI PUSH2 0x2D6A JUMP JUMPDEST PUSH1 0x1 SWAP2 POP POP PUSH2 0xCA9 JUMP JUMPDEST PUSH1 0xFF DUP5 GT ISZERO PUSH2 0x2D5F JUMPI PUSH2 0x2D5F PUSH2 0x2E6F JUMP JUMPDEST POP POP PUSH1 0x1 DUP3 SHL PUSH2 0xCA9 JUMP JUMPDEST POP PUSH1 0x20 DUP4 LT PUSH2 0x133 DUP4 LT AND PUSH1 0x4E DUP5 LT PUSH1 0xB DUP5 LT AND OR ISZERO PUSH2 0x2D8D JUMPI POP DUP2 DUP2 EXP PUSH2 0xCA9 JUMP JUMPDEST PUSH2 0x2D97 DUP4 DUP4 PUSH2 0x2CC8 JUMP JUMPDEST DUP1 PUSH1 0x0 NOT DIV DUP3 GT ISZERO PUSH2 0x2DAB JUMPI PUSH2 0x2DAB PUSH2 0x2E6F JUMP JUMPDEST MUL SWAP4 SWAP3 POP POP POP JUMP JUMPDEST PUSH1 0x0 DUP2 PUSH1 0x0 NOT DIV DUP4 GT DUP3 ISZERO ISZERO AND ISZERO PUSH2 0x2DCD JUMPI PUSH2 0x2DCD PUSH2 0x2E6F JUMP JUMPDEST POP MUL SWAP1 JUMP JUMPDEST PUSH1 0x0 DUP3 DUP3 LT ISZERO PUSH2 0x2DE4 JUMPI PUSH2 0x2DE4 PUSH2 0x2E6F JUMP JUMPDEST POP SUB SWAP1 JUMP JUMPDEST PUSH1 0x0 JUMPDEST DUP4 DUP2 LT ISZERO PUSH2 0x2E04 JUMPI DUP2 DUP2 ADD MLOAD DUP4 DUP3 ADD MSTORE PUSH1 0x20 ADD PUSH2 0x2DEC JUMP JUMPDEST DUP4 DUP2 GT ISZERO PUSH2 0x2E13 JUMPI PUSH1 0x0 DUP5 DUP5 ADD MSTORE JUMPDEST POP POP POP POP JUMP JUMPDEST PUSH1 0x1 DUP2 DUP2 SHR SWAP1 DUP3 AND DUP1 PUSH2 0x2E2D JUMPI PUSH1 0x7F DUP3 AND SWAP2 POP JUMPDEST PUSH1 0x20 DUP3 LT DUP2 EQ ISZERO PUSH2 0x2E4E JUMPI PUSH4 0x4E487B71 PUSH1 0xE0 SHL PUSH1 0x0 MSTORE PUSH1 0x22 PUSH1 0x4 MSTORE PUSH1 0x24 PUSH1 0x0 REVERT JUMPDEST POP SWAP2 SWAP1 POP JUMP JUMPDEST PUSH1 0x0 PUSH1 0x0 NOT DUP3 EQ ISZERO PUSH2 0x2E68 JUMPI PUSH2 0x2E68 PUSH2 0x2E6F JUMP JUMPDEST POP PUSH1 0x1 ADD SWAP1 JUMP JUMPDEST PUSH4 0x4E487B71 PUSH1 0xE0 SHL PUSH1 0x0 MSTORE PUSH1 0x11 PUSH1 0x4 MSTORE PUSH1 0x24 PUSH1 0x0 REVERT JUMPDEST PUSH4 0x4E487B71 PUSH1 0xE0 SHL PUSH1 0x0 MSTORE PUSH1 0x41 PUSH1 0x4 MSTORE PUSH1 0x24 PUSH1 0x0 REVERT INVALID LOG2 PUSH5 0x6970667358 0x22 SLT KECCAK256 0xAC 0xC2 REVERT ORIGIN 0xC4 PUSH3 0xF67EAF 0xB7 SWAP16 PUSH26 0xB12EBA8EDB6E75A2E6515BC05B4F2E40C1A9667764736F6C6343 STOP ADDMOD DIV STOP CALLER "
        },
        "methodIdentifiers": {
          "CONTRACTNAME()": "f1875744",
          "CONTRACT_NAME()": "614d08f8",
          "_owner()": "b2bdfa7b",
          "addressCache(string)": "a4b19d01",
          "contractOwner()": "ce606ee0",
          "debtTotalPool(address,string)": "ea983a6d",
          "deposits(address)": "fc7e286d",
          "getMyCollateralRatio(address)": "722a6b24",
          "minCRatio()": "607573d3",
          "minimumPLIDepositAmount()": "3b6fba1a",
          "minimumXDCDepositAmount()": "056c5aa9",
          "mintxdUSDForPLI(uint256,address)": "ae1844d6",
          "mintxdUSDForXDC()": "83e10787",
          "setMinDepositForPLI(uint256)": "5f230a61",
          "setMinDepositForXDC(uint256)": "e52346d0",
          "totalXDUSDMinted(address)": "b91a1ca6",
          "totalXDUSDSwapped(address)": "b1211f29",
          "tradingPool(address,uint256)": "184212a2",
          "updateCache(string,address)": "fc6f4c1b",
          "updateDebtPool(address,uint256,uint256,string)": "c982e66f"
        }
      }
    }
  }
}