{
  "_format": "hh-sol-artifact-1",
  "contractName": "XSynProtocol",
  "sourceName": "contracts/XSynProtocol.sol",
  "abi": [
    {
      "inputs": [
        {
          "internalType": "uint256",
          "name": "cratio",
          "type": "uint256"
        }
      ],
      "stateMutability": "nonpayable",
      "type": "constructor"
    },
    {
      "anonymous": false,
      "inputs": [
        {
          "indexed": false,
          "internalType": "string",
          "name": "name",
          "type": "string"
        },
        {
          "indexed": false,
          "internalType": "address",
          "name": "destination",
          "type": "address"
        }
      ],
      "name": "CacheUpdated",
      "type": "event"
    },
    {
      "anonymous": false,
      "inputs": [
        {
          "indexed": false,
          "internalType": "uint256",
          "name": "amount",
          "type": "uint256"
        }
      ],
      "name": "MinimumDepositAmountUpdated",
      "type": "event"
    },
    {
      "inputs": [],
      "name": "CONTRACTNAME",
      "outputs": [
        {
          "internalType": "string",
          "name": "",
          "type": "string"
        }
      ],
      "stateMutability": "view",
      "type": "function"
    },
    {
      "inputs": [],
      "name": "CONTRACT_NAME",
      "outputs": [
        {
          "internalType": "string",
          "name": "",
          "type": "string"
        }
      ],
      "stateMutability": "view",
      "type": "function"
    },
    {
      "inputs": [],
      "name": "_owner",
      "outputs": [
        {
          "internalType": "address",
          "name": "",
          "type": "address"
        }
      ],
      "stateMutability": "view",
      "type": "function"
    },
    {
      "inputs": [
        {
          "internalType": "string",
          "name": "",
          "type": "string"
        }
      ],
      "name": "addressCache",
      "outputs": [
        {
          "internalType": "address",
          "name": "",
          "type": "address"
        }
      ],
      "stateMutability": "view",
      "type": "function"
    },
    {
      "inputs": [],
      "name": "contractOwner",
      "outputs": [
        {
          "internalType": "address",
          "name": "",
          "type": "address"
        }
      ],
      "stateMutability": "view",
      "type": "function"
    },
    {
      "inputs": [
        {
          "internalType": "address",
          "name": "",
          "type": "address"
        },
        {
          "internalType": "string",
          "name": "",
          "type": "string"
        }
      ],
      "name": "debtTotalPool",
      "outputs": [
        {
          "internalType": "address payable",
          "name": "user",
          "type": "address"
        },
        {
          "internalType": "string",
          "name": "xSynSymbol",
          "type": "string"
        },
        {
          "internalType": "uint256",
          "name": "synthValue",
          "type": "uint256"
        },
        {
          "internalType": "uint256",
          "name": "totXDSwapped",
          "type": "uint256"
        },
        {
          "internalType": "bool",
          "name": "isXDUSD",
          "type": "bool"
        },
        {
          "internalType": "bool",
          "name": "isMinted",
          "type": "bool"
        },
        {
          "internalType": "bool",
          "name": "isSwapped",
          "type": "bool"
        }
      ],
      "stateMutability": "view",
      "type": "function"
    },
    {
      "inputs": [
        {
          "internalType": "address",
          "name": "",
          "type": "address"
        }
      ],
      "name": "deposits",
      "outputs": [
        {
          "internalType": "address payable",
          "name": "user",
          "type": "address"
        },
        {
          "internalType": "uint256",
          "name": "xdcDeposit",
          "type": "uint256"
        },
        {
          "internalType": "uint256",
          "name": "pliDeposit",
          "type": "uint256"
        },
        {
          "internalType": "uint256",
          "name": "xdUsdminted",
          "type": "uint256"
        },
        {
          "internalType": "enum Constants.TokenType",
          "name": "tok",
          "type": "uint8"
        }
      ],
      "stateMutability": "view",
      "type": "function"
    },
    {
      "inputs": [
        {
          "internalType": "address",
          "name": "_user",
          "type": "address"
        }
      ],
      "name": "getMyCollateralRatio",
      "outputs": [
        {
          "internalType": "uint256",
          "name": "_cratio",
          "type": "uint256"
        },
        {
          "internalType": "bool",
          "name": "_underCollateral",
          "type": "bool"
        },
        {
          "internalType": "bool",
          "name": "_overCollateral",
          "type": "bool"
        },
        {
          "internalType": "uint256",
          "name": "_totalTokenToMOrB",
          "type": "uint256"
        }
      ],
      "stateMutability": "view",
      "type": "function"
    },
    {
      "inputs": [],
      "name": "minCRatio",
      "outputs": [
        {
          "internalType": "uint256",
          "name": "",
          "type": "uint256"
        }
      ],
      "stateMutability": "view",
      "type": "function"
    },
    {
      "inputs": [],
      "name": "minimumPLIDepositAmount",
      "outputs": [
        {
          "internalType": "uint256",
          "name": "",
          "type": "uint256"
        }
      ],
      "stateMutability": "view",
      "type": "function"
    },
    {
      "inputs": [],
      "name": "minimumXDCDepositAmount",
      "outputs": [
        {
          "internalType": "uint256",
          "name": "",
          "type": "uint256"
        }
      ],
      "stateMutability": "view",
      "type": "function"
    },
    {
      "inputs": [
        {
          "internalType": "uint256",
          "name": "_pliVal",
          "type": "uint256"
        },
        {
          "internalType": "address",
          "name": "_tokenAddress",
          "type": "address"
        }
      ],
      "name": "mintxdUSDForPLI",
      "outputs": [
        {
          "internalType": "uint256",
          "name": "",
          "type": "uint256"
        }
      ],
      "stateMutability": "nonpayable",
      "type": "function"
    },
    {
      "inputs": [],
      "name": "mintxdUSDForXDC",
      "outputs": [
        {
          "internalType": "uint256",
          "name": "",
          "type": "uint256"
        }
      ],
      "stateMutability": "payable",
      "type": "function"
    },
    {
      "inputs": [
        {
          "internalType": "uint256",
          "name": "_minDeposit",
          "type": "uint256"
        }
      ],
      "name": "setMinDepositForPLI",
      "outputs": [],
      "stateMutability": "nonpayable",
      "type": "function"
    },
    {
      "inputs": [
        {
          "internalType": "uint256",
          "name": "_minDeposit",
          "type": "uint256"
        }
      ],
      "name": "setMinDepositForXDC",
      "outputs": [],
      "stateMutability": "nonpayable",
      "type": "function"
    },
    {
      "inputs": [
        {
          "internalType": "address",
          "name": "",
          "type": "address"
        }
      ],
      "name": "totalXDUSDMinted",
      "outputs": [
        {
          "internalType": "uint256",
          "name": "",
          "type": "uint256"
        }
      ],
      "stateMutability": "view",
      "type": "function"
    },
    {
      "inputs": [
        {
          "internalType": "address",
          "name": "",
          "type": "address"
        }
      ],
      "name": "totalXDUSDSwapped",
      "outputs": [
        {
          "internalType": "uint256",
          "name": "",
          "type": "uint256"
        }
      ],
      "stateMutability": "view",
      "type": "function"
    },
    {
      "inputs": [
        {
          "internalType": "address",
          "name": "",
          "type": "address"
        },
        {
          "internalType": "uint256",
          "name": "",
          "type": "uint256"
        }
      ],
      "name": "tradingPool",
      "outputs": [
        {
          "internalType": "address payable",
          "name": "user",
          "type": "address"
        },
        {
          "internalType": "string",
          "name": "xSynSymbol",
          "type": "string"
        },
        {
          "internalType": "uint256",
          "name": "synthValue",
          "type": "uint256"
        },
        {
          "internalType": "uint256",
          "name": "totXDSwapped",
          "type": "uint256"
        },
        {
          "internalType": "bool",
          "name": "isXDUSD",
          "type": "bool"
        },
        {
          "internalType": "bool",
          "name": "isMinted",
          "type": "bool"
        },
        {
          "internalType": "bool",
          "name": "isSwapped",
          "type": "bool"
        }
      ],
      "stateMutability": "view",
      "type": "function"
    },
    {
      "inputs": [
        {
          "internalType": "string",
          "name": "_name",
          "type": "string"
        },
        {
          "internalType": "address",
          "name": "_destination",
          "type": "address"
        }
      ],
      "name": "updateCache",
      "outputs": [],
      "stateMutability": "nonpayable",
      "type": "function"
    },
    {
      "inputs": [
        {
          "internalType": "address",
          "name": "_user",
          "type": "address"
        },
        {
          "internalType": "uint256",
          "name": "_totUsdSwapped",
          "type": "uint256"
        },
        {
          "internalType": "uint256",
          "name": "_totSynthsPurchased",
          "type": "uint256"
        },
        {
          "internalType": "string",
          "name": "_symbolPurchased",
          "type": "string"
        }
      ],
      "name": "updateDebtPool",
      "outputs": [],
      "stateMutability": "nonpayable",
      "type": "function"
    },
    {
      "stateMutability": "payable",
      "type": "receive"
    }
  ],
  "bytecode": "0x60806040819052630241ebdb60e61b815273__$62ad3b859263eea2f18e8dce157c4af92c$__9063907af6c09060849060209060048186803b1580156200004557600080fd5b505af41580156200005a573d6000803e3d6000fd5b505050506040513d601f19601f820116820180604052508101906200008091906200017d565b6200008e9061271062000196565b60045573__$62ad3b859263eea2f18e8dce157c4af92c$__63907af6c06040518163ffffffff1660e01b815260040160206040518083038186803b158015620000d657600080fd5b505af4158015620000eb573d6000803e3d6000fd5b505050506040513d601f19601f820116820180604052508101906200011191906200017d565b6200011f90614e2062000196565b6005553480156200012f57600080fd5b50604051620032523803806200325283398101604081905262000152916200017d565b60018054336001600160a01b03199182168117909255600380549091169091179055600255620001c2565b6000602082840312156200018f578081fd5b5051919050565b6000816000190483118215151615620001bd57634e487b7160e01b81526011600452602481fd5b500290565b61308080620001d26000396000f3fe6080604052600436106101235760003560e01c8063b1211f29116100a0578063e52346d011610064578063e52346d0146103a2578063ea983a6d146103c2578063f1875744146103e2578063fc6f4c1b1461041a578063fc7e286d1461043a57600080fd5b8063b1211f29146102e8578063b2bdfa7b14610315578063b91a1ca614610335578063c982e66f14610362578063ce606ee01461038257600080fd5b8063614d08f8116100e7578063614d08f8146101d9578063722a6b241461022157806383e1078714610267578063a4b19d011461026f578063ae1844d6146102c857600080fd5b8063056c5aa91461012f578063184212a2146101585780633b6fba1a1461018b5780635f230a61146101a1578063607573d3146101c357600080fd5b3661012a57005b600080fd5b34801561013b57600080fd5b5061014560045481565b6040519081526020015b60405180910390f35b34801561016457600080fd5b506101786101733660046129f7565b6104a2565b60405161014f9796959493929190612c0a565b34801561019757600080fd5b5061014560055481565b3480156101ad57600080fd5b506101c16101bc366004612b3e565b61059b565b005b3480156101cf57600080fd5b5061014560025481565b3480156101e557600080fd5b506102146040518060400160405280600f81526020016e20b2323932b9b9a932b9b7b63b32b960891b81525081565b60405161014f9190612caf565b34801561022d57600080fd5b5061024161023c366004612991565b6105df565b60408051948552921515602085015290151591830191909152606082015260800161014f565b610145610a1b565b34801561027b57600080fd5b506102b061028a366004612ab7565b80516020818301810180516000825292820191909301209152546001600160a01b031681565b6040516001600160a01b03909116815260200161014f565b3480156102d457600080fd5b506101456102e3366004612b56565b610bb7565b3480156102f457600080fd5b50610145610303366004612991565b60076020526000908152604090205481565b34801561032157600080fd5b506001546102b0906001600160a01b031681565b34801561034157600080fd5b50610145610350366004612991565b60066020526000908152604090205481565b34801561036e57600080fd5b506101c161037d366004612a20565b610d72565b34801561038e57600080fd5b506003546102b0906001600160a01b031681565b3480156103ae57600080fd5b506101c16103bd366004612b3e565b611447565b3480156103ce57600080fd5b506101786103dd3660046129ab565b611484565b3480156103ee57600080fd5b506102146040518060400160405280600c81526020016b1614de5b941c9bdd1bd8dbdb60a21b81525081565b34801561042657600080fd5b506101c1610435366004612af2565b6114cc565b34801561044657600080fd5b50610491610455366004612991565b600860205260009081526040902080546001820154600283015460038401546004909401546001600160a01b0390931693919290919060ff1685565b60405161014f959493929190612c5c565b600a60205281600052604060002081815481106104be57600080fd5b6000918252602090912060059091020180546001820180546001600160a01b0390921694509192506104ef90612fc8565b80601f016020809104026020016040519081016040528092919081815260200182805461051b90612fc8565b80156105685780601f1061053d57610100808354040283529160200191610568565b820191906000526020600020905b81548152906001019060200180831161054b57829003601f168201915b505050600284015460038501546004909501549394909390925060ff808216925061010082048116916201000090041687565b6105a361159a565b60058190556040518181527fa39eacd162ee82c70b2b030a1bc8fe89adcccc61122fad4821a8772dbcc54267906020015b60405180910390a150565b6000806000806000600a6000876001600160a01b03166001600160a01b03168152602001908152602001600020805480602002602001604051908101604052809291908181526020016000905b8282101561074e5760008481526020908190206040805160e081019091526005850290910180546001600160a01b03168252600181018054929391929184019161067590612fc8565b80601f01602080910402602001604051908101604052809291908181526020018280546106a190612fc8565b80156106ee5780601f106106c3576101008083540402835291602001916106ee565b820191906000526020600020905b8154815290600101906020018083116106d157829003601f168201915b505050918352505060028201546020808301919091526003830154604083015260049092015460ff8082161515606084015261010082048116151560808401526201000090910416151560a090910152908252600192909201910161062c565b50505050905060008060008060005b855181101561095c5785818151811061078657634e487b7160e01b600052603260045260246000fd5b60200260200101516080015115610852578581815181106107b757634e487b7160e01b600052603260045260246000fd5b602002602001015160a001511561080d576108068682815181106107eb57634e487b7160e01b600052603260045260246000fd5b6020026020010151604001518661160b90919063ffffffff16565b945061094a565b61084b86828151811061083057634e487b7160e01b600052603260045260246000fd5b6020026020010151604001518561160b90919063ffffffff16565b935061094a565b610947610940610860611671565b6001600160a01b031663a40b18c289858151811061088e57634e487b7160e01b600052603260045260246000fd5b6020026020010151602001516040518263ffffffff1660e01b81526004016108b69190612caf565b60206040518083038186803b1580156108ce57600080fd5b505afa1580156108e2573d6000803e3d6000fd5b505050506040513d601f19601f820116820180604052508101906109069190612a9f565b88848151811061092657634e487b7160e01b600052603260045260246000fd5b6020026020010151604001516116a590919063ffffffff16565b839061160b565b91505b8061095481613003565b91505061075d565b50828411156109725761096f8484611724565b91505b61097c818361160b565b905060006109898b611766565b90506000808060008486106109d7576109b760646109b1876109ab8a82611724565b9061181f565b906116a5565b935060009250600191506109d060646109ab87876116a5565b9050610a06565b6109ea60646109b1876109ab8a82611724565b93506001925060009150610a0360646109ab87876116a5565b90505b929e919d509b50909950975050505050505050565b6000600454341015610a485760405162461bcd60e51b8152600401610a3f90612ded565b60405180910390fd5b6000610a52611671565b6001600160a01b031663d7a356be6040518163ffffffff1660e01b8152600401610a7b90612d61565b602060405180830381600087803b158015610a9557600080fd5b505af1158015610aa9573d6000803e3d6000fd5b505050506040513d601f19601f82011682018060405250810190610acd9190612a9f565b90506000610b60610adc611671565b6001600160a01b031663dd953fb0846040518263ffffffff1660e01b8152600401610b0991815260200190565b60206040518083038186803b158015610b2157600080fd5b505afa158015610b35573d6000803e3d6000fd5b505050506040513d601f19601f82011682018060405250810190610b599190612a9f565b3490611861565b90506000610b796002548361181f90919063ffffffff16565b33600090815260066020526040902054909150610b96908261160b565b33600090815260066020526040902055610baf81611883565b935050505090565b6000600554831015610bdb5760405162461bcd60e51b8152600401610a3f90612cec565b6000610be5611671565b6001600160a01b031663d7a356be6040518163ffffffff1660e01b8152600401610c0e90612dca565b602060405180830381600087803b158015610c2857600080fd5b505af1158015610c3c573d6000803e3d6000fd5b505050506040513d601f19601f82011682018060405250810190610c609190612a9f565b90506000610cf3610c6f611671565b6001600160a01b031663dd953fb0846040518263ffffffff1660e01b8152600401610c9c91815260200190565b60206040518083038186803b158015610cb457600080fd5b505afa158015610cc8573d6000803e3d6000fd5b505050506040513d601f19601f82011682018060405250810190610cec9190612a9f565b8690611861565b90506000610d0c6002548361181f90919063ffffffff16565b33600090815260066020526040902054909150610d29908261160b565b33600081815260066020526040902091909155610d47908688611e5e565b610d52338688611f41565b610d5c868661201f565b610d6681876120a5565b93505050505b92915050565b610d7a61262b565b6001600160a01b0384166000908152600960205260408082209051610da0908490612ba4565b90815260408051918290036020908101832060e0840190925281546001600160a01b0316835260018201805491840191610dd990612fc8565b80601f0160208091040260200160405190810160405280929190818152602001828054610e0590612fc8565b8015610e525780601f10610e2757610100808354040283529160200191610e52565b820191906000526020600020905b815481529060010190602001808311610e3557829003601f168201915b505050918352505060028201546020820152600382015460408083019190915260049092015460ff8082161515606084015261010082048116151560808401526201000090910416151560a090910152810151909150600090610eb5908561160b565b6040805160e0810182526001600160a01b0389168082526020808301889052828401859052606083018a905260006080840181905260a08401819052600160c085015291825260099052829020915192935091610f13908690612ba4565b90815260405160209181900382019020825181546001600160a01b0319166001600160a01b039091161781558282015180519192610f59926001850192909101906127da565b5060408281015160028301556060830151600383015560808301516004909201805460a085015160c0909501511515620100000262ff0000199515156101000261ff00199515159590951661ffff1990921691909117939093179390931691909117909155336000908152600a60209081528282206009909152908290209151909190610fe7908690612ba4565b908152604051908190036020908101909120825460018181018555600094855292909320815460059094020180546001600160a01b0319166001600160a01b03909416939093178355818101805491939283019161104490612fc8565b61104f92919061285e565b5060028281015490820155600380830154908201556004918201805492909101805460ff938416151560ff19821681178355835461010090819004861615150261ff001990911661ffff19909216919091171780825591546201000090819004909316151590920262ff0000199091161790556001600160a01b03861660009081526009602052604080822090516110e690612bc0565b90815260408051918290036020908101832060e0840190925281546001600160a01b031683526001820180549184019161111f90612fc8565b80601f016020809104026020016040519081016040528092919081815260200182805461114b90612fc8565b80156111985780601f1061116d57610100808354040283529160200191611198565b820191906000526020600020905b81548152906001019060200180831161117b57829003601f168201915b505050918352505060028201546020820152600382015460408083019190915260049092015460ff8082161515606084015261010082048116151560808401526201000090910416151560a0909101528101519091506000906111fb9088611724565b90506040518060e00160405280896001600160a01b031681526020016040518060400160405280600581526020016416111554d160da1b815250815260200182815260200188815260200160011515815260200160001515815260200160011515815250600960008a6001600160a01b03166001600160a01b0316815260200190815260200160002060405161129090612bc0565b90815260405160209181900382019020825181546001600160a01b0319166001600160a01b0390911617815582820151805191926112d6926001850192909101906127da565b5060408281015160028301556060830151600383015560808301516004909201805460a085015160c0909501511515620100000262ff0000199515156101000261ff00199515159590951661ffff1990921691909117939093179390931691909117909155336000908152600a6020908152828220600990915290829020915190919061136290612bc0565b908152604051908190036020908101909120825460018181018555600094855292909320815460059094020180546001600160a01b0319166001600160a01b0390941693909317835581810180549193928301916113bf90612fc8565b6113ca92919061285e565b5060028281015490820155600380830154908201556004918201805492909101805460ff938416151560ff19821681178355835461010090819004861615150261ff001990911661ffff19909216919091171780825591546201000090819004909316151590920262ff0000199091161790555050505050505050565b61144f61159a565b60048190556040518181527fa39eacd162ee82c70b2b030a1bc8fe89adcccc61122fad4821a8772dbcc54267906020016105d4565b60096020908152600092835260409092208151808301840180519281529084019290930191909120915280546001820180546001600160a01b0390921692916104ef90612fc8565b6001546001600160a01b0316331461151e5760405162461bcd60e51b81526020600482015260156024820152746f6e6c79206f776e65722063616e2075706461746560581b6044820152606401610a3f565b8060008360405161152f9190612ba4565b90815260405190819003602001812080546001600160a01b03939093166001600160a01b0319909316929092179091557f0f721ab865154f222f0053098fb6752276624e5310bcb2bb9269d205ece331d59061158e9084908490612cc2565b60405180910390a15050565b6003546001600160a01b031633146116095760405162461bcd60e51b815260206004820152602c60248201527f4f6e6c79205853796e50726f746f636f6c2063616e20706572666f726d20746860448201526b34b99037b832b930ba34b7b760a11b6064820152608401610a3f565b565b6000806116188385612e3f565b90508381101561166a5760405162461bcd60e51b815260206004820152601b60248201527f536166654d6174683a206164646974696f6e206f766572666c6f7700000000006044820152606401610a3f565b9392505050565b60006116a06040518060400160405280600c81526020016b45584348414e47455241544560a01b8152506126a8565b905090565b6000826116b457506000610d6c565b60006116c08385612f62565b9050826116cd8583612e57565b1461166a5760405162461bcd60e51b815260206004820152602160248201527f536166654d6174683a206d756c7469706c69636174696f6e206f766572666c6f6044820152607760f81b6064820152608401610a3f565b600061166a83836040518060400160405280601e81526020017f536166654d6174683a207375627472616374696f6e206f766572666c6f77000081525061271b565b6001600160a01b03811660009081526008602052604081206001810154600291820154915490919083906117c8906109ab61179f611671565b6001600160a01b031663a40b18c26040518163ffffffff1660e01b8152600401610c9c90612d3e565b905060006118066002546109ab6117dd611671565b6001600160a01b031663a40b18c26040518163ffffffff1660e01b8152600401610c9c90612da7565b90506000611814838361160b565b979650505050505050565b600061166a83836040518060400160405280601a81526020017f536166654d6174683a206469766973696f6e206279207a65726f000000000000815250612755565b600061186f6012600a612eba565b61187984846116a5565b61166a9190612e57565b60006004543410156118a75760405162461bcd60e51b8152600401610a3f90612ded565b336000908152600860209081526040808320815160a08101835281546001600160a01b031681526001808301549482019490945260028201549281019290925260038101546060830152600481015491929091608084019160ff9091169081111561192257634e487b7160e01b600052602160045260246000fd5b600181111561194157634e487b7160e01b600052602160045260246000fd5b9052506020810151909150600090611959903461160b565b9050600061197485846060015161160b90919063ffffffff16565b90506040518060a0016040528084600001516001600160a01b0316815260200183815260200184604001518152602001828152602001600060018111156119cb57634e487b7160e01b600052602160045260246000fd5b60018111156119ea57634e487b7160e01b600052602160045260246000fd5b905233600090815260086020908152604091829020835181546001600160a01b0319166001600160a01b039091161781559083015160018083019190915591830151600282015560608301516003820155608083015160048201805492939192909160ff19909116908381811115611a7257634e487b7160e01b600052602160045260246000fd5b02179055505033600090815260096020526040808220905191925090611a9790612bc0565b90815260408051918290036020908101832060e0840190925281546001600160a01b0316835260018201805491840191611ad090612fc8565b80601f0160208091040260200160405190810160405280929190818152602001828054611afc90612fc8565b8015611b495780601f10611b1e57610100808354040283529160200191611b49565b820191906000526020600020905b815481529060010190602001808311611b2c57829003601f168201915b505050918352505060028201546020820152600382015460408083019190915260049092015460ff8082161515606084015261010082048116151560808401526201000090910416151560a090910152810151909150600090611bac908461160b565b6040805160e0810182523380825282518084018452600581526416111554d160da1b6020828101919091528084019190915282840185905260006060840181905260016080850181905260a085015260c0840181905291825260099052829020915192935091611c1b90612bc0565b90815260405160209181900382019020825181546001600160a01b0319166001600160a01b039091161781558282015180519192611c61926001850192909101906127da565b5060408281015160028301556060830151600383015560808301516004909201805460a085015160c0909501511515620100000262ff0000199515156101000261ff00199515159590951661ffff1990921691909117939093179390931691909117909155336000908152600a60209081528282206009909152908290209151909190611ced90612bc0565b908152604051908190036020908101909120825460018181018555600094855292909320815460059094020180546001600160a01b0319166001600160a01b039094169390931783558181018054919392830191611d4a90612fc8565b611d5592919061285e565b5060028281015490820155600380830154908201556004918201805492909101805460ff938416151560ff19821681178355835461010090819004861615150261ff001990911661ffff19909216919091171780825591546201000090819004909316151590920262ff000019909116179055611dd0612783565b6040516340c10f1960e01b8152336004820152602481018990526001600160a01b0391909116906340c10f1990604401602060405180830381600087803b158015611e1a57600080fd5b505af1158015611e2e573d6000803e3d6000fd5b505050506040513d601f19601f82011682018060405250810190611e529190612a7f565b50959695505050505050565b6040516370a0823160e01b81526001600160a01b0384811660048301528291908416906370a082319060240160206040518083038186803b158015611ea257600080fd5b505afa158015611eb6573d6000803e3d6000fd5b505050506040513d601f19601f82011682018060405250810190611eda9190612a9f565b1015611f3c5760405162461bcd60e51b815260206004820152602b60248201527f5852433230476174657761793a20696e73756666696369656e7420637572726560448201526a6e63792062616c616e636560a81b6064820152608401610a3f565b505050565b604051636eb1769f60e11b81526001600160a01b03848116600483015230602483015282919084169063dd62ed3e9060440160206040518083038186803b158015611f8b57600080fd5b505afa158015611f9f573d6000803e3d6000fd5b505050506040513d601f19601f82011682018060405250810190611fc39190612a9f565b1015611f3c5760405162461bcd60e51b815260206004820152602560248201527f5852433230476174657761793a20696e73756666696369656e7420616c6c6f7760448201526430b731b29760d91b6064820152608401610a3f565b6040516323b872dd60e01b8152336004820152306024820152604481018390526001600160a01b038216906323b872dd90606401602060405180830381600087803b15801561206d57600080fd5b505af1158015612081573d6000803e3d6000fd5b505050506040513d601f19601f82011682018060405250810190611f3c9190612a7f565b60006005548210156120c95760405162461bcd60e51b8152600401610a3f90612cec565b336000908152600860209081526040808320815160a08101835281546001600160a01b031681526001808301549482019490945260028201549281019290925260038101546060830152600481015491929091608084019160ff9091169081111561214457634e487b7160e01b600052602160045260246000fd5b600181111561216357634e487b7160e01b600052602160045260246000fd5b905250604081015190915060009061217b908561160b565b9050600061219686846060015161160b90919063ffffffff16565b6040805160a08101825285516001600160a01b03908116825260208088015181840190815283850188815260608501878152600160808701818152336000908152600890965297909420865181546001600160a01b031916961695909517855591518484015551600284015551600383015592516004820180549596509294919390929160ff191690838181111561223e57634e487b7160e01b600052602160045260246000fd5b0217905550503360009081526009602052604080822090519192509061226390612bc0565b90815260408051918290036020908101832060e0840190925281546001600160a01b031683526001820180549184019161229c90612fc8565b80601f01602080910402602001604051908101604052809291908181526020018280546122c890612fc8565b80156123155780601f106122ea57610100808354040283529160200191612315565b820191906000526020600020905b8154815290600101906020018083116122f857829003601f168201915b505050918352505060028201546020820152600382015460408083019190915260049092015460ff8082161515606084015261010082048116151560808401526201000090910416151560a090910152810151909150600090612378908461160b565b6040805160e0810182523380825282518084018452600581526416111554d160da1b6020828101919091528084019190915282840185905260006060840181905260016080850181905260a085015260c08401819052918252600990528290209151929350916123e790612bc0565b90815260405160209181900382019020825181546001600160a01b0319166001600160a01b03909116178155828201518051919261242d926001850192909101906127da565b5060408281015160028301556060830151600383015560808301516004909201805460a085015160c0909501511515620100000262ff0000199515156101000261ff00199515159590951661ffff1990921691909117939093179390931691909117909155336000908152600a602090815282822060099091529082902091519091906124b990612bc0565b908152604051908190036020908101909120825460018181018555600094855292909320815460059094020180546001600160a01b0319166001600160a01b03909416939093178355818101805491939283019161251690612fc8565b61252192919061285e565b5060028281015490820155600380830154908201556004918201805492909101805460ff938416151560ff19821681178355835461010090819004861615150261ff001990911661ffff19909216919091171780825591546201000090819004909316151590920262ff00001990911617905561259c612783565b6040516340c10f1960e01b8152336004820152602481018a90526001600160a01b0391909116906340c10f1990604401602060405180830381600087803b1580156125e657600080fd5b505af11580156125fa573d6000803e3d6000fd5b505050506040513d601f19601f8201168201806040525081019061261e9190612a7f565b5096979650505050505050565b6126336127ab565b6001600160a01b0316336001600160a01b0316146116095760405162461bcd60e51b815260206004820152602c60248201527f4f6e6c79205873796e45786368616e67652063616e20706572666f726d20746860448201526b34b99037b832b930ba34b7b760a11b6064820152608401610a3f565b6000806000836040516126bb9190612ba4565b90815260405160209181900382018120546001600160a01b03169250821515916126e791869101612bd1565b604051602081830303815290604052906127145760405162461bcd60e51b8152600401610a3f9190612caf565b5092915050565b6000818484111561273f5760405162461bcd60e51b8152600401610a3f9190612caf565b50600061274c8486612f81565b95945050505050565b600081836127765760405162461bcd60e51b8152600401610a3f9190612caf565b50600061274c8486612e57565b60006116a06040518060400160405280600581526020016416111554d160da1b8152506126a8565b60006116a06040518060400160405280600c81526020016b5853796e45786368616e676560a01b8152506126a8565b8280546127e690612fc8565b90600052602060002090601f016020900481019282612808576000855561284e565b82601f1061282157805160ff191683800117855561284e565b8280016001018555821561284e579182015b8281111561284e578251825591602001919060010190612833565b5061285a9291506128d9565b5090565b82805461286a90612fc8565b90600052602060002090601f01602090048101928261288c576000855561284e565b82601f1061289d578054855561284e565b8280016001018555821561284e57600052602060002091601f016020900482015b8281111561284e5782548255916001019190600101906128be565b5b8082111561285a57600081556001016128da565b80356001600160a01b038116811461290557600080fd5b919050565b600082601f83011261291a578081fd5b813567ffffffffffffffff8082111561293557612935613034565b604051601f8301601f19908116603f0116810190828211818310171561295d5761295d613034565b81604052838152866020858801011115612975578485fd5b8360208701602083013792830160200193909352509392505050565b6000602082840312156129a2578081fd5b61166a826128ee565b600080604083850312156129bd578081fd5b6129c6836128ee565b9150602083013567ffffffffffffffff8111156129e1578182fd5b6129ed8582860161290a565b9150509250929050565b60008060408385031215612a09578182fd5b612a12836128ee565b946020939093013593505050565b60008060008060808587031215612a35578182fd5b612a3e856128ee565b93506020850135925060408501359150606085013567ffffffffffffffff811115612a67578182fd5b612a738782880161290a565b91505092959194509250565b600060208284031215612a90578081fd5b8151801515811461166a578182fd5b600060208284031215612ab0578081fd5b5051919050565b600060208284031215612ac8578081fd5b813567ffffffffffffffff811115612ade578182fd5b612aea8482850161290a565b949350505050565b60008060408385031215612b04578182fd5b823567ffffffffffffffff811115612b1a578283fd5b612b268582860161290a565b925050612b35602084016128ee565b90509250929050565b600060208284031215612b4f578081fd5b5035919050565b60008060408385031215612b68578182fd5b82359150612b35602084016128ee565b60008151808452612b90816020860160208601612f98565b601f01601f19169290920160200192915050565b60008251612bb6818460208701612f98565b9190910192915050565b6416111554d160da1b815260050190565b70026b4b9b9b4b7339030b2323932b9b99d1607d1b815260008251612bfd816011850160208701612f98565b9190910160110192915050565b6001600160a01b038816815260e060208201819052600090612c2e90830189612b78565b60408301979097525060608101949094529115156080840152151560a0830152151560c09091015292915050565b6001600160a01b038616815260208101859052604081018490526060810183905260a0810160028310612c9f57634e487b7160e01b600052602160045260246000fd5b8260808301529695505050505050565b60208152600061166a6020830184612b78565b604081526000612cd56040830185612b78565b905060018060a01b03831660208301529392505050565b60208082526032908201527f504c4920616d6f756e742053686f756c64206265206d696e696d756d504c4944604082015271195c1bdcda5d105b5bdd5b9d081b1a5b5a5d60721b606082015260800190565b602081526000610d6c60208301600381526258444360e81b602082015260400190565b604081526000612d8460408301600381526258444360e81b602082015260400190565b828103602084015261166a8160048152631554d11560e21b602082015260400190565b602081526000610d6c602083016003815262504c4960e81b602082015260400190565b604081526000612d84604083016003815262504c4960e81b602082015260400190565b60208082526032908201527f58444320616d6f756e742053686f756c64206265206d696e696d756d58444344604082015271195c1bdcda5d105b5bdd5b9d081b1a5b5a5d60721b606082015260800190565b60008219821115612e5257612e5261301e565b500190565b600082612e7257634e487b7160e01b81526012600452602481fd5b500490565b600181815b80851115612eb2578160001904821115612e9857612e9861301e565b80851615612ea557918102915b93841c9390800290612e7c565b509250929050565b600061166a8383600082612ed057506001610d6c565b81612edd57506000610d6c565b8160018114612ef35760028114612efd57612f19565b6001915050610d6c565b60ff841115612f0e57612f0e61301e565b50506001821b610d6c565b5060208310610133831016604e8410600b8410161715612f3c575081810a610d6c565b612f468383612e77565b8060001904821115612f5a57612f5a61301e565b029392505050565b6000816000190483118215151615612f7c57612f7c61301e565b500290565b600082821015612f9357612f9361301e565b500390565b60005b83811015612fb3578181015183820152602001612f9b565b83811115612fc2576000848401525b50505050565b600181811c90821680612fdc57607f821691505b60208210811415612ffd57634e487b7160e01b600052602260045260246000fd5b50919050565b60006000198214156130175761301761301e565b5060010190565b634e487b7160e01b600052601160045260246000fd5b634e487b7160e01b600052604160045260246000fdfea264697066735822122003a9fde9b0b3e21c6fc032537058091318a9b162773b829e188614ed7006f8c164736f6c63430008040033",
  "linkReferences": {
    "contracts/utils/SafeDecimalMath.sol": {
      "SafeDecimalMath": [
        {
          "length": 20,
          "start": 18
        },
        {
          "length": 20,
          "start": 147
        }
      ]
    }
  },
  "deployedLinkReferences": {}
}