{
  "_format": "hh-sol-artifact-1",
  "contractName": "XSynProtocol",
  "sourceName": "contracts/XSynProtocol.sol",
  "abi": [
    {
      "inputs": [
        {
          "internalType": "uint256",
          "name": "cratio",
          "type": "uint256"
        }
      ],
      "stateMutability": "nonpayable",
      "type": "constructor"
    },
    {
      "anonymous": false,
      "inputs": [
        {
          "indexed": false,
          "internalType": "bytes32",
          "name": "name",
          "type": "bytes32"
        },
        {
          "indexed": false,
          "internalType": "address",
          "name": "destination",
          "type": "address"
        }
      ],
      "name": "CacheUpdated",
      "type": "event"
    },
    {
      "anonymous": false,
      "inputs": [
        {
          "indexed": false,
          "internalType": "uint256",
          "name": "amount",
          "type": "uint256"
        }
      ],
      "name": "MinimumDepositAmountUpdated",
      "type": "event"
    },
    {
      "inputs": [],
      "name": "CONTRACTNAME",
      "outputs": [
        {
          "internalType": "string",
          "name": "",
          "type": "string"
        }
      ],
      "stateMutability": "view",
      "type": "function"
    },
    {
      "inputs": [],
      "name": "CONTRACT_NAME",
      "outputs": [
        {
          "internalType": "string",
          "name": "",
          "type": "string"
        }
      ],
      "stateMutability": "view",
      "type": "function"
    },
    {
      "inputs": [],
      "name": "_owner",
      "outputs": [
        {
          "internalType": "address",
          "name": "",
          "type": "address"
        }
      ],
      "stateMutability": "view",
      "type": "function"
    },
    {
      "inputs": [
        {
          "internalType": "bytes32",
          "name": "",
          "type": "bytes32"
        }
      ],
      "name": "addressCache",
      "outputs": [
        {
          "internalType": "address",
          "name": "",
          "type": "address"
        }
      ],
      "stateMutability": "view",
      "type": "function"
    },
    {
      "inputs": [],
      "name": "contractOwner",
      "outputs": [
        {
          "internalType": "address",
          "name": "",
          "type": "address"
        }
      ],
      "stateMutability": "view",
      "type": "function"
    },
    {
      "inputs": [
        {
          "internalType": "address",
          "name": "",
          "type": "address"
        },
        {
          "internalType": "string",
          "name": "",
          "type": "string"
        }
      ],
      "name": "debtTotalPool",
      "outputs": [
        {
          "internalType": "address payable",
          "name": "user",
          "type": "address"
        },
        {
          "internalType": "string",
          "name": "xSynSymbol",
          "type": "string"
        },
        {
          "internalType": "uint256",
          "name": "synthValue",
          "type": "uint256"
        },
        {
          "internalType": "uint256",
          "name": "totXDSwapped",
          "type": "uint256"
        },
        {
          "internalType": "bool",
          "name": "isXDUSD",
          "type": "bool"
        },
        {
          "internalType": "bool",
          "name": "isMinted",
          "type": "bool"
        },
        {
          "internalType": "bool",
          "name": "isSwapped",
          "type": "bool"
        }
      ],
      "stateMutability": "view",
      "type": "function"
    },
    {
      "inputs": [
        {
          "internalType": "address",
          "name": "",
          "type": "address"
        }
      ],
      "name": "deposits",
      "outputs": [
        {
          "internalType": "address payable",
          "name": "user",
          "type": "address"
        },
        {
          "internalType": "uint256",
          "name": "xdcDeposit",
          "type": "uint256"
        },
        {
          "internalType": "uint256",
          "name": "pliDeposit",
          "type": "uint256"
        },
        {
          "internalType": "uint256",
          "name": "xdUsdminted",
          "type": "uint256"
        },
        {
          "internalType": "enum Constants.TokenType",
          "name": "tok",
          "type": "uint8"
        }
      ],
      "stateMutability": "view",
      "type": "function"
    },
    {
      "inputs": [
        {
          "internalType": "bytes32",
          "name": "_name",
          "type": "bytes32"
        }
      ],
      "name": "fetchAddress",
      "outputs": [
        {
          "internalType": "address",
          "name": "",
          "type": "address"
        }
      ],
      "stateMutability": "view",
      "type": "function"
    },
    {
      "inputs": [
        {
          "internalType": "address",
          "name": "_user",
          "type": "address"
        }
      ],
      "name": "getMyCollateralRatio",
      "outputs": [
        {
          "internalType": "uint256",
          "name": "_cratio",
          "type": "uint256"
        },
        {
          "internalType": "bool",
          "name": "_underCollateral",
          "type": "bool"
        },
        {
          "internalType": "bool",
          "name": "_overCollateral",
          "type": "bool"
        },
        {
          "internalType": "uint256",
          "name": "_totalTokenToMOrB",
          "type": "uint256"
        }
      ],
      "stateMutability": "view",
      "type": "function"
    },
    {
      "inputs": [
        {
          "internalType": "string",
          "name": "",
          "type": "string"
        }
      ],
      "name": "keyaddress",
      "outputs": [
        {
          "internalType": "address",
          "name": "",
          "type": "address"
        }
      ],
      "stateMutability": "view",
      "type": "function"
    },
    {
      "inputs": [],
      "name": "minCRatio",
      "outputs": [
        {
          "internalType": "uint256",
          "name": "",
          "type": "uint256"
        }
      ],
      "stateMutability": "view",
      "type": "function"
    },
    {
      "inputs": [],
      "name": "minimumPLIDepositAmount",
      "outputs": [
        {
          "internalType": "uint256",
          "name": "",
          "type": "uint256"
        }
      ],
      "stateMutability": "view",
      "type": "function"
    },
    {
      "inputs": [],
      "name": "minimumXDCDepositAmount",
      "outputs": [
        {
          "internalType": "uint256",
          "name": "",
          "type": "uint256"
        }
      ],
      "stateMutability": "view",
      "type": "function"
    },
    {
      "inputs": [
        {
          "internalType": "uint256",
          "name": "_pliVal",
          "type": "uint256"
        },
        {
          "internalType": "address",
          "name": "_tokenAddress",
          "type": "address"
        }
      ],
      "name": "mintxdUSDForPLI",
      "outputs": [
        {
          "internalType": "uint256",
          "name": "",
          "type": "uint256"
        }
      ],
      "stateMutability": "nonpayable",
      "type": "function"
    },
    {
      "inputs": [],
      "name": "mintxdUSDForXDC",
      "outputs": [
        {
          "internalType": "uint256",
          "name": "",
          "type": "uint256"
        }
      ],
      "stateMutability": "payable",
      "type": "function"
    },
    {
      "inputs": [
        {
          "internalType": "bytes32",
          "name": "_name",
          "type": "bytes32"
        }
      ],
      "name": "requireAndGetAddress",
      "outputs": [
        {
          "internalType": "address",
          "name": "",
          "type": "address"
        }
      ],
      "stateMutability": "view",
      "type": "function"
    },
    {
      "inputs": [
        {
          "internalType": "uint256",
          "name": "_minDeposit",
          "type": "uint256"
        }
      ],
      "name": "setMinDepositForPLI",
      "outputs": [],
      "stateMutability": "nonpayable",
      "type": "function"
    },
    {
      "inputs": [
        {
          "internalType": "uint256",
          "name": "_minDeposit",
          "type": "uint256"
        }
      ],
      "name": "setMinDepositForXDC",
      "outputs": [],
      "stateMutability": "nonpayable",
      "type": "function"
    },
    {
      "inputs": [
        {
          "internalType": "address",
          "name": "",
          "type": "address"
        }
      ],
      "name": "totalXDUSDMinted",
      "outputs": [
        {
          "internalType": "uint256",
          "name": "",
          "type": "uint256"
        }
      ],
      "stateMutability": "view",
      "type": "function"
    },
    {
      "inputs": [
        {
          "internalType": "address",
          "name": "",
          "type": "address"
        }
      ],
      "name": "totalXDUSDSwapped",
      "outputs": [
        {
          "internalType": "uint256",
          "name": "",
          "type": "uint256"
        }
      ],
      "stateMutability": "view",
      "type": "function"
    },
    {
      "inputs": [
        {
          "internalType": "address",
          "name": "",
          "type": "address"
        },
        {
          "internalType": "uint256",
          "name": "",
          "type": "uint256"
        }
      ],
      "name": "tradingPool",
      "outputs": [
        {
          "internalType": "address payable",
          "name": "user",
          "type": "address"
        },
        {
          "internalType": "string",
          "name": "xSynSymbol",
          "type": "string"
        },
        {
          "internalType": "uint256",
          "name": "synthValue",
          "type": "uint256"
        },
        {
          "internalType": "uint256",
          "name": "totXDSwapped",
          "type": "uint256"
        },
        {
          "internalType": "bool",
          "name": "isXDUSD",
          "type": "bool"
        },
        {
          "internalType": "bool",
          "name": "isMinted",
          "type": "bool"
        },
        {
          "internalType": "bool",
          "name": "isSwapped",
          "type": "bool"
        }
      ],
      "stateMutability": "view",
      "type": "function"
    },
    {
      "inputs": [
        {
          "internalType": "bytes32",
          "name": "_name",
          "type": "bytes32"
        },
        {
          "internalType": "address",
          "name": "_destination",
          "type": "address"
        }
      ],
      "name": "updateCache",
      "outputs": [],
      "stateMutability": "nonpayable",
      "type": "function"
    },
    {
      "inputs": [
        {
          "internalType": "address",
          "name": "_user",
          "type": "address"
        },
        {
          "internalType": "uint256",
          "name": "_totUsdSwapped",
          "type": "uint256"
        },
        {
          "internalType": "uint256",
          "name": "_totSynthsPurchased",
          "type": "uint256"
        },
        {
          "internalType": "string",
          "name": "_symbolPurchased",
          "type": "string"
        }
      ],
      "name": "updateDebtPool",
      "outputs": [],
      "stateMutability": "nonpayable",
      "type": "function"
    },
    {
      "inputs": [
        {
          "internalType": "string",
          "name": "_name",
          "type": "string"
        },
        {
          "internalType": "address",
          "name": "_destination",
          "type": "address"
        }
      ],
      "name": "updateKeyAddress",
      "outputs": [],
      "stateMutability": "nonpayable",
      "type": "function"
    },
    {
      "stateMutability": "payable",
      "type": "receive"
    }
  ],
  "bytecode": "0x60806040819052630241ebdb60e61b815273__$62ad3b859263eea2f18e8dce157c4af92c$__9063907af6c09060849060209060048186803b1580156200004557600080fd5b505af41580156200005a573d6000803e3d6000fd5b505050506040513d601f19601f820116820180604052508101906200008091906200017d565b6200008e906103e862000196565b60055573__$62ad3b859263eea2f18e8dce157c4af92c$__63907af6c06040518163ffffffff1660e01b815260040160206040518083038186803b158015620000d657600080fd5b505af4158015620000eb573d6000803e3d6000fd5b505050506040513d601f19601f820116820180604052508101906200011191906200017d565b6200011f906101f462000196565b6006553480156200012f57600080fd5b50604051620030983803806200309883398101604081905262000152916200017d565b60018054336001600160a01b03199182168117909255600380549091169091179055600255620001c2565b6000602082840312156200018f578081fd5b5051919050565b6000816000190483118215151615620001bd57634e487b7160e01b81526011600452602481fd5b500290565b612ec680620001d26000396000f3fe60806040526004361061014f5760003560e01c8063b2bdfa7b116100b6578063dee6bb4d1161006f578063dee6bb4d14610424578063e52346d014610444578063ea983a6d14610464578063f187574414610484578063f1efc5d9146104bc578063fc7e286d146104dc57600080fd5b8063b2bdfa7b14610361578063b91a1ca614610381578063c2e7df21146101cd578063c982e66f146103ae578063ce606ee0146103ce578063dc675a65146103ee57600080fd5b8063614d08f811610108578063614d08f81461023d578063722a6b24146102855780637d05ecd4146102cb57806383e107871461030c578063ae1844d614610314578063b1211f291461033457600080fd5b8063056c5aa91461015b578063184212a2146101845780633b6fba1a146101b757806346bcb49d146101cd5780635f230a6114610205578063607573d31461022757600080fd5b3661015657005b600080fd5b34801561016757600080fd5b5061017160055481565b6040519081526020015b60405180910390f35b34801561019057600080fd5b506101a461019f36600461294f565b610544565b60405161017b9796959493929190612b29565b3480156101c357600080fd5b5061017160065481565b3480156101d957600080fd5b506101ed6101e83660046129f7565b61063d565b6040516001600160a01b03909116815260200161017b565b34801561021157600080fd5b506102256102203660046129f7565b6106c0565b005b34801561023357600080fd5b5061017160025481565b34801561024957600080fd5b506102786040518060400160405280600f81526020016e20b2323932b9b9a932b9b7b63b32b960891b81525081565b60405161017b9190612bce565b34801561029157600080fd5b506102a56102a03660046128e9565b610704565b60408051948552921515602085015290151591830191909152606082015260800161017b565b3480156102d757600080fd5b506101ed6102e6366004612a3a565b80516020818301810180516004825292820191909301209152546001600160a01b031681565b610171610b46565b34801561032057600080fd5b5061017161032f366004612a0f565b610c1c565b34801561034057600080fd5b5061017161034f3660046128e9565b60086020526000908152604090205481565b34801561036d57600080fd5b506001546101ed906001600160a01b031681565b34801561038d57600080fd5b5061017161039c3660046128e9565b60076020526000908152604090205481565b3480156103ba57600080fd5b506102256103c9366004612978565b610d1a565b3480156103da57600080fd5b506003546101ed906001600160a01b031681565b3480156103fa57600080fd5b506101ed6104093660046129f7565b6000602081905290815260409020546001600160a01b031681565b34801561043057600080fd5b5061022561043f366004612a75565b6113ef565b34801561045057600080fd5b5061022561045f3660046129f7565b61143b565b34801561047057600080fd5b506101a461047f366004612903565b611478565b34801561049057600080fd5b506102786040518060400160405280600c81526020016b1614de5b941c9bdd1bd8dbdb60a21b81525081565b3480156104c857600080fd5b506102256104d7366004612a0f565b6114c0565b3480156104e857600080fd5b506105336104f73660046128e9565b600960205260009081526040902080546001820154600283015460038401546004909401546001600160a01b0390931693919290919060ff1685565b60405161017b959493929190612b7b565b600b602052816000526040600020818154811061056057600080fd5b6000918252602090912060059091020180546001820180546001600160a01b03909216945091925061059190612e0e565b80601f01602080910402602001604051908101604052809291908181526020018280546105bd90612e0e565b801561060a5780601f106105df5761010080835404028352916020019161060a565b820191906000526020600020905b8154815290600101906020018083116105ed57829003601f168201915b505050600284015460038501546004909501549394909390925060ff808216925061010082048116916201000090041687565b60008181526020818152604080832054905170026b4b9b9b4b7339030b2323932b9b99d1607d1b92810192909252603182018490526001600160a01b03169081151590605101604051602081830303815290604052906106b95760405162461bcd60e51b81526004016106b09190612bce565b60405180910390fd5b5092915050565b6106c8611576565b60068190556040518181527fa39eacd162ee82c70b2b030a1bc8fe89adcccc61122fad4821a8772dbcc54267906020015b60405180910390a150565b6000806000806000600b6000876001600160a01b03166001600160a01b03168152602001908152602001600020805480602002602001604051908101604052809291908181526020016000905b828210156108735760008481526020908190206040805160e081019091526005850290910180546001600160a01b03168252600181018054929391929184019161079a90612e0e565b80601f01602080910402602001604051908101604052809291908181526020018280546107c690612e0e565b80156108135780601f106107e857610100808354040283529160200191610813565b820191906000526020600020905b8154815290600101906020018083116107f657829003601f168201915b505050918352505060028201546020808301919091526003830154604083015260049092015460ff8082161515606084015261010082048116151560808401526201000090910416151560a0909101529082526001929092019101610751565b50505050905060008060008060005b8551811015610a8d578581815181106108ab57634e487b7160e01b600052603260045260246000fd5b60200260200101516080015115610977578581815181106108dc57634e487b7160e01b600052603260045260246000fd5b602002602001015160a00151156109325761092b86828151811061091057634e487b7160e01b600052603260045260246000fd5b602002602001015160400151866115e790919063ffffffff16565b9450610a7b565b61097086828151811061095557634e487b7160e01b600052603260045260246000fd5b602002602001015160400151856115e790919063ffffffff16565b9350610a7b565b610a78610a71610a3761271061098b61164d565b6001600160a01b031663a40b18c28b87815181106109b957634e487b7160e01b600052603260045260246000fd5b6020026020010151602001516040518263ffffffff1660e01b81526004016109e19190612bce565b60206040518083038186803b1580156109f957600080fd5b505afa158015610a0d573d6000803e3d6000fd5b505050506040513d601f19601f82011682018060405250810190610a319190612ab8565b906116a1565b888481518110610a5757634e487b7160e01b600052603260045260246000fd5b6020026020010151604001516116e390919063ffffffff16565b83906115e7565b91505b80610a8581612e49565b915050610882565b5082841115610aa357610aa08484611762565b91505b610aad81836115e7565b90506000610aba8b6117a4565b9050600080806000848610610b0257610ae26064610adc87610a318a82611762565b906116e3565b93506000925060019150610afb6064610a3187876116e3565b9050610b31565b610b156064610adc87610a318a82611762565b93506001925060009150610b2e6064610a3187876116e3565b90505b929e919d509b50909950975050505050505050565b6000600554341015610b6a5760405162461bcd60e51b81526004016106b090612c33565b6000610bc6610bbf612710610b7d61164d565b6040516352058c6160e11b815260206004820152600360248201526258444360e81b60448201526001600160a01b03919091169063a40b18c2906064016109e1565b349061181e565b90506000610bdf600254836116a190919063ffffffff16565b33600090815260076020526040902054909150610bfc90826115e7565b33600090815260076020526040902055610c1581611840565b9250505090565b6000600654831015610c405760405162461bcd60e51b81526004016106b090612be1565b6000610c9c610c95612710610c5361164d565b6040516352058c6160e11b8152602060048201526003602482015262504c4960e81b60448201526001600160a01b03919091169063a40b18c2906064016109e1565b859061181e565b90506000610cb5600254836116a190919063ffffffff16565b33600090815260076020526040902054909150610cd290826115e7565b33600081815260076020526040902091909155610cf0908587611e1b565b610cfb338587611efe565b610d058585611fdc565b610d0f8186612062565b925050505b92915050565b610d226125e8565b6001600160a01b0384166000908152600a60205260408082209051610d48908490612afc565b90815260408051918290036020908101832060e0840190925281546001600160a01b0316835260018201805491840191610d8190612e0e565b80601f0160208091040260200160405190810160405280929190818152602001828054610dad90612e0e565b8015610dfa5780601f10610dcf57610100808354040283529160200191610dfa565b820191906000526020600020905b815481529060010190602001808311610ddd57829003601f168201915b505050918352505060028201546020820152600382015460408083019190915260049092015460ff8082161515606084015261010082048116151560808401526201000090910416151560a090910152810151909150600090610e5d90856115e7565b6040805160e0810182526001600160a01b0389168082526020808301889052828401859052606083018a905260006080840181905260a08401819052600160c0850152918252600a9052829020915192935091610ebb908690612afc565b90815260405160209181900382019020825181546001600160a01b0319166001600160a01b039091161781558282015180519192610f0192600185019290910190612732565b5060408281015160028301556060830151600383015560808301516004909201805460a085015160c0909501511515620100000262ff0000199515156101000261ff00199515159590951661ffff1990921691909117939093179390931691909117909155336000908152600b6020908152828220600a909152908290209151909190610f8f908690612afc565b908152604051908190036020908101909120825460018181018555600094855292909320815460059094020180546001600160a01b0319166001600160a01b039094169390931783558181018054919392830191610fec90612e0e565b610ff79291906127b6565b5060028281015490820155600380830154908201556004918201805492909101805460ff938416151560ff19821681178355835461010090819004861615150261ff001990911661ffff19909216919091171780825591546201000090819004909316151590920262ff0000199091161790556001600160a01b0386166000908152600a6020526040808220905161108e90612b18565b90815260408051918290036020908101832060e0840190925281546001600160a01b03168352600182018054918401916110c790612e0e565b80601f01602080910402602001604051908101604052809291908181526020018280546110f390612e0e565b80156111405780601f1061111557610100808354040283529160200191611140565b820191906000526020600020905b81548152906001019060200180831161112357829003601f168201915b505050918352505060028201546020820152600382015460408083019190915260049092015460ff8082161515606084015261010082048116151560808401526201000090910416151560a0909101528101519091506000906111a39088611762565b90506040518060e00160405280896001600160a01b031681526020016040518060400160405280600581526020016416111554d160da1b815250815260200182815260200188815260200160011515815260200160001515815260200160011515815250600a60008a6001600160a01b03166001600160a01b0316815260200190815260200160002060405161123890612b18565b90815260405160209181900382019020825181546001600160a01b0319166001600160a01b03909116178155828201518051919261127e92600185019290910190612732565b5060408281015160028301556060830151600383015560808301516004909201805460a085015160c0909501511515620100000262ff0000199515156101000261ff00199515159590951661ffff1990921691909117939093179390931691909117909155336000908152600b6020908152828220600a90915290829020915190919061130a90612b18565b908152604051908190036020908101909120825460018181018555600094855292909320815460059094020180546001600160a01b0319166001600160a01b03909416939093178355818101805491939283019161136790612e0e565b6113729291906127b6565b5060028281015490820155600380830154908201556004918201805492909101805460ff938416151560ff19821681178355835461010090819004861615150261ff001990911661ffff19909216919091171780825591546201000090819004909316151590920262ff0000199091161790555050505050505050565b6113f7611576565b806004836040516114089190612afc565b90815260405190819003602001902080546001600160a01b03929092166001600160a01b03199092169190911790555050565b611443611576565b60058190556040518181527fa39eacd162ee82c70b2b030a1bc8fe89adcccc61122fad4821a8772dbcc54267906020016106f9565b600a6020908152600092835260409092208151808301840180519281529084019290930191909120915280546001820180546001600160a01b03909216929161059190612e0e565b6001546001600160a01b031633146115125760405162461bcd60e51b81526020600482015260156024820152746f6e6c79206f776e65722063616e2075706461746560581b60448201526064016106b0565b6000828152602081815260409182902080546001600160a01b0319166001600160a01b0385169081179091558251858152918201527f88a93678a3692f6789d9546fc621bf7234b101ddb7d4fe479455112831b8aa68910160405180910390a15050565b6003546001600160a01b031633146115e55760405162461bcd60e51b815260206004820152602c60248201527f4f6e6c79205853796e50726f746f636f6c2063616e20706572666f726d20746860448201526b34b99037b832b930ba34b7b760a11b60648201526084016106b0565b565b6000806115f48385612c85565b9050838110156116465760405162461bcd60e51b815260206004820152601b60248201527f536166654d6174683a206164646974696f6e206f766572666c6f77000000000060448201526064016106b0565b9392505050565b600060046040518060400160405280600c81526020016b45584348414e47455241544560a01b8152506040516116839190612afc565b908152604051908190036020019020546001600160a01b0316919050565b600061164683836040518060400160405280601a81526020017f536166654d6174683a206469766973696f6e206279207a65726f000000000000815250612665565b6000826116f257506000610d14565b60006116fe8385612da8565b90508261170b8583612c9d565b146116465760405162461bcd60e51b815260206004820152602160248201527f536166654d6174683a206d756c7469706c69636174696f6e206f766572666c6f6044820152607760f81b60648201526084016106b0565b600061164683836040518060400160405280601e81526020017f536166654d6174683a207375627472616374696f6e206f766572666c6f77000081525061269c565b6001600160a01b03811660009081526009602052604081206001810154600291820154915490919083906117ea90610a316117e3612710610b7d61164d565b869061181e565b90506000611805600254610a316117e3612710610c5361164d565b9050600061181383836115e7565b979650505050505050565b600061182c6012600a612d00565b61183684846116e3565b6116469190612c9d565b60006005543410156118645760405162461bcd60e51b81526004016106b090612c33565b336000908152600960209081526040808320815160a08101835281546001600160a01b031681526001808301549482019490945260028201549281019290925260038101546060830152600481015491929091608084019160ff909116908111156118df57634e487b7160e01b600052602160045260246000fd5b60018111156118fe57634e487b7160e01b600052602160045260246000fd5b905250602081015190915060009061191690346115e7565b905060006119318584606001516115e790919063ffffffff16565b90506040518060a0016040528084600001516001600160a01b03168152602001838152602001846040015181526020018281526020016000600181111561198857634e487b7160e01b600052602160045260246000fd5b60018111156119a757634e487b7160e01b600052602160045260246000fd5b905233600090815260096020908152604091829020835181546001600160a01b0319166001600160a01b039091161781559083015160018083019190915591830151600282015560608301516003820155608083015160048201805492939192909160ff19909116908381811115611a2f57634e487b7160e01b600052602160045260246000fd5b021790555050336000908152600a6020526040808220905191925090611a5490612b18565b90815260408051918290036020908101832060e0840190925281546001600160a01b0316835260018201805491840191611a8d90612e0e565b80601f0160208091040260200160405190810160405280929190818152602001828054611ab990612e0e565b8015611b065780601f10611adb57610100808354040283529160200191611b06565b820191906000526020600020905b815481529060010190602001808311611ae957829003601f168201915b505050918352505060028201546020820152600382015460408083019190915260049092015460ff8082161515606084015261010082048116151560808401526201000090910416151560a090910152810151909150600090611b6990846115e7565b6040805160e0810182523380825282518084018452600581526416111554d160da1b6020828101919091528084019190915282840185905260006060840181905260016080850181905260a085015260c08401819052918252600a9052829020915192935091611bd890612b18565b90815260405160209181900382019020825181546001600160a01b0319166001600160a01b039091161781558282015180519192611c1e92600185019290910190612732565b5060408281015160028301556060830151600383015560808301516004909201805460a085015160c0909501511515620100000262ff0000199515156101000261ff00199515159590951661ffff1990921691909117939093179390931691909117909155336000908152600b6020908152828220600a909152908290209151909190611caa90612b18565b908152604051908190036020908101909120825460018181018555600094855292909320815460059094020180546001600160a01b0319166001600160a01b039094169390931783558181018054919392830191611d0790612e0e565b611d129291906127b6565b5060028281015490820155600380830154908201556004918201805492909101805460ff938416151560ff19821681178355835461010090819004861615150261ff001990911661ffff19909216919091171780825591546201000090819004909316151590920262ff000019909116179055611d8d6126cd565b6040516340c10f1960e01b8152336004820152602481018990526001600160a01b0391909116906340c10f1990604401602060405180830381600087803b158015611dd757600080fd5b505af1158015611deb573d6000803e3d6000fd5b505050506040513d601f19601f82011682018060405250810190611e0f91906129d7565b50959695505050505050565b6040516370a0823160e01b81526001600160a01b0384811660048301528291908416906370a082319060240160206040518083038186803b158015611e5f57600080fd5b505afa158015611e73573d6000803e3d6000fd5b505050506040513d601f19601f82011682018060405250810190611e979190612ab8565b1015611ef95760405162461bcd60e51b815260206004820152602b60248201527f5852433230476174657761793a20696e73756666696369656e7420637572726560448201526a6e63792062616c616e636560a81b60648201526084016106b0565b505050565b604051636eb1769f60e11b81526001600160a01b03848116600483015230602483015282919084169063dd62ed3e9060440160206040518083038186803b158015611f4857600080fd5b505afa158015611f5c573d6000803e3d6000fd5b505050506040513d601f19601f82011682018060405250810190611f809190612ab8565b1015611ef95760405162461bcd60e51b815260206004820152602560248201527f5852433230476174657761793a20696e73756666696369656e7420616c6c6f7760448201526430b731b29760d91b60648201526084016106b0565b6040516323b872dd60e01b8152336004820152306024820152604481018390526001600160a01b038216906323b872dd90606401602060405180830381600087803b15801561202a57600080fd5b505af115801561203e573d6000803e3d6000fd5b505050506040513d601f19601f82011682018060405250810190611ef991906129d7565b60006006548210156120865760405162461bcd60e51b81526004016106b090612be1565b336000908152600960209081526040808320815160a08101835281546001600160a01b031681526001808301549482019490945260028201549281019290925260038101546060830152600481015491929091608084019160ff9091169081111561210157634e487b7160e01b600052602160045260246000fd5b600181111561212057634e487b7160e01b600052602160045260246000fd5b905250604081015190915060009061213890856115e7565b905060006121538684606001516115e790919063ffffffff16565b6040805160a08101825285516001600160a01b03908116825260208088015181840190815283850188815260608501878152600160808701818152336000908152600990965297909420865181546001600160a01b031916961695909517855591518484015551600284015551600383015592516004820180549596509294919390929160ff19169083818111156121fb57634e487b7160e01b600052602160045260246000fd5b021790555050336000908152600a602052604080822090519192509061222090612b18565b90815260408051918290036020908101832060e0840190925281546001600160a01b031683526001820180549184019161225990612e0e565b80601f016020809104026020016040519081016040528092919081815260200182805461228590612e0e565b80156122d25780601f106122a7576101008083540402835291602001916122d2565b820191906000526020600020905b8154815290600101906020018083116122b557829003601f168201915b505050918352505060028201546020820152600382015460408083019190915260049092015460ff8082161515606084015261010082048116151560808401526201000090910416151560a09091015281015190915060009061233590846115e7565b6040805160e0810182523380825282518084018452600581526416111554d160da1b6020828101919091528084019190915282840185905260006060840181905260016080850181905260a085015260c08401819052918252600a90528290209151929350916123a490612b18565b90815260405160209181900382019020825181546001600160a01b0319166001600160a01b0390911617815582820151805191926123ea92600185019290910190612732565b5060408281015160028301556060830151600383015560808301516004909201805460a085015160c0909501511515620100000262ff0000199515156101000261ff00199515159590951661ffff1990921691909117939093179390931691909117909155336000908152600b6020908152828220600a90915290829020915190919061247690612b18565b908152604051908190036020908101909120825460018181018555600094855292909320815460059094020180546001600160a01b0319166001600160a01b0390941693909317835581810180549193928301916124d390612e0e565b6124de9291906127b6565b5060028281015490820155600380830154908201556004918201805492909101805460ff938416151560ff19821681178355835461010090819004861615150261ff001990911661ffff19909216919091171780825591546201000090819004909316151590920262ff0000199091161790556125596126cd565b6040516340c10f1960e01b8152336004820152602481018a90526001600160a01b0391909116906340c10f1990604401602060405180830381600087803b1580156125a357600080fd5b505af11580156125b7573d6000803e3d6000fd5b505050506040513d601f19601f820116820180604052508101906125db91906129d7565b5096979650505050505050565b6125f06126fc565b6001600160a01b0316336001600160a01b0316146115e55760405162461bcd60e51b815260206004820152602c60248201527f4f6e6c79205873796e45786368616e67652063616e20706572666f726d20746860448201526b34b99037b832b930ba34b7b760a11b60648201526084016106b0565b600081836126865760405162461bcd60e51b81526004016106b09190612bce565b5060006126938486612c9d565b95945050505050565b600081848411156126c05760405162461bcd60e51b81526004016106b09190612bce565b5060006126938486612dc7565b600060046040518060400160405280600581526020016416111554d160da1b8152506040516116839190612afc565b600060046040518060400160405280600c81526020016b5853796e45786368616e676560a01b8152506040516116839190612afc565b82805461273e90612e0e565b90600052602060002090601f01602090048101928261276057600085556127a6565b82601f1061277957805160ff19168380011785556127a6565b828001600101855582156127a6579182015b828111156127a657825182559160200191906001019061278b565b506127b2929150612831565b5090565b8280546127c290612e0e565b90600052602060002090601f0160209004810192826127e457600085556127a6565b82601f106127f557805485556127a6565b828001600101855582156127a657600052602060002091601f016020900482015b828111156127a6578254825591600101919060010190612816565b5b808211156127b25760008155600101612832565b80356001600160a01b038116811461285d57600080fd5b919050565b600082601f830112612872578081fd5b813567ffffffffffffffff8082111561288d5761288d612e7a565b604051601f8301601f19908116603f011681019082821181831017156128b5576128b5612e7a565b816040528381528660208588010111156128cd578485fd5b8360208701602083013792830160200193909352509392505050565b6000602082840312156128fa578081fd5b61164682612846565b60008060408385031215612915578081fd5b61291e83612846565b9150602083013567ffffffffffffffff811115612939578182fd5b61294585828601612862565b9150509250929050565b60008060408385031215612961578182fd5b61296a83612846565b946020939093013593505050565b6000806000806080858703121561298d578182fd5b61299685612846565b93506020850135925060408501359150606085013567ffffffffffffffff8111156129bf578182fd5b6129cb87828801612862565b91505092959194509250565b6000602082840312156129e8578081fd5b81518015158114611646578182fd5b600060208284031215612a08578081fd5b5035919050565b60008060408385031215612a21578182fd5b82359150612a3160208401612846565b90509250929050565b600060208284031215612a4b578081fd5b813567ffffffffffffffff811115612a61578182fd5b612a6d84828501612862565b949350505050565b60008060408385031215612a87578182fd5b823567ffffffffffffffff811115612a9d578283fd5b612aa985828601612862565b925050612a3160208401612846565b600060208284031215612ac9578081fd5b5051919050565b60008151808452612ae8816020860160208601612dde565b601f01601f19169290920160200192915050565b60008251612b0e818460208701612dde565b9190910192915050565b6416111554d160da1b815260050190565b6001600160a01b038816815260e060208201819052600090612b4d90830189612ad0565b60408301979097525060608101949094529115156080840152151560a0830152151560c09091015292915050565b6001600160a01b038616815260208101859052604081018490526060810183905260a0810160028310612bbe57634e487b7160e01b600052602160045260246000fd5b8260808301529695505050505050565b6020815260006116466020830184612ad0565b60208082526032908201527f504c4920616d6f756e742053686f756c64206265206d696e696d756d504c4944604082015271195c1bdcda5d105b5bdd5b9d081b1a5b5a5d60721b606082015260800190565b60208082526032908201527f58444320616d6f756e742053686f756c64206265206d696e696d756d58444344604082015271195c1bdcda5d105b5bdd5b9d081b1a5b5a5d60721b606082015260800190565b60008219821115612c9857612c98612e64565b500190565b600082612cb857634e487b7160e01b81526012600452602481fd5b500490565b600181815b80851115612cf8578160001904821115612cde57612cde612e64565b80851615612ceb57918102915b93841c9390800290612cc2565b509250929050565b60006116468383600082612d1657506001610d14565b81612d2357506000610d14565b8160018114612d395760028114612d4357612d5f565b6001915050610d14565b60ff841115612d5457612d54612e64565b50506001821b610d14565b5060208310610133831016604e8410600b8410161715612d82575081810a610d14565b612d8c8383612cbd565b8060001904821115612da057612da0612e64565b029392505050565b6000816000190483118215151615612dc257612dc2612e64565b500290565b600082821015612dd957612dd9612e64565b500390565b60005b83811015612df9578181015183820152602001612de1565b83811115612e08576000848401525b50505050565b600181811c90821680612e2257607f821691505b60208210811415612e4357634e487b7160e01b600052602260045260246000fd5b50919050565b6000600019821415612e5d57612e5d612e64565b5060010190565b634e487b7160e01b600052601160045260246000fd5b634e487b7160e01b600052604160045260246000fdfea264697066735822122037c649481a6c82475e19fd9619d5331c2ad7f6b7b89bb928191af92d89171adc64736f6c63430008040033",
  "linkReferences": {
    "contracts/utils/SafeDecimalMath.sol": {
      "SafeDecimalMath": [
        {
          "length": 20,
          "start": 18
        },
        {
          "length": 20,
          "start": 147
        }
      ]
    }
  },
  "deployedLinkReferences": {}
}