{
  "_format": "hh-sol-artifact-1",
  "contractName": "XSynProtocol",
  "sourceName": "contracts/XSynProtocol.sol",
  "abi": [
    {
      "inputs": [
        {
          "internalType": "uint256",
          "name": "cratio",
          "type": "uint256"
        }
      ],
      "stateMutability": "nonpayable",
      "type": "constructor"
    },
    {
      "anonymous": false,
      "inputs": [
        {
          "indexed": false,
          "internalType": "bytes32",
          "name": "name",
          "type": "bytes32"
        },
        {
          "indexed": false,
          "internalType": "address",
          "name": "destination",
          "type": "address"
        }
      ],
      "name": "CacheUpdated",
      "type": "event"
    },
    {
      "anonymous": false,
      "inputs": [
        {
          "indexed": false,
          "internalType": "uint256",
          "name": "amount",
          "type": "uint256"
        }
      ],
      "name": "MinimumDepositAmountUpdated",
      "type": "event"
    },
    {
      "anonymous": false,
      "inputs": [
        {
          "indexed": false,
          "internalType": "uint256",
          "name": "collatrealApplied",
          "type": "uint256"
        },
        {
          "indexed": false,
          "internalType": "uint256",
          "name": "usdTomint",
          "type": "uint256"
        },
        {
          "indexed": false,
          "internalType": "uint256",
          "name": "currentPrice",
          "type": "uint256"
        }
      ],
      "name": "calculatedRatio",
      "type": "event"
    },
    {
      "anonymous": false,
      "inputs": [
        {
          "indexed": false,
          "internalType": "uint256",
          "name": "cratio",
          "type": "uint256"
        },
        {
          "indexed": false,
          "internalType": "uint256",
          "name": "earnings",
          "type": "uint256"
        },
        {
          "indexed": false,
          "internalType": "uint256",
          "name": "stakings",
          "type": "uint256"
        }
      ],
      "name": "emitRatio",
      "type": "event"
    },
    {
      "inputs": [],
      "name": "CONTRACTNAME",
      "outputs": [
        {
          "internalType": "string",
          "name": "",
          "type": "string"
        }
      ],
      "stateMutability": "view",
      "type": "function"
    },
    {
      "inputs": [],
      "name": "CONTRACT_NAME",
      "outputs": [
        {
          "internalType": "string",
          "name": "",
          "type": "string"
        }
      ],
      "stateMutability": "view",
      "type": "function"
    },
    {
      "inputs": [],
      "name": "_owner",
      "outputs": [
        {
          "internalType": "address",
          "name": "",
          "type": "address"
        }
      ],
      "stateMutability": "view",
      "type": "function"
    },
    {
      "inputs": [
        {
          "internalType": "bytes32",
          "name": "",
          "type": "bytes32"
        }
      ],
      "name": "addressCache",
      "outputs": [
        {
          "internalType": "address",
          "name": "",
          "type": "address"
        }
      ],
      "stateMutability": "view",
      "type": "function"
    },
    {
      "inputs": [],
      "name": "contractOwner",
      "outputs": [
        {
          "internalType": "address",
          "name": "",
          "type": "address"
        }
      ],
      "stateMutability": "view",
      "type": "function"
    },
    {
      "inputs": [
        {
          "internalType": "address",
          "name": "",
          "type": "address"
        },
        {
          "internalType": "string",
          "name": "",
          "type": "string"
        }
      ],
      "name": "debtTotalPool",
      "outputs": [
        {
          "internalType": "address",
          "name": "user",
          "type": "address"
        },
        {
          "internalType": "string",
          "name": "xSynSymbol",
          "type": "string"
        },
        {
          "internalType": "uint256",
          "name": "synthValue",
          "type": "uint256"
        },
        {
          "internalType": "uint256",
          "name": "totXDSwapped",
          "type": "uint256"
        },
        {
          "internalType": "bool",
          "name": "isXDUSD",
          "type": "bool"
        },
        {
          "internalType": "bool",
          "name": "isMinted",
          "type": "bool"
        },
        {
          "internalType": "bool",
          "name": "isSwapped",
          "type": "bool"
        }
      ],
      "stateMutability": "view",
      "type": "function"
    },
    {
      "inputs": [
        {
          "internalType": "address",
          "name": "",
          "type": "address"
        }
      ],
      "name": "deposits",
      "outputs": [
        {
          "internalType": "address payable",
          "name": "user",
          "type": "address"
        },
        {
          "internalType": "uint256",
          "name": "xdcDeposit",
          "type": "uint256"
        },
        {
          "internalType": "uint256",
          "name": "pliDeposit",
          "type": "uint256"
        },
        {
          "internalType": "uint256",
          "name": "xdUsdminted",
          "type": "uint256"
        },
        {
          "internalType": "enum Constants.TokenType",
          "name": "tok",
          "type": "uint8"
        }
      ],
      "stateMutability": "view",
      "type": "function"
    },
    {
      "inputs": [
        {
          "internalType": "bytes32",
          "name": "_name",
          "type": "bytes32"
        }
      ],
      "name": "fetchAddress",
      "outputs": [
        {
          "internalType": "address",
          "name": "",
          "type": "address"
        }
      ],
      "stateMutability": "view",
      "type": "function"
    },
    {
      "inputs": [
        {
          "internalType": "address",
          "name": "_user",
          "type": "address"
        }
      ],
      "name": "getMyCollateralRatio",
      "outputs": [
        {
          "internalType": "uint256",
          "name": "_totalActual",
          "type": "uint256"
        },
        {
          "internalType": "uint256",
          "name": "_totalExpected",
          "type": "uint256"
        }
      ],
      "stateMutability": "view",
      "type": "function"
    },
    {
      "inputs": [
        {
          "internalType": "string",
          "name": "",
          "type": "string"
        }
      ],
      "name": "keyaddress",
      "outputs": [
        {
          "internalType": "address",
          "name": "",
          "type": "address"
        }
      ],
      "stateMutability": "view",
      "type": "function"
    },
    {
      "inputs": [],
      "name": "minCRatio",
      "outputs": [
        {
          "internalType": "uint256",
          "name": "",
          "type": "uint256"
        }
      ],
      "stateMutability": "view",
      "type": "function"
    },
    {
      "inputs": [],
      "name": "minimumPLIDepositAmount",
      "outputs": [
        {
          "internalType": "uint256",
          "name": "",
          "type": "uint256"
        }
      ],
      "stateMutability": "view",
      "type": "function"
    },
    {
      "inputs": [],
      "name": "minimumXDCDepositAmount",
      "outputs": [
        {
          "internalType": "uint256",
          "name": "",
          "type": "uint256"
        }
      ],
      "stateMutability": "view",
      "type": "function"
    },
    {
      "inputs": [
        {
          "internalType": "uint256",
          "name": "_pliVal",
          "type": "uint256"
        },
        {
          "internalType": "address",
          "name": "_tokenAddress",
          "type": "address"
        }
      ],
      "name": "mintxdUSDForPLI",
      "outputs": [
        {
          "internalType": "uint256",
          "name": "",
          "type": "uint256"
        }
      ],
      "stateMutability": "nonpayable",
      "type": "function"
    },
    {
      "inputs": [],
      "name": "mintxdUSDForXDC",
      "outputs": [
        {
          "internalType": "uint256",
          "name": "",
          "type": "uint256"
        }
      ],
      "stateMutability": "payable",
      "type": "function"
    },
    {
      "inputs": [
        {
          "internalType": "bytes32",
          "name": "_name",
          "type": "bytes32"
        }
      ],
      "name": "requireAndGetAddress",
      "outputs": [
        {
          "internalType": "address",
          "name": "",
          "type": "address"
        }
      ],
      "stateMutability": "view",
      "type": "function"
    },
    {
      "inputs": [
        {
          "internalType": "uint256",
          "name": "_minDeposit",
          "type": "uint256"
        }
      ],
      "name": "setMinDepositForPLI",
      "outputs": [],
      "stateMutability": "nonpayable",
      "type": "function"
    },
    {
      "inputs": [
        {
          "internalType": "uint256",
          "name": "_minDeposit",
          "type": "uint256"
        }
      ],
      "name": "setMinDepositForXDC",
      "outputs": [],
      "stateMutability": "nonpayable",
      "type": "function"
    },
    {
      "inputs": [
        {
          "internalType": "string",
          "name": "_symbol",
          "type": "string"
        }
      ],
      "name": "showPrice",
      "outputs": [
        {
          "internalType": "uint256",
          "name": "",
          "type": "uint256"
        }
      ],
      "stateMutability": "view",
      "type": "function"
    },
    {
      "inputs": [
        {
          "internalType": "address",
          "name": "",
          "type": "address"
        }
      ],
      "name": "totalXDUSDMinted",
      "outputs": [
        {
          "internalType": "uint256",
          "name": "",
          "type": "uint256"
        }
      ],
      "stateMutability": "view",
      "type": "function"
    },
    {
      "inputs": [
        {
          "internalType": "address",
          "name": "",
          "type": "address"
        }
      ],
      "name": "totalXDUSDSwapped",
      "outputs": [
        {
          "internalType": "uint256",
          "name": "",
          "type": "uint256"
        }
      ],
      "stateMutability": "view",
      "type": "function"
    },
    {
      "inputs": [
        {
          "internalType": "address",
          "name": "",
          "type": "address"
        },
        {
          "internalType": "uint256",
          "name": "",
          "type": "uint256"
        }
      ],
      "name": "tradingPool",
      "outputs": [
        {
          "internalType": "address",
          "name": "user",
          "type": "address"
        },
        {
          "internalType": "string",
          "name": "xSynSymbol",
          "type": "string"
        },
        {
          "internalType": "uint256",
          "name": "synthValue",
          "type": "uint256"
        },
        {
          "internalType": "uint256",
          "name": "totXDSwapped",
          "type": "uint256"
        },
        {
          "internalType": "bool",
          "name": "isXDUSD",
          "type": "bool"
        },
        {
          "internalType": "bool",
          "name": "isMinted",
          "type": "bool"
        },
        {
          "internalType": "bool",
          "name": "isSwapped",
          "type": "bool"
        }
      ],
      "stateMutability": "view",
      "type": "function"
    },
    {
      "inputs": [
        {
          "internalType": "bytes32",
          "name": "_name",
          "type": "bytes32"
        },
        {
          "internalType": "address",
          "name": "_destination",
          "type": "address"
        }
      ],
      "name": "updateCache",
      "outputs": [],
      "stateMutability": "nonpayable",
      "type": "function"
    },
    {
      "inputs": [
        {
          "internalType": "address",
          "name": "_user",
          "type": "address"
        },
        {
          "internalType": "uint256",
          "name": "_totUsdSwapped",
          "type": "uint256"
        },
        {
          "internalType": "uint256",
          "name": "_totSynthsPurchased",
          "type": "uint256"
        },
        {
          "internalType": "string",
          "name": "_symbolPurchased",
          "type": "string"
        }
      ],
      "name": "updateDebtPoolSynth",
      "outputs": [
        {
          "internalType": "bool",
          "name": "",
          "type": "bool"
        }
      ],
      "stateMutability": "nonpayable",
      "type": "function"
    },
    {
      "inputs": [
        {
          "internalType": "address",
          "name": "_user",
          "type": "address"
        },
        {
          "internalType": "uint256",
          "name": "_totUsdSwapped",
          "type": "uint256"
        }
      ],
      "name": "updateDebtPoolXDUSD",
      "outputs": [
        {
          "internalType": "bool",
          "name": "",
          "type": "bool"
        }
      ],
      "stateMutability": "nonpayable",
      "type": "function"
    },
    {
      "inputs": [
        {
          "internalType": "string",
          "name": "_name",
          "type": "string"
        },
        {
          "internalType": "address",
          "name": "_destination",
          "type": "address"
        }
      ],
      "name": "updateKeyAddress",
      "outputs": [],
      "stateMutability": "nonpayable",
      "type": "function"
    },
    {
      "stateMutability": "payable",
      "type": "receive"
    }
  ],
  "bytecode": "0x608060405268056bc75e2d6310000060055568056bc75e2d631000006006553480156200002b57600080fd5b5060405162002ea838038062002ea88339810160408190526200004e9162000082565b60018054336001600160a01b031991821681179092556003805490911690911790556001600160401b03166002556200009b565b60006020828403121562000094578081fd5b5051919050565b612dfd80620000ab6000396000f3fe6080604052600436106101855760003560e01c8063b2bdfa7b116100d1578063dee6bb4d1161008a578063f187574411610064578063f1875744146104d9578063f1efc5d914610511578063f89cb68114610531578063fc7e286d1461055157600080fd5b8063dee6bb4d14610479578063e52346d014610499578063ea983a6d146104b957600080fd5b8063b2bdfa7b146103b6578063b91a1ca6146103d6578063c2e7df2114610203578063c4a7094514610403578063ce606ee014610423578063dc675a651461044357600080fd5b8063614d08f81161013e5780637d05ecd4116101185780637d05ecd41461032057806383e1078714610361578063ae1844d614610369578063b1211f291461038957600080fd5b8063614d08f814610273578063722a6b24146102bb5780637b9066b8146102f057600080fd5b8063056c5aa914610191578063184212a2146101ba5780633b6fba1a146101ed57806346bcb49d146102035780635f230a611461023b578063607573d31461025d57600080fd5b3661018c57005b600080fd5b34801561019d57600080fd5b506101a760055481565b6040519081526020015b60405180910390f35b3480156101c657600080fd5b506101da6101d5366004612979565b6105b9565b6040516101b19796959493929190612b9e565b3480156101f957600080fd5b506101a760065481565b34801561020f57600080fd5b5061022361021e366004612a21565b6106b2565b6040516001600160a01b0390911681526020016101b1565b34801561024757600080fd5b5061025b610256366004612a21565b610735565b005b34801561026957600080fd5b506101a760025481565b34801561027f57600080fd5b506102ae6040518060400160405280600f81526020016e20b2323932b9b9a932b9b7b63b32b960891b81525081565b6040516101b19190612bf0565b3480156102c757600080fd5b506102db6102d6366004612913565b610779565b604080519283526020830191909152016101b1565b3480156102fc57600080fd5b5061031061030b366004612979565b6107a0565b60405190151581526020016101b1565b34801561032c57600080fd5b5061022361033b366004612a64565b80516020818301810180516004825292820191909301209152546001600160a01b031681565b6101a7610b34565b34801561037557600080fd5b506101a7610384366004612a39565b610bbe565b34801561039557600080fd5b506101a76103a4366004612913565b60086020526000908152604090205481565b3480156103c257600080fd5b50600154610223906001600160a01b031681565b3480156103e257600080fd5b506101a76103f1366004612913565b60076020526000908152604090205481565b34801561040f57600080fd5b506101a761041e366004612a64565b610c6d565b34801561042f57600080fd5b50600354610223906001600160a01b031681565b34801561044f57600080fd5b5061022361045e366004612a21565b6000602081905290815260409020546001600160a01b031681565b34801561048557600080fd5b5061025b610494366004612a97565b610cfa565b3480156104a557600080fd5b5061025b6104b4366004612a21565b610d46565b3480156104c557600080fd5b506101da6104d436600461292d565b610d83565b3480156104e557600080fd5b506102ae6040518060400160405280600c81526020016b1614de5b941c9bdd1bd8dbdb60a21b81525081565b34801561051d57600080fd5b5061025b61052c366004612a39565b610dcb565b34801561053d57600080fd5b5061031061054c3660046129a2565b610e81565b34801561055d57600080fd5b506105a861056c366004612913565b600960205260009081526040902080546001820154600283015460038401546004909401546001600160a01b0390931693919290919060ff1685565b6040516101b1959493929190612b4b565b600b60205281600052604060002081815481106105d557600080fd5b6000918252602090912060059091020180546001820180546001600160a01b03909216945091925061060690612d45565b80601f016020809104026020016040519081016040528092919081815260200182805461063290612d45565b801561067f5780601f106106545761010080835404028352916020019161067f565b820191906000526020600020905b81548152906001019060200180831161066257829003601f168201915b505050600284015460038501546004909501549394909390925060ff808216925061010082048116916201000090041687565b60008181526020818152604080832054905170026b4b9b9b4b7339030b2323932b9b99d1607d1b92810192909252603182018490526001600160a01b031690811515906051016040516020818303038152906040529061072e5760405162461bcd60e51b81526004016107259190612bf0565b60405180910390fd5b5092915050565b61073d6111c7565b60068190556040518181527fa39eacd162ee82c70b2b030a1bc8fe89adcccc61122fad4821a8772dbcc54267906020015b60405180910390a150565b600080600061078784611238565b9050600061079485611448565b91959194509092505050565b6001600160a01b0382166000908152600a602052604080822090518291906107c790612b3a565b90815260408051918290036020908101832060e0840190925281546001600160a01b031683526001820180549184019161080090612d45565b80601f016020809104026020016040519081016040528092919081815260200182805461082c90612d45565b80156108795780601f1061084e57610100808354040283529160200191610879565b820191906000526020600020905b81548152906001019060200180831161085c57829003601f168201915b505050918352505060028201546020820152600382015460408083019190915260049092015460ff8082161515606084015261010082048116151560808401526201000090910416151560a0909101528101519091506000906108dc9085611612565b90506040518060e00160405280866001600160a01b031681526020016040518060400160405280600581526020016416111554d160da1b815250815260200182815260200185815260200160011515815260200160001515815260200160011515815250600a6000876001600160a01b03166001600160a01b0316815260200190815260200160002060405161097190612b3a565b90815260405160209181900382019020825181546001600160a01b0319166001600160a01b0390911617815582820151805191926109b79260018501929091019061275c565b5060408281015160028301556060830151600383015560808301516004909201805460a085015160c0909501511515620100000262ff0000199515156101000261ff00199515159590951661ffff19909216919091179390931793909316919091179091556001600160a01b0386166000908152600b6020908152828220600a909152908290209151909190610a4c90612b3a565b908152604051908190036020908101909120825460018181018555600094855292909320815460059094020180546001600160a01b0319166001600160a01b039094169390931783558181018054919392830191610aa990612d45565b610ab49291906127e0565b5060028281015490820155600380830154908201556004918201805492909101805460ff938416151560ff19821681178355835461010090819004861615150261ff001990911661ffff19909216919091171780825591546201000090819004909316151590920262ff0000199091161790555060019150505b92915050565b6000600554341015610b585760405162461bcd60e51b815260040161072590612c55565b6000610b82600160006040518060400160405280600381526020016258444360e81b815250611654565b33600090815260076020526040902054909150610b9f9082611781565b33600090815260076020526040902055610bb8816117e0565b91505090565b6000600654831015610be25760405162461bcd60e51b815260040161072590612c03565b6000610c0b60008560405180604001604052806003815260200162504c4960e81b815250611654565b33600090815260076020526040902054909150610c289082611781565b33600081815260076020526040902091909155610c46908486611db7565b610c51338486611e9a565b610c5b8484611f78565b610c658185611ffe565b949350505050565b600080610c7861257e565b6001600160a01b031663a40b18c2846040518263ffffffff1660e01b8152600401610ca39190612bf0565b60206040518083038186803b158015610cbb57600080fd5b505afa158015610ccf573d6000803e3d6000fd5b505050506040513d601f19601f82011682018060405250810190610cf39190612ada565b9392505050565b610d026111c7565b80600483604051610d139190612b1e565b90815260405190819003602001902080546001600160a01b03929092166001600160a01b03199092169190911790555050565b610d4e6111c7565b60058190556040518181527fa39eacd162ee82c70b2b030a1bc8fe89adcccc61122fad4821a8772dbcc542679060200161076e565b600a6020908152600092835260409092208151808301840180519281529084019290930191909120915280546001820180546001600160a01b03909216929161060690612d45565b6001546001600160a01b03163314610e1d5760405162461bcd60e51b81526020600482015260156024820152746f6e6c79206f776e65722063616e2075706461746560581b6044820152606401610725565b6000828152602081815260409182902080546001600160a01b0319166001600160a01b0385169081179091558251858152918201527f88a93678a3692f6789d9546fc621bf7234b101ddb7d4fe479455112831b8aa68910160405180910390a15050565b6001600160a01b0384166000908152600a60205260408082209051829190610eaa908590612b1e565b90815260408051918290036020908101832060e0840190925281546001600160a01b0316835260018201805491840191610ee390612d45565b80601f0160208091040260200160405190810160405280929190818152602001828054610f0f90612d45565b8015610f5c5780601f10610f3157610100808354040283529160200191610f5c565b820191906000526020600020905b815481529060010190602001808311610f3f57829003601f168201915b505050918352505060028201546020820152600382015460408083019190915260049092015460ff8082161515606084015261010082048116151560808401526201000090910416151560a090910152810151909150600090610fbf9086611781565b6040805160e0810182526001600160a01b038a168082526020808301899052828401859052606083018b905260006080840181905260a08401819052600160c0850152918252600a905282902091519293509161101d908790612b1e565b90815260405160209181900382019020825181546001600160a01b0319166001600160a01b0390911617815582820151805191926110639260018501929091019061275c565b50604082810151600283015560608084015160038401556080808501516004909401805460a08088015160c09889015161ffff1990931697151561ff00191697909717610100971515979097029690961762ff0000191662010000911515919091021790556001600160a01b038c81166000818152600b6020908152868220875160e0810189529384528382018e81529784018b90529583018f905293820181905295810186905260019681018790528354808801855593865294829020855160059094020180546001600160a01b0319169390911692909217825591518051939491936111599392850192919091019061275c565b50604082015160028201556060820151600382015560808201516004909101805460a084015160c0909401511515620100000262ff0000199415156101000261ff00199415159490941661ffff19909216919091179290921792909216179055506001915050949350505050565b6003546001600160a01b031633146112365760405162461bcd60e51b815260206004820152602c60248201527f4f6e6c79205853796e50726f746f636f6c2063616e20706572666f726d20746860448201526b34b99037b832b930ba34b7b760a11b6064820152608401610725565b565b6001600160a01b0381166000908152600b602052604081205481808080805b8581101561141d576001600160a01b0388166000908152600b6020526040812080548390811061129757634e487b7160e01b600052603260045260246000fd5b60009182526020918290206040805160e0810190915260059092020180546001600160a01b0316825260018101805492939192918401916112d790612d45565b80601f016020809104026020016040519081016040528092919081815260200182805461130390612d45565b80156113505780601f1061132557610100808354040283529160200191611350565b820191906000526020600020905b81548152906001019060200180831161133357829003601f168201915b5050509183525050600282015460208201526003820154604082015260049091015460ff808216151560608401526101008204811615156080808501919091526201000090920416151560a090920191909152810151909150156113e6578060a00151156113cf5760408101516113c8908790611781565b955061140a565b60408101516113df908690611781565b945061140a565b60006113fa826040015183602001516125d2565b90506114068482611781565b9350505b508061141581612d80565b915050611257565b5082841115611433576114308484611612565b91505b61143d8183611781565b979650505050505050565b6001600160a01b038116600090815260096020526040812060018101546002909101548280831561151a57600061147d61257e565b6040516352058c6160e11b815260206004820152600360248201526258444360e81b60448201526001600160a01b03919091169063a40b18c29060640160206040518083038186803b1580156114d257600080fd5b505afa1580156114e6573d6000803e3d6000fd5b505050506040513d601f19601f8201168201806040525081019061150a9190612ada565b9050611516858261267d565b9150505b82156115c757600061152a61257e565b6040516352058c6160e11b8152602060048201526003602482015262504c4960e81b60448201526001600160a01b03919091169063a40b18c29060640160206040518083038186803b15801561157f57600080fd5b505afa158015611593573d6000803e3d6000fd5b505050506040513d601f19601f820116820180604052508101906115b79190612ada565b90506115c3848261267d565b9250505b60006115d38284611781565b9050600061271060646001600160801b03166002546115f29190612cbf565b6115fc9084612cbf565b6116069190612cbf565b98975050505050505050565b6000610cf383836040518060400160405280601e81526020017f536166654d6174683a207375627472616374696f6e206f766572666c6f7700008152506126fc565b600080600061166161257e565b6001600160a01b031663a40b18c2856040518263ffffffff1660e01b815260040161168c9190612bf0565b60206040518083038186803b1580156116a457600080fd5b505afa1580156116b8573d6000803e3d6000fd5b505050506040513d601f19601f820116820180604052508101906116dc9190612ada565b905085156116f5576116ee348261267d565b9150611702565b6116ff858261267d565b91505b600061271060646001600160801b031660025461171f9190612cbf565b6117299085612cbf565b6117339190612cbf565b60408051828152602081018690529081018490529091507f611c844bc25f6ae3b7f61cef7190757718761e79616ff375d7693a5c09753a499060600160405180910390a19695505050505050565b60008061178e8385612ca7565b905083811015610cf35760405162461bcd60e51b815260206004820152601b60248201527f536166654d6174683a206164646974696f6e206f766572666c6f7700000000006044820152606401610725565b60006005543410156118045760405162461bcd60e51b815260040161072590612c55565b336000908152600960209081526040808320815160a08101835281546001600160a01b031681526001808301549482019490945260028201549281019290925260038101546060830152600481015491929091608084019160ff9091169081111561187f57634e487b7160e01b600052602160045260246000fd5b600181111561189e57634e487b7160e01b600052602160045260246000fd5b90525060208101519091506000906118b69034611781565b905060006118d185846060015161178190919063ffffffff16565b90506040518060a00160405280336001600160a01b03168152602001838152602001846040015181526020018281526020016000600181111561192457634e487b7160e01b600052602160045260246000fd5b600181111561194357634e487b7160e01b600052602160045260246000fd5b905233600090815260096020908152604091829020835181546001600160a01b0319166001600160a01b039091161781559083015160018083019190915591830151600282015560608301516003820155608083015160048201805492939192909160ff199091169083818111156119cb57634e487b7160e01b600052602160045260246000fd5b021790555050336000908152600a60205260408082209051919250906119f090612b3a565b90815260408051918290036020908101832060e0840190925281546001600160a01b0316835260018201805491840191611a2990612d45565b80601f0160208091040260200160405190810160405280929190818152602001828054611a5590612d45565b8015611aa25780601f10611a7757610100808354040283529160200191611aa2565b820191906000526020600020905b815481529060010190602001808311611a8557829003601f168201915b505050918352505060028201546020820152600382015460408083019190915260049092015460ff8082161515606084015261010082048116151560808401526201000090910416151560a090910152810151909150600090611b059084611781565b6040805160e0810182523380825282518084018452600581526416111554d160da1b6020828101919091528084019190915282840185905260006060840181905260016080850181905260a085015260c08401819052918252600a9052829020915192935091611b7490612b3a565b90815260405160209181900382019020825181546001600160a01b0319166001600160a01b039091161781558282015180519192611bba9260018501929091019061275c565b5060408281015160028301556060830151600383015560808301516004909201805460a085015160c0909501511515620100000262ff0000199515156101000261ff00199515159590951661ffff1990921691909117939093179390931691909117909155336000908152600b6020908152828220600a909152908290209151909190611c4690612b3a565b908152604051908190036020908101909120825460018181018555600094855292909320815460059094020180546001600160a01b0319166001600160a01b039094169390931783558181018054919392830191611ca390612d45565b611cae9291906127e0565b5060028281015490820155600380830154908201556004918201805492909101805460ff938416151560ff19821681178355835461010090819004861615150261ff001990911661ffff19909216919091171780825591546201000090819004909316151590920262ff000019909116179055611d2961272d565b6040516340c10f1960e01b8152336004820152602481018990526001600160a01b0391909116906340c10f1990604401602060405180830381600087803b158015611d7357600080fd5b505af1158015611d87573d6000803e3d6000fd5b505050506040513d601f19601f82011682018060405250810190611dab9190612a01565b50959695505050505050565b6040516370a0823160e01b81526001600160a01b0384811660048301528291908416906370a082319060240160206040518083038186803b158015611dfb57600080fd5b505afa158015611e0f573d6000803e3d6000fd5b505050506040513d601f19601f82011682018060405250810190611e339190612ada565b1015611e955760405162461bcd60e51b815260206004820152602b60248201527f5852433230476174657761793a20696e73756666696369656e7420637572726560448201526a6e63792062616c616e636560a81b6064820152608401610725565b505050565b604051636eb1769f60e11b81526001600160a01b03848116600483015230602483015282919084169063dd62ed3e9060440160206040518083038186803b158015611ee457600080fd5b505afa158015611ef8573d6000803e3d6000fd5b505050506040513d601f19601f82011682018060405250810190611f1c9190612ada565b1015611e955760405162461bcd60e51b815260206004820152602560248201527f5852433230476174657761793a20696e73756666696369656e7420616c6c6f7760448201526430b731b29760d91b6064820152608401610725565b6040516323b872dd60e01b8152336004820152306024820152604481018390526001600160a01b038216906323b872dd90606401602060405180830381600087803b158015611fc657600080fd5b505af1158015611fda573d6000803e3d6000fd5b505050506040513d601f19601f82011682018060405250810190611e959190612a01565b60006006548210156120225760405162461bcd60e51b815260040161072590612c03565b336000908152600960209081526040808320815160a08101835281546001600160a01b031681526001808301549482019490945260028201549281019290925260038101546060830152600481015491929091608084019160ff9091169081111561209d57634e487b7160e01b600052602160045260246000fd5b60018111156120bc57634e487b7160e01b600052602160045260246000fd5b90525060408101519091506000906120d49085611781565b905060006120ef86846060015161178190919063ffffffff16565b6040805160a08101825233808252602087810151818401908152838501888152606085018781526001608087018181526000968752600990955296909420855181546001600160a01b0319166001600160a01b0390911617815591518287015551600282015591516003830155516004820180549596509294919390929160ff191690838181111561219157634e487b7160e01b600052602160045260246000fd5b021790555050336000908152600a60205260408082209051919250906121b690612b3a565b90815260408051918290036020908101832060e0840190925281546001600160a01b03168352600182018054918401916121ef90612d45565b80601f016020809104026020016040519081016040528092919081815260200182805461221b90612d45565b80156122685780601f1061223d57610100808354040283529160200191612268565b820191906000526020600020905b81548152906001019060200180831161224b57829003601f168201915b505050918352505060028201546020820152600382015460408083019190915260049092015460ff8082161515606084015261010082048116151560808401526201000090910416151560a0909101528101519091506000906122cb9084611781565b6040805160e0810182523380825282518084018452600581526416111554d160da1b6020828101919091528084019190915282840185905260006060840181905260016080850181905260a085015260c08401819052918252600a905282902091519293509161233a90612b3a565b90815260405160209181900382019020825181546001600160a01b0319166001600160a01b0390911617815582820151805191926123809260018501929091019061275c565b5060408281015160028301556060830151600383015560808301516004909201805460a085015160c0909501511515620100000262ff0000199515156101000261ff00199515159590951661ffff1990921691909117939093179390931691909117909155336000908152600b6020908152828220600a90915290829020915190919061240c90612b3a565b908152604051908190036020908101909120825460018181018555600094855292909320815460059094020180546001600160a01b0319166001600160a01b03909416939093178355818101805491939283019161246990612d45565b6124749291906127e0565b5060028281015490820155600380830154908201556004918201805492909101805460ff938416151560ff19821681178355835461010090819004861615150261ff001990911661ffff19909216919091171780825591546201000090819004909316151590920262ff0000199091161790556124ef61272d565b6040516340c10f1960e01b8152336004820152602481018a90526001600160a01b0391909116906340c10f1990604401602060405180830381600087803b15801561253957600080fd5b505af115801561254d573d6000803e3d6000fd5b505050506040513d601f19601f820116820180604052508101906125719190612a01565b5096979650505050505050565b600060046040518060400160405280600c81526020016b45584348414e47455241544560a01b8152506040516125b49190612b1e565b908152604051908190036020019020546001600160a01b0316919050565b6000806125dd61257e565b6001600160a01b031663a40b18c2846040518263ffffffff1660e01b81526004016126089190612bf0565b60206040518083038186803b15801561262057600080fd5b505afa158015612634573d6000803e3d6000fd5b505050506040513d601f19601f820116820180604052508101906126589190612ada565b90506000612666858361267d565b905061267461271082612cbf565b95945050505050565b60008261268c57506000610b2e565b60006126988385612cdf565b9050826126a58583612cbf565b14610cf35760405162461bcd60e51b815260206004820152602160248201527f536166654d6174683a206d756c7469706c69636174696f6e206f766572666c6f6044820152607760f81b6064820152608401610725565b600081848411156127205760405162461bcd60e51b81526004016107259190612bf0565b5060006126748486612cfe565b600060046040518060400160405280600581526020016416111554d160da1b8152506040516125b49190612b1e565b82805461276890612d45565b90600052602060002090601f01602090048101928261278a57600085556127d0565b82601f106127a357805160ff19168380011785556127d0565b828001600101855582156127d0579182015b828111156127d05782518255916020019190600101906127b5565b506127dc92915061285b565b5090565b8280546127ec90612d45565b90600052602060002090601f01602090048101928261280e57600085556127d0565b82601f1061281f57805485556127d0565b828001600101855582156127d057600052602060002091601f016020900482015b828111156127d0578254825591600101919060010190612840565b5b808211156127dc576000815560010161285c565b80356001600160a01b038116811461288757600080fd5b919050565b600082601f83011261289c578081fd5b813567ffffffffffffffff808211156128b7576128b7612db1565b604051601f8301601f19908116603f011681019082821181831017156128df576128df612db1565b816040528381528660208588010111156128f7578485fd5b8360208701602083013792830160200193909352509392505050565b600060208284031215612924578081fd5b610cf382612870565b6000806040838503121561293f578081fd5b61294883612870565b9150602083013567ffffffffffffffff811115612963578182fd5b61296f8582860161288c565b9150509250929050565b6000806040838503121561298b578182fd5b61299483612870565b946020939093013593505050565b600080600080608085870312156129b7578182fd5b6129c085612870565b93506020850135925060408501359150606085013567ffffffffffffffff8111156129e9578182fd5b6129f58782880161288c565b91505092959194509250565b600060208284031215612a12578081fd5b81518015158114610cf3578182fd5b600060208284031215612a32578081fd5b5035919050565b60008060408385031215612a4b578182fd5b82359150612a5b60208401612870565b90509250929050565b600060208284031215612a75578081fd5b813567ffffffffffffffff811115612a8b578182fd5b610c658482850161288c565b60008060408385031215612aa9578182fd5b823567ffffffffffffffff811115612abf578283fd5b612acb8582860161288c565b925050612a5b60208401612870565b600060208284031215612aeb578081fd5b5051919050565b60008151808452612b0a816020860160208601612d15565b601f01601f19169290920160200192915050565b60008251612b30818460208701612d15565b9190910192915050565b6416111554d160da1b815260050190565b6001600160a01b038616815260208101859052604081018490526060810183905260a0810160028310612b8e57634e487b7160e01b600052602160045260246000fd5b8260808301529695505050505050565b6001600160a01b038816815260e060208201819052600090612bc290830189612af2565b60408301979097525060608101949094529115156080840152151560a0830152151560c09091015292915050565b602081526000610cf36020830184612af2565b60208082526032908201527f504c4920616d6f756e742053686f756c64206265206d696e696d756d504c4944604082015271195c1bdcda5d105b5bdd5b9d081b1a5b5a5d60721b606082015260800190565b60208082526032908201527f58444320616d6f756e742053686f756c64206265206d696e696d756d58444344604082015271195c1bdcda5d105b5bdd5b9d081b1a5b5a5d60721b606082015260800190565b60008219821115612cba57612cba612d9b565b500190565b600082612cda57634e487b7160e01b81526012600452602481fd5b500490565b6000816000190483118215151615612cf957612cf9612d9b565b500290565b600082821015612d1057612d10612d9b565b500390565b60005b83811015612d30578181015183820152602001612d18565b83811115612d3f576000848401525b50505050565b600181811c90821680612d5957607f821691505b60208210811415612d7a57634e487b7160e01b600052602260045260246000fd5b50919050565b6000600019821415612d9457612d94612d9b565b5060010190565b634e487b7160e01b600052601160045260246000fd5b634e487b7160e01b600052604160045260246000fdfea2646970667358221220a950b947043d83d902fb687fef065617dbf016e3deeecc826506eee5f13c7a9d64736f6c63430008040033",
  "linkReferences": {},
  "deployedLinkReferences": {}
}