{
  "_format": "hh-sol-artifact-1",
  "contractName": "XSynProtocol",
  "sourceName": "contracts/XSynProtocol.sol",
  "abi": [
    {
      "inputs": [
        {
          "internalType": "uint256",
          "name": "cratio",
          "type": "uint256"
        }
      ],
      "stateMutability": "nonpayable",
      "type": "constructor"
    },
    {
      "anonymous": false,
      "inputs": [
        {
          "indexed": false,
          "internalType": "bytes32",
          "name": "name",
          "type": "bytes32"
        },
        {
          "indexed": false,
          "internalType": "address",
          "name": "destination",
          "type": "address"
        }
      ],
      "name": "CacheUpdated",
      "type": "event"
    },
    {
      "anonymous": false,
      "inputs": [
        {
          "indexed": false,
          "internalType": "uint256",
          "name": "amount",
          "type": "uint256"
        }
      ],
      "name": "MinimumDepositAmountUpdated",
      "type": "event"
    },
    {
      "anonymous": false,
      "inputs": [
        {
          "indexed": false,
          "internalType": "uint256",
          "name": "collatrealApplied",
          "type": "uint256"
        },
        {
          "indexed": false,
          "internalType": "uint256",
          "name": "usdTomint",
          "type": "uint256"
        },
        {
          "indexed": false,
          "internalType": "uint256",
          "name": "currentPrice",
          "type": "uint256"
        }
      ],
      "name": "calculatedRatio",
      "type": "event"
    },
    {
      "anonymous": false,
      "inputs": [
        {
          "indexed": false,
          "internalType": "uint256",
          "name": "cratio",
          "type": "uint256"
        },
        {
          "indexed": false,
          "internalType": "uint256",
          "name": "earnings",
          "type": "uint256"
        },
        {
          "indexed": false,
          "internalType": "uint256",
          "name": "stakings",
          "type": "uint256"
        }
      ],
      "name": "emitRatio",
      "type": "event"
    },
    {
      "inputs": [],
      "name": "CONTRACTNAME",
      "outputs": [
        {
          "internalType": "string",
          "name": "",
          "type": "string"
        }
      ],
      "stateMutability": "view",
      "type": "function"
    },
    {
      "inputs": [],
      "name": "CONTRACT_NAME",
      "outputs": [
        {
          "internalType": "string",
          "name": "",
          "type": "string"
        }
      ],
      "stateMutability": "view",
      "type": "function"
    },
    {
      "inputs": [],
      "name": "_owner",
      "outputs": [
        {
          "internalType": "address",
          "name": "",
          "type": "address"
        }
      ],
      "stateMutability": "view",
      "type": "function"
    },
    {
      "inputs": [
        {
          "internalType": "bytes32",
          "name": "",
          "type": "bytes32"
        }
      ],
      "name": "addressCache",
      "outputs": [
        {
          "internalType": "address",
          "name": "",
          "type": "address"
        }
      ],
      "stateMutability": "view",
      "type": "function"
    },
    {
      "inputs": [],
      "name": "contractOwner",
      "outputs": [
        {
          "internalType": "address",
          "name": "",
          "type": "address"
        }
      ],
      "stateMutability": "view",
      "type": "function"
    },
    {
      "inputs": [
        {
          "internalType": "address",
          "name": "",
          "type": "address"
        },
        {
          "internalType": "string",
          "name": "",
          "type": "string"
        }
      ],
      "name": "debtTotalPool",
      "outputs": [
        {
          "internalType": "address",
          "name": "user",
          "type": "address"
        },
        {
          "internalType": "string",
          "name": "xSynSymbol",
          "type": "string"
        },
        {
          "internalType": "uint256",
          "name": "synthValue",
          "type": "uint256"
        },
        {
          "internalType": "uint256",
          "name": "totXDSwapped",
          "type": "uint256"
        },
        {
          "internalType": "bool",
          "name": "isXDUSD",
          "type": "bool"
        },
        {
          "internalType": "bool",
          "name": "isMinted",
          "type": "bool"
        },
        {
          "internalType": "bool",
          "name": "isSwapped",
          "type": "bool"
        }
      ],
      "stateMutability": "view",
      "type": "function"
    },
    {
      "inputs": [
        {
          "internalType": "address",
          "name": "",
          "type": "address"
        }
      ],
      "name": "deposits",
      "outputs": [
        {
          "internalType": "address payable",
          "name": "user",
          "type": "address"
        },
        {
          "internalType": "uint256",
          "name": "xdcDeposit",
          "type": "uint256"
        },
        {
          "internalType": "uint256",
          "name": "pliDeposit",
          "type": "uint256"
        },
        {
          "internalType": "uint256",
          "name": "xdUsdminted",
          "type": "uint256"
        },
        {
          "internalType": "enum Constants.TokenType",
          "name": "tok",
          "type": "uint8"
        }
      ],
      "stateMutability": "view",
      "type": "function"
    },
    {
      "inputs": [
        {
          "internalType": "bytes32",
          "name": "_name",
          "type": "bytes32"
        }
      ],
      "name": "fetchAddress",
      "outputs": [
        {
          "internalType": "address",
          "name": "",
          "type": "address"
        }
      ],
      "stateMutability": "view",
      "type": "function"
    },
    {
      "inputs": [
        {
          "internalType": "uint256",
          "name": "_units",
          "type": "uint256"
        },
        {
          "internalType": "string",
          "name": "_symbol",
          "type": "string"
        }
      ],
      "name": "getEstimation",
      "outputs": [
        {
          "internalType": "uint256",
          "name": "",
          "type": "uint256"
        }
      ],
      "stateMutability": "view",
      "type": "function"
    },
    {
      "inputs": [
        {
          "internalType": "address",
          "name": "_user",
          "type": "address"
        }
      ],
      "name": "getMyCollateralRatio",
      "outputs": [
        {
          "internalType": "uint256",
          "name": "_totalActual",
          "type": "uint256"
        },
        {
          "internalType": "uint256",
          "name": "_totalExpected",
          "type": "uint256"
        }
      ],
      "stateMutability": "view",
      "type": "function"
    },
    {
      "inputs": [
        {
          "internalType": "string",
          "name": "",
          "type": "string"
        }
      ],
      "name": "keyaddress",
      "outputs": [
        {
          "internalType": "address",
          "name": "",
          "type": "address"
        }
      ],
      "stateMutability": "view",
      "type": "function"
    },
    {
      "inputs": [],
      "name": "minCRatio",
      "outputs": [
        {
          "internalType": "uint256",
          "name": "",
          "type": "uint256"
        }
      ],
      "stateMutability": "view",
      "type": "function"
    },
    {
      "inputs": [],
      "name": "minimumPLIDepositAmount",
      "outputs": [
        {
          "internalType": "uint256",
          "name": "",
          "type": "uint256"
        }
      ],
      "stateMutability": "view",
      "type": "function"
    },
    {
      "inputs": [],
      "name": "minimumXDCDepositAmount",
      "outputs": [
        {
          "internalType": "uint256",
          "name": "",
          "type": "uint256"
        }
      ],
      "stateMutability": "view",
      "type": "function"
    },
    {
      "inputs": [
        {
          "internalType": "uint256",
          "name": "_pliVal",
          "type": "uint256"
        },
        {
          "internalType": "address",
          "name": "_tokenAddress",
          "type": "address"
        }
      ],
      "name": "mintxdUSDForPLI",
      "outputs": [
        {
          "internalType": "uint256",
          "name": "",
          "type": "uint256"
        }
      ],
      "stateMutability": "nonpayable",
      "type": "function"
    },
    {
      "inputs": [],
      "name": "mintxdUSDForXDC",
      "outputs": [
        {
          "internalType": "uint256",
          "name": "",
          "type": "uint256"
        }
      ],
      "stateMutability": "payable",
      "type": "function"
    },
    {
      "inputs": [
        {
          "internalType": "bytes32",
          "name": "_name",
          "type": "bytes32"
        }
      ],
      "name": "requireAndGetAddress",
      "outputs": [
        {
          "internalType": "address",
          "name": "",
          "type": "address"
        }
      ],
      "stateMutability": "view",
      "type": "function"
    },
    {
      "inputs": [
        {
          "internalType": "uint256",
          "name": "_minDeposit",
          "type": "uint256"
        }
      ],
      "name": "setMinDepositForPLI",
      "outputs": [],
      "stateMutability": "nonpayable",
      "type": "function"
    },
    {
      "inputs": [
        {
          "internalType": "uint256",
          "name": "_minDeposit",
          "type": "uint256"
        }
      ],
      "name": "setMinDepositForXDC",
      "outputs": [],
      "stateMutability": "nonpayable",
      "type": "function"
    },
    {
      "inputs": [
        {
          "internalType": "string",
          "name": "_symbol",
          "type": "string"
        }
      ],
      "name": "showPrice",
      "outputs": [
        {
          "internalType": "uint256",
          "name": "",
          "type": "uint256"
        }
      ],
      "stateMutability": "view",
      "type": "function"
    },
    {
      "inputs": [
        {
          "internalType": "address",
          "name": "",
          "type": "address"
        }
      ],
      "name": "totalXDUSDMinted",
      "outputs": [
        {
          "internalType": "uint256",
          "name": "",
          "type": "uint256"
        }
      ],
      "stateMutability": "view",
      "type": "function"
    },
    {
      "inputs": [
        {
          "internalType": "address",
          "name": "",
          "type": "address"
        }
      ],
      "name": "totalXDUSDSwapped",
      "outputs": [
        {
          "internalType": "uint256",
          "name": "",
          "type": "uint256"
        }
      ],
      "stateMutability": "view",
      "type": "function"
    },
    {
      "inputs": [
        {
          "internalType": "address",
          "name": "",
          "type": "address"
        },
        {
          "internalType": "uint256",
          "name": "",
          "type": "uint256"
        }
      ],
      "name": "tradingPool",
      "outputs": [
        {
          "internalType": "address",
          "name": "user",
          "type": "address"
        },
        {
          "internalType": "string",
          "name": "xSynSymbol",
          "type": "string"
        },
        {
          "internalType": "uint256",
          "name": "synthValue",
          "type": "uint256"
        },
        {
          "internalType": "uint256",
          "name": "totXDSwapped",
          "type": "uint256"
        },
        {
          "internalType": "bool",
          "name": "isXDUSD",
          "type": "bool"
        },
        {
          "internalType": "bool",
          "name": "isMinted",
          "type": "bool"
        },
        {
          "internalType": "bool",
          "name": "isSwapped",
          "type": "bool"
        }
      ],
      "stateMutability": "view",
      "type": "function"
    },
    {
      "inputs": [
        {
          "internalType": "bytes32",
          "name": "_name",
          "type": "bytes32"
        },
        {
          "internalType": "address",
          "name": "_destination",
          "type": "address"
        }
      ],
      "name": "updateCache",
      "outputs": [],
      "stateMutability": "nonpayable",
      "type": "function"
    },
    {
      "inputs": [
        {
          "internalType": "address",
          "name": "_user",
          "type": "address"
        },
        {
          "internalType": "uint256",
          "name": "_totUsdSwapped",
          "type": "uint256"
        },
        {
          "internalType": "uint256",
          "name": "_totSynthsPurchased",
          "type": "uint256"
        },
        {
          "internalType": "string",
          "name": "_symbolPurchased",
          "type": "string"
        }
      ],
      "name": "updateDebtPoolSynth",
      "outputs": [
        {
          "internalType": "bool",
          "name": "",
          "type": "bool"
        }
      ],
      "stateMutability": "nonpayable",
      "type": "function"
    },
    {
      "inputs": [
        {
          "internalType": "address",
          "name": "_user",
          "type": "address"
        },
        {
          "internalType": "uint256",
          "name": "_totUsdSwapped",
          "type": "uint256"
        }
      ],
      "name": "updateDebtPoolXDUSD",
      "outputs": [
        {
          "internalType": "bool",
          "name": "",
          "type": "bool"
        }
      ],
      "stateMutability": "nonpayable",
      "type": "function"
    },
    {
      "inputs": [
        {
          "internalType": "string",
          "name": "_name",
          "type": "string"
        },
        {
          "internalType": "address",
          "name": "_destination",
          "type": "address"
        }
      ],
      "name": "updateKeyAddress",
      "outputs": [],
      "stateMutability": "nonpayable",
      "type": "function"
    },
    {
      "stateMutability": "payable",
      "type": "receive"
    }
  ],
  "bytecode": "0x608060405268056bc75e2d6310000060055568056bc75e2d631000006006553480156200002b57600080fd5b5060405162002fe438038062002fe48339810160408190526200004e9162000082565b60018054336001600160a01b031991821681179092556003805490911690911790556001600160401b03166002556200009b565b60006020828403121562000094578081fd5b5051919050565b612f3980620000ab6000396000f3fe6080604052600436106101a05760003560e01c8063b1211f29116100ec578063dee6bb4d1161008a578063f187574411610064578063f187574414610514578063f1efc5d91461054c578063f89cb6811461056c578063fc7e286d1461058c57600080fd5b8063dee6bb4d146104b4578063e52346d0146104d4578063ea983a6d146104f457600080fd5b8063c2e7df21116100c6578063c2e7df211461021e578063c4a709451461043e578063ce606ee01461045e578063dc675a651461047e57600080fd5b8063b1211f29146103c4578063b2bdfa7b146103f1578063b91a1ca61461041157600080fd5b8063614d08f8116101595780637b9066b8116101335780637b9066b81461032b5780637d05ecd41461035b57806383e107871461039c578063ae1844d6146103a457600080fd5b8063614d08f81461028e5780636d7e67c1146102d6578063722a6b24146102f657600080fd5b8063056c5aa9146101ac578063184212a2146101d55780633b6fba1a1461020857806346bcb49d1461021e5780635f230a6114610256578063607573d31461027857600080fd5b366101a757005b600080fd5b3480156101b857600080fd5b506101c260055481565b6040519081526020015b60405180910390f35b3480156101e157600080fd5b506101f56101f0366004612a86565b6105f4565b6040516101cc9796959493929190612cda565b34801561021457600080fd5b506101c260065481565b34801561022a57600080fd5b5061023e610239366004612b2e565b6106ed565b6040516001600160a01b0390911681526020016101cc565b34801561026257600080fd5b50610276610271366004612b2e565b610770565b005b34801561028457600080fd5b506101c260025481565b34801561029a57600080fd5b506102c96040518060400160405280600f81526020016e20b2323932b9b9a932b9b7b63b32b960891b81525081565b6040516101cc9190612d2c565b3480156102e257600080fd5b506101c26102f1366004612bff565b6107b4565b34801561030257600080fd5b50610316610311366004612a20565b610887565b604080519283526020830191909152016101cc565b34801561033757600080fd5b5061034b610346366004612a86565b6108ae565b60405190151581526020016101cc565b34801561036757600080fd5b5061023e610376366004612b71565b80516020818301810180516004825292820191909301209152546001600160a01b031681565b6101c2610c41565b3480156103b057600080fd5b506101c26103bf366004612b46565b610ccb565b3480156103d057600080fd5b506101c26103df366004612a20565b60086020526000908152604090205481565b3480156103fd57600080fd5b5060015461023e906001600160a01b031681565b34801561041d57600080fd5b506101c261042c366004612a20565b60076020526000908152604090205481565b34801561044a57600080fd5b506101c2610459366004612b71565b610d7a565b34801561046a57600080fd5b5060035461023e906001600160a01b031681565b34801561048a57600080fd5b5061023e610499366004612b2e565b6000602081905290815260409020546001600160a01b031681565b3480156104c057600080fd5b506102766104cf366004612ba4565b610e07565b3480156104e057600080fd5b506102766104ef366004612b2e565b610e53565b34801561050057600080fd5b506101f561050f366004612a3a565b610e90565b34801561052057600080fd5b506102c96040518060400160405280600c81526020016b1614de5b941c9bdd1bd8dbdb60a21b81525081565b34801561055857600080fd5b50610276610567366004612b46565b610ed8565b34801561057857600080fd5b5061034b610587366004612aaf565b610f8e565b34801561059857600080fd5b506105e36105a7366004612a20565b600960205260009081526040902080546001820154600283015460038401546004909401546001600160a01b0390931693919290919060ff1685565b6040516101cc959493929190612c87565b600b602052816000526040600020818154811061061057600080fd5b6000918252602090912060059091020180546001820180546001600160a01b03909216945091925061064190612e81565b80601f016020809104026020016040519081016040528092919081815260200182805461066d90612e81565b80156106ba5780601f1061068f576101008083540402835291602001916106ba565b820191906000526020600020905b81548152906001019060200180831161069d57829003601f168201915b505050600284015460038501546004909501549394909390925060ff808216925061010082048116916201000090041687565b60008181526020818152604080832054905170026b4b9b9b4b7339030b2323932b9b99d1607d1b92810192909252603182018490526001600160a01b03169081151590605101604051602081830303815290604052906107695760405162461bcd60e51b81526004016107609190612d2c565b60405180910390fd5b5092915050565b6107786112d4565b60068190556040518181527fa39eacd162ee82c70b2b030a1bc8fe89adcccc61122fad4821a8772dbcc54267906020015b60405180910390a150565b6000806107bf611345565b6001600160a01b031663a40b18c2846040518263ffffffff1660e01b81526004016107ea9190612d2c565b60206040518083038186803b15801561080257600080fd5b505afa158015610816573d6000803e3d6000fd5b505050506040513d601f19601f8201168201806040525081019061083a9190612be7565b905060006108488583611399565b9050600061271060646001600160801b03166002546108679190612dfb565b6108719084612dfb565b61087b9190612dfb565b93505050505b92915050565b600080600061089584611418565b905060006108a285611628565b91959194509092505050565b6001600160a01b0382166000908152600a602052604080822090518291906108d590612c76565b90815260408051918290036020908101832060e0840190925281546001600160a01b031683526001820180549184019161090e90612e81565b80601f016020809104026020016040519081016040528092919081815260200182805461093a90612e81565b80156109875780601f1061095c57610100808354040283529160200191610987565b820191906000526020600020905b81548152906001019060200180831161096a57829003601f168201915b505050918352505060028201546020820152600382015460408083019190915260049092015460ff8082161515606084015261010082048116151560808401526201000090910416151560a0909101528101519091506000906109ea90856117f2565b90506040518060e00160405280866001600160a01b031681526020016040518060400160405280600581526020016416111554d160da1b815250815260200182815260200185815260200160011515815260200160001515815260200160011515815250600a6000876001600160a01b03166001600160a01b03168152602001908152602001600020604051610a7f90612c76565b90815260405160209181900382019020825181546001600160a01b0319166001600160a01b039091161781558282015180519192610ac592600185019290910190612869565b5060408281015160028301556060830151600383015560808301516004909201805460a085015160c0909501511515620100000262ff0000199515156101000261ff00199515159590951661ffff19909216919091179390931793909316919091179091556001600160a01b0386166000908152600b6020908152828220600a909152908290209151909190610b5a90612c76565b908152604051908190036020908101909120825460018181018555600094855292909320815460059094020180546001600160a01b0319166001600160a01b039094169390931783558181018054919392830191610bb790612e81565b610bc29291906128ed565b5060028281015490820155600380830154908201556004918201805492909101805460ff938416151560ff19821681178355835461010090819004861615150261ff001990911661ffff19909216919091171780825591546201000090819004909316151590920262ff00001990911617905550600191505092915050565b6000600554341015610c655760405162461bcd60e51b815260040161076090612d91565b6000610c8f600160006040518060400160405280600381526020016258444360e81b815250611834565b33600090815260076020526040902054909150610cac9082611961565b33600090815260076020526040902055610cc5816119c0565b91505090565b6000600654831015610cef5760405162461bcd60e51b815260040161076090612d3f565b6000610d1860008560405180604001604052806003815260200162504c4960e81b815250611834565b33600090815260076020526040902054909150610d359082611961565b33600081815260076020526040902091909155610d53908486611f97565b610d5e33848661207a565b610d688484612158565b610d7281856121de565b949350505050565b600080610d85611345565b6001600160a01b031663a40b18c2846040518263ffffffff1660e01b8152600401610db09190612d2c565b60206040518083038186803b158015610dc857600080fd5b505afa158015610ddc573d6000803e3d6000fd5b505050506040513d601f19601f82011682018060405250810190610e009190612be7565b9392505050565b610e0f6112d4565b80600483604051610e209190612c5a565b90815260405190819003602001902080546001600160a01b03929092166001600160a01b03199092169190911790555050565b610e5b6112d4565b60058190556040518181527fa39eacd162ee82c70b2b030a1bc8fe89adcccc61122fad4821a8772dbcc54267906020016107a9565b600a6020908152600092835260409092208151808301840180519281529084019290930191909120915280546001820180546001600160a01b03909216929161064190612e81565b6001546001600160a01b03163314610f2a5760405162461bcd60e51b81526020600482015260156024820152746f6e6c79206f776e65722063616e2075706461746560581b6044820152606401610760565b6000828152602081815260409182902080546001600160a01b0319166001600160a01b0385169081179091558251858152918201527f88a93678a3692f6789d9546fc621bf7234b101ddb7d4fe479455112831b8aa68910160405180910390a15050565b6001600160a01b0384166000908152600a60205260408082209051829190610fb7908590612c5a565b90815260408051918290036020908101832060e0840190925281546001600160a01b0316835260018201805491840191610ff090612e81565b80601f016020809104026020016040519081016040528092919081815260200182805461101c90612e81565b80156110695780601f1061103e57610100808354040283529160200191611069565b820191906000526020600020905b81548152906001019060200180831161104c57829003601f168201915b505050918352505060028201546020820152600382015460408083019190915260049092015460ff8082161515606084015261010082048116151560808401526201000090910416151560a0909101528101519091506000906110cc9086611961565b6040805160e0810182526001600160a01b038a168082526020808301899052828401859052606083018b905260006080840181905260a08401819052600160c0850152918252600a905282902091519293509161112a908790612c5a565b90815260405160209181900382019020825181546001600160a01b0319166001600160a01b03909116178155828201518051919261117092600185019290910190612869565b50604082810151600283015560608084015160038401556080808501516004909401805460a08088015160c09889015161ffff1990931697151561ff00191697909717610100971515979097029690961762ff0000191662010000911515919091021790556001600160a01b038c81166000818152600b6020908152868220875160e0810189529384528382018e81529784018b90529583018f905293820181905295810186905260019681018790528354808801855593865294829020855160059094020180546001600160a01b03191693909116929092178255915180519394919361126693928501929190910190612869565b50604082015160028201556060820151600382015560808201516004909101805460a084015160c0909401511515620100000262ff0000199415156101000261ff00199415159490941661ffff19909216919091179290921792909216179055506001915050949350505050565b6003546001600160a01b031633146113435760405162461bcd60e51b815260206004820152602c60248201527f4f6e6c79205853796e50726f746f636f6c2063616e20706572666f726d20746860448201526b34b99037b832b930ba34b7b760a11b6064820152608401610760565b565b600060046040518060400160405280600c81526020016b45584348414e47455241544560a01b81525060405161137b9190612c5a565b908152604051908190036020019020546001600160a01b0316919050565b6000826113a857506000610881565b60006113b48385612e1b565b9050826113c18583612dfb565b14610e005760405162461bcd60e51b815260206004820152602160248201527f536166654d6174683a206d756c7469706c69636174696f6e206f766572666c6f6044820152607760f81b6064820152608401610760565b6001600160a01b0381166000908152600b602052604081205481808080805b858110156115fd576001600160a01b0388166000908152600b6020526040812080548390811061147757634e487b7160e01b600052603260045260246000fd5b60009182526020918290206040805160e0810190915260059092020180546001600160a01b0316825260018101805492939192918401916114b790612e81565b80601f01602080910402602001604051908101604052809291908181526020018280546114e390612e81565b80156115305780601f1061150557610100808354040283529160200191611530565b820191906000526020600020905b81548152906001019060200180831161151357829003601f168201915b5050509183525050600282015460208201526003820154604082015260049091015460ff808216151560608401526101008204811615156080808501919091526201000090920416151560a090920191909152810151909150156115c6578060a00151156115af5760408101516115a8908790611961565b95506115ea565b60408101516115bf908690611961565b94506115ea565b60006115da8260400151836020015161275e565b90506115e68482611961565b9350505b50806115f581612ebc565b915050611437565b50828411156116135761161084846117f2565b91505b61161d8183611961565b979650505050505050565b6001600160a01b03811660009081526009602052604081206001810154600290910154828083156116fa57600061165d611345565b6040516352058c6160e11b815260206004820152600360248201526258444360e81b60448201526001600160a01b03919091169063a40b18c29060640160206040518083038186803b1580156116b257600080fd5b505afa1580156116c6573d6000803e3d6000fd5b505050506040513d601f19601f820116820180604052508101906116ea9190612be7565b90506116f68582611399565b9150505b82156117a757600061170a611345565b6040516352058c6160e11b8152602060048201526003602482015262504c4960e81b60448201526001600160a01b03919091169063a40b18c29060640160206040518083038186803b15801561175f57600080fd5b505afa158015611773573d6000803e3d6000fd5b505050506040513d601f19601f820116820180604052508101906117979190612be7565b90506117a38482611399565b9250505b60006117b38284611961565b9050600061271060646001600160801b03166002546117d29190612dfb565b6117dc9084612dfb565b6117e69190612dfb565b98975050505050505050565b6000610e0083836040518060400160405280601e81526020017f536166654d6174683a207375627472616374696f6e206f766572666c6f770000815250612809565b6000806000611841611345565b6001600160a01b031663a40b18c2856040518263ffffffff1660e01b815260040161186c9190612d2c565b60206040518083038186803b15801561188457600080fd5b505afa158015611898573d6000803e3d6000fd5b505050506040513d601f19601f820116820180604052508101906118bc9190612be7565b905085156118d5576118ce3482611399565b91506118e2565b6118df8582611399565b91505b600061271060646001600160801b03166002546118ff9190612dfb565b6119099085612dfb565b6119139190612dfb565b60408051828152602081018690529081018490529091507f611c844bc25f6ae3b7f61cef7190757718761e79616ff375d7693a5c09753a499060600160405180910390a19695505050505050565b60008061196e8385612de3565b905083811015610e005760405162461bcd60e51b815260206004820152601b60248201527f536166654d6174683a206164646974696f6e206f766572666c6f7700000000006044820152606401610760565b60006005543410156119e45760405162461bcd60e51b815260040161076090612d91565b336000908152600960209081526040808320815160a08101835281546001600160a01b031681526001808301549482019490945260028201549281019290925260038101546060830152600481015491929091608084019160ff90911690811115611a5f57634e487b7160e01b600052602160045260246000fd5b6001811115611a7e57634e487b7160e01b600052602160045260246000fd5b9052506020810151909150600090611a969034611961565b90506000611ab185846060015161196190919063ffffffff16565b90506040518060a00160405280336001600160a01b031681526020018381526020018460400151815260200182815260200160006001811115611b0457634e487b7160e01b600052602160045260246000fd5b6001811115611b2357634e487b7160e01b600052602160045260246000fd5b905233600090815260096020908152604091829020835181546001600160a01b0319166001600160a01b039091161781559083015160018083019190915591830151600282015560608301516003820155608083015160048201805492939192909160ff19909116908381811115611bab57634e487b7160e01b600052602160045260246000fd5b021790555050336000908152600a6020526040808220905191925090611bd090612c76565b90815260408051918290036020908101832060e0840190925281546001600160a01b0316835260018201805491840191611c0990612e81565b80601f0160208091040260200160405190810160405280929190818152602001828054611c3590612e81565b8015611c825780601f10611c5757610100808354040283529160200191611c82565b820191906000526020600020905b815481529060010190602001808311611c6557829003601f168201915b505050918352505060028201546020820152600382015460408083019190915260049092015460ff8082161515606084015261010082048116151560808401526201000090910416151560a090910152810151909150600090611ce59084611961565b6040805160e0810182523380825282518084018452600581526416111554d160da1b6020828101919091528084019190915282840185905260006060840181905260016080850181905260a085015260c08401819052918252600a9052829020915192935091611d5490612c76565b90815260405160209181900382019020825181546001600160a01b0319166001600160a01b039091161781558282015180519192611d9a92600185019290910190612869565b5060408281015160028301556060830151600383015560808301516004909201805460a085015160c0909501511515620100000262ff0000199515156101000261ff00199515159590951661ffff1990921691909117939093179390931691909117909155336000908152600b6020908152828220600a909152908290209151909190611e2690612c76565b908152604051908190036020908101909120825460018181018555600094855292909320815460059094020180546001600160a01b0319166001600160a01b039094169390931783558181018054919392830191611e8390612e81565b611e8e9291906128ed565b5060028281015490820155600380830154908201556004918201805492909101805460ff938416151560ff19821681178355835461010090819004861615150261ff001990911661ffff19909216919091171780825591546201000090819004909316151590920262ff000019909116179055611f0961283a565b6040516340c10f1960e01b8152336004820152602481018990526001600160a01b0391909116906340c10f1990604401602060405180830381600087803b158015611f5357600080fd5b505af1158015611f67573d6000803e3d6000fd5b505050506040513d601f19601f82011682018060405250810190611f8b9190612b0e565b50959695505050505050565b6040516370a0823160e01b81526001600160a01b0384811660048301528291908416906370a082319060240160206040518083038186803b158015611fdb57600080fd5b505afa158015611fef573d6000803e3d6000fd5b505050506040513d601f19601f820116820180604052508101906120139190612be7565b10156120755760405162461bcd60e51b815260206004820152602b60248201527f5852433230476174657761793a20696e73756666696369656e7420637572726560448201526a6e63792062616c616e636560a81b6064820152608401610760565b505050565b604051636eb1769f60e11b81526001600160a01b03848116600483015230602483015282919084169063dd62ed3e9060440160206040518083038186803b1580156120c457600080fd5b505afa1580156120d8573d6000803e3d6000fd5b505050506040513d601f19601f820116820180604052508101906120fc9190612be7565b10156120755760405162461bcd60e51b815260206004820152602560248201527f5852433230476174657761793a20696e73756666696369656e7420616c6c6f7760448201526430b731b29760d91b6064820152608401610760565b6040516323b872dd60e01b8152336004820152306024820152604481018390526001600160a01b038216906323b872dd90606401602060405180830381600087803b1580156121a657600080fd5b505af11580156121ba573d6000803e3d6000fd5b505050506040513d601f19601f820116820180604052508101906120759190612b0e565b60006006548210156122025760405162461bcd60e51b815260040161076090612d3f565b336000908152600960209081526040808320815160a08101835281546001600160a01b031681526001808301549482019490945260028201549281019290925260038101546060830152600481015491929091608084019160ff9091169081111561227d57634e487b7160e01b600052602160045260246000fd5b600181111561229c57634e487b7160e01b600052602160045260246000fd5b90525060408101519091506000906122b49085611961565b905060006122cf86846060015161196190919063ffffffff16565b6040805160a08101825233808252602087810151818401908152838501888152606085018781526001608087018181526000968752600990955296909420855181546001600160a01b0319166001600160a01b0390911617815591518287015551600282015591516003830155516004820180549596509294919390929160ff191690838181111561237157634e487b7160e01b600052602160045260246000fd5b021790555050336000908152600a602052604080822090519192509061239690612c76565b90815260408051918290036020908101832060e0840190925281546001600160a01b03168352600182018054918401916123cf90612e81565b80601f01602080910402602001604051908101604052809291908181526020018280546123fb90612e81565b80156124485780601f1061241d57610100808354040283529160200191612448565b820191906000526020600020905b81548152906001019060200180831161242b57829003601f168201915b505050918352505060028201546020820152600382015460408083019190915260049092015460ff8082161515606084015261010082048116151560808401526201000090910416151560a0909101528101519091506000906124ab9084611961565b6040805160e0810182523380825282518084018452600581526416111554d160da1b6020828101919091528084019190915282840185905260006060840181905260016080850181905260a085015260c08401819052918252600a905282902091519293509161251a90612c76565b90815260405160209181900382019020825181546001600160a01b0319166001600160a01b03909116178155828201518051919261256092600185019290910190612869565b5060408281015160028301556060830151600383015560808301516004909201805460a085015160c0909501511515620100000262ff0000199515156101000261ff00199515159590951661ffff1990921691909117939093179390931691909117909155336000908152600b6020908152828220600a9091529082902091519091906125ec90612c76565b908152604051908190036020908101909120825460018181018555600094855292909320815460059094020180546001600160a01b0319166001600160a01b03909416939093178355818101805491939283019161264990612e81565b6126549291906128ed565b5060028281015490820155600380830154908201556004918201805492909101805460ff938416151560ff19821681178355835461010090819004861615150261ff001990911661ffff19909216919091171780825591546201000090819004909316151590920262ff0000199091161790556126cf61283a565b6040516340c10f1960e01b8152336004820152602481018a90526001600160a01b0391909116906340c10f1990604401602060405180830381600087803b15801561271957600080fd5b505af115801561272d573d6000803e3d6000fd5b505050506040513d601f19601f820116820180604052508101906127519190612b0e565b5096979650505050505050565b600080612769611345565b6001600160a01b031663a40b18c2846040518263ffffffff1660e01b81526004016127949190612d2c565b60206040518083038186803b1580156127ac57600080fd5b505afa1580156127c0573d6000803e3d6000fd5b505050506040513d601f19601f820116820180604052508101906127e49190612be7565b905060006127f28583611399565b905061280061271082612dfb565b95945050505050565b6000818484111561282d5760405162461bcd60e51b81526004016107609190612d2c565b5060006128008486612e3a565b600060046040518060400160405280600581526020016416111554d160da1b81525060405161137b9190612c5a565b82805461287590612e81565b90600052602060002090601f01602090048101928261289757600085556128dd565b82601f106128b057805160ff19168380011785556128dd565b828001600101855582156128dd579182015b828111156128dd5782518255916020019190600101906128c2565b506128e9929150612968565b5090565b8280546128f990612e81565b90600052602060002090601f01602090048101928261291b57600085556128dd565b82601f1061292c57805485556128dd565b828001600101855582156128dd57600052602060002091601f016020900482015b828111156128dd57825482559160010191906001019061294d565b5b808211156128e95760008155600101612969565b80356001600160a01b038116811461299457600080fd5b919050565b600082601f8301126129a9578081fd5b813567ffffffffffffffff808211156129c4576129c4612eed565b604051601f8301601f19908116603f011681019082821181831017156129ec576129ec612eed565b81604052838152866020858801011115612a04578485fd5b8360208701602083013792830160200193909352509392505050565b600060208284031215612a31578081fd5b610e008261297d565b60008060408385031215612a4c578081fd5b612a558361297d565b9150602083013567ffffffffffffffff811115612a70578182fd5b612a7c85828601612999565b9150509250929050565b60008060408385031215612a98578182fd5b612aa18361297d565b946020939093013593505050565b60008060008060808587031215612ac4578182fd5b612acd8561297d565b93506020850135925060408501359150606085013567ffffffffffffffff811115612af6578182fd5b612b0287828801612999565b91505092959194509250565b600060208284031215612b1f578081fd5b81518015158114610e00578182fd5b600060208284031215612b3f578081fd5b5035919050565b60008060408385031215612b58578182fd5b82359150612b686020840161297d565b90509250929050565b600060208284031215612b82578081fd5b813567ffffffffffffffff811115612b98578182fd5b610d7284828501612999565b60008060408385031215612bb6578182fd5b823567ffffffffffffffff811115612bcc578283fd5b612bd885828601612999565b925050612b686020840161297d565b600060208284031215612bf8578081fd5b5051919050565b60008060408385031215612c11578182fd5b82359150602083013567ffffffffffffffff811115612a70578182fd5b60008151808452612c46816020860160208601612e51565b601f01601f19169290920160200192915050565b60008251612c6c818460208701612e51565b9190910192915050565b6416111554d160da1b815260050190565b6001600160a01b038616815260208101859052604081018490526060810183905260a0810160028310612cca57634e487b7160e01b600052602160045260246000fd5b8260808301529695505050505050565b6001600160a01b038816815260e060208201819052600090612cfe90830189612c2e565b60408301979097525060608101949094529115156080840152151560a0830152151560c09091015292915050565b602081526000610e006020830184612c2e565b60208082526032908201527f504c4920616d6f756e742053686f756c64206265206d696e696d756d504c4944604082015271195c1bdcda5d105b5bdd5b9d081b1a5b5a5d60721b606082015260800190565b60208082526032908201527f58444320616d6f756e742053686f756c64206265206d696e696d756d58444344604082015271195c1bdcda5d105b5bdd5b9d081b1a5b5a5d60721b606082015260800190565b60008219821115612df657612df6612ed7565b500190565b600082612e1657634e487b7160e01b81526012600452602481fd5b500490565b6000816000190483118215151615612e3557612e35612ed7565b500290565b600082821015612e4c57612e4c612ed7565b500390565b60005b83811015612e6c578181015183820152602001612e54565b83811115612e7b576000848401525b50505050565b600181811c90821680612e9557607f821691505b60208210811415612eb657634e487b7160e01b600052602260045260246000fd5b50919050565b6000600019821415612ed057612ed0612ed7565b5060010190565b634e487b7160e01b600052601160045260246000fd5b634e487b7160e01b600052604160045260246000fdfea2646970667358221220aaee84c8361d99e9a4332738600972c1fa7275ae64a99af35ba04ee41164cf6764736f6c63430008040033",
  "linkReferences": {},
  "deployedLinkReferences": {}
}