{
  "_format": "hh-sol-artifact-1",
  "contractName": "XSynProtocol",
  "sourceName": "contracts/XSynProtocol.sol",
  "abi": [
    {
      "inputs": [],
      "stateMutability": "nonpayable",
      "type": "constructor"
    },
    {
      "anonymous": false,
      "inputs": [
        {
          "indexed": false,
          "internalType": "string",
          "name": "name",
          "type": "string"
        },
        {
          "indexed": false,
          "internalType": "address",
          "name": "destination",
          "type": "address"
        }
      ],
      "name": "CacheUpdated",
      "type": "event"
    },
    {
      "anonymous": false,
      "inputs": [
        {
          "indexed": false,
          "internalType": "uint256",
          "name": "amount",
          "type": "uint256"
        }
      ],
      "name": "MinimumDepositAmountUpdated",
      "type": "event"
    },
    {
      "inputs": [],
      "name": "CONTRACTNAME",
      "outputs": [
        {
          "internalType": "string",
          "name": "",
          "type": "string"
        }
      ],
      "stateMutability": "view",
      "type": "function"
    },
    {
      "inputs": [],
      "name": "CONTRACT_NAME",
      "outputs": [
        {
          "internalType": "string",
          "name": "",
          "type": "string"
        }
      ],
      "stateMutability": "view",
      "type": "function"
    },
    {
      "inputs": [],
      "name": "_owner",
      "outputs": [
        {
          "internalType": "address",
          "name": "",
          "type": "address"
        }
      ],
      "stateMutability": "view",
      "type": "function"
    },
    {
      "inputs": [
        {
          "internalType": "string",
          "name": "",
          "type": "string"
        }
      ],
      "name": "addressCache",
      "outputs": [
        {
          "internalType": "address",
          "name": "",
          "type": "address"
        }
      ],
      "stateMutability": "view",
      "type": "function"
    },
    {
      "inputs": [],
      "name": "contractOwner",
      "outputs": [
        {
          "internalType": "address",
          "name": "",
          "type": "address"
        }
      ],
      "stateMutability": "view",
      "type": "function"
    },
    {
      "inputs": [
        {
          "internalType": "address",
          "name": "",
          "type": "address"
        },
        {
          "internalType": "string",
          "name": "",
          "type": "string"
        }
      ],
      "name": "debtTotalPool",
      "outputs": [
        {
          "internalType": "address payable",
          "name": "user",
          "type": "address"
        },
        {
          "internalType": "string",
          "name": "xSynSymbol",
          "type": "string"
        },
        {
          "internalType": "uint256",
          "name": "synthValue",
          "type": "uint256"
        },
        {
          "internalType": "bool",
          "name": "loanSettled",
          "type": "bool"
        }
      ],
      "stateMutability": "view",
      "type": "function"
    },
    {
      "inputs": [
        {
          "internalType": "address",
          "name": "",
          "type": "address"
        }
      ],
      "name": "deposits",
      "outputs": [
        {
          "internalType": "address payable",
          "name": "user",
          "type": "address"
        },
        {
          "internalType": "uint256",
          "name": "xdcDeposit",
          "type": "uint256"
        },
        {
          "internalType": "uint256",
          "name": "pliDeposit",
          "type": "uint256"
        },
        {
          "internalType": "uint256",
          "name": "xdUsdminted",
          "type": "uint256"
        },
        {
          "internalType": "enum Constants.TokenType",
          "name": "tok",
          "type": "uint8"
        }
      ],
      "stateMutability": "view",
      "type": "function"
    },
    {
      "inputs": [],
      "name": "minimumPLIDepositAmount",
      "outputs": [
        {
          "internalType": "uint256",
          "name": "",
          "type": "uint256"
        }
      ],
      "stateMutability": "view",
      "type": "function"
    },
    {
      "inputs": [],
      "name": "minimumXDCDepositAmount",
      "outputs": [
        {
          "internalType": "uint256",
          "name": "",
          "type": "uint256"
        }
      ],
      "stateMutability": "view",
      "type": "function"
    },
    {
      "inputs": [
        {
          "internalType": "address",
          "name": "",
          "type": "address"
        }
      ],
      "name": "mintr",
      "outputs": [
        {
          "internalType": "uint256",
          "name": "",
          "type": "uint256"
        }
      ],
      "stateMutability": "view",
      "type": "function"
    },
    {
      "inputs": [
        {
          "internalType": "uint256",
          "name": "_pliVal",
          "type": "uint256"
        },
        {
          "internalType": "address",
          "name": "_tokenAddress",
          "type": "address"
        }
      ],
      "name": "mintxdUSDForPLI",
      "outputs": [
        {
          "internalType": "uint256",
          "name": "",
          "type": "uint256"
        }
      ],
      "stateMutability": "nonpayable",
      "type": "function"
    },
    {
      "inputs": [],
      "name": "mintxdUSDForXDC",
      "outputs": [
        {
          "internalType": "uint256",
          "name": "",
          "type": "uint256"
        }
      ],
      "stateMutability": "payable",
      "type": "function"
    },
    {
      "inputs": [
        {
          "internalType": "uint256",
          "name": "_minDeposit",
          "type": "uint256"
        }
      ],
      "name": "setMinDepositForPLI",
      "outputs": [],
      "stateMutability": "nonpayable",
      "type": "function"
    },
    {
      "inputs": [
        {
          "internalType": "uint256",
          "name": "_minDeposit",
          "type": "uint256"
        }
      ],
      "name": "setMinDepositForXDC",
      "outputs": [],
      "stateMutability": "nonpayable",
      "type": "function"
    },
    {
      "inputs": [
        {
          "internalType": "address",
          "name": "",
          "type": "address"
        }
      ],
      "name": "totalXDUSDMinted",
      "outputs": [
        {
          "internalType": "uint256",
          "name": "",
          "type": "uint256"
        }
      ],
      "stateMutability": "view",
      "type": "function"
    },
    {
      "inputs": [
        {
          "internalType": "address",
          "name": "",
          "type": "address"
        }
      ],
      "name": "totalXDUSDSwapped",
      "outputs": [
        {
          "internalType": "uint256",
          "name": "",
          "type": "uint256"
        }
      ],
      "stateMutability": "view",
      "type": "function"
    },
    {
      "inputs": [
        {
          "internalType": "string",
          "name": "_name",
          "type": "string"
        },
        {
          "internalType": "address",
          "name": "_destination",
          "type": "address"
        }
      ],
      "name": "updateCache",
      "outputs": [],
      "stateMutability": "nonpayable",
      "type": "function"
    },
    {
      "inputs": [
        {
          "internalType": "address",
          "name": "_user",
          "type": "address"
        },
        {
          "internalType": "uint256",
          "name": "_totUsdSwapped",
          "type": "uint256"
        },
        {
          "internalType": "uint256",
          "name": "_totSynthsPurchased",
          "type": "uint256"
        },
        {
          "internalType": "string",
          "name": "_symbolPurchased",
          "type": "string"
        }
      ],
      "name": "updateDebtPool",
      "outputs": [],
      "stateMutability": "nonpayable",
      "type": "function"
    },
    {
      "stateMutability": "payable",
      "type": "receive"
    }
  ],
  "bytecode": "0x60806040819052630241ebdb60e61b815273__$62ad3b859263eea2f18e8dce157c4af92c$__9063907af6c09060849060209060048186803b1580156200004557600080fd5b505af41580156200005a573d6000803e3d6000fd5b505050506040513d601f19601f8201168201806040525081019062000080919062000158565b6200008e906107d062000171565b60045573__$62ad3b859263eea2f18e8dce157c4af92c$__63907af6c06040518163ffffffff1660e01b815260040160206040518083038186803b158015620000d657600080fd5b505af4158015620000eb573d6000803e3d6000fd5b505050506040513d601f19601f8201168201806040525081019062000111919062000158565b6200011f906102bc62000171565b6005553480156200012f57600080fd5b5060018054336001600160a01b031991821681179092556003805490911690911790556200019d565b6000602082840312156200016a578081fd5b5051919050565b60008160001904831182151516156200019857634e487b7160e01b81526011600452602481fd5b500290565b61225080620001ad6000396000f3fe60806040526004361061010d5760003560e01c8063b91a1ca611610095578063e52346d011610064578063e52346d01461032a578063ea983a6d1461034a578063f18757441461037a578063fc6f4c1b146103b2578063fc7e286d146103d257600080fd5b8063b91a1ca614610290578063c982e66f146102bd578063ce606ee0146102dd578063d6ea7b3b146102fd57600080fd5b806383e10787116100dc57806383e10787146101c2578063a4b19d01146101ca578063ae1844d614610223578063b1211f2914610243578063b2bdfa7b1461027057600080fd5b8063056c5aa9146101195780633b6fba1a146101425780635f230a6114610158578063614d08f81461017a57600080fd5b3661011457005b600080fd5b34801561012557600080fd5b5061012f60045481565b6040519081526020015b60405180910390f35b34801561014e57600080fd5b5061012f60055481565b34801561016457600080fd5b50610178610173366004611d72565b61043a565b005b34801561018657600080fd5b506101b56040518060400160405280600f81526020016e20b2323932b9b9a932b9b7b63b32b960891b81525081565b6040516101399190611ecd565b61012f610476565b3480156101d657600080fd5b5061020b6101e5366004611ceb565b80516020818301810180516000825292820191909301209152546001600160a01b031681565b6040516001600160a01b039091168152602001610139565b34801561022f57600080fd5b5061012f61023e366004611d8a565b6105f8565b34801561024f57600080fd5b5061012f61025e366004611bee565b60076020526000908152604090205481565b34801561027c57600080fd5b5060015461020b906001600160a01b031681565b34801561029c57600080fd5b5061012f6102ab366004611bee565b60066020526000908152604090205481565b3480156102c957600080fd5b506101786102d8366004611c54565b610799565b3480156102e957600080fd5b5060035461020b906001600160a01b031681565b34801561030957600080fd5b5061012f610318366004611bee565b60026020526000908152604090205481565b34801561033657600080fd5b50610178610345366004611d72565b610b49565b34801561035657600080fd5b5061036a610365366004611c08565b610b7e565b6040516101399493929190611e3e565b34801561038657600080fd5b506101b56040518060400160405280600c81526020016b1614de5b941c9bdd1bd8dbdb60a21b81525081565b3480156103be57600080fd5b506101786103cd366004611d26565b610c59565b3480156103de57600080fd5b506104296103ed366004611bee565b600860205260009081526040902080546001820154600283015460038401546004909401546001600160a01b0390931693919290919060ff1685565b604051610139959493929190611e7a565b60058190556040518181527fa39eacd162ee82c70b2b030a1bc8fe89adcccc61122fad4821a8772dbcc54267906020015b60405180910390a150565b60006004543410156104a35760405162461bcd60e51b815260040161049a90611fd8565b60405180910390fd5b60006104ad610d27565b6001600160a01b031663d7a356be6040518163ffffffff1660e01b81526004016104d690611f5c565b602060405180830381600087803b1580156104f057600080fd5b505af1158015610504573d6000803e3d6000fd5b505050506040513d601f19601f820116820180604052508101906105289190611cd3565b905060006105bb610537610d27565b6001600160a01b031663dd953fb0846040518263ffffffff1660e01b815260040161056491815260200190565b60206040518083038186803b15801561057c57600080fd5b505afa158015610590573d6000803e3d6000fd5b505050506040513d601f19601f820116820180604052508101906105b49190611cd3565b3490610d5b565b336000908152600660205260409020549091506105d89082610d84565b336000908152600660205260409020556105f181610de3565b9250505090565b600060055483101561061c5760405162461bcd60e51b815260040161049a90611f0a565b6000610626610d27565b6001600160a01b031663d7a356be6040518163ffffffff1660e01b815260040161064f90611f9a565b602060405180830381600087803b15801561066957600080fd5b505af115801561067d573d6000803e3d6000fd5b505050506040513d601f19601f820116820180604052508101906106a19190611cd3565b905060006107346106b0610d27565b6001600160a01b031663dd953fb0846040518263ffffffff1660e01b81526004016106dd91815260200190565b60206040518083038186803b1580156106f557600080fd5b505afa158015610709573d6000803e3d6000fd5b505050506040513d601f19601f8201168201806040525081019061072d9190611cd3565b8690610d5b565b336000908152600660205260409020549091506107519082610d84565b3360008181526006602052604090209190915561076f90858761123a565b61077a33858761131d565b61078485856113fb565b61078e8186611481565b925050505b92915050565b6107a1611883565b6001600160a01b03841660009081526009602052604080822090516107c7908490611dd8565b9081526040805191829003602090810183206080840190925281546001600160a01b0316835260018201805491840191610800906121b3565b80601f016020809104026020016040519081016040528092919081815260200182805461082c906121b3565b80156108795780601f1061084e57610100808354040283529160200191610879565b820191906000526020600020905b81548152906001019060200180831161085c57829003601f168201915b50505091835250506002820154602082015260039091015460ff1615156040918201528101519091506000906108af9085610d84565b604080516080810182526001600160a01b0389168082526020808301889052828401859052600060608401819052918252600990528290209151929350916108f8908690611dd8565b90815260405160209181900382019020825181546001600160a01b0319166001600160a01b03909116178155828201518051919261093e92600185019290910190611ab2565b5060408281015160028301556060909201516003909101805460ff19169115159190911790556001600160a01b03871660009081526009602052818120915190919061098990611df4565b9081526040805191829003602090810183206080840190925281546001600160a01b03168352600182018054918401916109c2906121b3565b80601f01602080910402602001604051908101604052809291908181526020018280546109ee906121b3565b8015610a3b5780601f10610a1057610100808354040283529160200191610a3b565b820191906000526020600020905b815481529060010190602001808311610a1e57829003601f168201915b50505091835250506002820154602082015260039091015460ff161515604091820152810151909150600090610a7190886118ed565b604080516080810182526001600160a01b038b1680825282518084018452600581526416111554d160da1b6020828101919091528084019190915282840185905260006060840181905291825260099052829020915192935091610ad490611df4565b90815260405160209181900382019020825181546001600160a01b0319166001600160a01b039091161781558282015180519192610b1a92600185019290910190611ab2565b50604082015160028201556060909101516003909101805460ff19169115159190911790555050505050505050565b60048190556040518181527fa39eacd162ee82c70b2b030a1bc8fe89adcccc61122fad4821a8772dbcc542679060200161046b565b60096020908152600092835260409092208151808301840180519281529084019290930191909120915280546001820180546001600160a01b039092169291610bc6906121b3565b80601f0160208091040260200160405190810160405280929190818152602001828054610bf2906121b3565b8015610c3f5780601f10610c1457610100808354040283529160200191610c3f565b820191906000526020600020905b815481529060010190602001808311610c2257829003601f168201915b50505050600283015460039093015491929160ff16905084565b6001546001600160a01b03163314610cab5760405162461bcd60e51b81526020600482015260156024820152746f6e6c79206f776e65722063616e2075706461746560581b604482015260640161049a565b80600083604051610cbc9190611dd8565b90815260405190819003602001812080546001600160a01b03939093166001600160a01b0319909316929092179091557f0f721ab865154f222f0053098fb6752276624e5310bcb2bb9269d205ece331d590610d1b9084908490611ee0565b60405180910390a15050565b6000610d566040518060400160405280600c81526020016b45584348414e47455241544560a01b81525061192f565b905090565b6000610d696012600a6120a5565b610d7384846119a2565b610d7d9190612042565b9392505050565b600080610d91838561202a565b905083811015610d7d5760405162461bcd60e51b815260206004820152601b60248201527f536166654d6174683a206164646974696f6e206f766572666c6f770000000000604482015260640161049a565b6000600454341015610e075760405162461bcd60e51b815260040161049a90611fd8565b336000908152600860209081526040808320815160a08101835281546001600160a01b031681526001808301549482019490945260028201549281019290925260038101546060830152600481015491929091608084019160ff90911690811115610e8257634e487b7160e01b600052602160045260246000fd5b6001811115610ea157634e487b7160e01b600052602160045260246000fd5b9052506020810151909150600090610eb99034610d84565b90506000610ed4858460600151610d8490919063ffffffff16565b90506040518060a0016040528084600001516001600160a01b031681526020018381526020018460400151815260200182815260200160006001811115610f2b57634e487b7160e01b600052602160045260246000fd5b6001811115610f4a57634e487b7160e01b600052602160045260246000fd5b905233600090815260086020908152604091829020835181546001600160a01b0319166001600160a01b039091161781559083015160018083019190915591830151600282015560608301516003820155608083015160048201805492939192909160ff19909116908381811115610fd257634e487b7160e01b600052602160045260246000fd5b02179055505033600090815260096020526040808220905191925090610ff790611df4565b9081526040805191829003602090810183206080840190925281546001600160a01b0316835260018201805491840191611030906121b3565b80601f016020809104026020016040519081016040528092919081815260200182805461105c906121b3565b80156110a95780601f1061107e576101008083540402835291602001916110a9565b820191906000526020600020905b81548152906001019060200180831161108c57829003601f168201915b50505091835250506002820154602082015260039091015460ff1615156040918201528101519091506000906110df9084610d84565b604080516080810182523380825282518084018452600581526416111554d160da1b602082810191909152808401919091528284018590526000606084018190529182526009905282902091519293509161113990611df4565b90815260405160209181900382019020825181546001600160a01b0319166001600160a01b03909116178155828201518051919261117f92600185019290910190611ab2565b50604082015160028201556060909101516003909101805460ff19169115159190911790556111ac611a21565b6040516340c10f1960e01b8152336004820152602481018990526001600160a01b0391909116906340c10f1990604401602060405180830381600087803b1580156111f657600080fd5b505af115801561120a573d6000803e3d6000fd5b505050506040513d601f19601f8201168201806040525081019061122e9190611cb3565b50959695505050505050565b6040516370a0823160e01b81526001600160a01b0384811660048301528291908416906370a082319060240160206040518083038186803b15801561127e57600080fd5b505afa158015611292573d6000803e3d6000fd5b505050506040513d601f19601f820116820180604052508101906112b69190611cd3565b10156113185760405162461bcd60e51b815260206004820152602b60248201527f5852433230476174657761793a20696e73756666696369656e7420637572726560448201526a6e63792062616c616e636560a81b606482015260840161049a565b505050565b604051636eb1769f60e11b81526001600160a01b03848116600483015230602483015282919084169063dd62ed3e9060440160206040518083038186803b15801561136757600080fd5b505afa15801561137b573d6000803e3d6000fd5b505050506040513d601f19601f8201168201806040525081019061139f9190611cd3565b10156113185760405162461bcd60e51b815260206004820152602560248201527f5852433230476174657761793a20696e73756666696369656e7420616c6c6f7760448201526430b731b29760d91b606482015260840161049a565b6040516323b872dd60e01b8152336004820152306024820152604481018390526001600160a01b038216906323b872dd90606401602060405180830381600087803b15801561144957600080fd5b505af115801561145d573d6000803e3d6000fd5b505050506040513d601f19601f820116820180604052508101906113189190611cb3565b60006005548210156114a55760405162461bcd60e51b815260040161049a90611f0a565b336000908152600860209081526040808320815160a08101835281546001600160a01b031681526001808301549482019490945260028201549281019290925260038101546060830152600481015491929091608084019160ff9091169081111561152057634e487b7160e01b600052602160045260246000fd5b600181111561153f57634e487b7160e01b600052602160045260246000fd5b90525060408101519091506000906115579085610d84565b90506000611572868460600151610d8490919063ffffffff16565b6040805160a08101825285516001600160a01b03908116825260208088015181840190815283850188815260608501878152600160808701818152336000908152600890965297909420865181546001600160a01b031916961695909517855591518484015551600284015551600383015592516004820180549596509294919390929160ff191690838181111561161a57634e487b7160e01b600052602160045260246000fd5b0217905550503360009081526009602052604080822090519192509061163f90611df4565b9081526040805191829003602090810183206080840190925281546001600160a01b0316835260018201805491840191611678906121b3565b80601f01602080910402602001604051908101604052809291908181526020018280546116a4906121b3565b80156116f15780601f106116c6576101008083540402835291602001916116f1565b820191906000526020600020905b8154815290600101906020018083116116d457829003601f168201915b50505091835250506002820154602082015260039091015460ff1615156040918201528101519091506000906117279084610d84565b604080516080810182523380825282518084018452600581526416111554d160da1b602082810191909152808401919091528284018590526000606084018190529182526009905282902091519293509161178190611df4565b90815260405160209181900382019020825181546001600160a01b0319166001600160a01b0390911617815582820151805191926117c792600185019290910190611ab2565b50604082015160028201556060909101516003909101805460ff19169115159190911790556117f4611a21565b6040516340c10f1960e01b8152336004820152602481018a90526001600160a01b0391909116906340c10f1990604401602060405180830381600087803b15801561183e57600080fd5b505af1158015611852573d6000803e3d6000fd5b505050506040513d601f19601f820116820180604052508101906118769190611cb3565b5096979650505050505050565b61188b611a49565b6001600160a01b0316336001600160a01b0316146118eb5760405162461bcd60e51b815260206004820152601b60248201527f53656e646572206973206e6f74205873796e45786368616e6765720000000000604482015260640161049a565b565b6000610d7d83836040518060400160405280601e81526020017f536166654d6174683a207375627472616374696f6e206f766572666c6f770000815250611a78565b6000806000836040516119429190611dd8565b90815260405160209181900382018120546001600160a01b031692508215159161196e91869101611e05565b6040516020818303038152906040529061199b5760405162461bcd60e51b815260040161049a9190611ecd565b5092915050565b6000826119b157506000610793565b60006119bd838561214d565b9050826119ca8583612042565b14610d7d5760405162461bcd60e51b815260206004820152602160248201527f536166654d6174683a206d756c7469706c69636174696f6e206f766572666c6f6044820152607760f81b606482015260840161049a565b6000610d566040518060400160405280600581526020016416111554d160da1b81525061192f565b6000610d566040518060400160405280600c81526020016b5853796e45786368616e676560a01b81525061192f565b60008184841115611a9c5760405162461bcd60e51b815260040161049a9190611ecd565b506000611aa9848661216c565b95945050505050565b828054611abe906121b3565b90600052602060002090601f016020900481019282611ae05760008555611b26565b82601f10611af957805160ff1916838001178555611b26565b82800160010185558215611b26579182015b82811115611b26578251825591602001919060010190611b0b565b50611b32929150611b36565b5090565b5b80821115611b325760008155600101611b37565b80356001600160a01b0381168114611b6257600080fd5b919050565b600082601f830112611b77578081fd5b813567ffffffffffffffff80821115611b9257611b92612204565b604051601f8301601f19908116603f01168101908282118183101715611bba57611bba612204565b81604052838152866020858801011115611bd2578485fd5b8360208701602083013792830160200193909352509392505050565b600060208284031215611bff578081fd5b610d7d82611b4b565b60008060408385031215611c1a578081fd5b611c2383611b4b565b9150602083013567ffffffffffffffff811115611c3e578182fd5b611c4a85828601611b67565b9150509250929050565b60008060008060808587031215611c69578182fd5b611c7285611b4b565b93506020850135925060408501359150606085013567ffffffffffffffff811115611c9b578182fd5b611ca787828801611b67565b91505092959194509250565b600060208284031215611cc4578081fd5b81518015158114610d7d578182fd5b600060208284031215611ce4578081fd5b5051919050565b600060208284031215611cfc578081fd5b813567ffffffffffffffff811115611d12578182fd5b611d1e84828501611b67565b949350505050565b60008060408385031215611d38578182fd5b823567ffffffffffffffff811115611d4e578283fd5b611d5a85828601611b67565b925050611d6960208401611b4b565b90509250929050565b600060208284031215611d83578081fd5b5035919050565b60008060408385031215611d9c578182fd5b82359150611d6960208401611b4b565b60008151808452611dc4816020860160208601612183565b601f01601f19169290920160200192915050565b60008251611dea818460208701612183565b9190910192915050565b6416111554d160da1b815260050190565b70026b4b9b9b4b7339030b2323932b9b99d1607d1b815260008251611e31816011850160208701612183565b9190910160110192915050565b6001600160a01b0385168152608060208201819052600090611e6290830186611dac565b60408301949094525090151560609091015292915050565b6001600160a01b038616815260208101859052604081018490526060810183905260a0810160028310611ebd57634e487b7160e01b600052602160045260246000fd5b8260808301529695505050505050565b602081526000610d7d6020830184611dac565b604081526000611ef36040830185611dac565b905060018060a01b03831660208301529392505050565b60208082526032908201527f504c4920616d6f756e742053686f756c64206265206d696e696d756d504c4944604082015271195c1bdcda5d105b5bdd5b9d081b1a5b5a5d60721b606082015260800190565b60408152600360408201526258444360e81b60608201526080602082015260006107936080830160048152631554d11560e21b602082015260400190565b604081526003604082015262504c4960e81b60608201526080602082015260006107936080830160048152631554d11560e21b602082015260400190565b60208082526032908201527f58444320616d6f756e742053686f756c64206265206d696e696d756d58444344604082015271195c1bdcda5d105b5bdd5b9d081b1a5b5a5d60721b606082015260800190565b6000821982111561203d5761203d6121ee565b500190565b60008261205d57634e487b7160e01b81526012600452602481fd5b500490565b600181815b8085111561209d578160001904821115612083576120836121ee565b8085161561209057918102915b93841c9390800290612067565b509250929050565b6000610d7d83836000826120bb57506001610793565b816120c857506000610793565b81600181146120de57600281146120e857612104565b6001915050610793565b60ff8411156120f9576120f96121ee565b50506001821b610793565b5060208310610133831016604e8410600b8410161715612127575081810a610793565b6121318383612062565b8060001904821115612145576121456121ee565b029392505050565b6000816000190483118215151615612167576121676121ee565b500290565b60008282101561217e5761217e6121ee565b500390565b60005b8381101561219e578181015183820152602001612186565b838111156121ad576000848401525b50505050565b600181811c908216806121c757607f821691505b602082108114156121e857634e487b7160e01b600052602260045260246000fd5b50919050565b634e487b7160e01b600052601160045260246000fd5b634e487b7160e01b600052604160045260246000fdfea26469706673582212209a03d94a1d7684f8a1112833ca195a47add140901407d10c69a68ee4a99a9e0964736f6c63430008040033",
  "linkReferences": {
    "contracts/utils/SafeDecimalMath.sol": {
      "SafeDecimalMath": [
        {
          "length": 20,
          "start": 18
        },
        {
          "length": 20,
          "start": 147
        }
      ]
    }
  },
  "deployedLinkReferences": {}
}