{
  "_format": "hh-sol-artifact-1",
  "contractName": "XSynProtocol",
  "sourceName": "contracts/XSynProtocol.sol",
  "abi": [
    {
      "inputs": [
        {
          "internalType": "uint256",
          "name": "cratio",
          "type": "uint256"
        }
      ],
      "stateMutability": "nonpayable",
      "type": "constructor"
    },
    {
      "anonymous": false,
      "inputs": [
        {
          "indexed": false,
          "internalType": "string",
          "name": "name",
          "type": "string"
        },
        {
          "indexed": false,
          "internalType": "address",
          "name": "destination",
          "type": "address"
        }
      ],
      "name": "CacheUpdated",
      "type": "event"
    },
    {
      "anonymous": false,
      "inputs": [
        {
          "indexed": false,
          "internalType": "uint256",
          "name": "amount",
          "type": "uint256"
        }
      ],
      "name": "MinimumDepositAmountUpdated",
      "type": "event"
    },
    {
      "inputs": [],
      "name": "CONTRACTNAME",
      "outputs": [
        {
          "internalType": "string",
          "name": "",
          "type": "string"
        }
      ],
      "stateMutability": "view",
      "type": "function"
    },
    {
      "inputs": [],
      "name": "CONTRACT_NAME",
      "outputs": [
        {
          "internalType": "string",
          "name": "",
          "type": "string"
        }
      ],
      "stateMutability": "view",
      "type": "function"
    },
    {
      "inputs": [],
      "name": "_owner",
      "outputs": [
        {
          "internalType": "address",
          "name": "",
          "type": "address"
        }
      ],
      "stateMutability": "view",
      "type": "function"
    },
    {
      "inputs": [
        {
          "internalType": "string",
          "name": "",
          "type": "string"
        }
      ],
      "name": "addressCache",
      "outputs": [
        {
          "internalType": "address",
          "name": "",
          "type": "address"
        }
      ],
      "stateMutability": "view",
      "type": "function"
    },
    {
      "inputs": [],
      "name": "contractOwner",
      "outputs": [
        {
          "internalType": "address",
          "name": "",
          "type": "address"
        }
      ],
      "stateMutability": "view",
      "type": "function"
    },
    {
      "inputs": [
        {
          "internalType": "address",
          "name": "",
          "type": "address"
        },
        {
          "internalType": "string",
          "name": "",
          "type": "string"
        }
      ],
      "name": "debtTotalPool",
      "outputs": [
        {
          "internalType": "address payable",
          "name": "user",
          "type": "address"
        },
        {
          "internalType": "string",
          "name": "xSynSymbol",
          "type": "string"
        },
        {
          "internalType": "uint256",
          "name": "synthValue",
          "type": "uint256"
        },
        {
          "internalType": "uint256",
          "name": "totXDSwapped",
          "type": "uint256"
        },
        {
          "internalType": "bool",
          "name": "isXDUSD",
          "type": "bool"
        },
        {
          "internalType": "bool",
          "name": "isMinted",
          "type": "bool"
        },
        {
          "internalType": "bool",
          "name": "isSwapped",
          "type": "bool"
        }
      ],
      "stateMutability": "view",
      "type": "function"
    },
    {
      "inputs": [
        {
          "internalType": "address",
          "name": "",
          "type": "address"
        }
      ],
      "name": "deposits",
      "outputs": [
        {
          "internalType": "address payable",
          "name": "user",
          "type": "address"
        },
        {
          "internalType": "uint256",
          "name": "xdcDeposit",
          "type": "uint256"
        },
        {
          "internalType": "uint256",
          "name": "pliDeposit",
          "type": "uint256"
        },
        {
          "internalType": "uint256",
          "name": "xdUsdminted",
          "type": "uint256"
        },
        {
          "internalType": "enum Constants.TokenType",
          "name": "tok",
          "type": "uint8"
        }
      ],
      "stateMutability": "view",
      "type": "function"
    },
    {
      "inputs": [
        {
          "internalType": "address",
          "name": "_user",
          "type": "address"
        }
      ],
      "name": "getMyCollateralRatio",
      "outputs": [
        {
          "internalType": "uint256",
          "name": "_cratio",
          "type": "uint256"
        }
      ],
      "stateMutability": "view",
      "type": "function"
    },
    {
      "inputs": [],
      "name": "minCRatio",
      "outputs": [
        {
          "internalType": "uint256",
          "name": "",
          "type": "uint256"
        }
      ],
      "stateMutability": "view",
      "type": "function"
    },
    {
      "inputs": [],
      "name": "minimumPLIDepositAmount",
      "outputs": [
        {
          "internalType": "uint256",
          "name": "",
          "type": "uint256"
        }
      ],
      "stateMutability": "view",
      "type": "function"
    },
    {
      "inputs": [],
      "name": "minimumXDCDepositAmount",
      "outputs": [
        {
          "internalType": "uint256",
          "name": "",
          "type": "uint256"
        }
      ],
      "stateMutability": "view",
      "type": "function"
    },
    {
      "inputs": [
        {
          "internalType": "uint256",
          "name": "_pliVal",
          "type": "uint256"
        },
        {
          "internalType": "address",
          "name": "_tokenAddress",
          "type": "address"
        }
      ],
      "name": "mintxdUSDForPLI",
      "outputs": [
        {
          "internalType": "uint256",
          "name": "",
          "type": "uint256"
        }
      ],
      "stateMutability": "nonpayable",
      "type": "function"
    },
    {
      "inputs": [],
      "name": "mintxdUSDForXDC",
      "outputs": [
        {
          "internalType": "uint256",
          "name": "",
          "type": "uint256"
        }
      ],
      "stateMutability": "payable",
      "type": "function"
    },
    {
      "inputs": [
        {
          "internalType": "uint256",
          "name": "_minDeposit",
          "type": "uint256"
        }
      ],
      "name": "setMinDepositForPLI",
      "outputs": [],
      "stateMutability": "nonpayable",
      "type": "function"
    },
    {
      "inputs": [
        {
          "internalType": "uint256",
          "name": "_minDeposit",
          "type": "uint256"
        }
      ],
      "name": "setMinDepositForXDC",
      "outputs": [],
      "stateMutability": "nonpayable",
      "type": "function"
    },
    {
      "inputs": [
        {
          "internalType": "address",
          "name": "",
          "type": "address"
        }
      ],
      "name": "totalXDUSDMinted",
      "outputs": [
        {
          "internalType": "uint256",
          "name": "",
          "type": "uint256"
        }
      ],
      "stateMutability": "view",
      "type": "function"
    },
    {
      "inputs": [
        {
          "internalType": "address",
          "name": "",
          "type": "address"
        }
      ],
      "name": "totalXDUSDSwapped",
      "outputs": [
        {
          "internalType": "uint256",
          "name": "",
          "type": "uint256"
        }
      ],
      "stateMutability": "view",
      "type": "function"
    },
    {
      "inputs": [
        {
          "internalType": "address",
          "name": "",
          "type": "address"
        },
        {
          "internalType": "uint256",
          "name": "",
          "type": "uint256"
        }
      ],
      "name": "tradingPool",
      "outputs": [
        {
          "internalType": "address payable",
          "name": "user",
          "type": "address"
        },
        {
          "internalType": "string",
          "name": "xSynSymbol",
          "type": "string"
        },
        {
          "internalType": "uint256",
          "name": "synthValue",
          "type": "uint256"
        },
        {
          "internalType": "uint256",
          "name": "totXDSwapped",
          "type": "uint256"
        },
        {
          "internalType": "bool",
          "name": "isXDUSD",
          "type": "bool"
        },
        {
          "internalType": "bool",
          "name": "isMinted",
          "type": "bool"
        },
        {
          "internalType": "bool",
          "name": "isSwapped",
          "type": "bool"
        }
      ],
      "stateMutability": "view",
      "type": "function"
    },
    {
      "inputs": [
        {
          "internalType": "string",
          "name": "_name",
          "type": "string"
        },
        {
          "internalType": "address",
          "name": "_destination",
          "type": "address"
        }
      ],
      "name": "updateCache",
      "outputs": [],
      "stateMutability": "nonpayable",
      "type": "function"
    },
    {
      "inputs": [
        {
          "internalType": "address",
          "name": "_user",
          "type": "address"
        },
        {
          "internalType": "uint256",
          "name": "_totUsdSwapped",
          "type": "uint256"
        },
        {
          "internalType": "uint256",
          "name": "_totSynthsPurchased",
          "type": "uint256"
        },
        {
          "internalType": "string",
          "name": "_symbolPurchased",
          "type": "string"
        }
      ],
      "name": "updateDebtPool",
      "outputs": [],
      "stateMutability": "nonpayable",
      "type": "function"
    },
    {
      "stateMutability": "payable",
      "type": "receive"
    }
  ],
  "bytecode": "0x60806040819052630241ebdb60e61b815273__$62ad3b859263eea2f18e8dce157c4af92c$__9063907af6c09060849060209060048186803b1580156200004557600080fd5b505af41580156200005a573d6000803e3d6000fd5b505050506040513d601f19601f820116820180604052508101906200008091906200017d565b6200008e9061271062000196565b60045573__$62ad3b859263eea2f18e8dce157c4af92c$__63907af6c06040518163ffffffff1660e01b815260040160206040518083038186803b158015620000d657600080fd5b505af4158015620000eb573d6000803e3d6000fd5b505050506040513d601f19601f820116820180604052508101906200011191906200017d565b6200011f90614e2062000196565b6005553480156200012f57600080fd5b50604051620030a3380380620030a383398101604081905262000152916200017d565b60018054336001600160a01b03199182168117909255600380549091169091179055600255620001c2565b6000602082840312156200018f578081fd5b5051919050565b6000816000190483118215151615620001bd57634e487b7160e01b81526011600452602481fd5b500290565b612ed180620001d26000396000f3fe6080604052600436106101235760003560e01c8063b1211f29116100a0578063e52346d011610064578063e52346d01461037c578063ea983a6d1461039c578063f1875744146103bc578063fc6f4c1b146103f4578063fc7e286d1461041457600080fd5b8063b1211f29146102c2578063b2bdfa7b146102ef578063b91a1ca61461030f578063c982e66f1461033c578063ce606ee01461035c57600080fd5b8063614d08f8116100e7578063614d08f8146101d9578063722a6b241461022157806383e1078714610241578063a4b19d0114610249578063ae1844d6146102a257600080fd5b8063056c5aa91461012f578063184212a2146101585780633b6fba1a1461018b5780635f230a61146101a1578063607573d3146101c357600080fd5b3661012a57005b600080fd5b34801561013b57600080fd5b5061014560045481565b6040519081526020015b60405180910390f35b34801561016457600080fd5b5061017861017336600461287b565b61047c565b60405161014f9796959493929190612a8e565b34801561019757600080fd5b5061014560055481565b3480156101ad57600080fd5b506101c16101bc3660046129c2565b610575565b005b3480156101cf57600080fd5b5061014560025481565b3480156101e557600080fd5b506102146040518060400160405280600f81526020016e20b2323932b9b9a932b9b7b63b32b960891b81525081565b60405161014f9190612b33565b34801561022d57600080fd5b5061014561023c366004612815565b6105b9565b610145610958565b34801561025557600080fd5b5061028a61026436600461293b565b80516020818301810180516000825292820191909301209152546001600160a01b031681565b6040516001600160a01b03909116815260200161014f565b3480156102ae57600080fd5b506101456102bd3660046129da565b610af4565b3480156102ce57600080fd5b506101456102dd366004612815565b60076020526000908152604090205481565b3480156102fb57600080fd5b5060015461028a906001600160a01b031681565b34801561031b57600080fd5b5061014561032a366004612815565b60066020526000908152604090205481565b34801561034857600080fd5b506101c16103573660046128a4565b610caf565b34801561036857600080fd5b5060035461028a906001600160a01b031681565b34801561038857600080fd5b506101c16103973660046129c2565b611384565b3480156103a857600080fd5b506101786103b736600461282f565b6113c1565b3480156103c857600080fd5b506102146040518060400160405280600c81526020016b1614de5b941c9bdd1bd8dbdb60a21b81525081565b34801561040057600080fd5b506101c161040f366004612976565b611409565b34801561042057600080fd5b5061046b61042f366004612815565b600860205260009081526040902080546001820154600283015460038401546004909401546001600160a01b0390931693919290919060ff1685565b60405161014f959493929190612ae0565b600a602052816000526040600020818154811061049857600080fd5b6000918252602090912060059091020180546001820180546001600160a01b0390921694509192506104c990612e19565b80601f01602080910402602001604051908101604052809291908181526020018280546104f590612e19565b80156105425780601f1061051757610100808354040283529160200191610542565b820191906000526020600020905b81548152906001019060200180831161052557829003601f168201915b505050600284015460038501546004909501549394909390925060ff808216925061010082048116916201000090041687565b61057d6114d7565b60058190556040518181527fa39eacd162ee82c70b2b030a1bc8fe89adcccc61122fad4821a8772dbcc54267906020015b60405180910390a150565b6001600160a01b0381166000908152600a6020908152604080832080548251818502810185019093528083528493849084015b8282101561070e5760008481526020908190206040805160e081019091526005850290910180546001600160a01b03168252600181018054929391929184019161063590612e19565b80601f016020809104026020016040519081016040528092919081815260200182805461066190612e19565b80156106ae5780601f10610683576101008083540402835291602001916106ae565b820191906000526020600020905b81548152906001019060200180831161069157829003601f168201915b505050918352505060028201546020808301919091526003830154604083015260049092015460ff8082161515606084015261010082048116151560808401526201000090910416151560a09091015290825260019290920191016105ec565b50505050905060008060008060005b855181101561091c5785818151811061074657634e487b7160e01b600052603260045260246000fd5b602002602001015160800151156108125785818151811061077757634e487b7160e01b600052603260045260246000fd5b602002602001015160a00151156107cd576107c68682815181106107ab57634e487b7160e01b600052603260045260246000fd5b6020026020010151604001518661154890919063ffffffff16565b945061090a565b61080b8682815181106107f057634e487b7160e01b600052603260045260246000fd5b6020026020010151604001518561154890919063ffffffff16565b935061090a565b6109076109006108206115ae565b6001600160a01b031663a40b18c289858151811061084e57634e487b7160e01b600052603260045260246000fd5b6020026020010151602001516040518263ffffffff1660e01b81526004016108769190612b33565b60206040518083038186803b15801561088e57600080fd5b505afa1580156108a2573d6000803e3d6000fd5b505050506040513d601f19601f820116820180604052508101906108c69190612923565b8884815181106108e657634e487b7160e01b600052603260045260246000fd5b6020026020010151604001516115e290919063ffffffff16565b8390611548565b91505b8061091481612e54565b91505061071d565b50828411156109365761092f8484611661565b9150610943565b6109408385611661565b91505b61094d8183611548565b979650505050505050565b60006004543410156109855760405162461bcd60e51b815260040161097c90612c3e565b60405180910390fd5b600061098f6115ae565b6001600160a01b031663d7a356be6040518163ffffffff1660e01b81526004016109b890612bc2565b602060405180830381600087803b1580156109d257600080fd5b505af11580156109e6573d6000803e3d6000fd5b505050506040513d601f19601f82011682018060405250810190610a0a9190612923565b90506000610a9d610a196115ae565b6001600160a01b031663dd953fb0846040518263ffffffff1660e01b8152600401610a4691815260200190565b60206040518083038186803b158015610a5e57600080fd5b505afa158015610a72573d6000803e3d6000fd5b505050506040513d601f19601f82011682018060405250810190610a969190612923565b34906116a3565b90506000610ab6600254836116c590919063ffffffff16565b33600090815260066020526040902054909150610ad39082611548565b33600090815260066020526040902055610aec81611707565b935050505090565b6000600554831015610b185760405162461bcd60e51b815260040161097c90612b70565b6000610b226115ae565b6001600160a01b031663d7a356be6040518163ffffffff1660e01b8152600401610b4b90612c00565b602060405180830381600087803b158015610b6557600080fd5b505af1158015610b79573d6000803e3d6000fd5b505050506040513d601f19601f82011682018060405250810190610b9d9190612923565b90506000610c30610bac6115ae565b6001600160a01b031663dd953fb0846040518263ffffffff1660e01b8152600401610bd991815260200190565b60206040518083038186803b158015610bf157600080fd5b505afa158015610c05573d6000803e3d6000fd5b505050506040513d601f19601f82011682018060405250810190610c299190612923565b86906116a3565b90506000610c49600254836116c590919063ffffffff16565b33600090815260066020526040902054909150610c669082611548565b33600081815260066020526040902091909155610c84908688611ce2565b610c8f338688611dc5565b610c998686611ea3565b610ca38187611f29565b93505050505b92915050565b610cb76124af565b6001600160a01b0384166000908152600960205260408082209051610cdd908490612a28565b90815260408051918290036020908101832060e0840190925281546001600160a01b0316835260018201805491840191610d1690612e19565b80601f0160208091040260200160405190810160405280929190818152602001828054610d4290612e19565b8015610d8f5780601f10610d6457610100808354040283529160200191610d8f565b820191906000526020600020905b815481529060010190602001808311610d7257829003601f168201915b505050918352505060028201546020820152600382015460408083019190915260049092015460ff8082161515606084015261010082048116151560808401526201000090910416151560a090910152810151909150600090610df29085611548565b6040805160e0810182526001600160a01b0389168082526020808301889052828401859052606083018a905260006080840181905260a08401819052600160c085015291825260099052829020915192935091610e50908690612a28565b90815260405160209181900382019020825181546001600160a01b0319166001600160a01b039091161781558282015180519192610e969260018501929091019061265e565b5060408281015160028301556060830151600383015560808301516004909201805460a085015160c0909501511515620100000262ff0000199515156101000261ff00199515159590951661ffff1990921691909117939093179390931691909117909155336000908152600a60209081528282206009909152908290209151909190610f24908690612a28565b908152604051908190036020908101909120825460018181018555600094855292909320815460059094020180546001600160a01b0319166001600160a01b039094169390931783558181018054919392830191610f8190612e19565b610f8c9291906126e2565b5060028281015490820155600380830154908201556004918201805492909101805460ff938416151560ff19821681178355835461010090819004861615150261ff001990911661ffff19909216919091171780825591546201000090819004909316151590920262ff0000199091161790556001600160a01b038616600090815260096020526040808220905161102390612a44565b90815260408051918290036020908101832060e0840190925281546001600160a01b031683526001820180549184019161105c90612e19565b80601f016020809104026020016040519081016040528092919081815260200182805461108890612e19565b80156110d55780601f106110aa576101008083540402835291602001916110d5565b820191906000526020600020905b8154815290600101906020018083116110b857829003601f168201915b505050918352505060028201546020820152600382015460408083019190915260049092015460ff8082161515606084015261010082048116151560808401526201000090910416151560a0909101528101519091506000906111389088611661565b90506040518060e00160405280896001600160a01b031681526020016040518060400160405280600581526020016416111554d160da1b815250815260200182815260200188815260200160011515815260200160001515815260200160011515815250600960008a6001600160a01b03166001600160a01b031681526020019081526020016000206040516111cd90612a44565b90815260405160209181900382019020825181546001600160a01b0319166001600160a01b0390911617815582820151805191926112139260018501929091019061265e565b5060408281015160028301556060830151600383015560808301516004909201805460a085015160c0909501511515620100000262ff0000199515156101000261ff00199515159590951661ffff1990921691909117939093179390931691909117909155336000908152600a6020908152828220600990915290829020915190919061129f90612a44565b908152604051908190036020908101909120825460018181018555600094855292909320815460059094020180546001600160a01b0319166001600160a01b0390941693909317835581810180549193928301916112fc90612e19565b6113079291906126e2565b5060028281015490820155600380830154908201556004918201805492909101805460ff938416151560ff19821681178355835461010090819004861615150261ff001990911661ffff19909216919091171780825591546201000090819004909316151590920262ff0000199091161790555050505050505050565b61138c6114d7565b60048190556040518181527fa39eacd162ee82c70b2b030a1bc8fe89adcccc61122fad4821a8772dbcc54267906020016105ae565b60096020908152600092835260409092208151808301840180519281529084019290930191909120915280546001820180546001600160a01b0390921692916104c990612e19565b6001546001600160a01b0316331461145b5760405162461bcd60e51b81526020600482015260156024820152746f6e6c79206f776e65722063616e2075706461746560581b604482015260640161097c565b8060008360405161146c9190612a28565b90815260405190819003602001812080546001600160a01b03939093166001600160a01b0319909316929092179091557f0f721ab865154f222f0053098fb6752276624e5310bcb2bb9269d205ece331d5906114cb9084908490612b46565b60405180910390a15050565b6003546001600160a01b031633146115465760405162461bcd60e51b815260206004820152602c60248201527f4f6e6c79205853796e50726f746f636f6c2063616e20706572666f726d20746860448201526b34b99037b832b930ba34b7b760a11b606482015260840161097c565b565b6000806115558385612c90565b9050838110156115a75760405162461bcd60e51b815260206004820152601b60248201527f536166654d6174683a206164646974696f6e206f766572666c6f770000000000604482015260640161097c565b9392505050565b60006115dd6040518060400160405280600c81526020016b45584348414e47455241544560a01b81525061252c565b905090565b6000826115f157506000610ca9565b60006115fd8385612db3565b90508261160a8583612ca8565b146115a75760405162461bcd60e51b815260206004820152602160248201527f536166654d6174683a206d756c7469706c69636174696f6e206f766572666c6f6044820152607760f81b606482015260840161097c565b60006115a783836040518060400160405280601e81526020017f536166654d6174683a207375627472616374696f6e206f766572666c6f77000081525061259f565b60006116b16012600a612d0b565b6116bb84846115e2565b6115a79190612ca8565b60006115a783836040518060400160405280601a81526020017f536166654d6174683a206469766973696f6e206279207a65726f0000000000008152506125d9565b600060045434101561172b5760405162461bcd60e51b815260040161097c90612c3e565b336000908152600860209081526040808320815160a08101835281546001600160a01b031681526001808301549482019490945260028201549281019290925260038101546060830152600481015491929091608084019160ff909116908111156117a657634e487b7160e01b600052602160045260246000fd5b60018111156117c557634e487b7160e01b600052602160045260246000fd5b90525060208101519091506000906117dd9034611548565b905060006117f885846060015161154890919063ffffffff16565b90506040518060a0016040528084600001516001600160a01b03168152602001838152602001846040015181526020018281526020016000600181111561184f57634e487b7160e01b600052602160045260246000fd5b600181111561186e57634e487b7160e01b600052602160045260246000fd5b905233600090815260086020908152604091829020835181546001600160a01b0319166001600160a01b039091161781559083015160018083019190915591830151600282015560608301516003820155608083015160048201805492939192909160ff199091169083818111156118f657634e487b7160e01b600052602160045260246000fd5b0217905550503360009081526009602052604080822090519192509061191b90612a44565b90815260408051918290036020908101832060e0840190925281546001600160a01b031683526001820180549184019161195490612e19565b80601f016020809104026020016040519081016040528092919081815260200182805461198090612e19565b80156119cd5780601f106119a2576101008083540402835291602001916119cd565b820191906000526020600020905b8154815290600101906020018083116119b057829003601f168201915b505050918352505060028201546020820152600382015460408083019190915260049092015460ff8082161515606084015261010082048116151560808401526201000090910416151560a090910152810151909150600090611a309084611548565b6040805160e0810182523380825282518084018452600581526416111554d160da1b6020828101919091528084019190915282840185905260006060840181905260016080850181905260a085015260c0840181905291825260099052829020915192935091611a9f90612a44565b90815260405160209181900382019020825181546001600160a01b0319166001600160a01b039091161781558282015180519192611ae59260018501929091019061265e565b5060408281015160028301556060830151600383015560808301516004909201805460a085015160c0909501511515620100000262ff0000199515156101000261ff00199515159590951661ffff1990921691909117939093179390931691909117909155336000908152600a60209081528282206009909152908290209151909190611b7190612a44565b908152604051908190036020908101909120825460018181018555600094855292909320815460059094020180546001600160a01b0319166001600160a01b039094169390931783558181018054919392830191611bce90612e19565b611bd99291906126e2565b5060028281015490820155600380830154908201556004918201805492909101805460ff938416151560ff19821681178355835461010090819004861615150261ff001990911661ffff19909216919091171780825591546201000090819004909316151590920262ff000019909116179055611c54612607565b6040516340c10f1960e01b8152336004820152602481018990526001600160a01b0391909116906340c10f1990604401602060405180830381600087803b158015611c9e57600080fd5b505af1158015611cb2573d6000803e3d6000fd5b505050506040513d601f19601f82011682018060405250810190611cd69190612903565b50959695505050505050565b6040516370a0823160e01b81526001600160a01b0384811660048301528291908416906370a082319060240160206040518083038186803b158015611d2657600080fd5b505afa158015611d3a573d6000803e3d6000fd5b505050506040513d601f19601f82011682018060405250810190611d5e9190612923565b1015611dc05760405162461bcd60e51b815260206004820152602b60248201527f5852433230476174657761793a20696e73756666696369656e7420637572726560448201526a6e63792062616c616e636560a81b606482015260840161097c565b505050565b604051636eb1769f60e11b81526001600160a01b03848116600483015230602483015282919084169063dd62ed3e9060440160206040518083038186803b158015611e0f57600080fd5b505afa158015611e23573d6000803e3d6000fd5b505050506040513d601f19601f82011682018060405250810190611e479190612923565b1015611dc05760405162461bcd60e51b815260206004820152602560248201527f5852433230476174657761793a20696e73756666696369656e7420616c6c6f7760448201526430b731b29760d91b606482015260840161097c565b6040516323b872dd60e01b8152336004820152306024820152604481018390526001600160a01b038216906323b872dd90606401602060405180830381600087803b158015611ef157600080fd5b505af1158015611f05573d6000803e3d6000fd5b505050506040513d601f19601f82011682018060405250810190611dc09190612903565b6000600554821015611f4d5760405162461bcd60e51b815260040161097c90612b70565b336000908152600860209081526040808320815160a08101835281546001600160a01b031681526001808301549482019490945260028201549281019290925260038101546060830152600481015491929091608084019160ff90911690811115611fc857634e487b7160e01b600052602160045260246000fd5b6001811115611fe757634e487b7160e01b600052602160045260246000fd5b9052506040810151909150600090611fff9085611548565b9050600061201a86846060015161154890919063ffffffff16565b6040805160a08101825285516001600160a01b03908116825260208088015181840190815283850188815260608501878152600160808701818152336000908152600890965297909420865181546001600160a01b031916961695909517855591518484015551600284015551600383015592516004820180549596509294919390929160ff19169083818111156120c257634e487b7160e01b600052602160045260246000fd5b021790555050336000908152600960205260408082209051919250906120e790612a44565b90815260408051918290036020908101832060e0840190925281546001600160a01b031683526001820180549184019161212090612e19565b80601f016020809104026020016040519081016040528092919081815260200182805461214c90612e19565b80156121995780601f1061216e57610100808354040283529160200191612199565b820191906000526020600020905b81548152906001019060200180831161217c57829003601f168201915b505050918352505060028201546020820152600382015460408083019190915260049092015460ff8082161515606084015261010082048116151560808401526201000090910416151560a0909101528101519091506000906121fc9084611548565b6040805160e0810182523380825282518084018452600581526416111554d160da1b6020828101919091528084019190915282840185905260006060840181905260016080850181905260a085015260c084018190529182526009905282902091519293509161226b90612a44565b90815260405160209181900382019020825181546001600160a01b0319166001600160a01b0390911617815582820151805191926122b19260018501929091019061265e565b5060408281015160028301556060830151600383015560808301516004909201805460a085015160c0909501511515620100000262ff0000199515156101000261ff00199515159590951661ffff1990921691909117939093179390931691909117909155336000908152600a6020908152828220600990915290829020915190919061233d90612a44565b908152604051908190036020908101909120825460018181018555600094855292909320815460059094020180546001600160a01b0319166001600160a01b03909416939093178355818101805491939283019161239a90612e19565b6123a59291906126e2565b5060028281015490820155600380830154908201556004918201805492909101805460ff938416151560ff19821681178355835461010090819004861615150261ff001990911661ffff19909216919091171780825591546201000090819004909316151590920262ff000019909116179055612420612607565b6040516340c10f1960e01b8152336004820152602481018a90526001600160a01b0391909116906340c10f1990604401602060405180830381600087803b15801561246a57600080fd5b505af115801561247e573d6000803e3d6000fd5b505050506040513d601f19601f820116820180604052508101906124a29190612903565b5096979650505050505050565b6124b761262f565b6001600160a01b0316336001600160a01b0316146115465760405162461bcd60e51b815260206004820152602c60248201527f4f6e6c79205873796e45786368616e67652063616e20706572666f726d20746860448201526b34b99037b832b930ba34b7b760a11b606482015260840161097c565b60008060008360405161253f9190612a28565b90815260405160209181900382018120546001600160a01b031692508215159161256b91869101612a55565b604051602081830303815290604052906125985760405162461bcd60e51b815260040161097c9190612b33565b5092915050565b600081848411156125c35760405162461bcd60e51b815260040161097c9190612b33565b5060006125d08486612dd2565b95945050505050565b600081836125fa5760405162461bcd60e51b815260040161097c9190612b33565b5060006125d08486612ca8565b60006115dd6040518060400160405280600581526020016416111554d160da1b81525061252c565b60006115dd6040518060400160405280600c81526020016b5853796e45786368616e676560a01b81525061252c565b82805461266a90612e19565b90600052602060002090601f01602090048101928261268c57600085556126d2565b82601f106126a557805160ff19168380011785556126d2565b828001600101855582156126d2579182015b828111156126d25782518255916020019190600101906126b7565b506126de92915061275d565b5090565b8280546126ee90612e19565b90600052602060002090601f01602090048101928261271057600085556126d2565b82601f1061272157805485556126d2565b828001600101855582156126d257600052602060002091601f016020900482015b828111156126d2578254825591600101919060010190612742565b5b808211156126de576000815560010161275e565b80356001600160a01b038116811461278957600080fd5b919050565b600082601f83011261279e578081fd5b813567ffffffffffffffff808211156127b9576127b9612e85565b604051601f8301601f19908116603f011681019082821181831017156127e1576127e1612e85565b816040528381528660208588010111156127f9578485fd5b8360208701602083013792830160200193909352509392505050565b600060208284031215612826578081fd5b6115a782612772565b60008060408385031215612841578081fd5b61284a83612772565b9150602083013567ffffffffffffffff811115612865578182fd5b6128718582860161278e565b9150509250929050565b6000806040838503121561288d578182fd5b61289683612772565b946020939093013593505050565b600080600080608085870312156128b9578182fd5b6128c285612772565b93506020850135925060408501359150606085013567ffffffffffffffff8111156128eb578182fd5b6128f78782880161278e565b91505092959194509250565b600060208284031215612914578081fd5b815180151581146115a7578182fd5b600060208284031215612934578081fd5b5051919050565b60006020828403121561294c578081fd5b813567ffffffffffffffff811115612962578182fd5b61296e8482850161278e565b949350505050565b60008060408385031215612988578182fd5b823567ffffffffffffffff81111561299e578283fd5b6129aa8582860161278e565b9250506129b960208401612772565b90509250929050565b6000602082840312156129d3578081fd5b5035919050565b600080604083850312156129ec578182fd5b823591506129b960208401612772565b60008151808452612a14816020860160208601612de9565b601f01601f19169290920160200192915050565b60008251612a3a818460208701612de9565b9190910192915050565b6416111554d160da1b815260050190565b70026b4b9b9b4b7339030b2323932b9b99d1607d1b815260008251612a81816011850160208701612de9565b9190910160110192915050565b6001600160a01b038816815260e060208201819052600090612ab2908301896129fc565b60408301979097525060608101949094529115156080840152151560a0830152151560c09091015292915050565b6001600160a01b038616815260208101859052604081018490526060810183905260a0810160028310612b2357634e487b7160e01b600052602160045260246000fd5b8260808301529695505050505050565b6020815260006115a760208301846129fc565b604081526000612b5960408301856129fc565b905060018060a01b03831660208301529392505050565b60208082526032908201527f504c4920616d6f756e742053686f756c64206265206d696e696d756d504c4944604082015271195c1bdcda5d105b5bdd5b9d081b1a5b5a5d60721b606082015260800190565b60408152600360408201526258444360e81b6060820152608060208201526000610ca96080830160048152631554d11560e21b602082015260400190565b604081526003604082015262504c4960e81b6060820152608060208201526000610ca96080830160048152631554d11560e21b602082015260400190565b60208082526032908201527f58444320616d6f756e742053686f756c64206265206d696e696d756d58444344604082015271195c1bdcda5d105b5bdd5b9d081b1a5b5a5d60721b606082015260800190565b60008219821115612ca357612ca3612e6f565b500190565b600082612cc357634e487b7160e01b81526012600452602481fd5b500490565b600181815b80851115612d03578160001904821115612ce957612ce9612e6f565b80851615612cf657918102915b93841c9390800290612ccd565b509250929050565b60006115a78383600082612d2157506001610ca9565b81612d2e57506000610ca9565b8160018114612d445760028114612d4e57612d6a565b6001915050610ca9565b60ff841115612d5f57612d5f612e6f565b50506001821b610ca9565b5060208310610133831016604e8410600b8410161715612d8d575081810a610ca9565b612d978383612cc8565b8060001904821115612dab57612dab612e6f565b029392505050565b6000816000190483118215151615612dcd57612dcd612e6f565b500290565b600082821015612de457612de4612e6f565b500390565b60005b83811015612e04578181015183820152602001612dec565b83811115612e13576000848401525b50505050565b600181811c90821680612e2d57607f821691505b60208210811415612e4e57634e487b7160e01b600052602260045260246000fd5b50919050565b6000600019821415612e6857612e68612e6f565b5060010190565b634e487b7160e01b600052601160045260246000fd5b634e487b7160e01b600052604160045260246000fdfea2646970667358221220acc2fd32c462f67eafb79f79b12eba8edb6e75a2e6515bc05b4f2e40c1a9667764736f6c63430008040033",
  "linkReferences": {
    "contracts/utils/SafeDecimalMath.sol": {
      "SafeDecimalMath": [
        {
          "length": 20,
          "start": 18
        },
        {
          "length": 20,
          "start": 147
        }
      ]
    }
  },
  "deployedLinkReferences": {}
}