{
  "_format": "hh-sol-artifact-1",
  "contractName": "AddressResolver",
  "sourceName": "contracts/AddressResolver.sol",
  "abi": [
    {
      "inputs": [],
      "stateMutability": "nonpayable",
      "type": "constructor"
    },
    {
      "anonymous": false,
      "inputs": [
        {
          "indexed": false,
          "internalType": "string",
          "name": "name",
          "type": "string"
        },
        {
          "indexed": false,
          "internalType": "address",
          "name": "destination",
          "type": "address"
        }
      ],
      "name": "CacheUpdated",
      "type": "event"
    },
    {
      "inputs": [],
      "name": "CONTRACT_NAME",
      "outputs": [
        {
          "internalType": "string",
          "name": "",
          "type": "string"
        }
      ],
      "stateMutability": "view",
      "type": "function"
    },
    {
      "inputs": [],
      "name": "_owner",
      "outputs": [
        {
          "internalType": "address",
          "name": "",
          "type": "address"
        }
      ],
      "stateMutability": "view",
      "type": "function"
    },
    {
      "inputs": [
        {
          "internalType": "string",
          "name": "",
          "type": "string"
        }
      ],
      "name": "addressCache",
      "outputs": [
        {
          "internalType": "address",
          "name": "",
          "type": "address"
        }
      ],
      "stateMutability": "view",
      "type": "function"
    },
    {
      "inputs": [
        {
          "internalType": "string",
          "name": "_name",
          "type": "string"
        },
        {
          "internalType": "address",
          "name": "_destination",
          "type": "address"
        }
      ],
      "name": "updateCache",
      "outputs": [],
      "stateMutability": "nonpayable",
      "type": "function"
    }
  ],
  "bytecode": "0x608060405234801561001057600080fd5b50600180546001600160a01b03191633179055610400806100326000396000f3fe608060405234801561001057600080fd5b506004361061004c5760003560e01c8063614d08f814610051578063a4b19d0114610095578063b2bdfa7b146100e1578063fc6f4c1b146100f4575b600080fd5b61007f6040518060400160405280600f81526020016e20b2323932b9b9a932b9b7b63b32b960891b81525081565b60405161008c9190610340565b60405180910390f35b6100c96100a3366004610262565b80516020818301810180516000825292820191909301209152546001600160a01b031681565b6040516001600160a01b03909116815260200161008c565b6001546100c9906001600160a01b031681565b61010761010236600461029d565b610109565b005b6001546001600160a01b0316331461015f5760405162461bcd60e51b81526020600482015260156024820152746f6e6c79206f776e65722063616e2075706461746560581b604482015260640160405180910390fd5b806000836040516101709190610324565b90815260405190819003602001812080546001600160a01b03939093166001600160a01b0319909316929092179091557f0f721ab865154f222f0053098fb6752276624e5310bcb2bb9269d205ece331d5906101cf908490849061035a565b60405180910390a15050565b600082601f8301126101eb578081fd5b813567ffffffffffffffff80821115610206576102066103b4565b604051601f8301601f19908116603f0116810190828211818310171561022e5761022e6103b4565b81604052838152866020858801011115610246578485fd5b8360208701602083013792830160200193909352509392505050565b600060208284031215610273578081fd5b813567ffffffffffffffff811115610289578182fd5b610295848285016101db565b949350505050565b600080604083850312156102af578081fd5b823567ffffffffffffffff8111156102c5578182fd5b6102d1858286016101db565b92505060208301356001600160a01b03811681146102ed578182fd5b809150509250929050565b60008151808452610310816020860160208601610384565b601f01601f19169290920160200192915050565b60008251610336818460208701610384565b9190910192915050565b60208152600061035360208301846102f8565b9392505050565b60408152600061036d60408301856102f8565b905060018060a01b03831660208301529392505050565b60005b8381101561039f578181015183820152602001610387565b838111156103ae576000848401525b50505050565b634e487b7160e01b600052604160045260246000fdfea2646970667358221220d755017587ad1e5512047bbbb8938cdb7b71cf4e6a785d11370f29d19df69f2464736f6c63430008040033",
  "linkReferences": {},
  "deployedLinkReferences": {}
}