{
  "_format": "hh-sol-artifact-1",
  "contractName": "XSynExchange",
  "sourceName": "contracts/XSynExchange.sol",
  "abi": [
    {
      "inputs": [],
      "stateMutability": "nonpayable",
      "type": "constructor"
    },
    {
      "anonymous": false,
      "inputs": [
        {
          "indexed": false,
          "internalType": "string",
          "name": "name",
          "type": "string"
        },
        {
          "indexed": false,
          "internalType": "address",
          "name": "destination",
          "type": "address"
        }
      ],
      "name": "CacheUpdated",
      "type": "event"
    },
    {
      "anonymous": false,
      "inputs": [
        {
          "indexed": false,
          "internalType": "uint256",
          "name": "amount",
          "type": "uint256"
        }
      ],
      "name": "MinimumDepositAmountUpdated",
      "type": "event"
    },
    {
      "inputs": [],
      "name": "CONTRACTNAME",
      "outputs": [
        {
          "internalType": "string",
          "name": "",
          "type": "string"
        }
      ],
      "stateMutability": "view",
      "type": "function"
    },
    {
      "inputs": [],
      "name": "CONTRACT_NAME",
      "outputs": [
        {
          "internalType": "string",
          "name": "",
          "type": "string"
        }
      ],
      "stateMutability": "view",
      "type": "function"
    },
    {
      "inputs": [],
      "name": "_owner",
      "outputs": [
        {
          "internalType": "address",
          "name": "",
          "type": "address"
        }
      ],
      "stateMutability": "view",
      "type": "function"
    },
    {
      "inputs": [
        {
          "internalType": "string",
          "name": "",
          "type": "string"
        }
      ],
      "name": "addressCache",
      "outputs": [
        {
          "internalType": "address",
          "name": "",
          "type": "address"
        }
      ],
      "stateMutability": "view",
      "type": "function"
    },
    {
      "inputs": [],
      "name": "contractOwner",
      "outputs": [
        {
          "internalType": "address",
          "name": "",
          "type": "address"
        }
      ],
      "stateMutability": "view",
      "type": "function"
    },
    {
      "inputs": [
        {
          "internalType": "uint256",
          "name": "_amount",
          "type": "uint256"
        },
        {
          "internalType": "address",
          "name": "_preferredSynthAddress",
          "type": "address"
        },
        {
          "internalType": "string",
          "name": "_preferredSynthSymbol",
          "type": "string"
        }
      ],
      "name": "exchangeXDUSDForSynths",
      "outputs": [
        {
          "internalType": "uint256",
          "name": "",
          "type": "uint256"
        }
      ],
      "stateMutability": "nonpayable",
      "type": "function"
    },
    {
      "inputs": [
        {
          "internalType": "address",
          "name": "",
          "type": "address"
        },
        {
          "internalType": "string",
          "name": "",
          "type": "string"
        }
      ],
      "name": "exchanges",
      "outputs": [
        {
          "internalType": "address payable",
          "name": "user",
          "type": "address"
        },
        {
          "internalType": "uint256",
          "name": "xdUsdDeposit",
          "type": "uint256"
        },
        {
          "internalType": "uint256",
          "name": "synthsExchanged",
          "type": "uint256"
        },
        {
          "internalType": "address",
          "name": "currencyAddress",
          "type": "address"
        },
        {
          "internalType": "uint256",
          "name": "exchangedOn",
          "type": "uint256"
        }
      ],
      "stateMutability": "view",
      "type": "function"
    },
    {
      "inputs": [],
      "name": "minimumXDUSDDepositAmount",
      "outputs": [
        {
          "internalType": "uint256",
          "name": "",
          "type": "uint256"
        }
      ],
      "stateMutability": "view",
      "type": "function"
    },
    {
      "inputs": [
        {
          "internalType": "address",
          "name": "",
          "type": "address"
        }
      ],
      "name": "mintr",
      "outputs": [
        {
          "internalType": "uint256",
          "name": "",
          "type": "uint256"
        }
      ],
      "stateMutability": "view",
      "type": "function"
    },
    {
      "inputs": [
        {
          "internalType": "uint256",
          "name": "_minDeposit",
          "type": "uint256"
        }
      ],
      "name": "setMinDepositForXDUSD",
      "outputs": [],
      "stateMutability": "nonpayable",
      "type": "function"
    },
    {
      "inputs": [
        {
          "internalType": "string",
          "name": "_name",
          "type": "string"
        },
        {
          "internalType": "address",
          "name": "_destination",
          "type": "address"
        }
      ],
      "name": "updateCache",
      "outputs": [],
      "stateMutability": "nonpayable",
      "type": "function"
    },
    {
      "stateMutability": "payable",
      "type": "receive"
    }
  ],
  "bytecode": "0x60806040819052630241ebdb60e61b815273__$62ad3b859263eea2f18e8dce157c4af92c$__9063907af6c09060849060209060048186803b15801561004457600080fd5b505af4158015610058573d6000803e3d6000fd5b505050506040513d601f19601f8201168201806040525081019061007c91906100be565b6100879060326100d6565b60045534801561009657600080fd5b5060018054336001600160a01b03199182168117909255600380549091169091179055610101565b6000602082840312156100cf578081fd5b5051919050565b60008160001904831182151516156100fc57634e487b7160e01b81526011600452602481fd5b500290565b61132d806101106000396000f3fe6080604052600436106100a05760003560e01c8063a4b19d0111610064578063a4b19d0114610209578063b2bdfa7b14610262578063ce606ee014610282578063d6ea7b3b146102a2578063f1875744146102cf578063fc6f4c1b1461030757600080fd5b80630307e5f3146100ac5780632ebb547f146100d5578063614d08f81461017f57806378cd7fa1146101c757806388a842eb146101e757600080fd5b366100a757005b600080fd5b3480156100b857600080fd5b506100c260045481565b6040519081526020015b60405180910390f35b3480156100e157600080fd5b506101486100f0366004610ebd565b60056020908152600092835260409092208151808301840180519281529084019290930191909120915280546001820154600283015460038401546004909401546001600160a01b0393841694929391929091169085565b604080516001600160a01b03968716815260208101959095528401929092529092166060820152608081019190915260a0016100cc565b34801561018b57600080fd5b506101ba6040518060400160405280600f81526020016e20b2323932b9b9a932b9b7b63b32b960891b81525081565b6040516100cc91906110e3565b3480156101d357600080fd5b506100c26101e2366004610fe0565b610327565b3480156101f357600080fd5b50610207610202366004610fc8565b6105ac565b005b34801561021557600080fd5b5061024a610224366004610f41565b80516020818301810180516000825292820191909301209152546001600160a01b031681565b6040516001600160a01b0390911681526020016100cc565b34801561026e57600080fd5b5060015461024a906001600160a01b031681565b34801561028e57600080fd5b5060035461024a906001600160a01b031681565b3480156102ae57600080fd5b506100c26102bd366004610ea3565b60026020526000908152604090205481565b3480156102db57600080fd5b506101ba6040518060400160405280600c81526020016b5853796e45786368616e676560a01b81525081565b34801561031357600080fd5b50610207610322366004610f7c565b610667565b600060045484101561039f5760405162461bcd60e51b815260206004820152603660248201527f584455534420616d6f756e742053686f756c64206265206d696e696d756d58446044820152751554d111195c1bdcda5d105b5bdd5b9d081b1a5b5a5d60521b60648201526084015b60405180910390fd5b6103a882610735565b6103eb5760405162461bcd60e51b815260206004820152601460248201527314de5b589bdb081b9bdd081cdd5c1c1bdc9d195960621b6044820152606401610396565b61041b336104156040518060400160405280600581526020016416111554d160da1b81525061077b565b866107ee565b61044b336104456040518060400160405280600581526020016416111554d160da1b81525061077b565b866108d1565b60006104556109af565b6001600160a01b031663d7a356be846040518263ffffffff1660e01b81526004016104809190611120565b602060405180830381600087803b15801561049a57600080fd5b505af11580156104ae573d6000803e3d6000fd5b505050506040513d601f19601f820116820180604052508101906104d29190610f29565b905060006105656104e16109af565b6001600160a01b031663dd953fb0846040518263ffffffff1660e01b815260040161050e91815260200190565b60206040518083038186803b15801561052657600080fd5b505afa15801561053a573d6000803e3d6000fd5b505050506040513d601f19601f8201168201806040525081019061055e9190610f29565b87906109e3565b9050610596866105916040518060400160405280600581526020016416111554d160da1b81525061077b565b610a0e565b6105a281878688610a94565b9695505050505050565b6003546001600160a01b0316331461062c5760405162461bcd60e51b815260206004820152603e60248201527f5853796e45786368616e67653a204f6e6c7920417574686f72697a656420576160448201527f6c6c65742063616e20706572666f722074686973206f7065726174696f6e00006064820152608401610396565b60048190556040518181527fa39eacd162ee82c70b2b030a1bc8fe89adcccc61122fad4821a8772dbcc542679060200160405180910390a150565b6001546001600160a01b031633146106b95760405162461bcd60e51b81526020600482015260156024820152746f6e6c79206f776e65722063616e2075706461746560581b6044820152606401610396565b806000836040516106ca9190611061565b90815260405190819003602001812080546001600160a01b03939093166001600160a01b0319909316929092179091557f0f721ab865154f222f0053098fb6752276624e5310bcb2bb9269d205ece331d59061072990849084906110f6565b60405180910390a15050565b6000806000836040516107489190611061565b908152604051908190036020019020546001600160a01b0316905080156107725750600192915050565b50600092915050565b60008060008360405161078e9190611061565b90815260405160209181900382018120546001600160a01b03169250821515916107ba9186910161107d565b604051602081830303815290604052906107e75760405162461bcd60e51b815260040161039691906110e3565b5092915050565b6040516370a0823160e01b81526001600160a01b0384811660048301528291908416906370a082319060240160206040518083038186803b15801561083257600080fd5b505afa158015610846573d6000803e3d6000fd5b505050506040513d601f19601f8201168201806040525081019061086a9190610f29565b10156108cc5760405162461bcd60e51b815260206004820152602b60248201527f5852433230476174657761793a20696e73756666696369656e7420637572726560448201526a6e63792062616c616e636560a81b6064820152608401610396565b505050565b604051636eb1769f60e11b81526001600160a01b03848116600483015230602483015282919084169063dd62ed3e9060440160206040518083038186803b15801561091b57600080fd5b505afa15801561092f573d6000803e3d6000fd5b505050506040513d601f19601f820116820180604052508101906109539190610f29565b10156108cc5760405162461bcd60e51b815260206004820152602560248201527f5852433230476174657761793a20696e73756666696369656e7420616c6c6f7760448201526430b731b29760d91b6064820152608401610396565b60006109de6040518060400160405280600c81526020016b45584348414e47455241544560a01b81525061077b565b905090565b60006109f16012600a6111d4565b6109fb8484610ce8565b610a059190611171565b90505b92915050565b6040516323b872dd60e01b8152336004820152306024820152604481018390526001600160a01b038216906323b872dd90606401602060405180830381600087803b158015610a5c57600080fd5b505af1158015610a70573d6000803e3d6000fd5b505050506040513d601f19601f820116820180604052508101906108cc9190610f09565b336000908152600560205260408082209051829190610ab4908690611061565b908152604080516020928190038301812060a08201835280546001600160a01b03908116835260018201549483018590526002820154938301939093526003810154909216606082015260049091015460808201529150600090610b189087610d67565b90506000610b33888460400151610d6790919063ffffffff16565b6040805160a0810182523380825260208083018790528284018590526001600160a01b038a166060840152426080840152600091825260059052829020915192935091610b81908990611061565b9081526040805160209281900383019020835181546001600160a01b03199081166001600160a01b039283161783559385015160018301559184015160028201556060840151600382018054909416921691909117909155608090910151600490910155610bee86610dc6565b6040516340c10f1960e01b8152336004820152602481018a90526001600160a01b0391909116906340c10f1990604401602060405180830381600087803b158015610c3857600080fd5b505af1158015610c4c573d6000803e3d6000fd5b505050506040513d601f19601f82011682018060405250810190610c709190610f09565b50610c79610dd1565b6001600160a01b031663c982e66f33898b8a6040518563ffffffff1660e01b8152600401610caa94939291906110b6565b600060405180830381600087803b158015610cc457600080fd5b505af1158015610cd8573d6000803e3d6000fd5b50999a9950505050505050505050565b600082610cf757506000610a08565b6000610d03838561127c565b905082610d108583611171565b14610a055760405162461bcd60e51b815260206004820152602160248201527f536166654d6174683a206d756c7469706c69636174696f6e206f766572666c6f6044820152607760f81b6064820152608401610396565b600080610d748385611159565b905083811015610a055760405162461bcd60e51b815260206004820152601b60248201527f536166654d6174683a206164646974696f6e206f766572666c6f7700000000006044820152606401610396565b6000610a088261077b565b60006109de6040518060400160405280600c81526020016b1614de5b941c9bdd1bd8dbdb60a21b81525061077b565b80356001600160a01b0381168114610e1757600080fd5b919050565b600082601f830112610e2c578081fd5b813567ffffffffffffffff80821115610e4757610e476112e1565b604051601f8301601f19908116603f01168101908282118183101715610e6f57610e6f6112e1565b81604052838152866020858801011115610e87578485fd5b8360208701602083013792830160200193909352509392505050565b600060208284031215610eb4578081fd5b610a0582610e00565b60008060408385031215610ecf578081fd5b610ed883610e00565b9150602083013567ffffffffffffffff811115610ef3578182fd5b610eff85828601610e1c565b9150509250929050565b600060208284031215610f1a578081fd5b81518015158114610a05578182fd5b600060208284031215610f3a578081fd5b5051919050565b600060208284031215610f52578081fd5b813567ffffffffffffffff811115610f68578182fd5b610f7484828501610e1c565b949350505050565b60008060408385031215610f8e578182fd5b823567ffffffffffffffff811115610fa4578283fd5b610fb085828601610e1c565b925050610fbf60208401610e00565b90509250929050565b600060208284031215610fd9578081fd5b5035919050565b600080600060608486031215610ff4578081fd5b8335925061100460208501610e00565b9150604084013567ffffffffffffffff81111561101f578182fd5b61102b86828701610e1c565b9150509250925092565b6000815180845261104d81602086016020860161129b565b601f01601f19169290920160200192915050565b6000825161107381846020870161129b565b9190910192915050565b70026b4b9b9b4b7339030b2323932b9b99d1607d1b8152600082516110a981601185016020870161129b565b9190910160110192915050565b60018060a01b03851681528360208201528260408201526080606082015260006105a26080830184611035565b602081526000610a056020830184611035565b6040815260006111096040830185611035565b905060018060a01b03831660208301529392505050565b6040815260006111336040830184611035565b828103602084015260048152631554d11560e21b60208201526040810191505092915050565b6000821982111561116c5761116c6112cb565b500190565b60008261118c57634e487b7160e01b81526012600452602481fd5b500490565b600181815b808511156111cc5781600019048211156111b2576111b26112cb565b808516156111bf57918102915b93841c9390800290611196565b509250929050565b6000610a0583836000826111ea57506001610a08565b816111f757506000610a08565b816001811461120d576002811461121757611233565b6001915050610a08565b60ff841115611228576112286112cb565b50506001821b610a08565b5060208310610133831016604e8410600b8410161715611256575081810a610a08565b6112608383611191565b8060001904821115611274576112746112cb565b029392505050565b6000816000190483118215151615611296576112966112cb565b500290565b60005b838110156112b657818101518382015260200161129e565b838111156112c5576000848401525b50505050565b634e487b7160e01b600052601160045260246000fd5b634e487b7160e01b600052604160045260246000fdfea26469706673582212204a6eace630e938d1393576f17fe00c14657c37fb87dc5379b8a05d8538e6d00064736f6c63430008040033",
  "linkReferences": {
    "contracts/utils/SafeDecimalMath.sol": {
      "SafeDecimalMath": [
        {
          "length": 20,
          "start": 18
        }
      ]
    }
  },
  "deployedLinkReferences": {}
}