{
  "_format": "hh-sol-artifact-1",
  "contractName": "XSynExchange",
  "sourceName": "contracts/XSynExchange.sol",
  "abi": [
    {
      "inputs": [],
      "stateMutability": "nonpayable",
      "type": "constructor"
    },
    {
      "anonymous": false,
      "inputs": [
        {
          "indexed": false,
          "internalType": "bytes32",
          "name": "name",
          "type": "bytes32"
        },
        {
          "indexed": false,
          "internalType": "address",
          "name": "destination",
          "type": "address"
        }
      ],
      "name": "CacheUpdated",
      "type": "event"
    },
    {
      "anonymous": false,
      "inputs": [
        {
          "indexed": false,
          "internalType": "uint256",
          "name": "amount",
          "type": "uint256"
        }
      ],
      "name": "MinimumDepositAmountUpdated",
      "type": "event"
    },
    {
      "inputs": [],
      "name": "CONTRACTNAME",
      "outputs": [
        {
          "internalType": "string",
          "name": "",
          "type": "string"
        }
      ],
      "stateMutability": "view",
      "type": "function"
    },
    {
      "inputs": [],
      "name": "CONTRACT_NAME",
      "outputs": [
        {
          "internalType": "string",
          "name": "",
          "type": "string"
        }
      ],
      "stateMutability": "view",
      "type": "function"
    },
    {
      "inputs": [],
      "name": "_owner",
      "outputs": [
        {
          "internalType": "address",
          "name": "",
          "type": "address"
        }
      ],
      "stateMutability": "view",
      "type": "function"
    },
    {
      "inputs": [
        {
          "internalType": "bytes32",
          "name": "",
          "type": "bytes32"
        }
      ],
      "name": "addressCache",
      "outputs": [
        {
          "internalType": "address",
          "name": "",
          "type": "address"
        }
      ],
      "stateMutability": "view",
      "type": "function"
    },
    {
      "inputs": [],
      "name": "contractOwner",
      "outputs": [
        {
          "internalType": "address",
          "name": "",
          "type": "address"
        }
      ],
      "stateMutability": "view",
      "type": "function"
    },
    {
      "inputs": [
        {
          "internalType": "uint256",
          "name": "_amount",
          "type": "uint256"
        },
        {
          "internalType": "address",
          "name": "_preferredSynthAddress",
          "type": "address"
        },
        {
          "internalType": "bytes32",
          "name": "_preferredSynthSymbol",
          "type": "bytes32"
        },
        {
          "internalType": "string",
          "name": "_woprefixSynth",
          "type": "string"
        },
        {
          "internalType": "string",
          "name": "_wprefixSynth",
          "type": "string"
        }
      ],
      "name": "exchangeXDUSDForSynths",
      "outputs": [
        {
          "internalType": "uint256",
          "name": "",
          "type": "uint256"
        }
      ],
      "stateMutability": "nonpayable",
      "type": "function"
    },
    {
      "inputs": [
        {
          "internalType": "address",
          "name": "",
          "type": "address"
        },
        {
          "internalType": "bytes32",
          "name": "",
          "type": "bytes32"
        }
      ],
      "name": "exchanges",
      "outputs": [
        {
          "internalType": "address payable",
          "name": "user",
          "type": "address"
        },
        {
          "internalType": "uint256",
          "name": "xdUsdDeposit",
          "type": "uint256"
        },
        {
          "internalType": "uint256",
          "name": "synthsExchanged",
          "type": "uint256"
        },
        {
          "internalType": "address",
          "name": "currencyAddress",
          "type": "address"
        },
        {
          "internalType": "uint256",
          "name": "exchangedOn",
          "type": "uint256"
        }
      ],
      "stateMutability": "view",
      "type": "function"
    },
    {
      "inputs": [
        {
          "internalType": "bytes32",
          "name": "_name",
          "type": "bytes32"
        }
      ],
      "name": "fetchAddress",
      "outputs": [
        {
          "internalType": "address",
          "name": "",
          "type": "address"
        }
      ],
      "stateMutability": "view",
      "type": "function"
    },
    {
      "inputs": [],
      "name": "minimumXDUSDDepositAmount",
      "outputs": [
        {
          "internalType": "uint256",
          "name": "",
          "type": "uint256"
        }
      ],
      "stateMutability": "view",
      "type": "function"
    },
    {
      "inputs": [
        {
          "internalType": "address",
          "name": "",
          "type": "address"
        }
      ],
      "name": "mintr",
      "outputs": [
        {
          "internalType": "uint256",
          "name": "",
          "type": "uint256"
        }
      ],
      "stateMutability": "view",
      "type": "function"
    },
    {
      "inputs": [
        {
          "internalType": "bytes32",
          "name": "_name",
          "type": "bytes32"
        }
      ],
      "name": "requireAndGetAddress",
      "outputs": [
        {
          "internalType": "address",
          "name": "",
          "type": "address"
        }
      ],
      "stateMutability": "view",
      "type": "function"
    },
    {
      "inputs": [
        {
          "internalType": "uint256",
          "name": "_minDeposit",
          "type": "uint256"
        }
      ],
      "name": "setMinDepositForXDUSD",
      "outputs": [],
      "stateMutability": "nonpayable",
      "type": "function"
    },
    {
      "inputs": [
        {
          "internalType": "bytes32",
          "name": "_name",
          "type": "bytes32"
        },
        {
          "internalType": "address",
          "name": "_destination",
          "type": "address"
        }
      ],
      "name": "updateCache",
      "outputs": [],
      "stateMutability": "nonpayable",
      "type": "function"
    },
    {
      "stateMutability": "payable",
      "type": "receive"
    }
  ],
  "bytecode": "0x60806040819052630241ebdb60e61b815273__$62ad3b859263eea2f18e8dce157c4af92c$__9063907af6c09060849060209060048186803b15801561004457600080fd5b505af4158015610058573d6000803e3d6000fd5b505050506040513d601f19601f8201168201806040525081019061007c91906100be565b6100879060326100d6565b60045534801561009657600080fd5b5060018054336001600160a01b03199182168117909255600380549091169091179055610101565b6000602082840312156100cf578081fd5b5051919050565b60008160001904831182151516156100fc57634e487b7160e01b81526011600452602481fd5b500290565b6111d7806101106000396000f3fe6080604052600436106100c65760003560e01c8063b2bdfa7b1161007f578063d6ea7b3b11610059578063d6ea7b3b14610296578063dc675a65146102c3578063f1875744146102f9578063f1efc5d91461033157600080fd5b8063b2bdfa7b14610256578063c2e7df21146101b4578063ce606ee01461027657600080fd5b80630307e5f3146100d2578063050c239d146100fb57806341eb9f3a1461019457806346bcb49d146101b4578063614d08f8146101ec57806388a842eb1461023457600080fd5b366100cd57005b600080fd5b3480156100de57600080fd5b506100e860045481565b6040519081526020015b60405180910390f35b34801561010757600080fd5b5061015d610116366004610e75565b6005602090815260009283526040808420909152908252902080546001820154600283015460038401546004909401546001600160a01b0393841694929391929091169085565b604080516001600160a01b03968716815260208101959095528401929092529092166060820152608081019190915260a0016100f2565b3480156101a057600080fd5b506100e86101af366004610f19565b610351565b3480156101c057600080fd5b506101d46101cf366004610ebe565b61051a565b6040516001600160a01b0390911681526020016100f2565b3480156101f857600080fd5b506102276040518060400160405280600f81526020016e20b2323932b9b9a932b9b7b63b32b960891b81525081565b6040516100f29190611020565b34801561024057600080fd5b5061025461024f366004610ebe565b610594565b005b34801561026257600080fd5b506001546101d4906001600160a01b031681565b34801561028257600080fd5b506003546101d4906001600160a01b031681565b3480156102a257600080fd5b506100e86102b1366004610e5b565b60026020526000908152604090205481565b3480156102cf57600080fd5b506101d46102de366004610ebe565b6000602081905290815260409020546001600160a01b031681565b34801561030557600080fd5b506102276040518060400160405280600c81526020016b5853796e45786368616e676560a01b81525081565b34801561033d57600080fd5b5061025461034c366004610ed6565b61064f565b60006004548610156103c95760405162461bcd60e51b815260206004820152603660248201527f584455534420616d6f756e742053686f756c64206265206d696e696d756d58446044820152751554d111195c1bdcda5d105b5bdd5b9d081b1a5b5a5d60521b60648201526084015b60405180910390fd5b6103d284610705565b6104155760405162461bcd60e51b815260206004820152601460248201527314de5b589bdb081b9bdd081cdd5c1c1bdc9d195960621b60448201526064016103c0565b6104303361042a6416111554d160da1b61051a565b88610735565b61044b336104456416111554d160da1b61051a565b88610818565b60006104e66104df61271061045e6108f6565b6001600160a01b031663a40b18c2886040518263ffffffff1660e01b81526004016104899190611020565b60206040518083038186803b1580156104a157600080fd5b505afa1580156104b5573d6000803e3d6000fd5b505050506040513d601f19601f820116820180604052508101906104d99190610f01565b90610915565b8890610960565b9050610502876104fd6416111554d160da1b61051a565b610982565b61050f8188878987610a08565b979650505050505050565b60008181526020818152604080832054905170026b4b9b9b4b7339030b2323932b9b99d1607d1b92810192909252603182018490526001600160a01b031690811515906051016040516020818303038152906040529061058d5760405162461bcd60e51b81526004016103c09190611020565b5092915050565b6003546001600160a01b031633146106145760405162461bcd60e51b815260206004820152603e60248201527f5853796e45786368616e67653a204f6e6c7920417574686f72697a656420576160448201527f6c6c65742063616e20706572666f722074686973206f7065726174696f6e000060648201526084016103c0565b60048190556040518181527fa39eacd162ee82c70b2b030a1bc8fe89adcccc61122fad4821a8772dbcc542679060200160405180910390a150565b6001546001600160a01b031633146106a15760405162461bcd60e51b81526020600482015260156024820152746f6e6c79206f776e65722063616e2075706461746560581b60448201526064016103c0565b6000828152602081815260409182902080546001600160a01b0319166001600160a01b0385169081179091558251858152918201527f88a93678a3692f6789d9546fc621bf7234b101ddb7d4fe479455112831b8aa68910160405180910390a15050565b6000818152602081905260408120546001600160a01b0316801561072c5750600192915050565b50600092915050565b6040516370a0823160e01b81526001600160a01b0384811660048301528291908416906370a082319060240160206040518083038186803b15801561077957600080fd5b505afa15801561078d573d6000803e3d6000fd5b505050506040513d601f19601f820116820180604052508101906107b19190610f01565b10156108135760405162461bcd60e51b815260206004820152602b60248201527f5852433230476174657761793a20696e73756666696369656e7420637572726560448201526a6e63792062616c616e636560a81b60648201526084016103c0565b505050565b604051636eb1769f60e11b81526001600160a01b03848116600483015230602483015282919084169063dd62ed3e9060440160206040518083038186803b15801561086257600080fd5b505afa158015610876573d6000803e3d6000fd5b505050506040513d601f19601f8201168201806040525081019061089a9190610f01565b10156108135760405162461bcd60e51b815260206004820152602560248201527f5852433230476174657761793a20696e73756666696369656e7420616c6c6f7760448201526430b731b29760d91b60648201526084016103c0565b60006109106b45584348414e47455241544560a01b61051a565b905090565b600061095783836040518060400160405280601a81526020017f536166654d6174683a206469766973696f6e206279207a65726f000000000000815250610c7e565b90505b92915050565b600061096e6012600a6110ae565b6109788484610cb5565b610957919061104b565b6040516323b872dd60e01b8152336004820152306024820152604481018390526001600160a01b038216906323b872dd90606401602060405180830381600087803b1580156109d057600080fd5b505af11580156109e4573d6000803e3d6000fd5b505050506040513d601f19601f820116820180604052508101906108139190610e9e565b3360009081526005602090815260408083208684528252808320815160a08101835281546001600160a01b039081168252600183015494820185905260028301549382019390935260038201549092166060830152600401546080820152908290610a739088610d34565b90506000610a8e898460400151610d3490919063ffffffff16565b90506040518060a00160405280336001600160a01b03168152602001838152602001828152602001876001600160a01b031681526020014281525060056000336001600160a01b03166001600160a01b03168152602001908152602001600020600089815260200190815260200160002060008201518160000160006101000a8154816001600160a01b0302191690836001600160a01b03160217905550602082015181600101556040820151816002015560608201518160030160006101000a8154816001600160a01b0302191690836001600160a01b0316021790555060808201518160040155905050610b8387610d93565b6040516340c10f1960e01b8152336004820152602481018b90526001600160a01b0391909116906340c10f1990604401602060405180830381600087803b158015610bcd57600080fd5b505af1158015610be1573d6000803e3d6000fd5b505050506040513d601f19601f82011682018060405250810190610c059190610e9e565b50610c0e610d9e565b6001600160a01b031663c982e66f338a8c896040518563ffffffff1660e01b8152600401610c3f9493929190610fe9565b600060405180830381600087803b158015610c5957600080fd5b505af1158015610c6d573d6000803e3d6000fd5b509a9b9a5050505050505050505050565b60008183610c9f5760405162461bcd60e51b81526004016103c09190611020565b506000610cac848661104b565b95945050505050565b600082610cc45750600061095a565b6000610cd08385611156565b905082610cdd858361104b565b146109575760405162461bcd60e51b815260206004820152602160248201527f536166654d6174683a206d756c7469706c69636174696f6e206f766572666c6f6044820152607760f81b60648201526084016103c0565b600080610d418385611033565b9050838110156109575760405162461bcd60e51b815260206004820152601b60248201527f536166654d6174683a206164646974696f6e206f766572666c6f77000000000060448201526064016103c0565b600061095a8261051a565b60006109106b1614de5b941c9bdd1bd8dbdb60a21b61051a565b80356001600160a01b0381168114610dcf57600080fd5b919050565b600082601f830112610de4578081fd5b813567ffffffffffffffff80821115610dff57610dff61118b565b604051601f8301601f19908116603f01168101908282118183101715610e2757610e2761118b565b81604052838152866020858801011115610e3f578485fd5b8360208701602083013792830160200193909352509392505050565b600060208284031215610e6c578081fd5b61095782610db8565b60008060408385031215610e87578081fd5b610e9083610db8565b946020939093013593505050565b600060208284031215610eaf578081fd5b81518015158114610957578182fd5b600060208284031215610ecf578081fd5b5035919050565b60008060408385031215610ee8578182fd5b82359150610ef860208401610db8565b90509250929050565b600060208284031215610f12578081fd5b5051919050565b600080600080600060a08688031215610f30578081fd5b85359450610f4060208701610db8565b935060408601359250606086013567ffffffffffffffff80821115610f63578283fd5b610f6f89838a01610dd4565b93506080880135915080821115610f84578283fd5b50610f9188828901610dd4565b9150509295509295909350565b60008151808452815b81811015610fc357602081850181015186830182015201610fa7565b81811115610fd45782602083870101525b50601f01601f19169290920160200192915050565b60018060a01b03851681528360208201528260408201526080606082015260006110166080830184610f9e565b9695505050505050565b6020815260006109576020830184610f9e565b6000821982111561104657611046611175565b500190565b60008261106657634e487b7160e01b81526012600452602481fd5b500490565b600181815b808511156110a657816000190482111561108c5761108c611175565b8085161561109957918102915b93841c9390800290611070565b509250929050565b600061095783836000826110c45750600161095a565b816110d15750600061095a565b81600181146110e757600281146110f15761110d565b600191505061095a565b60ff84111561110257611102611175565b50506001821b61095a565b5060208310610133831016604e8410600b8410161715611130575081810a61095a565b61113a838361106b565b806000190482111561114e5761114e611175565b029392505050565b600081600019048311821515161561117057611170611175565b500290565b634e487b7160e01b600052601160045260246000fd5b634e487b7160e01b600052604160045260246000fdfea26469706673582212207de04351462dec34785ed1aebb0b39f5066a24fa1937e659f08ca83ecd3e319664736f6c63430008040033",
  "linkReferences": {
    "contracts/utils/SafeDecimalMath.sol": {
      "SafeDecimalMath": [
        {
          "length": 20,
          "start": 18
        }
      ]
    }
  },
  "deployedLinkReferences": {}
}