{
  "_format": "hh-sol-artifact-1",
  "contractName": "XSynExchange",
  "sourceName": "contracts/XSynExchange.sol",
  "abi": [
    {
      "inputs": [],
      "stateMutability": "nonpayable",
      "type": "constructor"
    },
    {
      "anonymous": false,
      "inputs": [
        {
          "indexed": false,
          "internalType": "bytes32",
          "name": "name",
          "type": "bytes32"
        },
        {
          "indexed": false,
          "internalType": "address",
          "name": "destination",
          "type": "address"
        }
      ],
      "name": "CacheUpdated",
      "type": "event"
    },
    {
      "anonymous": false,
      "inputs": [
        {
          "indexed": false,
          "internalType": "uint256",
          "name": "amount",
          "type": "uint256"
        }
      ],
      "name": "MinimumDepositAmountUpdated",
      "type": "event"
    },
    {
      "anonymous": false,
      "inputs": [
        {
          "indexed": false,
          "internalType": "address",
          "name": "_user",
          "type": "address"
        },
        {
          "indexed": false,
          "internalType": "uint256",
          "name": "_xdusdAmt",
          "type": "uint256"
        },
        {
          "indexed": false,
          "internalType": "uint256",
          "name": "_synthsToMint",
          "type": "uint256"
        },
        {
          "indexed": false,
          "internalType": "string",
          "name": "_wprefixSynth",
          "type": "string"
        }
      ],
      "name": "updatedebt",
      "type": "event"
    },
    {
      "inputs": [],
      "name": "CONTRACTNAME",
      "outputs": [
        {
          "internalType": "string",
          "name": "",
          "type": "string"
        }
      ],
      "stateMutability": "view",
      "type": "function"
    },
    {
      "inputs": [],
      "name": "CONTRACT_NAME",
      "outputs": [
        {
          "internalType": "string",
          "name": "",
          "type": "string"
        }
      ],
      "stateMutability": "view",
      "type": "function"
    },
    {
      "inputs": [],
      "name": "_owner",
      "outputs": [
        {
          "internalType": "address",
          "name": "",
          "type": "address"
        }
      ],
      "stateMutability": "view",
      "type": "function"
    },
    {
      "inputs": [
        {
          "internalType": "bytes32",
          "name": "",
          "type": "bytes32"
        }
      ],
      "name": "addressCache",
      "outputs": [
        {
          "internalType": "address",
          "name": "",
          "type": "address"
        }
      ],
      "stateMutability": "view",
      "type": "function"
    },
    {
      "inputs": [
        {
          "internalType": "uint256",
          "name": "_units",
          "type": "uint256"
        },
        {
          "internalType": "string",
          "name": "_symbol",
          "type": "string"
        }
      ],
      "name": "calculateUnits",
      "outputs": [
        {
          "internalType": "uint256",
          "name": "",
          "type": "uint256"
        }
      ],
      "stateMutability": "view",
      "type": "function"
    },
    {
      "inputs": [],
      "name": "contractOwner",
      "outputs": [
        {
          "internalType": "address",
          "name": "",
          "type": "address"
        }
      ],
      "stateMutability": "view",
      "type": "function"
    },
    {
      "inputs": [
        {
          "internalType": "string",
          "name": "",
          "type": "string"
        }
      ],
      "name": "exchangeKeyAddress",
      "outputs": [
        {
          "internalType": "address",
          "name": "",
          "type": "address"
        }
      ],
      "stateMutability": "view",
      "type": "function"
    },
    {
      "inputs": [
        {
          "internalType": "uint256",
          "name": "_amount",
          "type": "uint256"
        },
        {
          "internalType": "address",
          "name": "_preferredSynthAddress",
          "type": "address"
        },
        {
          "internalType": "string",
          "name": "_woprefixSynth",
          "type": "string"
        },
        {
          "internalType": "string",
          "name": "_wprefixSynth",
          "type": "string"
        }
      ],
      "name": "exchangeXDUSDForSynths",
      "outputs": [
        {
          "internalType": "uint256",
          "name": "",
          "type": "uint256"
        }
      ],
      "stateMutability": "nonpayable",
      "type": "function"
    },
    {
      "inputs": [
        {
          "internalType": "address",
          "name": "",
          "type": "address"
        },
        {
          "internalType": "string",
          "name": "",
          "type": "string"
        }
      ],
      "name": "exchanges",
      "outputs": [
        {
          "internalType": "address",
          "name": "user",
          "type": "address"
        },
        {
          "internalType": "uint256",
          "name": "xdUsdDeposit",
          "type": "uint256"
        },
        {
          "internalType": "uint256",
          "name": "synthsExchanged",
          "type": "uint256"
        },
        {
          "internalType": "address",
          "name": "currencyAddress",
          "type": "address"
        },
        {
          "internalType": "uint256",
          "name": "exchangedOn",
          "type": "uint256"
        }
      ],
      "stateMutability": "view",
      "type": "function"
    },
    {
      "inputs": [
        {
          "internalType": "bytes32",
          "name": "_name",
          "type": "bytes32"
        }
      ],
      "name": "fetchAddress",
      "outputs": [
        {
          "internalType": "address",
          "name": "",
          "type": "address"
        }
      ],
      "stateMutability": "view",
      "type": "function"
    },
    {
      "inputs": [],
      "name": "minimumXDUSDDepositAmount",
      "outputs": [
        {
          "internalType": "uint256",
          "name": "",
          "type": "uint256"
        }
      ],
      "stateMutability": "view",
      "type": "function"
    },
    {
      "inputs": [
        {
          "internalType": "address",
          "name": "",
          "type": "address"
        }
      ],
      "name": "mintr",
      "outputs": [
        {
          "internalType": "uint256",
          "name": "",
          "type": "uint256"
        }
      ],
      "stateMutability": "view",
      "type": "function"
    },
    {
      "inputs": [
        {
          "internalType": "bytes32",
          "name": "_name",
          "type": "bytes32"
        }
      ],
      "name": "requireAndGetAddress",
      "outputs": [
        {
          "internalType": "address",
          "name": "",
          "type": "address"
        }
      ],
      "stateMutability": "view",
      "type": "function"
    },
    {
      "inputs": [
        {
          "internalType": "uint256",
          "name": "_minDeposit",
          "type": "uint256"
        }
      ],
      "name": "setMinDepositForXDUSD",
      "outputs": [],
      "stateMutability": "nonpayable",
      "type": "function"
    },
    {
      "inputs": [
        {
          "internalType": "bytes32",
          "name": "_name",
          "type": "bytes32"
        },
        {
          "internalType": "address",
          "name": "_destination",
          "type": "address"
        }
      ],
      "name": "updateCache",
      "outputs": [],
      "stateMutability": "nonpayable",
      "type": "function"
    },
    {
      "inputs": [
        {
          "internalType": "string",
          "name": "_name",
          "type": "string"
        },
        {
          "internalType": "address",
          "name": "_destination",
          "type": "address"
        }
      ],
      "name": "updateExchangeKeyAddress",
      "outputs": [],
      "stateMutability": "nonpayable",
      "type": "function"
    }
  ],
  "bytecode": "0x6080604052670de0b6b3a764000060045534801561001c57600080fd5b5060018054336001600160a01b031991821681179092556003805490911690911790556111ab8061004e6000396000f3fe608060405234801561001057600080fd5b50600436106101005760003560e01c8063aeb5ff3711610097578063d6ea7b3b11610066578063d6ea7b3b146102cc578063dc675a65146102ec578063f187574414610315578063f1efc5d91461034057600080fd5b8063aeb5ff3714610293578063b2bdfa7b146102a6578063c2e7df21146101d3578063ce606ee0146102b957600080fd5b8063493904fc116100d3578063493904fc146101fe578063614d08f81461023257806388a842eb1461026d5780639671e2801461028057600080fd5b80630307e5f3146101055780632ebb547f1461012157806330cdd4da146101be57806346bcb49d146101d3575b600080fd5b61010e60045481565b6040519081526020015b60405180910390f35b61018761012f366004610e17565b60066020908152600092835260409092208151808301840180519281529084019290930191909120915280546001820154600283015460038401546004909401546001600160a01b0393841694929391929091169085565b604080516001600160a01b03968716815260208101959095528401929092529092166060820152608081019190915260a001610118565b6101d16101cc366004610f01565b610353565b005b6101e66101e1366004610e83565b6103ca565b6040516001600160a01b039091168152602001610118565b6101e661020c366004610ec6565b80516020818301810180516005825292820191909301209152546001600160a01b031681565b6102606040518060400160405280600f81526020016e20b2323932b9b9a932b9b7b63b32b960891b81525081565b604051610118919061107b565b6101d161027b366004610e83565b610444565b61010e61028e366004610f5c565b6104a9565b61010e6102a1366004610fd7565b61062f565b6001546101e6906001600160a01b031681565b6003546101e6906001600160a01b031681565b61010e6102da366004610dfd565b60026020526000908152604090205481565b6101e66102fa366004610e83565b6000602081905290815260409020546001600160a01b031681565b6102606040518060400160405280600c81526020016b5853796e45786368616e676560a01b81525081565b6101d161034e366004610e9b565b6106d3565b6003546001600160a01b031633146103865760405162461bcd60e51b815260040161037d9061108e565b60405180910390fd5b806005836040516103979190611032565b90815260405190819003602001902080546001600160a01b03929092166001600160a01b03199092169190911790555050565b60008181526020818152604080832054905170026b4b9b9b4b7339030b2323932b9b99d1607d1b92810192909252603182018490526001600160a01b031690811515906051016040516020818303038152906040529061043d5760405162461bcd60e51b815260040161037d919061107b565b5092915050565b6003546001600160a01b0316331461046e5760405162461bcd60e51b815260040161037d9061108e565b60048190556040518181527fa39eacd162ee82c70b2b030a1bc8fe89adcccc61122fad4821a8772dbcc542679060200160405180910390a150565b600060045485101561051c5760405162461bcd60e51b815260206004820152603660248201527f584455534420616d6f756e742053686f756c64206265206d696e696d756d58446044820152751554d111195c1bdcda5d105b5bdd5b9d081b1a5b5a5d60521b606482015260840161037d565b61056c3360056040518060400160405280600581526020016416111554d160da1b81525060405161054d9190611032565b908152604051908190036020019020546001600160a01b031687610789565b6105bc3360056040518060400160405280600581526020016416111554d160da1b81525060405161059d9190611032565b908152604051908190036020019020546001600160a01b03168761086c565b60006105c8868561062f565b90506106198660056040518060400160405280600581526020016416111554d160da1b8152506040516105fb9190611032565b908152604051908190036020019020546001600160a01b031661094a565b610625818787866109d0565b9695505050505050565b60008061063a610bf6565b6001600160a01b031663a40b18c2846040518263ffffffff1660e01b8152600401610665919061107b565b60206040518083038186803b15801561067d57600080fd5b505afa158015610691573d6000803e3d6000fd5b505050506040513d601f19601f820116820180604052508101906106b59190610f44565b905060006106c582612710610c4a565b905060006106258683610c4a565b6001546001600160a01b031633146107255760405162461bcd60e51b81526020600482015260156024820152746f6e6c79206f776e65722063616e2075706461746560581b604482015260640161037d565b6000828152602081815260409182902080546001600160a01b0319166001600160a01b0385169081179091558251858152918201527f88a93678a3692f6789d9546fc621bf7234b101ddb7d4fe479455112831b8aa68910160405180910390a15050565b6040516370a0823160e01b81526001600160a01b0384811660048301528291908416906370a082319060240160206040518083038186803b1580156107cd57600080fd5b505afa1580156107e1573d6000803e3d6000fd5b505050506040513d601f19601f820116820180604052508101906108059190610f44565b10156108675760405162461bcd60e51b815260206004820152602b60248201527f5852433230476174657761793a20696e73756666696369656e7420637572726560448201526a6e63792062616c616e636560a81b606482015260840161037d565b505050565b604051636eb1769f60e11b81526001600160a01b03848116600483015230602483015282919084169063dd62ed3e9060440160206040518083038186803b1580156108b657600080fd5b505afa1580156108ca573d6000803e3d6000fd5b505050506040513d601f19601f820116820180604052508101906108ee9190610f44565b10156108675760405162461bcd60e51b815260206004820152602560248201527f5852433230476174657761793a20696e73756666696369656e7420616c6c6f7760448201526430b731b29760d91b606482015260840161037d565b6040516323b872dd60e01b8152336004820152306024820152604481018390526001600160a01b038216906323b872dd90606401602060405180830381600087803b15801561099857600080fd5b505af11580156109ac573d6000803e3d6000fd5b505050506040513d601f19601f820116820180604052508101906108679190610e63565b3360009081526006602052604080822090518291906109f0908590611032565b908152604080516020928190038301812060a08201835280546001600160a01b03908116835260018201549483018590526002820154938301939093526003810154909216606082015260049091015460808201529150600090610a549087610c93565b90506000610a6f888460400151610c9390919063ffffffff16565b6040805160a0810182523380825260208083018790528284018590526001600160a01b038b166060840152426080840152600091825260069052829020915192935091610abd908890611032565b9081526040805160209281900383019020835181546001600160a01b03199081166001600160a01b039283161783559385015160018301559184015160028201556060840151600382018054909416921691909117909155608090910151600490910155610b2a85610cf2565b6040516340c10f1960e01b8152336004820152602481018a90526001600160a01b0391909116906340c10f1990604401602060405180830381600087803b158015610b7457600080fd5b505af1158015610b88573d6000803e3d6000fd5b505050506040513d601f19601f82011682018060405250810190610bac9190610e63565b507f47100f00640ae8015934184e269ba71e299d3b1202b74f06cb441584803cbd6d33888a88604051610be2949392919061104e565b60405180910390a150959695505050505050565b600060056040518060400160405280600c81526020016b45584348414e47455241544560a01b815250604051610c2c9190611032565b908152604051908190036020019020546001600160a01b0316919050565b6000610c8c83836040518060400160405280601a81526020017f536166654d6174683a206469766973696f6e206279207a65726f000000000000815250610d23565b9392505050565b600080610ca083856110eb565b905083811015610c8c5760405162461bcd60e51b815260206004820152601b60248201527f536166654d6174683a206164646974696f6e206f766572666c6f770000000000604482015260640161037d565b6000600582604051610d049190611032565b908152604051908190036020019020546001600160a01b031692915050565b60008183610d445760405162461bcd60e51b815260040161037d919061107b565b506000610d51848661110f565b95945050505050565b80356001600160a01b0381168114610d7157600080fd5b919050565b600082601f830112610d86578081fd5b813567ffffffffffffffff80821115610da157610da161115f565b604051601f8301601f19908116603f01168101908282118183101715610dc957610dc961115f565b81604052838152866020858801011115610de1578485fd5b8360208701602083013792830160200193909352509392505050565b600060208284031215610e0e578081fd5b610c8c82610d5a565b60008060408385031215610e29578081fd5b610e3283610d5a565b9150602083013567ffffffffffffffff811115610e4d578182fd5b610e5985828601610d76565b9150509250929050565b600060208284031215610e74578081fd5b81518015158114610c8c578182fd5b600060208284031215610e94578081fd5b5035919050565b60008060408385031215610ead578182fd5b82359150610ebd60208401610d5a565b90509250929050565b600060208284031215610ed7578081fd5b813567ffffffffffffffff811115610eed578182fd5b610ef984828501610d76565b949350505050565b60008060408385031215610f13578182fd5b823567ffffffffffffffff811115610f29578283fd5b610f3585828601610d76565b925050610ebd60208401610d5a565b600060208284031215610f55578081fd5b5051919050565b60008060008060808587031215610f71578182fd5b84359350610f8160208601610d5a565b9250604085013567ffffffffffffffff80821115610f9d578384fd5b610fa988838901610d76565b93506060870135915080821115610fbe578283fd5b50610fcb87828801610d76565b91505092959194509250565b60008060408385031215610fe9578182fd5b82359150602083013567ffffffffffffffff811115610e4d578182fd5b6000815180845261101e81602086016020860161112f565b601f01601f19169290920160200192915050565b6000825161104481846020870161112f565b9190910192915050565b60018060a01b03851681528360208201528260408201526080606082015260006106256080830184611006565b602081526000610c8c6020830184611006565b6020808252603e908201527f5853796e45786368616e67653a204f6e6c7920417574686f72697a656420576160408201527f6c6c65742063616e20706572666f722074686973206f7065726174696f6e0000606082015260800190565b6000821982111561110a57634e487b7160e01b81526011600452602481fd5b500190565b60008261112a57634e487b7160e01b81526012600452602481fd5b500490565b60005b8381101561114a578181015183820152602001611132565b83811115611159576000848401525b50505050565b634e487b7160e01b600052604160045260246000fdfea2646970667358221220432f9296e842dbd9fe944a50fc1fc08ff3dd4e4d1d3d71ff1ac503206817e45764736f6c63430008040033",
  "linkReferences": {},
  "deployedLinkReferences": {}
}