{
  "_format": "hh-sol-artifact-1",
  "contractName": "XSynExchange",
  "sourceName": "contracts/XSynExchange.sol",
  "abi": [
    {
      "inputs": [],
      "stateMutability": "nonpayable",
      "type": "constructor"
    },
    {
      "anonymous": false,
      "inputs": [
        {
          "indexed": false,
          "internalType": "string",
          "name": "name",
          "type": "string"
        },
        {
          "indexed": false,
          "internalType": "address",
          "name": "destination",
          "type": "address"
        }
      ],
      "name": "CacheUpdated",
      "type": "event"
    },
    {
      "anonymous": false,
      "inputs": [
        {
          "indexed": false,
          "internalType": "uint256",
          "name": "amount",
          "type": "uint256"
        }
      ],
      "name": "MinimumDepositAmountUpdated",
      "type": "event"
    },
    {
      "inputs": [],
      "name": "CONTRACTNAME",
      "outputs": [
        {
          "internalType": "string",
          "name": "",
          "type": "string"
        }
      ],
      "stateMutability": "view",
      "type": "function"
    },
    {
      "inputs": [],
      "name": "CONTRACT_NAME",
      "outputs": [
        {
          "internalType": "string",
          "name": "",
          "type": "string"
        }
      ],
      "stateMutability": "view",
      "type": "function"
    },
    {
      "inputs": [],
      "name": "_owner",
      "outputs": [
        {
          "internalType": "address",
          "name": "",
          "type": "address"
        }
      ],
      "stateMutability": "view",
      "type": "function"
    },
    {
      "inputs": [
        {
          "internalType": "string",
          "name": "",
          "type": "string"
        }
      ],
      "name": "addressCache",
      "outputs": [
        {
          "internalType": "address",
          "name": "",
          "type": "address"
        }
      ],
      "stateMutability": "view",
      "type": "function"
    },
    {
      "inputs": [],
      "name": "contractOwner",
      "outputs": [
        {
          "internalType": "address",
          "name": "",
          "type": "address"
        }
      ],
      "stateMutability": "view",
      "type": "function"
    },
    {
      "inputs": [
        {
          "internalType": "uint256",
          "name": "_amount",
          "type": "uint256"
        },
        {
          "internalType": "address",
          "name": "_preferredSynthAddress",
          "type": "address"
        },
        {
          "internalType": "string",
          "name": "_preferredSynthSymbol",
          "type": "string"
        }
      ],
      "name": "exchangeXDUSDForSynths",
      "outputs": [
        {
          "internalType": "uint256",
          "name": "",
          "type": "uint256"
        }
      ],
      "stateMutability": "nonpayable",
      "type": "function"
    },
    {
      "inputs": [
        {
          "internalType": "address",
          "name": "",
          "type": "address"
        },
        {
          "internalType": "string",
          "name": "",
          "type": "string"
        }
      ],
      "name": "exchanges",
      "outputs": [
        {
          "internalType": "address payable",
          "name": "user",
          "type": "address"
        },
        {
          "internalType": "uint256",
          "name": "xdUsdDeposit",
          "type": "uint256"
        },
        {
          "internalType": "uint256",
          "name": "synthsExchanged",
          "type": "uint256"
        },
        {
          "internalType": "address",
          "name": "currencyAddress",
          "type": "address"
        },
        {
          "internalType": "uint256",
          "name": "exchangedOn",
          "type": "uint256"
        }
      ],
      "stateMutability": "view",
      "type": "function"
    },
    {
      "inputs": [],
      "name": "minimumXDUSDDepositAmount",
      "outputs": [
        {
          "internalType": "uint256",
          "name": "",
          "type": "uint256"
        }
      ],
      "stateMutability": "view",
      "type": "function"
    },
    {
      "inputs": [
        {
          "internalType": "address",
          "name": "",
          "type": "address"
        }
      ],
      "name": "mintr",
      "outputs": [
        {
          "internalType": "uint256",
          "name": "",
          "type": "uint256"
        }
      ],
      "stateMutability": "view",
      "type": "function"
    },
    {
      "inputs": [
        {
          "internalType": "uint256",
          "name": "_minDeposit",
          "type": "uint256"
        }
      ],
      "name": "setMinDepositForXDUSD",
      "outputs": [],
      "stateMutability": "nonpayable",
      "type": "function"
    },
    {
      "inputs": [
        {
          "internalType": "string",
          "name": "_name",
          "type": "string"
        },
        {
          "internalType": "address",
          "name": "_destination",
          "type": "address"
        }
      ],
      "name": "updateCache",
      "outputs": [],
      "stateMutability": "nonpayable",
      "type": "function"
    },
    {
      "stateMutability": "payable",
      "type": "receive"
    }
  ],
  "bytecode": "0x60806040819052630241ebdb60e61b815273__$62ad3b859263eea2f18e8dce157c4af92c$__9063907af6c09060849060209060048186803b15801561004457600080fd5b505af4158015610058573d6000803e3d6000fd5b505050506040513d601f19601f8201168201806040525081019061007c91906100be565b6100879060326100d6565b60045534801561009657600080fd5b5060018054336001600160a01b03199182168117909255600380549091169091179055610101565b6000602082840312156100cf578081fd5b5051919050565b60008160001904831182151516156100fc57634e487b7160e01b81526011600452602481fd5b500290565b61121b806101106000396000f3fe6080604052600436106100a05760003560e01c8063a4b19d0111610064578063a4b19d0114610209578063b2bdfa7b14610262578063ce606ee014610282578063d6ea7b3b146102a2578063f1875744146102cf578063fc6f4c1b1461030757600080fd5b80630307e5f3146100ac5780632ebb547f146100d5578063614d08f81461017f57806378cd7fa1146101c757806388a842eb146101e757600080fd5b366100a757005b600080fd5b3480156100b857600080fd5b506100c260045481565b6040519081526020015b60405180910390f35b3480156100e157600080fd5b506101486100f0366004610dab565b60056020908152600092835260409092208151808301840180519281529084019290930191909120915280546001820154600283015460038401546004909401546001600160a01b0393841694929391929091169085565b604080516001600160a01b03968716815260208101959095528401929092529092166060820152608081019190915260a0016100cc565b34801561018b57600080fd5b506101ba6040518060400160405280600f81526020016e20b2323932b9b9a932b9b7b63b32b960891b81525081565b6040516100cc9190610fd1565b3480156101d357600080fd5b506100c26101e2366004610ece565b610327565b3480156101f357600080fd5b50610207610202366004610eb6565b610560565b005b34801561021557600080fd5b5061024a610224366004610e2f565b80516020818301810180516000825292820191909301209152546001600160a01b031681565b6040516001600160a01b0390911681526020016100cc565b34801561026e57600080fd5b5060015461024a906001600160a01b031681565b34801561028e57600080fd5b5060035461024a906001600160a01b031681565b3480156102ae57600080fd5b506100c26102bd366004610d91565b60026020526000908152604090205481565b3480156102db57600080fd5b506101ba6040518060400160405280600c81526020016b5853796e45786368616e676560a01b81525081565b34801561031357600080fd5b50610207610322366004610e6a565b61059b565b600060045484101561039f5760405162461bcd60e51b815260206004820152603660248201527f584455534420616d6f756e742053686f756c64206265206d696e696d756d58446044820152751554d111195c1bdcda5d105b5bdd5b9d081b1a5b5a5d60521b60648201526084015b60405180910390fd5b60006103a9610669565b6001600160a01b031663d7a356be846040518263ffffffff1660e01b81526004016103d4919061100e565b602060405180830381600087803b1580156103ee57600080fd5b505af1158015610402573d6000803e3d6000fd5b505050506040513d601f19601f820116820180604052508101906104269190610e17565b905060006104b9610435610669565b6001600160a01b031663dd953fb0846040518263ffffffff1660e01b815260040161046291815260200190565b60206040518083038186803b15801561047a57600080fd5b505afa15801561048e573d6000803e3d6000fd5b505050506040513d601f19601f820116820180604052508101906104b29190610e17565b879061069d565b90506104eb336104e56040518060400160405280600581526020016416111554d160da1b8152506106c8565b8861073b565b61051b336105156040518060400160405280600581526020016416111554d160da1b8152506106c8565b8861081e565b61054a866105456040518060400160405280600581526020016416111554d160da1b8152506106c8565b6108fc565b61055681878688610982565b9695505050505050565b60048190556040518181527fa39eacd162ee82c70b2b030a1bc8fe89adcccc61122fad4821a8772dbcc542679060200160405180910390a150565b6001546001600160a01b031633146105ed5760405162461bcd60e51b81526020600482015260156024820152746f6e6c79206f776e65722063616e2075706461746560581b6044820152606401610396565b806000836040516105fe9190610f4f565b90815260405190819003602001812080546001600160a01b03939093166001600160a01b0319909316929092179091557f0f721ab865154f222f0053098fb6752276624e5310bcb2bb9269d205ece331d59061065d9084908490610fe4565b60405180910390a15050565b60006106986040518060400160405280600c81526020016b45584348414e47455241544560a01b8152506106c8565b905090565b60006106ab6012600a6110c2565b6106b58484610bd6565b6106bf919061105f565b90505b92915050565b6000806000836040516106db9190610f4f565b90815260405160209181900382018120546001600160a01b031692508215159161070791869101610f6b565b604051602081830303815290604052906107345760405162461bcd60e51b81526004016103969190610fd1565b5092915050565b6040516370a0823160e01b81526001600160a01b0384811660048301528291908416906370a082319060240160206040518083038186803b15801561077f57600080fd5b505afa158015610793573d6000803e3d6000fd5b505050506040513d601f19601f820116820180604052508101906107b79190610e17565b10156108195760405162461bcd60e51b815260206004820152602b60248201527f5852433230476174657761793a20696e73756666696369656e7420637572726560448201526a6e63792062616c616e636560a81b6064820152608401610396565b505050565b604051636eb1769f60e11b81526001600160a01b03848116600483015230602483015282919084169063dd62ed3e9060440160206040518083038186803b15801561086857600080fd5b505afa15801561087c573d6000803e3d6000fd5b505050506040513d601f19601f820116820180604052508101906108a09190610e17565b10156108195760405162461bcd60e51b815260206004820152602560248201527f5852433230476174657761793a20696e73756666696369656e7420616c6c6f7760448201526430b731b29760d91b6064820152608401610396565b6040516323b872dd60e01b8152336004820152306024820152604481018390526001600160a01b038216906323b872dd90606401602060405180830381600087803b15801561094a57600080fd5b505af115801561095e573d6000803e3d6000fd5b505050506040513d601f19601f820116820180604052508101906108199190610df7565b3360009081526005602052604080822090518291906109a2908690610f4f565b908152604080516020928190038301812060a08201835280546001600160a01b03908116835260018201549483018590526002820154938301939093526003810154909216606082015260049091015460808201529150600090610a069087610c55565b90506000610a21888460400151610c5590919063ffffffff16565b6040805160a0810182523380825260208083018790528284018590526001600160a01b038a166060840152426080840152600091825260059052829020915192935091610a6f908990610f4f565b9081526040805160209281900383019020835181546001600160a01b03199081166001600160a01b039283161783559385015160018301559184015160028201556060840151600382018054909416921691909117909155608090910151600490910155610adc86610cb4565b6040516340c10f1960e01b8152336004820152602481018a90526001600160a01b0391909116906340c10f1990604401602060405180830381600087803b158015610b2657600080fd5b505af1158015610b3a573d6000803e3d6000fd5b505050506040513d601f19601f82011682018060405250810190610b5e9190610df7565b50610b67610cbf565b6001600160a01b031663c982e66f33898b8a6040518563ffffffff1660e01b8152600401610b989493929190610fa4565b600060405180830381600087803b158015610bb257600080fd5b505af1158015610bc6573d6000803e3d6000fd5b50999a9950505050505050505050565b600082610be5575060006106c2565b6000610bf1838561116a565b905082610bfe858361105f565b146106bf5760405162461bcd60e51b815260206004820152602160248201527f536166654d6174683a206d756c7469706c69636174696f6e206f766572666c6f6044820152607760f81b6064820152608401610396565b600080610c628385611047565b9050838110156106bf5760405162461bcd60e51b815260206004820152601b60248201527f536166654d6174683a206164646974696f6e206f766572666c6f7700000000006044820152606401610396565b60006106c2826106c8565b60006106986040518060400160405280600c81526020016b1614de5b941c9bdd1bd8dbdb60a21b8152506106c8565b80356001600160a01b0381168114610d0557600080fd5b919050565b600082601f830112610d1a578081fd5b813567ffffffffffffffff80821115610d3557610d356111cf565b604051601f8301601f19908116603f01168101908282118183101715610d5d57610d5d6111cf565b81604052838152866020858801011115610d75578485fd5b8360208701602083013792830160200193909352509392505050565b600060208284031215610da2578081fd5b6106bf82610cee565b60008060408385031215610dbd578081fd5b610dc683610cee565b9150602083013567ffffffffffffffff811115610de1578182fd5b610ded85828601610d0a565b9150509250929050565b600060208284031215610e08578081fd5b815180151581146106bf578182fd5b600060208284031215610e28578081fd5b5051919050565b600060208284031215610e40578081fd5b813567ffffffffffffffff811115610e56578182fd5b610e6284828501610d0a565b949350505050565b60008060408385031215610e7c578182fd5b823567ffffffffffffffff811115610e92578283fd5b610e9e85828601610d0a565b925050610ead60208401610cee565b90509250929050565b600060208284031215610ec7578081fd5b5035919050565b600080600060608486031215610ee2578081fd5b83359250610ef260208501610cee565b9150604084013567ffffffffffffffff811115610f0d578182fd5b610f1986828701610d0a565b9150509250925092565b60008151808452610f3b816020860160208601611189565b601f01601f19169290920160200192915050565b60008251610f61818460208701611189565b9190910192915050565b70026b4b9b9b4b7339030b2323932b9b99d1607d1b815260008251610f97816011850160208701611189565b9190910160110192915050565b60018060a01b03851681528360208201528260408201526080606082015260006105566080830184610f23565b6020815260006106bf6020830184610f23565b604081526000610ff76040830185610f23565b905060018060a01b03831660208301529392505050565b6040815260006110216040830184610f23565b828103602084015260048152631554d11560e21b60208201526040810191505092915050565b6000821982111561105a5761105a6111b9565b500190565b60008261107a57634e487b7160e01b81526012600452602481fd5b500490565b600181815b808511156110ba5781600019048211156110a0576110a06111b9565b808516156110ad57918102915b93841c9390800290611084565b509250929050565b60006106bf83836000826110d8575060016106c2565b816110e5575060006106c2565b81600181146110fb576002811461110557611121565b60019150506106c2565b60ff841115611116576111166111b9565b50506001821b6106c2565b5060208310610133831016604e8410600b8410161715611144575081810a6106c2565b61114e838361107f565b8060001904821115611162576111626111b9565b029392505050565b6000816000190483118215151615611184576111846111b9565b500290565b60005b838110156111a457818101518382015260200161118c565b838111156111b3576000848401525b50505050565b634e487b7160e01b600052601160045260246000fd5b634e487b7160e01b600052604160045260246000fdfea2646970667358221220daa4624f235f3b2286b9f5253ae2cdbd5a377fcbcacf667bf0e102c5c64bbcfe64736f6c63430008040033",
  "linkReferences": {
    "contracts/utils/SafeDecimalMath.sol": {
      "SafeDecimalMath": [
        {
          "length": 20,
          "start": 18
        }
      ]
    }
  },
  "deployedLinkReferences": {}
}