{
  "_format": "hh-sol-artifact-1",
  "contractName": "XSynExchange",
  "sourceName": "contracts/XSynExchange.sol",
  "abi": [
    {
      "inputs": [],
      "stateMutability": "nonpayable",
      "type": "constructor"
    },
    {
      "anonymous": false,
      "inputs": [
        {
          "indexed": false,
          "internalType": "bytes32",
          "name": "name",
          "type": "bytes32"
        },
        {
          "indexed": false,
          "internalType": "address",
          "name": "destination",
          "type": "address"
        }
      ],
      "name": "CacheUpdated",
      "type": "event"
    },
    {
      "anonymous": false,
      "inputs": [
        {
          "indexed": false,
          "internalType": "uint256",
          "name": "amount",
          "type": "uint256"
        }
      ],
      "name": "MinimumDepositAmountUpdated",
      "type": "event"
    },
    {
      "anonymous": false,
      "inputs": [
        {
          "indexed": false,
          "internalType": "address",
          "name": "_user",
          "type": "address"
        },
        {
          "indexed": false,
          "internalType": "uint256",
          "name": "_xdusdAmt",
          "type": "uint256"
        },
        {
          "indexed": false,
          "internalType": "uint256",
          "name": "_synthsToMint",
          "type": "uint256"
        },
        {
          "indexed": false,
          "internalType": "string",
          "name": "_wprefixSynth",
          "type": "string"
        }
      ],
      "name": "updatedebt",
      "type": "event"
    },
    {
      "inputs": [],
      "name": "CONTRACTNAME",
      "outputs": [
        {
          "internalType": "string",
          "name": "",
          "type": "string"
        }
      ],
      "stateMutability": "view",
      "type": "function"
    },
    {
      "inputs": [],
      "name": "CONTRACT_NAME",
      "outputs": [
        {
          "internalType": "string",
          "name": "",
          "type": "string"
        }
      ],
      "stateMutability": "view",
      "type": "function"
    },
    {
      "inputs": [],
      "name": "_owner",
      "outputs": [
        {
          "internalType": "address",
          "name": "",
          "type": "address"
        }
      ],
      "stateMutability": "view",
      "type": "function"
    },
    {
      "inputs": [
        {
          "internalType": "bytes32",
          "name": "",
          "type": "bytes32"
        }
      ],
      "name": "addressCache",
      "outputs": [
        {
          "internalType": "address",
          "name": "",
          "type": "address"
        }
      ],
      "stateMutability": "view",
      "type": "function"
    },
    {
      "inputs": [
        {
          "internalType": "uint256",
          "name": "_units",
          "type": "uint256"
        },
        {
          "internalType": "string",
          "name": "_symbol",
          "type": "string"
        }
      ],
      "name": "calculateUnits",
      "outputs": [
        {
          "internalType": "uint256",
          "name": "",
          "type": "uint256"
        }
      ],
      "stateMutability": "view",
      "type": "function"
    },
    {
      "inputs": [],
      "name": "contractOwner",
      "outputs": [
        {
          "internalType": "address",
          "name": "",
          "type": "address"
        }
      ],
      "stateMutability": "view",
      "type": "function"
    },
    {
      "inputs": [
        {
          "internalType": "uint256",
          "name": "_amount",
          "type": "uint256"
        },
        {
          "internalType": "address",
          "name": "_preferredSynthAddress",
          "type": "address"
        },
        {
          "internalType": "string",
          "name": "_woprefixSynth",
          "type": "string"
        },
        {
          "internalType": "string",
          "name": "_wprefixSynth",
          "type": "string"
        }
      ],
      "name": "exchangeXDUSDForSynths",
      "outputs": [
        {
          "internalType": "uint256",
          "name": "",
          "type": "uint256"
        }
      ],
      "stateMutability": "nonpayable",
      "type": "function"
    },
    {
      "inputs": [
        {
          "internalType": "address",
          "name": "",
          "type": "address"
        },
        {
          "internalType": "string",
          "name": "",
          "type": "string"
        }
      ],
      "name": "exchanges",
      "outputs": [
        {
          "internalType": "address",
          "name": "user",
          "type": "address"
        },
        {
          "internalType": "uint256",
          "name": "xdUsdDeposit",
          "type": "uint256"
        },
        {
          "internalType": "uint256",
          "name": "synthsExchanged",
          "type": "uint256"
        },
        {
          "internalType": "address",
          "name": "currencyAddress",
          "type": "address"
        },
        {
          "internalType": "uint256",
          "name": "exchangedOn",
          "type": "uint256"
        }
      ],
      "stateMutability": "view",
      "type": "function"
    },
    {
      "inputs": [
        {
          "internalType": "bytes32",
          "name": "_name",
          "type": "bytes32"
        }
      ],
      "name": "fetchAddress",
      "outputs": [
        {
          "internalType": "address",
          "name": "",
          "type": "address"
        }
      ],
      "stateMutability": "view",
      "type": "function"
    },
    {
      "inputs": [],
      "name": "fetchPrices",
      "outputs": [
        {
          "components": [
            {
              "internalType": "uint256",
              "name": "_tokenId",
              "type": "uint256"
            },
            {
              "internalType": "string",
              "name": "Symbol",
              "type": "string"
            },
            {
              "internalType": "string",
              "name": "woPrefix",
              "type": "string"
            },
            {
              "internalType": "uint256",
              "name": "currentprice",
              "type": "uint256"
            },
            {
              "internalType": "address",
              "name": "TokenAddress",
              "type": "address"
            }
          ],
          "internalType": "struct XSynExchange.SupportTokens[]",
          "name": "",
          "type": "tuple[]"
        }
      ],
      "stateMutability": "view",
      "type": "function"
    },
    {
      "inputs": [],
      "name": "minimumXDUSDDepositAmount",
      "outputs": [
        {
          "internalType": "uint256",
          "name": "",
          "type": "uint256"
        }
      ],
      "stateMutability": "view",
      "type": "function"
    },
    {
      "inputs": [
        {
          "internalType": "address",
          "name": "",
          "type": "address"
        }
      ],
      "name": "mintr",
      "outputs": [
        {
          "internalType": "uint256",
          "name": "",
          "type": "uint256"
        }
      ],
      "stateMutability": "view",
      "type": "function"
    },
    {
      "inputs": [
        {
          "internalType": "bytes32",
          "name": "_name",
          "type": "bytes32"
        }
      ],
      "name": "requireAndGetAddress",
      "outputs": [
        {
          "internalType": "address",
          "name": "",
          "type": "address"
        }
      ],
      "stateMutability": "view",
      "type": "function"
    },
    {
      "inputs": [
        {
          "internalType": "uint256",
          "name": "_minDeposit",
          "type": "uint256"
        }
      ],
      "name": "setMinDepositForXDUSD",
      "outputs": [],
      "stateMutability": "nonpayable",
      "type": "function"
    },
    {
      "inputs": [
        {
          "internalType": "string",
          "name": "",
          "type": "string"
        }
      ],
      "name": "supportedAddress",
      "outputs": [
        {
          "internalType": "address",
          "name": "",
          "type": "address"
        }
      ],
      "stateMutability": "view",
      "type": "function"
    },
    {
      "inputs": [
        {
          "internalType": "bytes32",
          "name": "_name",
          "type": "bytes32"
        },
        {
          "internalType": "address",
          "name": "_destination",
          "type": "address"
        }
      ],
      "name": "updateCache",
      "outputs": [],
      "stateMutability": "nonpayable",
      "type": "function"
    },
    {
      "inputs": [
        {
          "internalType": "string",
          "name": "_name",
          "type": "string"
        },
        {
          "internalType": "string",
          "name": "_woPrefix",
          "type": "string"
        },
        {
          "internalType": "address",
          "name": "_destination",
          "type": "address"
        }
      ],
      "name": "updateSupportedTokens",
      "outputs": [],
      "stateMutability": "nonpayable",
      "type": "function"
    }
  ],
  "bytecode": "0x6080604052670de0b6b3a764000060055534801561001c57600080fd5b5060018054336001600160a01b031991821681179092556004805490911690911790556100546002610059602090811b610bc517901c565b610062565b80546001019055565b611993806100716000396000f3fe608060405234801561001057600080fd5b506004361061010b5760003560e01c8063b2bdfa7b116100a2578063ce606ee011610071578063ce606ee0146102d9578063d6ea7b3b146102ec578063dc675a651461030c578063f187574414610335578063f1efc5d91461036057600080fd5b8063b2bdfa7b1461027d578063b7eeefd714610290578063c2e7df21146101de578063c5460d84146102c457600080fd5b8063614d08f8116100de578063614d08f81461020957806388a842eb146102445780639671e28014610257578063aeb5ff371461026a57600080fd5b80630307e5f31461011057806326df05401461012c5780632ebb547f1461014157806346bcb49d146101de575b600080fd5b61011960055481565b6040519081526020015b60405180910390f35b61013f61013a3660046114d2565b610373565b005b6101a761014f3660046113e8565b60086020908152600092835260409092208151808301840180519281529084019290930191909120915280546001820154600283015460038401546004909401546001600160a01b0393841694929391929091169085565b604080516001600160a01b03968716815260208101959095528401929092529092166060820152608081019190915260a001610123565b6101f16101ec366004611454565b6104b1565b6040516001600160a01b039091168152602001610123565b6102376040518060400160405280600f81526020016e20b2323932b9b9a932b9b7b63b32b960891b81525081565b6040516101239190611727565b61013f610252366004611454565b61052b565b61011961026536600461155b565b610590565b6101196102783660046115d6565b610717565b6001546101f1906001600160a01b031681565b6101f161029e366004611497565b80516020818301810180516006825292820191909301209152546001600160a01b031681565b6102cc6107c7565b604051610123919061167a565b6004546101f1906001600160a01b031681565b6101196102fa3660046113ce565b60036020526000908152604090205481565b6101f161031a366004611454565b6000602081905290815260409020546001600160a01b031681565b6102376040518060400160405280600c81526020016b5853796e45786368616e676560a01b81525081565b61013f61036e36600461146c565b610b0f565b6004546001600160a01b031633146103a65760405162461bcd60e51b815260040161039d906117e0565b60405180910390fd5b60006103b160025490565b90506103c1600280546001019055565b6040805160a08101825282815260208082018781528284018790526000606084018190526001600160a01b03871660808501528581526007835293909320825181559251805192939261041a9260018501920190611292565b5060408201518051610436916002840191602090910190611292565b5060608201516003820155608090910151600490910180546001600160a01b0319166001600160a01b03909216919091179055604051829060069061047c908790611631565b90815260405190819003602001902080546001600160a01b03929092166001600160a01b031990921691909117905550505050565b60008181526020818152604080832054905170026b4b9b9b4b7339030b2323932b9b99d1607d1b92810192909252603182018490526001600160a01b03169081151590605101604051602081830303815290604052906105245760405162461bcd60e51b815260040161039d9190611727565b5092915050565b6004546001600160a01b031633146105555760405162461bcd60e51b815260040161039d906117e0565b60058190556040518181527fa39eacd162ee82c70b2b030a1bc8fe89adcccc61122fad4821a8772dbcc542679060200160405180910390a150565b60006005548510156106035760405162461bcd60e51b815260206004820152603660248201527f584455534420616d6f756e742053686f756c64206265206d696e696d756d58446044820152751554d111195c1bdcda5d105b5bdd5b9d081b1a5b5a5d60521b606482015260840161039d565b6106533360066040518060400160405280600581526020016416111554d160da1b8152506040516106349190611631565b908152604051908190036020019020546001600160a01b031687610bce565b6106a33360066040518060400160405280600581526020016416111554d160da1b8152506040516106849190611631565b908152604051908190036020019020546001600160a01b031687610cb1565b60006106af8685610717565b90506107008660066040518060400160405280600581526020016416111554d160da1b8152506040516106e29190611631565b908152604051908190036020019020546001600160a01b0316610d8f565b61070d8187878688610e15565b9695505050505050565b60008061072261103c565b6001600160a01b031663a40b18c2846040518263ffffffff1660e01b815260040161074d9190611727565b60206040518083038186803b15801561076557600080fd5b505afa158015610779573d6000803e3d6000fd5b505050506040513d601f19601f8201168201806040525081019061079d9190611543565b905060006107ab8583611090565b905060006107bb826127106110d9565b93505050505b92915050565b606060006107df60016107d960025490565b90611158565b90506000808267ffffffffffffffff81111561080b57634e487b7160e01b600052604160045260246000fd5b60405190808252806020026020018201604052801561087757816020015b6108646040518060a001604052806000815260200160608152602001606081526020016000815260200160006001600160a01b031681525090565b8152602001906001900390816108295790505b50905060005b83811015610b0757600061089282600161183d565b90506000600760008381526020019081526020016000209050806040518060a0016040529081600082015481526020016001820180546108d1906118db565b80601f01602080910402602001604051908101604052809291908181526020018280546108fd906118db565b801561094a5780601f1061091f5761010080835404028352916020019161094a565b820191906000526020600020905b81548152906001019060200180831161092d57829003601f168201915b50505050508152602001600282018054610963906118db565b80601f016020809104026020016040519081016040528092919081815260200182805461098f906118db565b80156109dc5780601f106109b1576101008083540402835291602001916109dc565b820191906000526020600020905b8154815290600101906020018083116109bf57829003601f168201915b5050509183525050600382015460208201526004909101546001600160a01b03166040909101528451859087908110610a2557634e487b7160e01b600052603260045260246000fd5b6020026020010181905250610a3861103c565b6001600160a01b031663a40b18c2826002016040518263ffffffff1660e01b8152600401610a66919061173a565b60206040518083038186803b158015610a7e57600080fd5b505afa158015610a92573d6000803e3d6000fd5b505050506040513d601f19601f82011682018060405250810190610ab69190611543565b848681518110610ad657634e487b7160e01b600052603260045260246000fd5b602090810291909101015160600152610af060018661183d565b945050508080610aff90611916565b91505061087d565b509392505050565b6001546001600160a01b03163314610b615760405162461bcd60e51b81526020600482015260156024820152746f6e6c79206f776e65722063616e2075706461746560581b604482015260640161039d565b6000828152602081815260409182902080546001600160a01b0319166001600160a01b0385169081179091558251858152918201527f88a93678a3692f6789d9546fc621bf7234b101ddb7d4fe479455112831b8aa68910160405180910390a15050565b80546001019055565b6040516370a0823160e01b81526001600160a01b0384811660048301528291908416906370a082319060240160206040518083038186803b158015610c1257600080fd5b505afa158015610c26573d6000803e3d6000fd5b505050506040513d601f19601f82011682018060405250810190610c4a9190611543565b1015610cac5760405162461bcd60e51b815260206004820152602b60248201527f5852433230476174657761793a20696e73756666696369656e7420637572726560448201526a6e63792062616c616e636560a81b606482015260840161039d565b505050565b604051636eb1769f60e11b81526001600160a01b03848116600483015230602483015282919084169063dd62ed3e9060440160206040518083038186803b158015610cfb57600080fd5b505afa158015610d0f573d6000803e3d6000fd5b505050506040513d601f19601f82011682018060405250810190610d339190611543565b1015610cac5760405162461bcd60e51b815260206004820152602560248201527f5852433230476174657761793a20696e73756666696369656e7420616c6c6f7760448201526430b731b29760d91b606482015260840161039d565b6040516323b872dd60e01b8152336004820152306024820152604481018390526001600160a01b038216906323b872dd90606401602060405180830381600087803b158015610ddd57600080fd5b505af1158015610df1573d6000803e3d6000fd5b505050506040513d601f19601f82011682018060405250810190610cac9190611434565b336000908152600860205260408082209051829190610e35908690611631565b908152604080516020928190038301812060a08201835280546001600160a01b03908116835260018201549483018590526002820154938301939093526003810154909216606082015260049091015460808201529150600090610e99908861119a565b90506000610eb489846040015161119a90919063ffffffff16565b6040805160a0810182523380825260208083018790528284018590526001600160a01b038c166060840152426080840152600091825260089052829020915192935091610f02908990611631565b9081526040805160209281900383019020835181546001600160a01b03199081166001600160a01b039283161783559385015160018301559184015160028201556060840151600382018054909416921691909117909155608090910151600490910155610f6f866111f9565b6040516340c10f1960e01b8152336004820152602481018b90526001600160a01b0391909116906340c10f1990604401602060405180830381600087803b158015610fb957600080fd5b505af1158015610fcd573d6000803e3d6000fd5b505050506040513d601f19601f82011682018060405250810190610ff19190611434565b507f47100f00640ae8015934184e269ba71e299d3b1202b74f06cb441584803cbd6d33898b88604051611027949392919061164d565b60405180910390a15096979650505050505050565b600060066040518060400160405280600c81526020016b45584348414e47455241544560a01b8152506040516110729190611631565b908152604051908190036020019020546001600160a01b0316919050565b60006110d283836040518060400160405280601a81526020017f536166654d6174683a206469766973696f6e206279207a65726f00000000000081525061122a565b9392505050565b6000826110e8575060006107c1565b60006110f48385611875565b9050826111018583611855565b146110d25760405162461bcd60e51b815260206004820152602160248201527f536166654d6174683a206d756c7469706c69636174696f6e206f766572666c6f6044820152607760f81b606482015260840161039d565b60006110d283836040518060400160405280601e81526020017f536166654d6174683a207375627472616374696f6e206f766572666c6f770000815250611261565b6000806111a7838561183d565b9050838110156110d25760405162461bcd60e51b815260206004820152601b60248201527f536166654d6174683a206164646974696f6e206f766572666c6f770000000000604482015260640161039d565b600060068260405161120b9190611631565b908152604051908190036020019020546001600160a01b031692915050565b6000818361124b5760405162461bcd60e51b815260040161039d9190611727565b5060006112588486611855565b95945050505050565b600081848411156112855760405162461bcd60e51b815260040161039d9190611727565b5060006112588486611894565b82805461129e906118db565b90600052602060002090601f0160209004810192826112c05760008555611306565b82601f106112d957805160ff1916838001178555611306565b82800160010185558215611306579182015b828111156113065782518255916020019190600101906112eb565b50611312929150611316565b5090565b5b808211156113125760008155600101611317565b80356001600160a01b038116811461134257600080fd5b919050565b600082601f830112611357578081fd5b813567ffffffffffffffff8082111561137257611372611947565b604051601f8301601f19908116603f0116810190828211818310171561139a5761139a611947565b816040528381528660208588010111156113b2578485fd5b8360208701602083013792830160200193909352509392505050565b6000602082840312156113df578081fd5b6110d28261132b565b600080604083850312156113fa578081fd5b6114038361132b565b9150602083013567ffffffffffffffff81111561141e578182fd5b61142a85828601611347565b9150509250929050565b600060208284031215611445578081fd5b815180151581146110d2578182fd5b600060208284031215611465578081fd5b5035919050565b6000806040838503121561147e578182fd5b8235915061148e6020840161132b565b90509250929050565b6000602082840312156114a8578081fd5b813567ffffffffffffffff8111156114be578182fd5b6114ca84828501611347565b949350505050565b6000806000606084860312156114e6578081fd5b833567ffffffffffffffff808211156114fd578283fd5b61150987838801611347565b9450602086013591508082111561151e578283fd5b5061152b86828701611347565b92505061153a6040850161132b565b90509250925092565b600060208284031215611554578081fd5b5051919050565b60008060008060808587031215611570578081fd5b843593506115806020860161132b565b9250604085013567ffffffffffffffff8082111561159c578283fd5b6115a888838901611347565b935060608701359150808211156115bd578283fd5b506115ca87828801611347565b91505092959194509250565b600080604083850312156115e8578182fd5b82359150602083013567ffffffffffffffff81111561141e578182fd5b6000815180845261161d8160208601602086016118ab565b601f01601f19169290920160200192915050565b600082516116438184602087016118ab565b9190910192915050565b60018060a01b038516815283602082015282604082015260806060820152600061070d6080830184611605565b60006020808301818452808551808352604092508286019150828160051b870101848801865b8381101561171957603f19898403018552815160a08151855288820151818a8701526116ce82870182611605565b91505087820151858203898701526116e68282611605565b606084810151908801526080938401516001600160a01b03169390960192909252505093860193908601906001016116a0565b509098975050505050505050565b6020815260006110d26020830184611605565b6000602080835281845483600182811c91508083168061175b57607f831692505b85831081141561177957634e487b7160e01b87526022600452602487fd5b87860183815260200181801561179657600181146117a7576117d1565b60ff198616825287820196506117d1565b60008b815260209020895b868110156117cb578154848201529085019089016117b2565b83019750505b50949998505050505050505050565b6020808252603e908201527f5853796e45786368616e67653a204f6e6c7920417574686f72697a656420576160408201527f6c6c65742063616e20706572666f722074686973206f7065726174696f6e0000606082015260800190565b6000821982111561185057611850611931565b500190565b60008261187057634e487b7160e01b81526012600452602481fd5b500490565b600081600019048311821515161561188f5761188f611931565b500290565b6000828210156118a6576118a6611931565b500390565b60005b838110156118c65781810151838201526020016118ae565b838111156118d5576000848401525b50505050565b600181811c908216806118ef57607f821691505b6020821081141561191057634e487b7160e01b600052602260045260246000fd5b50919050565b600060001982141561192a5761192a611931565b5060010190565b634e487b7160e01b600052601160045260246000fd5b634e487b7160e01b600052604160045260246000fdfea264697066735822122093304a2b6fcb2e84686e66842fab332f42759709ecd91582de868235a996b55564736f6c63430008040033",
  "linkReferences": {},
  "deployedLinkReferences": {}
}