{
  "_format": "hh-sol-artifact-1",
  "contractName": "XSynExchange",
  "sourceName": "contracts/XSynExchange.sol",
  "abi": [
    {
      "inputs": [],
      "stateMutability": "nonpayable",
      "type": "constructor"
    },
    {
      "anonymous": false,
      "inputs": [
        {
          "indexed": false,
          "internalType": "bytes32",
          "name": "name",
          "type": "bytes32"
        },
        {
          "indexed": false,
          "internalType": "address",
          "name": "destination",
          "type": "address"
        }
      ],
      "name": "CacheUpdated",
      "type": "event"
    },
    {
      "anonymous": false,
      "inputs": [
        {
          "indexed": false,
          "internalType": "uint256",
          "name": "amount",
          "type": "uint256"
        }
      ],
      "name": "MinimumDepositAmountUpdated",
      "type": "event"
    },
    {
      "anonymous": false,
      "inputs": [
        {
          "indexed": false,
          "internalType": "address",
          "name": "_user",
          "type": "address"
        },
        {
          "indexed": false,
          "internalType": "uint256",
          "name": "_xdusdAmt",
          "type": "uint256"
        },
        {
          "indexed": false,
          "internalType": "uint256",
          "name": "_synthsToMint",
          "type": "uint256"
        },
        {
          "indexed": false,
          "internalType": "string",
          "name": "_wprefixSynth",
          "type": "string"
        }
      ],
      "name": "updatedebt",
      "type": "event"
    },
    {
      "inputs": [],
      "name": "CONTRACTNAME",
      "outputs": [
        {
          "internalType": "string",
          "name": "",
          "type": "string"
        }
      ],
      "stateMutability": "view",
      "type": "function"
    },
    {
      "inputs": [],
      "name": "CONTRACT_NAME",
      "outputs": [
        {
          "internalType": "string",
          "name": "",
          "type": "string"
        }
      ],
      "stateMutability": "view",
      "type": "function"
    },
    {
      "inputs": [],
      "name": "_owner",
      "outputs": [
        {
          "internalType": "address",
          "name": "",
          "type": "address"
        }
      ],
      "stateMutability": "view",
      "type": "function"
    },
    {
      "inputs": [
        {
          "internalType": "bytes32",
          "name": "",
          "type": "bytes32"
        }
      ],
      "name": "addressCache",
      "outputs": [
        {
          "internalType": "address",
          "name": "",
          "type": "address"
        }
      ],
      "stateMutability": "view",
      "type": "function"
    },
    {
      "inputs": [
        {
          "internalType": "uint256",
          "name": "_units",
          "type": "uint256"
        },
        {
          "internalType": "string",
          "name": "_symbol",
          "type": "string"
        }
      ],
      "name": "calculateUnits",
      "outputs": [
        {
          "internalType": "uint256",
          "name": "",
          "type": "uint256"
        }
      ],
      "stateMutability": "view",
      "type": "function"
    },
    {
      "inputs": [],
      "name": "contractOwner",
      "outputs": [
        {
          "internalType": "address",
          "name": "",
          "type": "address"
        }
      ],
      "stateMutability": "view",
      "type": "function"
    },
    {
      "inputs": [
        {
          "internalType": "uint256",
          "name": "_amount",
          "type": "uint256"
        },
        {
          "internalType": "address",
          "name": "_preferredSynthAddress",
          "type": "address"
        },
        {
          "internalType": "string",
          "name": "_woprefixSynth",
          "type": "string"
        },
        {
          "internalType": "string",
          "name": "_wprefixSynth",
          "type": "string"
        }
      ],
      "name": "exchangeXDUSDForSynths",
      "outputs": [
        {
          "internalType": "uint256",
          "name": "",
          "type": "uint256"
        }
      ],
      "stateMutability": "nonpayable",
      "type": "function"
    },
    {
      "inputs": [
        {
          "internalType": "address",
          "name": "",
          "type": "address"
        },
        {
          "internalType": "string",
          "name": "",
          "type": "string"
        }
      ],
      "name": "exchanges",
      "outputs": [
        {
          "internalType": "address",
          "name": "user",
          "type": "address"
        },
        {
          "internalType": "uint256",
          "name": "xdUsdDeposit",
          "type": "uint256"
        },
        {
          "internalType": "uint256",
          "name": "synthsExchanged",
          "type": "uint256"
        },
        {
          "internalType": "address",
          "name": "currencyAddress",
          "type": "address"
        },
        {
          "internalType": "uint256",
          "name": "exchangedOn",
          "type": "uint256"
        }
      ],
      "stateMutability": "view",
      "type": "function"
    },
    {
      "inputs": [
        {
          "internalType": "bytes32",
          "name": "_name",
          "type": "bytes32"
        }
      ],
      "name": "fetchAddress",
      "outputs": [
        {
          "internalType": "address",
          "name": "",
          "type": "address"
        }
      ],
      "stateMutability": "view",
      "type": "function"
    },
    {
      "inputs": [],
      "name": "fetchPrices",
      "outputs": [
        {
          "components": [
            {
              "internalType": "uint256",
              "name": "_tokenId",
              "type": "uint256"
            },
            {
              "internalType": "string",
              "name": "Symbol",
              "type": "string"
            },
            {
              "internalType": "string",
              "name": "woPrefix",
              "type": "string"
            },
            {
              "internalType": "uint256",
              "name": "currentprice",
              "type": "uint256"
            },
            {
              "internalType": "address",
              "name": "TokenAddress",
              "type": "address"
            }
          ],
          "internalType": "struct XSynExchange.SupportTokens[]",
          "name": "",
          "type": "tuple[]"
        }
      ],
      "stateMutability": "view",
      "type": "function"
    },
    {
      "inputs": [],
      "name": "minimumXDUSDDepositAmount",
      "outputs": [
        {
          "internalType": "uint256",
          "name": "",
          "type": "uint256"
        }
      ],
      "stateMutability": "view",
      "type": "function"
    },
    {
      "inputs": [
        {
          "internalType": "address",
          "name": "",
          "type": "address"
        }
      ],
      "name": "mintr",
      "outputs": [
        {
          "internalType": "uint256",
          "name": "",
          "type": "uint256"
        }
      ],
      "stateMutability": "view",
      "type": "function"
    },
    {
      "inputs": [
        {
          "internalType": "bytes32",
          "name": "_name",
          "type": "bytes32"
        }
      ],
      "name": "requireAndGetAddress",
      "outputs": [
        {
          "internalType": "address",
          "name": "",
          "type": "address"
        }
      ],
      "stateMutability": "view",
      "type": "function"
    },
    {
      "inputs": [
        {
          "internalType": "uint256",
          "name": "_minDeposit",
          "type": "uint256"
        }
      ],
      "name": "setMinDepositForXDUSD",
      "outputs": [],
      "stateMutability": "nonpayable",
      "type": "function"
    },
    {
      "inputs": [
        {
          "internalType": "string",
          "name": "",
          "type": "string"
        }
      ],
      "name": "supportedAddress",
      "outputs": [
        {
          "internalType": "address",
          "name": "",
          "type": "address"
        }
      ],
      "stateMutability": "view",
      "type": "function"
    },
    {
      "inputs": [
        {
          "internalType": "bytes32",
          "name": "_name",
          "type": "bytes32"
        },
        {
          "internalType": "address",
          "name": "_destination",
          "type": "address"
        }
      ],
      "name": "updateCache",
      "outputs": [],
      "stateMutability": "nonpayable",
      "type": "function"
    },
    {
      "inputs": [
        {
          "internalType": "string",
          "name": "_name",
          "type": "string"
        },
        {
          "internalType": "string",
          "name": "_woPrefix",
          "type": "string"
        },
        {
          "internalType": "address",
          "name": "_destination",
          "type": "address"
        }
      ],
      "name": "updateSupportedTokens",
      "outputs": [],
      "stateMutability": "nonpayable",
      "type": "function"
    }
  ],
  "bytecode": "0x6080604052670de0b6b3a764000060055534801561001c57600080fd5b5060018054336001600160a01b031991821681179092556004805490911690911790556100546002610059602090811b610bca17901c565b610062565b80546001019055565b6118fa806100716000396000f3fe608060405234801561001057600080fd5b506004361061010b5760003560e01c8063b2bdfa7b116100a2578063ce606ee011610071578063ce606ee0146102d9578063d6ea7b3b146102ec578063dc675a651461030c578063f187574414610335578063f1efc5d91461036057600080fd5b8063b2bdfa7b1461027d578063b7eeefd714610290578063c2e7df21146101de578063c5460d84146102c457600080fd5b8063614d08f8116100de578063614d08f81461020957806388a842eb146102445780639671e28014610257578063aeb5ff371461026a57600080fd5b80630307e5f31461011057806326df05401461012c5780632ebb547f1461014157806346bcb49d146101de575b600080fd5b61011960055481565b6040519081526020015b60405180910390f35b61013f61013a366004611458565b610373565b005b6101a761014f36600461136e565b60086020908152600092835260409092208151808301840180519281529084019290930191909120915280546001820154600283015460038401546004909401546001600160a01b0393841694929391929091169085565b604080516001600160a01b03968716815260208101959095528401929092529092166060820152608081019190915260a001610123565b6101f16101ec3660046113da565b6104b1565b6040516001600160a01b039091168152602001610123565b6102376040518060400160405280600f81526020016e20b2323932b9b9a932b9b7b63b32b960891b81525081565b60405161012391906116ad565b61013f6102523660046113da565b61052b565b6101196102653660046114e1565b610590565b61011961027836600461155c565b610717565b6001546101f1906001600160a01b031681565b6101f161029e36600461141d565b80516020818301810180516006825292820191909301209152546001600160a01b031681565b6102cc6107bb565b6040516101239190611600565b6004546101f1906001600160a01b031681565b6101196102fa366004611354565b60036020526000908152604090205481565b6101f161031a3660046113da565b6000602081905290815260409020546001600160a01b031681565b6102376040518060400160405280600c81526020016b5853796e45786368616e676560a01b81525081565b61013f61036e3660046113f2565b610b14565b6004546001600160a01b031633146103a65760405162461bcd60e51b815260040161039d90611766565b60405180910390fd5b60006103b160025490565b90506103c1600280546001019055565b6040805160a08101825282815260208082018781528284018790526000606084018190526001600160a01b03871660808501528581526007835293909320825181559251805192939261041a9260018501920190611218565b5060408201518051610436916002840191602090910190611218565b5060608201516003820155608090910151600490910180546001600160a01b0319166001600160a01b03909216919091179055604051829060069061047c9087906115b7565b90815260405190819003602001902080546001600160a01b03929092166001600160a01b031990921691909117905550505050565b60008181526020818152604080832054905170026b4b9b9b4b7339030b2323932b9b99d1607d1b92810192909252603182018490526001600160a01b03169081151590605101604051602081830303815290604052906105245760405162461bcd60e51b815260040161039d91906116ad565b5092915050565b6004546001600160a01b031633146105555760405162461bcd60e51b815260040161039d90611766565b60058190556040518181527fa39eacd162ee82c70b2b030a1bc8fe89adcccc61122fad4821a8772dbcc542679060200160405180910390a150565b60006005548510156106035760405162461bcd60e51b815260206004820152603660248201527f584455534420616d6f756e742053686f756c64206265206d696e696d756d58446044820152751554d111195c1bdcda5d105b5bdd5b9d081b1a5b5a5d60521b606482015260840161039d565b6106533360066040518060400160405280600581526020016416111554d160da1b81525060405161063491906115b7565b908152604051908190036020019020546001600160a01b031687610bd3565b6106a33360066040518060400160405280600581526020016416111554d160da1b81525060405161068491906115b7565b908152604051908190036020019020546001600160a01b031687610cb6565b60006106af8685610717565b90506107008660066040518060400160405280600581526020016416111554d160da1b8152506040516106e291906115b7565b908152604051908190036020019020546001600160a01b0316610d94565b61070d8187878688610e1a565b9695505050505050565b600080610722611041565b6001600160a01b031663a40b18c2846040518263ffffffff1660e01b815260040161074d91906116ad565b60206040518083038186803b15801561076557600080fd5b505afa158015610779573d6000803e3d6000fd5b505050506040513d601f19601f8201168201806040525081019061079d91906114c9565b905060006107ad82612710611095565b9050600061070d8683611095565b606060006107d360016107cd60025490565b906110de565b90506000808267ffffffffffffffff8111156107ff57634e487b7160e01b600052604160045260246000fd5b60405190808252806020026020018201604052801561086b57816020015b6108586040518060a001604052806000815260200160608152602001606081526020016000815260200160006001600160a01b031681525090565b81526020019060019003908161081d5790505b50905060005b83811015610b0c5760006108868260016117c3565b90506000600760008381526020019081526020016000209050806040518060a0016040529081600082015481526020016001820180546108c590611842565b80601f01602080910402602001604051908101604052809291908181526020018280546108f190611842565b801561093e5780601f106109135761010080835404028352916020019161093e565b820191906000526020600020905b81548152906001019060200180831161092157829003601f168201915b5050505050815260200160028201805461095790611842565b80601f016020809104026020016040519081016040528092919081815260200182805461098390611842565b80156109d05780601f106109a5576101008083540402835291602001916109d0565b820191906000526020600020905b8154815290600101906020018083116109b357829003601f168201915b5050509183525050600382015460208201526004909101546001600160a01b03166040909101528451859087908110610a1957634e487b7160e01b600052603260045260246000fd5b60200260200101819052506000610a2e611041565b6001600160a01b031663a40b18c2836002016040518263ffffffff1660e01b8152600401610a5c91906116c0565b60206040518083038186803b158015610a7457600080fd5b505afa158015610a88573d6000803e3d6000fd5b505050506040513d601f19601f82011682018060405250810190610aac91906114c9565b9050610aba612710826117db565b858781518110610ada57634e487b7160e01b600052603260045260246000fd5b602090810291909101015160600152610af46001876117c3565b95505050508080610b049061187d565b915050610871565b509392505050565b6001546001600160a01b03163314610b665760405162461bcd60e51b81526020600482015260156024820152746f6e6c79206f776e65722063616e2075706461746560581b604482015260640161039d565b6000828152602081815260409182902080546001600160a01b0319166001600160a01b0385169081179091558251858152918201527f88a93678a3692f6789d9546fc621bf7234b101ddb7d4fe479455112831b8aa68910160405180910390a15050565b80546001019055565b6040516370a0823160e01b81526001600160a01b0384811660048301528291908416906370a082319060240160206040518083038186803b158015610c1757600080fd5b505afa158015610c2b573d6000803e3d6000fd5b505050506040513d601f19601f82011682018060405250810190610c4f91906114c9565b1015610cb15760405162461bcd60e51b815260206004820152602b60248201527f5852433230476174657761793a20696e73756666696369656e7420637572726560448201526a6e63792062616c616e636560a81b606482015260840161039d565b505050565b604051636eb1769f60e11b81526001600160a01b03848116600483015230602483015282919084169063dd62ed3e9060440160206040518083038186803b158015610d0057600080fd5b505afa158015610d14573d6000803e3d6000fd5b505050506040513d601f19601f82011682018060405250810190610d3891906114c9565b1015610cb15760405162461bcd60e51b815260206004820152602560248201527f5852433230476174657761793a20696e73756666696369656e7420616c6c6f7760448201526430b731b29760d91b606482015260840161039d565b6040516323b872dd60e01b8152336004820152306024820152604481018390526001600160a01b038216906323b872dd90606401602060405180830381600087803b158015610de257600080fd5b505af1158015610df6573d6000803e3d6000fd5b505050506040513d601f19601f82011682018060405250810190610cb191906113ba565b336000908152600860205260408082209051829190610e3a9086906115b7565b908152604080516020928190038301812060a08201835280546001600160a01b03908116835260018201549483018590526002820154938301939093526003810154909216606082015260049091015460808201529150600090610e9e9088611120565b90506000610eb989846040015161112090919063ffffffff16565b6040805160a0810182523380825260208083018790528284018590526001600160a01b038c166060840152426080840152600091825260089052829020915192935091610f079089906115b7565b9081526040805160209281900383019020835181546001600160a01b03199081166001600160a01b039283161783559385015160018301559184015160028201556060840151600382018054909416921691909117909155608090910151600490910155610f748661117f565b6040516340c10f1960e01b8152336004820152602481018b90526001600160a01b0391909116906340c10f1990604401602060405180830381600087803b158015610fbe57600080fd5b505af1158015610fd2573d6000803e3d6000fd5b505050506040513d601f19601f82011682018060405250810190610ff691906113ba565b507f47100f00640ae8015934184e269ba71e299d3b1202b74f06cb441584803cbd6d33898b8860405161102c94939291906115d3565b60405180910390a15096979650505050505050565b600060066040518060400160405280600c81526020016b45584348414e47455241544560a01b81525060405161107791906115b7565b908152604051908190036020019020546001600160a01b0316919050565b60006110d783836040518060400160405280601a81526020017f536166654d6174683a206469766973696f6e206279207a65726f0000000000008152506111b0565b9392505050565b60006110d783836040518060400160405280601e81526020017f536166654d6174683a207375627472616374696f6e206f766572666c6f7700008152506111e7565b60008061112d83856117c3565b9050838110156110d75760405162461bcd60e51b815260206004820152601b60248201527f536166654d6174683a206164646974696f6e206f766572666c6f770000000000604482015260640161039d565b600060068260405161119191906115b7565b908152604051908190036020019020546001600160a01b031692915050565b600081836111d15760405162461bcd60e51b815260040161039d91906116ad565b5060006111de84866117db565b95945050505050565b6000818484111561120b5760405162461bcd60e51b815260040161039d91906116ad565b5060006111de84866117fb565b82805461122490611842565b90600052602060002090601f016020900481019282611246576000855561128c565b82601f1061125f57805160ff191683800117855561128c565b8280016001018555821561128c579182015b8281111561128c578251825591602001919060010190611271565b5061129892915061129c565b5090565b5b80821115611298576000815560010161129d565b80356001600160a01b03811681146112c857600080fd5b919050565b600082601f8301126112dd578081fd5b813567ffffffffffffffff808211156112f8576112f86118ae565b604051601f8301601f19908116603f01168101908282118183101715611320576113206118ae565b81604052838152866020858801011115611338578485fd5b8360208701602083013792830160200193909352509392505050565b600060208284031215611365578081fd5b6110d7826112b1565b60008060408385031215611380578081fd5b611389836112b1565b9150602083013567ffffffffffffffff8111156113a4578182fd5b6113b0858286016112cd565b9150509250929050565b6000602082840312156113cb578081fd5b815180151581146110d7578182fd5b6000602082840312156113eb578081fd5b5035919050565b60008060408385031215611404578182fd5b82359150611414602084016112b1565b90509250929050565b60006020828403121561142e578081fd5b813567ffffffffffffffff811115611444578182fd5b611450848285016112cd565b949350505050565b60008060006060848603121561146c578081fd5b833567ffffffffffffffff80821115611483578283fd5b61148f878388016112cd565b945060208601359150808211156114a4578283fd5b506114b1868287016112cd565b9250506114c0604085016112b1565b90509250925092565b6000602082840312156114da578081fd5b5051919050565b600080600080608085870312156114f6578081fd5b84359350611506602086016112b1565b9250604085013567ffffffffffffffff80821115611522578283fd5b61152e888389016112cd565b93506060870135915080821115611543578283fd5b50611550878288016112cd565b91505092959194509250565b6000806040838503121561156e578182fd5b82359150602083013567ffffffffffffffff8111156113a4578182fd5b600081518084526115a3816020860160208601611812565b601f01601f19169290920160200192915050565b600082516115c9818460208701611812565b9190910192915050565b60018060a01b038516815283602082015282604082015260806060820152600061070d608083018461158b565b60006020808301818452808551808352604092508286019150828160051b870101848801865b8381101561169f57603f19898403018552815160a08151855288820151818a8701526116548287018261158b565b915050878201518582038987015261166c828261158b565b606084810151908801526080938401516001600160a01b0316939096019290925250509386019390860190600101611626565b509098975050505050505050565b6020815260006110d7602083018461158b565b6000602080835281845483600182811c9150808316806116e157607f831692505b8583108114156116ff57634e487b7160e01b87526022600452602487fd5b87860183815260200181801561171c576001811461172d57611757565b60ff19861682528782019650611757565b60008b815260209020895b8681101561175157815484820152908501908901611738565b83019750505b50949998505050505050505050565b6020808252603e908201527f5853796e45786368616e67653a204f6e6c7920417574686f72697a656420576160408201527f6c6c65742063616e20706572666f722074686973206f7065726174696f6e0000606082015260800190565b600082198211156117d6576117d6611898565b500190565b6000826117f657634e487b7160e01b81526012600452602481fd5b500490565b60008282101561180d5761180d611898565b500390565b60005b8381101561182d578181015183820152602001611815565b8381111561183c576000848401525b50505050565b600181811c9082168061185657607f821691505b6020821081141561187757634e487b7160e01b600052602260045260246000fd5b50919050565b600060001982141561189157611891611898565b5060010190565b634e487b7160e01b600052601160045260246000fd5b634e487b7160e01b600052604160045260246000fdfea264697066735822122068326d35b64594744ed56da6c68f7ec9cb1e0a59260cf8dfa5a5f526227ce64164736f6c63430008040033",
  "linkReferences": {},
  "deployedLinkReferences": {}
}